:020000040800F2
:10000000B0120020E1670008FF4600080147000821
:1000100003470008054700080747000800000000E4
:100020000000000000000000000000000947000878
:100030000B470008000000000D4700080F470008AC
:10004000FB670008FB670008FB670008FB67000808
:10005000FB670008FB670008FB670008FB670008F8
:100060008D450008FB670008FB670008FB67000878
:10007000FB670008FB670008FB670008FB670008D8
:10008000FB670008FB670008FB670008FB670008C8
:10009000FB670008FB670008FB670008D545000800
:1000A000FB670008FB670008FB670008FB670008A8
:1000B000FB670008BB460008FB670008FB670008F9
:1000C000FB670008FB670008FB670008FB67000888
:1000D000FB670008FB67000867460008FB6700082D
:1000E000FB670008FB670008FB670008FB67000868
:1000F000FB670008FB670008FB670008FB67000858
:10010000FB670008FB670008FB670008FB67000847
:10011000FB670008FB670008FB670008FB67000837
:10012000FB670008FB670008FB670008FB67000827
:1001300000F002F800F043F80AA090E8000C8244B6
:100140008344AAF10107DA4501D100F038F8AFF293
:10015000090EBAE80F0013F0010F18BFFB1A43F0A5
:1001600001031847606B0000806B0000103A24BF49
:1001700078C878C1FAD8520724BF30C830C144BF0C
:1001800004680C607047000000230024002500264E
:10019000103A28BF78C1FBD8520728BF30C148BFEA
:1001A0000B6070471FB506F039FD040000200021E8
:1001B00006F072FD401C60601FBD10B510BD06F05A
:1001C00035FD1146FFF7EEFF04F078F806F053FD19
:1001D00003B4FFF7F2FF03BC06F056FD002806D07B
:1001E0004FF4FA621146491EFDD1401EFAD1704704
:1001F00008B505F0DBFE0121102004F066FD20208B
:10020000ADF8000010208DF8030003208DF80200E7
:100210006946314804F071FB08BDF0B595B00E4653
:1002200007465021684606F053FC2B4D20212846F6
:1002300004F0CDFB4FF47A70FFF7D0FF384606F09C
:10024000D7FB84B2FD208DF8000000208DF801005E
:10025000A01C8DF8020001208DF803008DF8040029
:10026000224639460DF1050006F0EDFB641DA1B2F2
:10027000684605F0FCFE3046FFF7B0FF2021284617
:1002800004F0A7FB40F2AD3005F01CFD15B0F0BD49
:1002900010B5044600F09EFC2046BDE8104044F630
:1002A0002061BAE748F6B801B7E710B50B46044637
:1002B0001146184600F01EFC2046BDE8104044F6EA
:1002C0002061AAE710B5044600F084FC2046BDE892
:1002D000104044F62061A0E70010014008B506F088
:1002E00023F90121102004F0F0FC1020ADF80000EB
:1002F0008DF8030003208DF802006946C44804F01D
:10030000FCFA08BD2DE9F041064688460124104656
:1003100000F060FC40F2AD3500F037F907462846A2
:1003200005F0D0FC002F73D040F24A342246B9A128
:10033000B9A006F065F900286CD0284605F0C2FC8B
:100340002246B4A1B6A006F05BF9002862D0284688
:1003500005F0B8FC2246B7A1B9A006F051F9002873
:1003600058D0284605F0AEFC40F25E342246A9A1E2
:10037000B6A006F045F900284CD0284605F0A2FCAE
:100380002A46A4A1B8A006F03BF9002842D028468E
:1003900005F098FC22469FA1B7A006F031F900288D
:1003A00038D0284605F08EFC22469AA1B6A006F069
:1003B00027F900282ED0284605F084FC224695A176
:1003C000B5A006F01DF9002824D0284605F07AFCD7
:1003D000B6A1BB4806F0E8FA3146B94806F027FB5B
:1003E000B8A1B74806F023FB4146B54806F01FFB0D
:1003F000ADA1B34806F01BFB2A46B3A1B04806F0F6
:10040000FFF8002806D02846BDE8F04105F05ABCA8
:10041000002C81D1BDE8F08170B505460C46AC4892
:1004200006F0E6FA0146AA4805F0B7FFA949002000
:1004300008602146284606F0C9F8BDE8704014203F
:1004400005F040BC10B50B460021A14A02E0545C07
:100450004454491C9942FAD3002444549C4806F061
:10046000C7FA01469A4805F098FF9A48046010BD03
:100470002DE9FF5F1F4692468B460025954E40F2C0
:1004800055184FF4167926E0584606F0B1FA0146A1
:100490005846FFF7C1FF6D1CEDB20024306898B1DB
:1004A000404605F00FFC5146894806F06BFA58B1FA
:1004B0000E99009805F071FF31680098FFF7C2FFB0
:1004C000012004B0BDE8F09F484605F0FBFB641C2A
:1004D000E4B2142CE2D3BD42D6DB0020F1E7F0B544
:1004E0008FB0044600254FF47A776D1CEDB23A4682
:1004F00048A179A006F084F8012803D0032DF4D395
:1005000005F0F7FB00263D46761CF6B22A4673A19D
:1005100073A006F075F8012803D0032EF4D305F07C
:10052000E8FB3221684605F038FF6A4801686846F2
:10053000FFF788FF00236E4601E05B1CDBB2F05C36
:100540003A28FAD15B1CDBB2F05C2028FAD10021FA
:100550005B1CD8B204E0401C6254491CC0B2C9B252
:10056000325C2C2AF7D1002121542A4629A15FA010
:1005700006F046F808B905F0BCFB21460DA806F0C8
:10058000A4F99DF834000FB0F0BD2DE9F0415949B0
:10059000012008701E4D1021284604F01AFA00248C
:1005A00040F25517384605F08DFB641CE4B2052C6B
:1005B000F8D31021284604F00AFA0024384605F042
:1005C00081FB641CE4B2052CF8D30025414EA846FB
:1005D00000243068002838460AD005F073FB1E2C32
:1005E0000FD245A13A4806F0CDF940B1012011E7FC
:1005F00005F068FB641CE4B21E2CEAD301E0C6F8E7
:1006000000806D1CEDB2122DE2D3002002E7000045
:10061000001001404F4B000041540D0A0000000043
:1006200041542B4950523D3131353230303B265701
:10063000200D0A002B43475245473A20302C310009
:1006400041542B43475245473F0D0A0041542B4329
:100650004744434F4E543D312C224950222C2243D3
:100660004D4E4554220D0A0041542B4347414354FB
:100670003D312C31200D0A0041542B434D4D55582E
:100680003D300D0A0000000041542B434D4D4F44B6
:10069000453D310D0A00000041542B434D54434663
:1006A000473D312C313032340D0A000041542B4982
:1006B0005053544152543D22544350222C220000A6
:1006C0004C000020222C0000434F4E4E4543540066
:1006D0000A080020340000202B2B2B00435351002C
:1006E00041542B4353510D0A0000000041544F0D5B
:1006F0000A0000000100002043545A560000000088
:1007000005F0D0BC2DE9F04116460F46044625E021
:100710002546641CA4B205F0FFFC280AA02101EBC9
:100720004000C0B205F09FFD05F070FDE8B205F095
:100730009AFD05F06BFD05F0EFFCA12005F093FD9F
:1007400005F064FD002005F0BBFD054605F040FD09
:1007500005F001FD761E07F8015BB6B2002ED7D179
:10076000BDE8F0812DE9F04115460E46044623E030
:100770000120F5E7377805F0CFFC200AA02101EB36
:100780004000C0B205F06FFD05F040FD0028EFD13C
:10079000E0B205F068FD05F039FD0028E8D13846E3
:1007A00005F061FD05F032FD05F0D5FC0A2005F0ED
:1007B00089FA641CA4B2761C28466D1EADB2D9D24B
:1007C000CEE700B5D3B050213FA806F081F9FA2258
:1007D00069460520FFF796FF252269463FA805F0E8
:1007E000A3FD002269461B483F9B05F0C9FDDDE9DA
:1007F0003F23184869461430521C05F0C1FDDDE95D
:100800004023144869462D30521C05F0B9FDDDE93E
:100810004123104869463230521C05F0B1FDDDE934
:1008200042230C4869462838521C05F0A9FDDDE931
:100830004323084869460A38521C05F0A1FDDDE94A
:100840004423044869463730521C05F099FD53B0E3
:1008500000BD0000C40000202DE9F047044632210D
:10086000584805F09AFD57483221323805F095FD79
:1008700055A1544806F098F856A1524806F0D7F80A
:100880002146504806F0D3F855A14E4806F0CFF85F
:100890004C49A1F1320006F087F80025514E2F4651
:1008A00040F255184FF41679642005F00BFA4548CC
:1008B000323806F09DF8014642483238FFF7ACFD69
:1008C0006D1CEDB20024306868B1404605F0FAF9BD
:1008D00045A1464806F056F828B1642005F0F2F923
:1008E000142C0AD306E0484605F0ECF9641CE4B287
:1008F000142CE8D3032DD7D32FB1BDE8F04707213F
:100900003BA0FFF789BDBDE8F04705F0F2B92DE93E
:10091000F04732212B4805F040FD2A483221323879
:1009200005F03BFD28A1274806F03EF8324925484E
:1009300006F07DF831A1234806F079F828A1214876
:1009400006F075F81F49A1F1320006F02DF80025D8
:10095000244E2F4640F255184FF416791948323874
:1009600006F046F8014617483238FFF755FD6D1C72
:10097000EDB20024306868B1404605F0A3F91AA131
:100980001A4805F0FFFF28B1642005F09BF9142CEC
:100990000AD306E0484605F095F9641CE4B2142C2D
:1009A000E8D3032DDAD327B1072111A0FFF734FDD7
:1009B00004E013A0FFF786FC05F09BF9BDE8F047C3
:1009C00002F058BA5D0100205453656E6468656199
:1009D0007274250046697273744865617274000010
:1009E00025242400340000204B0000000A080020C9
:1009F00048656172744F4B00C400002076350000DA
:100A0000B6A8CAB1C6F7CED5CAD6CAA7B0DCA3ACC1
:100A1000C7EBB5C8BAF2000005F0D0BC10B505F0C0
:100A200018FD0321BDE81040FF2005F024BD70B57E
:100A30001C461646054605F0B7FF3146284605F028
:100A4000F6FF3CB1ABA1284605F0F1FF2846BDE812
:100A50007040E3E7A9A1F6E7411E042901D8A9A047
:100A600014E0811F052901D8A9A00FE0A0F10C0115
:100A7000052901D8A9A009E0A0F11201052901D892
:100A8000A9A003E018380728E9D8AAA0C6E710B53E
:100A90000020FFF7E1FFAAA0FFF7C0FFBDE810406C
:100AA000A9A0BBE7411E042901D896A014E0811F2C
:100AB000052901D896A00FE0A0F10C01052901D865
:100AC00096A009E0A0F11201052901D896A003E043
:100AD0001838072801D897A0A0E7704710B5A2A042
:100AE000FFF79CFFA2480078FFF7DCFFBDE810404D
:100AF000A0A093E770B58EB00D4606463221684639
:100B000005F04BFC98A0FFF789FF994C2078FFF780
:100B1000C9FF2B4632469DA16846FFF788FF0EB0FD
:100B200070BD2DE9F0478EB0074616A80C4690E838
:100B3000000716461D463421684605F0C9FF99A0F6
:100B4000FFF76CFF8A480078FFF7ACFF3A4697A1A1
:100B5000684600F0BEF8BAF1010F2ED096A0FFF75C
:100B60005DFF98A0FFF75AFF3221684605F015FC9B
:100B7000224697A1684600F0ACF83221684605F09D
:100B80000CFC324695A1684600F0A3F83221684675
:100B900005F003FC4B462A4693A16846FFF747FF42
:100BA0003221684605F0F9FB4246012391A16846CF
:100BB000FFF73DFF0EB0BDE8F08791A0FFF72EFFD5
:100BC00092A0FFF72BFF3221684605F0E6FB224694
:100BD00091A1CFE710B58EB004463421684605F0E8
:100BE00077FF61A0FFF71AFF61490878FFF75AFF06
:100BF00022467AA1684600F06CF80EB010BD10B520
:100C000088A0FFF70BFF5A480078BDE8104049E77D
:100C100010B555A0FFF702FF55480078FFF742FFD7
:100C2000BDE8104081A0F9E610B58EB0044632212F
:100C3000684605F0B2FB82A0FFF7F0FE4C48007852
:100C4000FFF730FF04F128027FA1684600F041F869
:100C500004F13C027FA1684600F03BF822465CA10B
:100C6000684600F036F804F11E027DA1684600F0E7
:100C700030F804F155025FA1684600F02AF804F14B
:100C80005A027AA1684600F024F804F18B027AA196
:100C9000684600F01EF8B0E710B59AB0044664212B
:100CA000684605F07AFB26A0FFF7B8FE30490878C1
:100CB000FFF7F8FE224673A1684600F00AF81AB062
:100CC00010BD10B528A0FFF7A9FEBDE8104076A022
:100CD000A4E670B51546044605F066FE2946204692
:100CE00005F0A5FE77A1204605F0A1FE2046BDE84F
:100CF000704093E620B6D6220000000020D4AA223D
:100D00000000000070312E7069633D31300000003A
:100D100070312E7069633D313100000070312E70EA
:100D200069633D313200000070312E7069633D31DE
:100D30003300000070312E7069633D3134000000D3
:100D4000706167652030000074302E7478743D2225
:100D5000CDF8C2E7B3F5CABCBBAFD6D0A1A3A1A35F
:100D6000A1A3A1A3220000007061676520310000EB
:100D70000000002074302E7478743D22C1ACBDD3C5
:100D8000B3C9B9A6A3A1A3A12200000074302E7498
:100D900078743D22C4FAD2D1B3C9B9A6B3E4D6B5AA
:100DA00020000000706167652034000074342E74E8
:100DB00078743D22000000007669732067312C3082
:100DC000000000007669732074352C3100000000AB
:100DD00074352E7478743D220000000074302E7437
:100DE00078743D220000000074362E7478743D2221
:100DF0000000000074392E7478743D220000000059
:100E00007669732067312C31000000007669732009
:100E100074352C300000000067312E7478743D2248
:100E200000000000706167652032000074302E748D
:100E300078743D22B8FCB8C4B3C9B9A6220000003A
:100E4000706167652033000074312E7478743D2220
:100E50000000000074332E7478743D2200000000FE
:100E600074372E7478743D22000000007431312EE6
:100E70007478743D220000007431332E7478743D10
:100E8000220000007172302E7478743D22687474F0
:100E9000703A2F2F77656978696E2E71712E636FA6
:100EA0006D2F722F0000000074302E7478743D2274
:100EB000D3B2BCFECECACCE22CC1AACFB5B3A7BC7C
:100EC000D22200002022000038B50C46054604F06E
:100ED00027FF0121082003F0F8FE2022ADF80020B2
:100EE00010228DF8032003208DF802006946FE4889
:100EF00003F003FD21462846BDE8384002F02AB839
:100F000000B58DB0142108A805F0E2FD2022694645
:100F1000052002F0C3F82522694608A805F004FA66
:100F2000642004F0CFFE08980A2809D109981F28E8
:100F300006D1202269460520FFF714FC002800D0C6
:100F400001200DB000BD1CB505226946252002F028
:100F5000A5F8642004F0B6FE052269462520FFF7B7
:100F600001FC002800D001201CBD1CB505226946EB
:100F70002A2002F093F8642004F0A4FE05226946BA
:100F80002A20FFF7EFFB002800D001201CBD00B590
:100F900087B0162269462F2002F080F8642004F002
:100FA00091FE162269462F20FFF7DCFB002800D0B7
:100FB000012007B000BD00B587B015226946452065
:100FC00002F06CF8642004F07DFE1522694645208D
:100FD000FFF7C8FB0028ECD00120EAE72DE9F04F2D
:100FE000C24C87B005464FF00008C4F8048084F86E
:100FF0000080BF4808222946019005F011FCBC483A
:101000000822D2300199029005F021FCB848691DF0
:101010000F300622054605F003FCB5482946E130AD
:101020000622054605F013FCB148B2A1693805F067
:10103000BBFCAF48B349693805F0F9FCAC48B2A134
:10104000693805F0F4FCAA480299693805F0EFFC0C
:10105000A748ADA1693805F0EAFCA54829466938DA
:1010600005F0E5FCA248A9A1693805F0E0FCA0491B
:10107000693901F20E4005F097FCA5494FF0C80907
:101080000323A2A201F1C800CDF80090FFF7F0F908
:101090002070002865D0012860D114219D4805F0FA
:1010A00084F99B492522C8319A4805F03DF9994EAB
:1010B0000022A6F1E601A1F2C620336805F060F92E
:1010C00095A1A6F56B7005F02BFDA6F56B7505F1E6
:1010D00023070F3500284AD092A1A5F10F0005F093
:1010E0001FFD00287ED093A1A5F10F0005F018FD8B
:1010F000002878D093A1A5F10F0005F011FD00287C
:1011000072D094A1A5F10F0005F00AFD00286CD063
:1011100094A1A5F10F0005F003FD002866D095A16C
:10112000A5F10F0005F0FCFC00287DD095A1A5F1EC
:101130000F0005F0F5FC002877D095A1A5F10F0070
:1011400005F0EEFC002809D194A00522D0E900109A
:10115000CDE9001069466420FFF704FB07B0BDE845
:10116000F08F90A0FFF7AEF804F0C3FDF6E7D6E9E4
:10117000002367492846C831521C05F001F9D6E919
:10118000012363493846C831521C05F0F9F860491B
:10119000D6E90223C831A1F525700446521C05F09A
:1011A000EFF8D6E903235A49521CC831A1F5D27091
:1011B000009005F0E5F85649D6E90423C831A1F2BC
:1011C0004F108246521C05F0DBF85149D6E9052341
:1011D000C831A1F5A0708046521C05F0D1F8D6E9BF
:1011E000062304E059E1B9E1BAE1BBE1BCE14849B9
:1011F000521CC831A1F26D10834605F0C1F83C487D
:101200006FA1693805F0D0FB39482946693805F0E7
:101210000EFC37483CA1693805F009FC34483946D2
:10122000693805F004FC01E0A0E1A1E1304836A1F5
:10123000693805F0FCFB2E482146693805F0F7FBBC
:1012400003A801F03CFF082203A9019805F0E8FA81
:10125000DDE90110082205F0FAFA3846029905F096
:101260005FFC90B122485AA1693805F0E0FB2049A3
:101270002748693905F098FB254805F0B9FB014678
:101280002348FFF7C9F855A0ECE019480099FF3052
:10129000054605F089FB53485146064605F084FB98
:1012A000504841460F30044605F07EFB1048294661
:1012B0002D300222054605F0E2FA0D4801223146A2
:1012C0004B3005F0DCFA0A4802225A302146064625
:1012D00005F0D5FA064C3146693C284694F8B4200E
:1012E00001F011FF80E00000000C01401000002020
:1012F000150200205453656E64323450434944252E
:1013000000000000C4000020250000002524240067
:10131000BA050020680700205353656E64323450CC
:10132000000000005353656E643234506368656397
:101330006B0000005353656E643234506572723036
:10134000000000005353656E643234506572723190
:10135000000000005353656E64323450657272337E
:10136000000000005353656E643234506572723170
:101370003200000057656273657276696365457275
:10138000726F00005765624E6F416E737765720031
:10139000636F6D6D616E646572720000FFFFFFFF29
:1013A000FF0000003234D4A4B8B6B7D1CDA8D1B66E
:1013B000CAA7B0DCA3ACD6D8C6F4D6D000000000D3
:1013C0005453656E64323450526573756C742500E5
:1013D000254661696C25242400000000C7EBD6D89F
:1013E000CBA200003203002084F86800012816D048
:1013F000FEA0FEF767FFAFF22801204605F017FBBD
:10140000214601F20E4005F0CFFA04F20E4005F03D
:10141000EFFA014604F20E40FEF7FEFF9EE6F7A14A
:10142000F94805F004FBF84901F20E4005F0BCFA5A
:10143000F8490123F5A201F1C800CDF80090FFF7AB
:1014400017F890B10128E9D1F248F3A1C83005F0AE
:1014500067FB60B1EF48F5A1C83005F061FB0028DB
:10146000DCD1F7A0FEF72EFF78E6FAA0FAE71E21FE
:10147000FD4804F092FFFDA1FB4805F095FA59469E
:10148000F94805F0D4FAFDA1F74805F0D0FA012299
:101490005946F548FEF709FF60E6D6E90023DD4925
:1014A0002846C831521C04F06BFFD6E90123D94904
:1014B0003846C831521C04F063FFD649D6E90223EE
:1014C000C831A1F51B708246521C04F059FFD14966
:1014D000D6E90323C831A1F511708146521C04F0EE
:1014E0004FFF484605F084FA0125182801D96560A8
:1014F00001E0C4F80480C749D6E90423C831A1F546
:1015000007708046521C04F03BFFC249D6E9052310
:10151000C831A1F5FA700746521C04F031FFD6E934
:101520000623BC49521CC831A1F5E670064604F0FA
:1015300027FFB54849461C38424640F804AB3B46B5
:101540004EC06468C0E900540096CDE9015450468D
:10155000FFF7E7FACAA0FEF7A5FEFFE5D3A081E7F3
:10156000D8A07FE7DCA07DE7E1A07BE7E6A079E7F4
:10157000E9A077E72DE9F04F93B00025E94C064646
:10158000014603950495059506959F48656025706D
:1015900069300822019005F043F9E34808220199D7
:1015A000029005F054F9984806227830711D0746DC
:1015B00005F036F9DC4839460F300622074605F0BB
:1015C00046F9914806F1080187300822064605F0E1
:1015D00027F9D54831461E300822064605F037F96E
:1015E000D2A1894805F0E0F9D449874805F01FFAEF
:1015F000AFF2EC21844805F01AFA8348029905F00D
:1016000016FAAFF2FC21804805F011FA39467E48FF
:1016100005F00DFAAFF210317B4805F008FA3146BB
:10162000794805F004FA77A1774805F000FA764981
:10163000784805F0B9F977494FF0C809032371A23A
:1016400001F1C800CDF80090FEF712FF20700028CD
:101650006AD0854814211E3004F0A7FE6D4925226A
:10166000C83101F1E60004F05FFE7F4E00221E3615
:10167000A6F1E601A1F2C620336804F081FEB0A114
:10168000A6F56B7005F04CFAA6F56B7707F1230809
:10169000010007F10F074DD0ACA1A6F56B7005F066
:1016A0003FFA00287DD0ADA1A6F56B7005F038FAA1
:1016B000002877D0ADA1A6F56B7005F031FA0028AF
:1016C00071D0AEA1A6F56B7005F02AFA00286BD098
:1016D000AEA1A6F56B7005F023FA002865D0AFF235
:1016E0006C31A6F56B7005F01BFA00287CD0AFF2C8
:1016F0006C31A6F56B7005F013FA002875D0AFF2C7
:101700007031A6F56B7005F00BFA00280AD1AFF224
:101710007430D0E90010CDE900100522694664203C
:10172000FFF720F813B01AE59CA0FEF7CBFD04F0FC
:10173000E0FAF7E7D6E9002336493846C831521CAB
:1017400004F01EFED6E9012332494046C831521C3E
:1017500004F016FE2F49D6E90223C831A1F5257001
:101760000446521C04F00CFE2A49D6E90323C83172
:10177000A1F231108346521C04F002FE2549D6E93D
:101780000423C831A1F591708246521C04F0F8FD83
:101790002049D6E90523C831A1F21310521C12903A
:1017A00004E064E2C0E2C2E2C4E2C6E204F0E8FDA2
:1017B000D6E906231749521CC831A1F58270119051
:1017C00004F0DEFDD6E907231249521CC831A1F10D
:1017D000F500109004F0D4FD0E49D6E90823C83175
:1017E000A1F1E600521CE5E0AAE2ACE2B3E4D6B512
:1017F000CAA7B0DC2CC7EBD6D8CBA20025537563A3
:101800006365737325242400AC0100207570646146
:1018100074650000BA0500207570646174656F72AC
:1018200064657273746174654F4B320075706461E6
:1018300074656F7264657273746174654F4B3100C7
:10184000BDBBD2D7CEB4CADCC0EDA3ACC7EBD6D8F3
:10185000CBA20000CDA8D0C5CAA7B0DCA3ACC7EB13
:10186000D6D8CBA2000000004A070020C4FAD2D18B
:10187000B3C9B9A6B3E4D6B500000000B6D60000DF
:10188000CEA2D0C5BDC9B7D1BAF3C7EBBDABBFA817
:10189000C8A1B3F6A3ACD6D8D0C2B2E5C8EBCDEAA6
:1018A000B3C9D0B4BFA8B2D9D7F70000CEB4D6AA76
:1018B000D3C3BBA7A3ACC7EBD3AAD2B5CCFCB0ECC7
:1018C000C0ED0000C7EBCEA2D0C5D6A7B8B6BAF31C
:1018D000D4D9CBA2BFA80000CEDED0A7BFA8A3ACAE
:1018E000C7EBD3AAD2B5CCFCB0ECC0ED0000000031
:1018F000BDBBD2D7B9D8B1D5A3ACC7EBD3AAD2B5AB
:10190000CCFCB0ECC0ED0000CDF8C2E7B7FECEF1E4
:10191000CEB4BFAAC6F40000CDF8C2E7CEDECFEC4D
:10192000D3A6000010000020E70200205453656E8B
:101930006432344C4349442500000000C4000020B8
:101940005353656E6432344C000000005353656E8F
:101950006432344C636865636B0000005353656EFA
:101960006432344C65727230000000005353656E6F
:101970006432344C65727231000000005353656E5E
:101980006432344C65727233000000005353656E4C
:101990006432344C65727231320000003234BDD78B
:1019A000CCDDCDA8D1B6CAA7B0DCA3ACD6D8C6F4DE
:1019B000D6D000000F9004F0E3FCD6E90923FE49DD
:1019C000521CA1F1D700009004F0DAFCD6E90A23FA
:1019D000F949521CA1F5D270054604F0D1FCD6E9B4
:1019E0000B23F549521CA1F26D100E9004F0C8FCB7
:1019F000F2A1F64804F0D8FF3946F44805F017F88C
:101A0000AFF2FC61F14805F012F84146EF4805F0ED
:101A10000EF8AFF20C71ED4805F009F82146EB48DD
:101A200005F005F807A801F0A7FB082207A901980F
:101A300004F0F6FEDDE90110082204F008FF40463C
:101A4000029905F06DF8A8B1AFF27C61DF4804F0AF
:101A5000EEFFDE4901F20E4004F0A6FFD648C8387A
:101A600004F0C6FF0146D448C838FEF7D5FCAFF2F3
:101A70002420DAE0D6482946804604F095FFD44871
:101A800059463C30834604F08FFFD14851464B30D5
:101A9000824604F089FFCE4812995A30074604F076
:101AA00083FFCB4811996930064604F07DFFC84892
:101AB00010997830054604F077FFC5480F998730B4
:101AC000019004F071FFC24800999630044604F07A
:101AD0006BFFBE48414696300422804604F0CFFE9C
:101AE000BB4802225946963804F0C9FEB848022283
:101AF0005146873804F0C3FEB5480222394678388B
:101B000004F0BDFEB24802223146693804F0B7FE47
:101B1000AF48022229465A3804F0B1FEAC480222EE
:101B20004B38019904F0ABFEA948022221463C380B
:101B300004F0A5FEA54C05AA03A914F8D20F8DF850
:101B40000C0060788DF80D00E07B8DF80E00207C95
:101B50008DF80F00A07F8DF81000E07F8DF8110048
:101B600094F82D008DF8120094F82E008DF81300D3
:101B700094F83C008DF8140094F83D008DF81500A1
:101B800094F84B008DF8160094F84C008DF817006F
:101B900094F85A008DF8180094F85B008DF819003D
:101BA000404601F012FB04F86A0C012817D0AFF28E
:101BB000C430FEF787FBAFF2E871844804F037FFCA
:101BC000824901F20E4004F0EFFE7B48C83804F071
:101BD0000FFF01467848C838FEF71EFCA2E5AFF2B9
:101BE000E4317A4804F023FF784901F20E4004F012
:101BF000DBFE0123AFF2EC326F496F48C839CDF8F4
:101C00000090FEF735FC98B10128E7D1AFF2F8312A
:101C1000694804F085FF70B1AFF2F031664804F016
:101C20007FFF0028DAD1AFF2E830FEF74BFB79E511
:101C3000AFF2E030F9E760481E21C83004F0ADFB98
:101C4000AFF2D8315C48C83004F0AEFE5A480E9965
:101C5000C83004F0ECFE58485EA1C83004F0E7FE3E
:101C600055480022C8300E99FEF71FFB5AE5D6E909
:101C7000002351493846521C04F082FBD6E9012367
:101C80004D494046521C04F07BFBD6E902234A49E9
:101C9000521CA1F51B70824604F072FBD6E90323A7
:101CA0004549521CA1F51170814604F069FB484674
:101CB00004F09EFE182802D90120606000E06560F3
:101CC000D6E904233C49521CA1F50770804604F074
:101CD00057FBD6E905233849521CA1F5FA7007468F
:101CE00004F04EFBD6E906233349521CA1F5E670F9
:101CF000064604F045FB354849461C38031DC0F82C
:101D000000A04246066183E8860064683B46C0E95D
:101D100005540096CDE901545046FEF702FFAFF29C
:101D2000A040FEF7BFFAFDE4AFF280407DE7AFF2DE
:101D30006C407AE7AFF2604077E7AFF24C4074E76F
:101D4000AFF23C4071E7AFF230406EE72DE9F04F63
:101D5000214D044687B04FF000081C48C5F80480A8
:101D600085F80080693008222146019004F058FD72
:101D7000174808222D388346019904F068FD13485E
:101D800004227830611D064604F04AFD10483146B1
:101D90001E380422064604F05AFD0C48E11D873027
:101DA0000622044604F03CFD094821460F3806226D
:101DB000044604F04CFD11E0820600205453656E89
:101DC0006432344C526573756C742500AC0100208C
:101DD00014030020D4AA000010000020F9A1FD483F
:101DE00004F0E2FDFC49FB4804F021FEF8A1F948AB
:101DF00004F01DFE5946F74804F019FEF4A1F54819
:101E000004F015FE3146F34804F011FEF0A1F1484C
:101E100004F00DFE2146EF4804F009FEAFF21C610C
:101E2000EC4804F004FEEB4901F20E4004F0BCFD66
:101E30004FF0C8090323AFF23462E849CDF80090AF
:101E400001F1C800FEF714FB2870002867D01421A8
:101E5000E34804F0AAFAE1492522C831E04804F039
:101E600063FADF4C0022A4F1E601A1F2C620236848
:101E700004F086FADBA1A4F56B7004F051FEA4F522
:101E80006B7606F123070F3600284ED0D8A1A4F5B3
:101E90006B7004F045FE00287DD0D9A1A4F56B70CD
:101EA00004F03EFE002877D0D9A1A4F56B7004F0B1
:101EB00037FE002871D0DAA1A4F56B7004F030FE73
:101EC00000286BD0DAA1A4F56B7004F029FE00287D
:101ED00065D0AFF66031A4F56B7004F021FE0028E8
:101EE0007ED0AFF66031A4F56B7004F019FE0028C7
:101EF00077D0AFF66431A4F56B7004F011FE0028C2
:101F00000AD1AFF66830D0E90010CDE90010052203
:101F100069466420FEF726FC07B0BDE8F08FC8A034
:101F2000FEF7D0F903F0E5FEF6E7D4E90023AB496C
:101F30003046C831521C04F023FAD4E90123A749E2
:101F40003846C831521C04F01BFAA449D4E90223D4
:101F5000C831A1F525708046521C04F011FA9F4942
:101F6000D4E90323C831A1F5D2700546521C04F010
:101F700007FA9A49D4E90423C831A1F26D108246C8
:101F8000521C04F0FDF9B5482946044604F00CFD46
:101F9000B3A1904804E0AFE06CE16EE170E172E162
:101FA00004F002FD31468B4804F041FD88A18948C8
:101FB00004F03DFD3946874804F039FD84A1854889
:101FC00004F035FD4146834804F031FD03A801F0DB
:101FD00049FC082203A9019804F022FC082201E030
:101FE00054E156E15846019904F031FC594638460F
:101FF00004F096FD90B1AFF62841764804F017FD45
:102000007449764804F0D0FC744804F0F1FC0146B1
:102010007248FEF701FAAFF2CC704AE06D482146F3
:1020200096300322044604F02AFC204601F058FCB6
:102030006849012881F8680014D0AFF65000FEF717
:1020400041F9AFF67441634804F0F1FC614963481B
:1020500004F0AAFC614804F0CBFC01465F48FEF79F
:10206000DBF959E7AFF66C015A4804F0E0FC594936
:102070005A4804F099FC0123AFF670025749CDF895
:10208000009001F1C800FEF7F3F9A8B10128E8D1EA
:10209000AFF67C015148C83004F042FD78B1AFF68C
:1020A00074014E48C83004F03BFD0028D9D1AFF68A
:1020B0007000FEF707F92FE7AFF66800F9E7484828
:1020C0001E211E3804F069F9AFF6600144481E383D
:1020D00004F06AFC424851461E3804F0A8FCAFF6F2
:1020E00064013F481E3804F0A2FC3D4801225146DD
:1020F0001E38FEF7DAF80FE7D4E9002337493046F7
:10210000C831521C04F03CF9D4E901233349384664
:10211000C831521C04F034F93049D4E90223C831E3
:10212000A1F51B708246521C04F02AF92B49D4E910
:102130000323C831A1F511708146521C04F020F927
:10214000484604F055FC0126182801D96E6001E0CC
:10215000C5F804802149D4E90423C831A1F50770EA
:102160008046521C04F00CF91C49D4E90523C831FF
:10217000A1F5FA700746521C04F002F9D4E90623CF
:102180001649521CC831A1F5E670044604F0F8F86F
:10219000104849461C38031DC0F800A0424604619F
:1021A00083E886006D683B46C0E90565CDE90046D9
:1021B00050460295FEF7B5FCAFF63C10FEF772F8FC
:1021C000AAE600005453656E643434343243494403
:1021D00025000000AC010020C4000020BA0500204A
:1021E000680700205353656E6434343432000000B5
:1021F0005353656E6434343432636865636B000036
:102200005353656E643434343265727230000000AA
:102210005353656E64343434326572723100000099
:102220005353656E64343434326572723300000087
:102230005353656E64343434326572723132000047
:102240003432D4A4B8B6B7D1CDA8D1B6CAA7B0DCC1
:10225000A3ACD6D8C6F4D6D00000000014030020EA
:102260005453656E6434343432526573756C74251E
:1022700000000000AFF6CC101BE7AFF6B81018E76F
:10228000AFF6AC1015E7AFF6981012E7AFF688106E
:102290000FE7AFF67C100CE72DE9F04FF94F87B050
:1022A00004464FF00008C7F8048087F80080F6481D
:1022B0000A222146019004F0B3FAF3480A22D230F0
:1022C0000199029004F0C3FAEF4804221E30A11DC8
:1022D000054604F0A5FAEC482946F03004220546EC
:1022E00004F0B5FAE84804F108013C300422044641
:1022F00004F096FAE54804222146834604F0A7FA42
:10230000E148E3A1693804F04FFBDF48E44969384C
:1023100004F08DFBAFF24811DB48693804F087FB0D
:10232000D9480299693804F082FBAFF25C11D648B3
:10233000693804F07CFBD4482946693804F077FBFF
:10234000AFF27411D048693804F071FBCE48594699
:10235000693804F06CFBAFF65431CB48693804F0AF
:1023600066FBC949693901F20E4004F01DFB4FF0CC
:10237000C8090323AFF67432CA49CDF8009001F1C1
:10238000C800FEF775F83870002864D01421C648DC
:1023900004F00BF8C3492522C831C34803F0C4FF39
:1023A000C14E0022A6F1E601A1F2C620336803F077
:1023B000E7FFBEA1A6F56B7004F0B2FBA6F56B7447
:1023C00004F123050F3400284BD0BBA1A4F10F006A
:1023D00004F0A6FB00287DD0BBA1A4F10F0004F0FF
:1023E0009FFB002877D0BCA1A4F10F0004F098FB5C
:1023F000002871D0BCA1A4F10F0004F091FB0028CB
:102400006BD0BDA1A4F10F0004F08AFB00287DD0A1
:10241000BD49A4F10F0004F083FB002877D0BA492E
:10242000A4F10F00103104F07BFB002870D0B649F6
:10243000A4F10F001C3104F073FB00280AD1B2484C
:1024400005222830D0E90010CDE90010694664204B
:10245000FEF788F960E5ADA0FDF734FF03F049FC15
:102460005AE5D6E900238F492046C831521C03F0B3
:1024700087FFD6E901238B492846C831521C03F057
:102480007FFF8849D6E90223C831A1F525700746A8
:10249000521C03F075FF8349D6E90323C831A1F527
:1024A000D2708246521C03F06BFF7E49D6E90423AA
:1024B000C831A1F5BE708046521C03F061FFD6E919
:1024C00005237849521CC831A1F26D10064603F06D
:1024D00057FF03E038E191E193E195E16A4892A169
:1024E000693804F061FA68482146693804F09FFAB7
:1024F000654891A1693804F09AFA63482946693819
:1025000004F095FA60488CA1693802E07FE181E12E
:1025100083E104F08CFA5C483946693804F087FAA4
:1025200003A801F079FC0A2203A9019804F078F9C4
:10253000DDE901100A2204F08AF92846029904F024
:10254000EFFAA0B1704950485C31693804F06FFA75
:102550004D495448693904F027FA524804F048FAC2
:1025600001465048FDF758FFAFF6205050E047486D
:1025700051460F38044604F017FA4146584604F015
:1025800013FA022221460DF1120004F078F902221A
:10259000594605A804F073F93B4D0024693D03AB8F
:1025A00093E8070001F0C6FC641C85F86800E4B2FB
:1025B000012803D0032C4ED0F1D3ADE4AFF6C451C3
:1025C0003148A0F1690004F032FA2F4935486939E1
:1025D00004F0EAF90123AFF6CC523249CDF800906D
:1025E00001F1C800FDF744FFA8B10128E5D1AFF61D
:1025F000D8512C48C83004F093FA78B1AFF6D451D2
:102600002848C83004F08CFA0028D6D1AFF6D05054
:10261000FDF758FE80E4AFF6C450F9E722481E21CA
:102620001E3803F0BAFEAFF6BC511F481E3804F046
:10263000BBF91D4831461E3804F0F9F9AFF6C45114
:1026400019481E3804F0F3F91748012231461E38A4
:10265000FDF72BFE60E439A0FDF734FE2A490A4855
:102660005C31693804F0E3F907490E48693904F030
:102670009BF90C4804F0BCF901460A48FDF7CCFE72
:102680004AE400001000002015020020230300206F
:102690005453656E64353535375043494425000041
:1026A000C4000020BA050020680700205353656E5F
:1026B00064353535375000005353656E6435353514
:1026C0003750636865636B005353656E6435353509
:1026D00037506572723000005353656E643535357E
:1026E00037506572723100005353656E643535356D
:1026F00037506572723300005353656E643535355B
:102700003750657272313200741300083537D4A423
:10271000B8B6B7D1CDA8D1B6CAA7B0DCA3ACD6D8CD
:10272000C6F4D6D0000000005453656E64353535CC
:102730003750526573756C7425000000B3E4D6B54C
:10274000CAA7B0DC00000000D6E90023FD492046FE
:10275000521C03F015FED6E90123FA492846521C03
:1027600003F00EFED6E90223F649521CA1F51B70B8
:10277000824603F005FED6E90323F249521CA1F577
:102780001170814603F0FCFD484604F031F9012444
:10279000182801D97C6001E0C7F80480D6E9042339
:1027A000E849521CA1F50770804603F0E9FDD6E91F
:1027B0000523E449521CA1F5FA70054603F0E0FD3B
:1027C000D6E90623DF49521CA1F5E670064603F060
:1027D000D7FDDD484946424640F804AB2B4666C06B
:1027E0007F68C0E90047CDE9006450460297FEF7D4
:1027F00098F9AFF67470FDF755FD32E4AFF65470FA
:1028000006E7AFF6407003E7AFF6347000E7AFF6C7
:102810002070FDE6AFF61070FAE6AFF60470F7E64A
:102820002DE9F04FC94C0646014699B00025C6482F
:102830006560257085300A22019003F0F1FFC448DD
:102840000A220199029004F002F8BF480822A3303E
:10285000B11D074603F0E4FFBD4839461E3008228B
:10286000074603F0F4FFBA4806F113019638062232
:10287000064603F0D5FFB64806223C303146139099
:1028800003F0E5FFB048B3A11C3004F08DF8AE486A
:10289000B4491C3004F0CBF8AFF26411AA481C30E4
:1028A00004F0C5F8A84802991C3004F0C0F8AFF253
:1028B0007811A5481C3004F0BAF8A34839461C30FA
:1028C00004F0B5F8AFF290119F481C3004F0AFF857
:1028D0009D4813991C3004F0AAF89B48A2491C306B
:1028E00004F0A5F898491C3101F20E4004F05CF8A0
:1028F00094494FF0C80903239B4AC8399148CDF841
:102900000090FDF7B5FD2070002868D08D48142197
:10291000E63003F04AFD8B49252201F1E60003F081
:1029200003FD884E8749E6360022A1F2C6203368AF
:1029300003F026FD8DA1A6F56B7004F0F1F8A6F565
:102940006B7707F12308010007F10F074DD08AA12B
:10295000A6F56B7004F0E4F800287CD08AA1A6F5F7
:102960006B7004F0DDF8002876D08BA1A6F56B70B3
:1029700004F0D6F8002870D08BA1A6F56B7004F097
:10298000CFF800286AD08CA1A6F56B7004F0C8F8C7
:1029900000287DD08C49A6F56B7004F0C1F80028A2
:1029A00077D08949A6F56B70103104F0B9F800288A
:1029B00070D08549A6F56B701C3104F0B1F8002881
:1029C0000AD1814805222830D0E90010CDE9001055
:1029D00069466420FDF7C6FE19B0BDE8F08F7BA004
:1029E000FDF770FC03F085F9F6E7D6E900235549B9
:1029F0003846521C03F0C4FCD6E901235149404635
:102A0000521C03F0BDFCD6E902234E49521CA1F52D
:102A10002570044603F0B4FCD6E903234949521C4F
:102A2000A1F23110824603F0ABFCD6E904234549FC
:102A3000521CA1F59170179003F0A2FCD6E9052372
:102A40004049521CA1F21310054603F099FCD6E947
:102A500006233C4903E097E1FAE1FCE1FEE1A1F144
:102A6000F500521C169003F08BFCD6E9072335497C
:102A7000521CA1F1E600159003F082FCD6E9082370
:102A80003049521CA1F5D270009003F079FC02E0AD
:102A9000E7E1E9E1EBE1D6E909232A49521CA1F576
:102AA000BE70834603F06CFCD6E90A232549521C0C
:102AB000A1F26D10149003F063FC234849A11C306F
:102AC00003F072FF204839461C3003F0B0FF1E4867
:102AD00048A11C3003F0ABFF1B4841461C3003F0FB
:102AE000A6FF194843A11C3003F0A1FF1648214658
:102AF0001C3003F09CFF03A801F044FA0A2203A94A
:102B0000019803F08DFEDDE901100A2203F09FFE1B
:102B10004046029904F004F898B12B490A485C3108
:102B20001C3003F084FF08491C3101F20E4003F011
:102B30003BFF0448C83803F05BFF01460148C83832
:102B40005AE05DE082060020900100201000002085
:102B5000E70200205453656E64353535374C4349E0
:102B600044250000C4000020041800085353656E7B
:102B700064353535374C00005353656E6435353553
:102B8000374C636865636B005353656E6435353548
:102B9000374C6572723000005353656E64353535BD
:102BA000374C6572723100005353656E64353535AC
:102BB000374C6572723300005353656E643535359A
:102BC000374C657272313200741300083537BDD747
:102BD000CCDDCDA8D1B6CAA7B0DCA3ACD6D8C6F49C
:102BE000D6D000005453656E64353535374C526588
:102BF00073756C7425000000FDF70EFCF14891E040
:102C0000F1485146824603F0CFFEEF4817990F3046
:102C1000804603F0C9FEEC4829461E30044603F006
:102C2000C3FEE94816993C30054603F0BDFEE64870
:102C300015994B30064603F0B7FEE34800993C383F
:102C4000074603F0B1FE5946139803F0ADFE514616
:102C500009A803F0A9FE414609A803F0E8FE2146B1
:102C600009A803F0E4FE29460EA803F09DFE3146B4
:102C70000EA803F0DCFE042239460DF1120003F029
:102C8000FEFD03220DF11F00139903F0F8FD06224B
:102C900009A90DF1160003F0F2FD03220EA907A801
:102CA00003F0EDFDC94D002407980090BDF8200009
:102CB00003AEADF8040096E80F0001F01BFA641CA7
:102CC00085F86800E4B2012803D0032C48D0EBD388
:102CD00082E6BC49BD48A1F1500103F0A8FEBB4902
:102CE00001F20E4003F060FEB64AB9490123403AB2
:102CF00001F1C800CDF80090FDF7BAFBA8B101289A
:102D0000E6D1B049B2483439C83003F009FF78B190
:102D1000AC49AF482039C83003F002FF0028D7D1B2
:102D2000A8480C38FDF7CEFA56E6A6480830F9E771
:102D30001E21A84803F031FBA249A648203103F028
:102D400033FEA448149903F072FEAFF67871A148DF
:102D500003F06DFE00229F481499FDF7A6FA3BE6AA
:102D6000AFF22860FDF7AEFA9B49984803F05FFE8A
:102D70009649974803F018FE954803F039FE01463E
:102D80009348FDF749FB27E6D6E9002390493846EA
:102D9000C831521C03F0F4FAD6E901238C494046AD
:102DA000C831521C03F0ECFA8949D6E90223C83134
:102DB000A1F51B708246521C03F0E2FA8449D6E961
:102DC0000323C831A1F511708146521C03F0D8FAD3
:102DD000484603F00DFE182802D90120606000E08B
:102DE00065607B49D6E90423C831A1F507708046A8
:102DF000521C03F0C5FA7649D6E90523C831A1F57E
:102E0000FA700746521C03F0BBFAD6E90623704954
:102E1000521CC831A1F5E670064603F0B1FA6B48C2
:102E200049461C38031DC0F800A04246066183E8ED
:102E3000860064683B46C0E905540096CDE901541C
:102E40005046FDF76EFE5F483430FDF72BFAC3E5C0
:102E50005C48603066E75B48783063E759488C30FF
:102E600060E75848A4305DE75648BC305AE75548FB
:102E7000CC3057E7F0B558489FB03438D0E900104F
:102E8000CDE91C100A2119A803F087FA64215048E3
:102E900003F083FA4F4814211E3003F086FA6422AF
:102EA0004B491046FDF72EFC4949252201F5D77004
:102EB00003F03AFA474800221E304549036819A832
:102EC00003F05EFA45A119A803F02AFE00283BD1C1
:102ED00044A13F4803F024FEA8BB3D4803F088FD11
:102EE00001463B48FDF798FA3F4D002440F2551645
:102EF0004FF416772868F0B1304602F0E3FE31490E
:102F00003A48403903F03EFDA8B1142C11D23048A4
:102F10006421C83003F041FA29682D48C830FDF714
:102F200091FA28496846343903F0FAFD58B102F0A5
:102F3000E0FE1FB0F0BD384602F0C4FE641CE4B2EF
:102F4000142CD7D3F5E7FFE705221CA96420FDF771
:102F500009FCEEE77FB50E4604460121084601F064
:102F6000B4FE0121082001F0B0FE4FF40075ADF869
:102F70000C5003208DF80E0048208DF80F0003A997
:102F80001B4801F0BAFC0921012001F06AFD002074
:102F90008DF804000C2000958DF8050001258DF8B2
:102FA0000650684602F082F817208DF808008DF868
:102FB00009408DF80A608DF80B5002A801F0F3FB70
:102FC0007FBD00004C18000850030020AC01002019
:102FD000BA0500204A070020D01300085453656E3C
:102FE0006400000024240000340000200A080020AF
:102FF000000C014070B5984D04462021284601F090
:10300000E6FC02F0E3FE200AA02101EB4000C0B282
:1030100002F074FF02F04AFFE0B202F06FFF02F02C
:1030200045FF02F0D3FEA12002F068FF02F03EFF50
:10303000002002F08CFF044602F01CFF02F0E2FECA
:103040002021284601F0C5FC204670BD70B5824D98
:103050000E4604462021284601F0B9FC02F0B6FED7
:10306000200AA02101EB4000C0B202F047FF02F0AD
:103070001DFFE0B202F042FF02F018FF304602F0FE
:103080003DFF02F013FF02F0BDFE0A2002F01AFE1F
:103090002846BDE87040202101F09BBC70B5154664
:1030A0000E46044608E02046641CA4B2FFF7A2FFC7
:1030B0006D1E06F8010BADB2002DF4D170BD70B5D8
:1030C000054600242046FFF795FF2855641CE4B20E
:1030D000042CF7D30420FFF78DFF28710620FFF79B
:1030E00089FF28720720FFF785FF68727520FFF7B8
:1030F00081FF68717620FFF77DFFA8717720FFF7C9
:1031000079FFE87170BD70B50C460546017816462A
:103110000620FFF79BFF0620FFF76CFF2978884207
:1031200026D169780720FFF791FF0720FFF762FF9C
:10313000697888421CD121784620FFF787FF462016
:10314000FFF758FF2178884212D161784920FFF7B4
:103150007DFF4920FFF74EFF6178884208D1314654
:103160004A20FFF773FF4A20FFF744FFB04201D027
:10317000002070BD012070BD70B5002405463426C6
:103180002046FFF737FF2855641CE4B2042CF7D320
:103190000420FFF72FFF28711E20FFF72BFF687117
:1031A0001F20FFF727FFA8712020FFF723FFE871FA
:1031B00000243046FFF71EFF2919761C641CE4B278
:1031C0000872F6B2042CF4D370BD2DE9F047002448
:1031D00034271526924689468046242518F804107F
:1031E0003846FFF733FF3846FFF704FF18F804109E
:1031F000884225D17F1C641CE4B2FFB2042CEDD3BD
:103200000024304619F80410FFF720FF3046FFF77E
:10321000F1FE19F80410884212D1761C641CE4B245
:10322000F6B2082CEDD3002428461AF80410FFF754
:103230000DFF2846FFF7DEFE1AF80410884202D080
:103240000020BDE8F0876D1C641CE4B2EDB2062CD2
:10325000EAD30120F5E70000000C014010B5202161
:10326000FE4801F0B4FB00240F2002F014FD641CA2
:10327000E4B20A2CF8D310BD2021F84801F0A9BB14
:1032800070B50546002402F07AFDF44E4021304628
:1032900001F09FFBE8074FF08001304615D001F0A8
:1032A00096FB0A2002F0F7FC4021304601F08FFB2C
:1032B0000A2002F0F0FC4021304601F08AFB641C39
:1032C0006D08E4B2082CE1D370BD01F082FBE8E7A1
:1032D0002DE9F0410C460646002502F041FD02F0C2
:1032E0004EFDDE4F2021384601F071FB0F2002F029
:1032F000D2FC0F2002F0CFFC4021384601F069FBE0
:103300008021384601F065FB4021384601F05FFB23
:103310008021384601F05BFB8021384601F059FBE3
:103320003020FFF7ADFF3046FFF7AAFF0020FFF780
:10333000A7FF4021384601F04CFB4021384601F000
:1033400046FB8021384601F044FB8021384601F0DD
:103350003EFB02F023FD3E464021304601F039FBA2
:10336000012002F0AFFC2078802140082070304618
:1033700001F019FB18B1207840F080002070402146
:10338000304601F024FB012002F09CFC6D1CEDB2E4
:10339000082DE1D32021304601F01BFB0020BDE8C1
:1033A000F0812DE9F047164688468146002402F058
:1033B000D7FC02F0E4FCA94D4021284601F009FBAE
:1033C0008021284601F003FB4021284601F0FFFA46
:1033D0008021284601F0FDFA3120FFF751FF00203F
:1033E000FFF74EFF0020FFF74BFF4021284601F07A
:1033F000F0FA4021284601F0EAFA8021284601F03F
:10340000E8FA8021284601F0E2FA02F0C7FC002722
:103410004021284601F0DDFA4021284601F0D7FA84
:1034200064088021284601F0BEFA08B144F0800407
:103430007F1CFFB2082FEBD300274021284601F064
:10344000C8FA0F2002F027FC4021284601F0BFFAFD
:103450000F2002F020FC7F1CFFB2182FEDD302F0EA
:103460008EFC60077ED0E00702D004F0FE0406E088
:10347000A00702D504F0FD0401E004F0FB044021A4
:10348000284601F0A6FA8021284601F0A0FA402142
:10349000284601F09CFA8021284601F09AFA39204A
:1034A000FFF7EEFE0020FFF7EBFE2046FFF7E8FEF9
:1034B0004021284601F08DFA8021284601F089FA42
:1034C0004021284601F083FA8021284601F07FFA46
:1034D00002F064FC00274021284601F07AFA0F2010
:1034E00002F0D9FB4021284601F071FA0F2002F0CA
:1034F000D2FB7F1CFFB27C2FEDD302F040FC4021B9
:10350000284601F066FA8021284601F060FA402141
:10351000284601F05CFA8021284601F05AFA0F2073
:1035200002F0B9FB3320FFF7ABFE0120FFF7A8FE46
:103530004846FFF7A5FE4021284601F04AFA8021BF
:10354000284601F046FA4021284601F040FA802141
:10355000284601F03CFA4021284601F03AFA402181
:10356000284600E02AE101F032FA4021284601F025
:1035700030FA4021284601F02AFA4021284601F07D
:1035800028FA8021284601F022FA4021284601F03D
:103590001EFA8021284601F01CFA3320FFF770FE46
:1035A0000220FFF76DFE4046FFF76AFE40212846E5
:1035B00001F00FFA8021284601F00BFA402128463D
:1035C00001F005FA8021284601F001FA4021284641
:1035D00001F0FFF94021284601F0F9F94021284681
:1035E00001F0F7F94021284601F0F1F94021284681
:1035F00001F0EFF98021284601F0E9F90F2002F0EF
:103600004AFB4021284601F0E2F98021284601F0DA
:10361000E0F90F2002F03FFB3320FFF731FE0320DB
:10362000FFF72EFE3046FFF72BFE4021284601F023
:10363000D0F98021284601F0CCF94021284601F03C
:10364000C6F98021284601F0C2F94021284601F040
:10365000C0F94021284601F0BAF901E0000C014010
:103660004021284601F0B5F94021284601F0AFF984
:103670004021284601F0ADF98021284601F0A7F944
:103680000F2002F008FB4021284601F0A0F980211C
:10369000284601F09EF90F2002F0FDFA3920FFF7CD
:1036A000EFFD0020FFF7ECFDFF20FFF7E9FD4021D3
:1036B000284601F08EF98021284601F08AF9402140
:1036C000284601F084F98021284601F080F902F0B3
:1036D00065FB00262F464021384601F07AF90F207D
:1036E00002F0D9FA4021384601F071F90F2002F0BA
:1036F000D2FA761CF6B27C2EEDD302F040FB4021CC
:10370000384601F066F98021384601F060F9402121
:10371000384601F05CF98021384601F05AF90F2053
:1037200002F0B9FA3120FFF7ABFD0020FFF7A8FD4A
:103730000020FFF7A5FD4021384601F04AF940215D
:10374000384601F044F98021384601F042F98021E1
:10375000384601F03CF902F021FB002540213846B3
:1037600001F037F94021384601F031F96408802131
:10377000384601F018F908B144F080046D1CEDB230
:10378000082DEBD300254021384601F022F90F2007
:1037900002F081FA4021384601F019F90F2002F0B9
:1037A0007AFA6D1CEDB2182DEDD34021384601F0A8
:1037B00010F902F0E4FAE043400700D00120BDE830
:1037C000F0872DE9F0410F460646002402F0C8FAC2
:1037D00002F0D5FA584D4021284601F0FAF8802130
:1037E000284601F0F4F84021284601F0F0F8802145
:1037F000284601F0EEF83820FFF742FD3046FFF78B
:103800003FFD3846FFF73CFD4021284601F0E1F836
:103810008021284601F0DDF84021284601F0D7F844
:103820008021284601F0D3F84021284601F0D1F844
:103830008021284601F0B7F84021284601F0C7F85A
:103840000F2002F028FA4021284601F0C2F80F208C
:1038500002F021FA641CE4B2FE2CEDD302F08FFAE0
:1038600000209CE52DE9FC410546002469460B201B
:10387000FFF72EFD6E460C20711CFFF729FDB11CD1
:103880000D20FFF725FDF11C0E20FFF721FD01A9FA
:103890000820FFF71DFD01AF0920711DFFF718FD7E
:1038A000385D2919641C4871022CF9DB0022B05CD8
:1038B000A854521C042AFADBE91D3C20FFF708FD3E
:1038C00005F108013D20FFF703FD05F109013E2048
:1038D000FFF7FEFC291D0A20FFF7FAFCBDE8FC817A
:1038E000F8B5064600208DF8000004463C25FFF799
:1038F000B5FC99226121A320FFF753FD30B90A20BE
:1039000002F0C9F9315D2846FFF75BFFFFF7B4FC11
:1039100069462846FFF7DCFC305D9DF800108842C0
:1039200001D00020F8BD6D1C641CE4B2EDB2032C84
:10393000DDD30120F8BD0000000C01402DE9FF5F40
:103940008B4682460121102001F0BFF90121084673
:1039500001F0BBF90220ADF800001027DFF89494C5
:103960008DF8037003248DF802406946484600F044
:10397000C4FF0125ADF8005004268DF803608DF8D2
:1039800002406946484600F0B8FF4FF00808ADF81D
:1039900000808DF803708DF802406946484600F0BB
:1039A000ACFFADF800608DF8024048208DF80300B0
:1039B0006946484600F0A1FF0221084601F051F88F
:1039C00000208DF808000C208DF8090001968DF874
:1039D0000A5001A801F06AFB8DF80C808DF80DA04B
:1039E0008DF80EB08DF80F5003A800F0DCFEBDE896
:1039F000FF9F10B500240821FE4800F0E8FF0F20CB
:103A000002F049F9641CE4B20A2CF8D310BD082175
:103A1000F84800F0DEBF10B5F64C01284FF0020167
:103A200020460DD000F0D5FFC02002F034F902216D
:103A3000204600F0CCFFBDE81040C02002F02BB9BA
:103A400000F0C7FF4FF4E070EFE770B50D46064693
:103A50000024300401D5012000E00020FFF7DBFF47
:103A6000641C7600E4B2102CF3D30024280401D5A2
:103A7000012000E00020FFF7CEFF641C6D00E4B2DF
:103A8000102CF3D370BD2DE9F74FDA4D0C4680466C
:103A9000ADF5966D00270221284600F098FF0A2018
:103AA00002F010F90020014696AB4DF8201043F8C3
:103AB0002010401CC0B28B469A469628F5D30221AE
:103AC000284600F086FF052002F0FCF80221284677
:103AD00000F07DFF4FF4C876304602F0DCF800209D
:103AE000FFF799FF0020FFF796FF0221284600F01C
:103AF00070FF062002F0E6F80221284600F067FF7A
:103B0000304602F0C8F80120FFF785FF4046FFF776
:103B100082FF48F2446148F69900FFF796FF0020C3
:103B2000FFF779FF600701D4002000E00120FFF7D4
:103B300072FFA00701D4002000E00120FFF76BFF17
:103B4000E00700D00120FFF766FF0221284600F0C1
:103B500040FF0024142002F0B5F8022600254FF49F
:103B6000966805E028466D1C404501D90B27AAE060
:103B70000121A04800F017FF0128F3D04AE04FF0E0
:103B8000E02042F22831416101210161C0F818B002
:103B9000DFF860828146984D01E06D1E54D301210B
:103BA000404600F000FF0028F7D0D9F81410D9F8EB
:103BB0001800081A6428EED34946C9F810B0C9F8AD
:103BC00018B04FF00909B0FBF9F34DF8263042F276
:103BD0002830486101200861C1F818B08846874D37
:103BE00001E06D1E6FD30121824800F0DCFE012848
:103BF000F7D0D8F81410D8F81800081A6428EED3B3
:103C0000C8F810B0C8F818B0B0FBF9F14AF826109F
:103C1000761CF6B2962EB2D100210846564605E033
:103C200056F82120A2F22D12632A04D30A46491C19
:103C3000C9B2962AF4D1962907D05DF821206D46A5
:103C4000503A5B2A03D302273DE001273BE0491CA1
:103C5000C9B255F82120503A5B2A01D3032732E03C
:103C600056F82120A2F16403B3F5917F01D904270E
:103C700029E0B2F5967F04D964000022401C641C40
:103C80003BE0012239E0491CC9B2962907D055F81A
:103C90002130A3F15007DD2F03D3062713E00527BA
:103CA00011E0AF2B1AD2521CD2B2D30704D1401C60
:103CB0006400C0B2202822D056F82130A3F1640756
:103CC000C92F0ED3072702214A4800F080FE012F9A
:103CD00021D038460DF2BC4DBDE8F08F921CD2B217
:103CE000E5E7CD2B14D2521CD2B2D30705D1640024
:103CF000401CC0B2641C202801D02028C3D3DDF8AA
:103D0000B804022104603B4800F061FE0120E1E7B5
:103D1000921CD2B2EBE70020DCE72DE9F84F044615
:103D20000020DDF828900090164608061D460F4634
:103D300000EB064000EB0521DFF8B8A001EB090815
:103D40000221504600F045FE052001F0BBFF022194
:103D5000504600F03CFE4FF4C87B584601F09BFFF4
:103D60000020FFF758FE0020FFF755FE02215046C5
:103D700000F02FFE052001F0A5FF0221504600F0C3
:103D800026FE584601F087FF0120FFF744FE002081
:103D9000FFF741FE48F2446148F69900FFF755FEEF
:103DA0000020FFF738FE09EB052106EB0720FFF79F
:103DB0004CFE600701D4002000E00120FFF72BFE3D
:103DC000A00701D4002000E00120FFF724FEE00757
:103DD00000D00120FFF71FFE02215546504600F09B
:103DE000F8FD062001F06EFF6A4621460020FFF72D
:103DF0004AFE05E0001001409C5D0100FFFF03004A
:103E00000221284600F0E3FD0099414502D0002040
:103E1000BDE8F88F0120FBE710B58EB00446002006
:103E20000090019002900C900590049006900390F1
:103E3000079009900A900B90FFF7DBFD6A4601217D
:103E40000020FFF720FE01AA02210020FFF71BFE41
:103E500002AA03210020FFF716FE03AA0121002079
:103E6000FFF711FE0CAA02210020FFF70CFE05AAA5
:103E700003210020FFF707FE04AA01210020FFF71D
:103E800002FE07AA02210020FFF7FDFD06AA03217A
:103E90000020FFF7F8FD09AA01210020FFF7F3FD3C
:103EA0000AAA02210020FFF7EEFD0BAA0321002041
:103EB000FFF7E9FDDDE90310814200D10090099A86
:103EC000824200D100908A4200D100910C9907985B
:103ED000814200D101900A9A824200D101908A4227
:103EE00000D10191DDE90510814200D102900B9AC9
:103EF000824200D102908A4200D102910198010CC5
:103F00002171000EE0700098A0700098000A6070A7
:103F10000098000C20700098000E60710298010E4D
:103F2000A171010CE171010A21726072FFF76FFD4E
:103F30000EB010BDF8B50C461546FFF75AFD4FF40C
:103F40007A76304601F0BEFEC5F307200090EBB252
:103F5000220EC4F307410320FFF7DFFE044630467C
:103F600001F0B0FE00200346024601460090062004
:103F7000FFF7D3FE24B118B1FFF749FD0120F8BDCA
:103F80000020F8BD10B594B00446002000900190C8
:103F900002900390049005901090079013900A905F
:103FA000089006900C900D900E900F90FFF721FD59
:103FB0006A4601210020FFF766FD01AA02210020C8
:103FC000FFF761FD02AA06210020FFF75CFD03AAAE
:103FD00003210020FFF757FD04AA01210020FFF76D
:103FE00052FD05AA02210020FFF74DFD10AA06216F
:103FF0000020FFF748FD07AA03210020FFF743FD3B
:1040000013AA01210020FFF73EFD06AA022100208D
:10401000FFF739FD0AAA06210020FFF734FD08AAA0
:1040200003210020FFF72FFD0CAA01210020FFF73C
:104030002AFD0DAA02210020FFF725FD0EAA062168
:104040000020FFF720FD0FAA03210020FFF71BFD32
:1040500004991398814200D100900C9A824200D1B9
:1040600000908A4200D10091DDE90510814200D123
:1040700001900D9A824200D101908A4200D10191B3
:1040800010990A98814200D102900E9A824200D182
:1040900002908A4200D10291DDE90710814200D1ED
:1040A00003900F9A824200D103908A4200D103917B
:1040B0000198010C2171000EE0700098A07000982A
:1040C000000A60700098000C20700098000E60716B
:1040D0000298010EA171010CE171010A2172607256
:1040E0000398010CE174010A21756075FFF78FFCDC
:1040F00014B010BD2DE9F8430F46DDE908681446F9
:104100001D46FFF776FCC8F30720009008F0FF0378
:10411000320EC6F307210320FFF7FFFD28B3C5F3D6
:1041200007200090EBB2220EC4F307410420FFF7F2
:10413000F4FDD0B1C6F307400090F3B22A0EC5F3E8
:1041400007410520FFF7E9FD78B1C4F3072000908F
:10415000E3B23A0EC7F307410620FFF7DEFD20B1B8
:10416000FFF755FC0120BDE8F883FFF750FC002065
:10417000F9E74FF4A06000F011BB10B54FF48034A4
:10418000204600F0AEFC00F0D9FC01281CD1002034
:1041900000F00CFDA01100F010FD002000F014FD57
:1041A0004FF4E011204600F0EAFC012000F0EFFCA3
:1041B000392000F0AEFC0028FAD0022000F0EAFC22
:1041C00000F0EFFC0828FBD110BD000070B52E4CAC
:1041D0001F20207000F06CFC02F0A6FAFFF7CDFF64
:1041E000FFF7C7FF01F040FDFCF78AFA002101202C
:1041F000FFF7A4FB00210120FCF766FE4FF4E13538
:10420000002203212846FBF7F3FF012203214FF48C
:104210001650FCF701FC002202212846FCF75EF84C
:104220001AA0FCF7D7FC4FF47A75284601F04AFD36
:10423000FCF7C7FA1D4919A2A1F11E00FCF762F8AC
:104240001A486D30FCF74BF92070FCF747FC184812
:104250000024047015480A30FCF7FEFAFEF70AFE47
:104260000023012241F61F4142F20F7002F022F9B1
:10427000284601F027FD0D484130FCF70DFD0D48A3
:1042800004600D48046070BD00000020CFB5CDB3C0
:10429000B3F5CABCBBAFCDEAB3C90000CDF8C2E7E5
:1042A000C1ACBDD3D6D02E2E2E000000BA00002007
:1042B000010000200C0000201800002008B5FFF7C6
:1042C00085FFDFF8F8A1DFF8F8817E4E7E48DFF841
:1042D000FCB14FF47A77002500907D4C20680128CE
:1042E00073D10021304601F087FAC8F800502560EC
:1042F0007248FEF741FF71482830FFF7B3FAFCF728
:104300007EFC6E4828300079B22810D09AF804005C
:104310005146C12810D0C22817D0C32824D0C528A0
:104320002BD0487900282FD0FF284AD142E063489B
:104330002830FDF70BFD52E0FCF7E2FD08B165A067
:1043400007E0FCF765FC69A009E0FCF7FCFD18B18B
:104350006AA0FBF79DFF42E0FCF75AFC6EA0FBF75A
:10436000A1FFFCF72EFA3AE0FCF7FFFD08B16FA0C1
:10437000EFE7FCF74DFC74A0F1E753485F38FCF71A
:1043800053FC40F2AD3028E08879D0B99AF80700A4
:10439000B8B94A481A30FEF792FE48481A30017AF6
:1043A00009B9407A08B16DA0D3E744481A30FCF748
:1043B00015FE14E08879FF2803D19AF80700FF283A
:1043C00004D03E48FDF7D6F809E01BE0384601F07E
:1043D00079FC68A0FBF75CFF384601F073FCDFF85E
:1043E0009C914FF400742146484600F0DCFA002806
:1043F000F9D00121304601F0FFF9FCF7E2F900980D
:10440000FCF74AFC5E4C206801282CD10021304684
:1044100001F0F2F92560C8F8005028483230FFF763
:10442000FBFCFCF7ECFB254832304079B42837D050
:10443000B6283AD0384601F045FC4EA0FBF728FFDD
:10444000384601F03FFC4F4C0421204600F0ABFA07
:104450000028F9D00121304601F0CEF9FCF7B1F97E
:104460000098FCF719FCDBF800005C4601287FF49B
:1044700034AF0021304601F0BFF92560FCF747FA60
:10448000FCF79FF910482C30FCF729F83E490870DA
:104490000098FCF701FC0121304601F0ADF91CE762
:1044A00006483230FDF7F8FECDE704483C30FFF710
:1044B00069FD02483C30FEF7B3F9C4E7B8070020B5
:1044C0000400002000040040FB0000200800002041
:1044D0000C000020C9E8B1B8BAC5B8FCB8C4CAA776
:1044E000B0DCA3ACC7EBD6D8CAD40000C9E8B1B8D9
:1044F000BAC5B8FCB8C4B3C9B9A60000C6C1C4BB2C
:10450000B0E6B1BEBAC5B8FCB8C4CAA7B0DCA3ACAB
:10451000C7EBD6D8CAD40000C6C1C4BBB0E6B1BE92
:10452000BAC5B8FCB8C4B3C9B9A60000C9E8B1B8E7
:10453000B0E6B1BEBAC5B8FCB8C4CAA7B0DCA3AC7B
:10454000C7EBD6D8CAD40000C9E8B1B8B0E6B1BE4E
:10455000BAC5B8FCB8C4B3C9B9A60000BFA8D3E0B7
:10456000C1BFB2BBCEAAC1E3A3ACCFC8B2E5B1ED27
:1045700000000000C7EBD6D8CBA20000000C014021
:1045800018000020001001400000002010B5042099
:1045900000F0DCFD012817D1642001F093FB04201A
:1045A00000F0D4FD01280FD1042000F0DDFD04212E
:1045B000574800F0F8F9002806D15648007801283D
:1045C00003D055490120086010BDBDE8104053A03C
:1045D000FBF768BE10B54FF4007488B0204600F0B9
:1045E000B5FD01281FD14FF4FA7001F06BFB204696
:1045F00000F0ACFD012816D1204600F0B5FD2146A3
:104600004B4800F0D0F900280DD16846FEF7B4FD04
:104610009DF80400C42808D03E48007801281ED028
:1046200044490120086008B010BDFCF7B0FC10B18F
:1046300041A0FBF72DFEFCF7BEFC10B145A0FBF737
:1046400027FEFCF7E5FA49A0FBF72CFEFCF7B9F8CA
:104650004FF47A7001F036FB01F04BFBE3E72FA03B
:10466000FBF720FEDFE770B5454C0821204600F03F
:10467000D5FC18B10821204600F0D7FC40F22555A2
:1046800000222946204600F01CFC208801073D48F6
:1046900001D000880AE02188890607D503883A48B6
:1046A00002683A491144521C02600B7029462046A8
:1046B000BDE87040012200F004BC10B5344C00216C
:1046C000204601F099F80121204601F0BEFA18B108
:1046D0000121204601F0C5FA2E490A68521C0A60E1
:1046E0000868B0F5167F04D3002008602A4901202D
:1046F00008602046BDE81040012101F07DB87047F8
:10470000FEE7FEE7FEE7FEE7704770477047704739
:10471000001001400100002018000020CDF8C2E781
:10472000C1ACBDD3D6D0A3ACC7EBC9D4BAF300009B
:10473000000C01400C000020B7FECEF1C6F7495036
:10474000B8FCB8C4CAA7B0DCA3ACC7EBD6D8CAD4EF
:1047500000000000B6FECEACC2EBB8FCB8C4CAA7DD
:10476000B0DCA3ACC7EBD6D8CAD400004950B6FE23
:10477000CEACC2EBB8FCB8C4B3C9B9A60000000007
:104780000044004004440040340000200A08002097
:1047900000040040040000200800002028490843CD
:1047A00028490860704730B50F23C2780178012589
:1047B000F2B1244A126801F1E02102F4E062C2F58C
:1047C000E062120AC2F10404D3404278A240847825
:1047D0001C401443220181F80024007800F01F01DE
:1047E0008D404009800000F1E020C0F8005130BD4C
:1047F00001F01F0085404809800000F1E020C0F86A
:10480000805130BD104A114001430E48001F016025
:1048100070470C4A121D0029116801D0014300E0C5
:104820008143116070474FF0E0210428086903D0EC
:1048300020F004000861704740F00400FAE700002F
:104840000000FA050CED00E080FFFF1F8F4910B556
:10485000884206D10121042000F049FA00210420F9
:104860003BE08B49884206D10121082000F03FFA45
:104870000021082031E08749884206D1012110201B
:1048800000F035FA0021102027E08349884206D144
:104890000121202000F02BFA002120201DE07F497B
:1048A000884206D10121402000F021FA0021402059
:1048B00013E07B49884206D10121802000F017FADD
:1048C0000021802009E0774988420AD1841501211E
:1048D000204600F00CFA00212046BDE8104000F010
:1048E00006BA10BD10B50121084600F000FA0021FB
:1048F000BDE81040012000F0FAB9F0B5CC780022F4
:1049000004F00F03E40601D58C7823430C784FF0B4
:104910000F0C14F0FF0F4FF0010E1BD005680E882E
:104920000EFA02F42640A64210D196000CFA06F7C1
:1049300025EA070703FA06F5CE783D43282E02D074
:10494000482E02D002E0446100E00461521C082AB3
:10495000E5D305600A88FF2A1CD94468002202F1C9
:1049600008060EFA06F50E882E40AE420ED19600CD
:104970000CFA06F7BC4303FA06F7CE783C43282E20
:1049800000D14561CE78482E00D10561521C082A1D
:10499000E5D34460F0BD4FF6FF71018002218170C4
:1049A0000421C17070470246002092680A4200D07C
:1049B00001207047806880B2704702460020D268AC
:1049C0000A4200D001207047C06880B27047016180
:1049D0007047416170470AB101617047416170479A
:1049E000C160704741F48032826181618261816976
:1049F000806970472C4B10B51A684FF680742240BE
:104A000042EA00100843186010BD2849C861704789
:104A1000F0B5254C002801DAE36900E06368450D34
:104A20002E0185B2C0F30157B540C0F30342032FF6
:104A300005D0C6020AD503269640B34307E023F00B
:104A40007062636823F07063636002E0AB4343F01D
:104A5000706201B12A43002801DAE261F0BD6260B0
:104A6000F0BD10B58A0721F003040F49120F21444D
:104A70000F238C6893409C438C608B689040034369
:104A80008B6010BD0949C1F8DC0070470008014087
:104A9000000C0140001001400014014000180140CA
:104AA000001C0140002001400000014000002042A5
:104AB000A548016841F0010101604168A34A114025
:104AC00041600168A24A11400160016821F480211F
:104AD0000160416821F4FE0141604FF41F018160D3
:104AE000704799490A6822F480320A600A6822F401
:104AF00080220A60B0F5803F07D0B0F5802F03D147
:104B0000086840F4A02008607047086840F48030CE
:104B1000F9E70346002059098B4A01290AD00229E6
:104B20000AD0516A03F01F02012393400B4200D0C8
:104B3000012070471168F5E7116AF3E718B5002006
:104B40004FF4A06400903120FFF7E3FF0099491C67
:104B50000091A14201D00028F5D03120FFF7D9FF04
:104B6000002800D0012018BD774A116821F0F80113
:104B700041EAC00010607047764908607047724B88
:104B80005A68084322F47C121043586070477149F8
:104B9000086670476C4A516821F003010143516077
:104BA00070476948406800F00C007047664A5168D9
:104BB00021F0F001014351607047634A516821F4CC
:104BC000E0610143516070475F4A516821F46051D0
:104BD00041EAC000506070475B4A0029517A01D019
:104BE000014300E08143517270475A49C1F8D8002F
:104BF0007047554A516821F4404101435160704764
:104C00005149002281F8202081F82020012802D07B
:104C1000042802D1052081F8200070474E49086021
:104C2000704749490A6A02430A6270474A4944394F
:104C30000860704730B5444A5168484B11F00C0188
:104C400003D0042901D0082901D0036012E0516883
:104C5000536801F470114FF0020413F4803F04EB29
:104C6000914102D053689B0301D53D4B00E03B4B83
:104C70005943016051680F2303EA1111394B5C5C01
:104C80000168E14041605468072505EA14241C5D71
:104C900021FA04F48460546805EAD4241B5DD940E9
:104CA000C1605268032303EA92322E4B1B1F9A5CA9
:104CB000B1FBF2F1016130BD234A0029516901D0F5
:104CC000014300E08143516170471F4A0029916907
:104CD00001D0014300E08143916170471A4A0029E5
:104CE000D16901D0014300E08143D1617047164A88
:104CF0000029D16801D0014300E08143D1607047B1
:104D0000114A0029116901D0014300E0814311617A
:104D1000704711494039086070470E49C8647047B0
:104D20000949C87170470848416A41F08071416281
:104D30007047054A0146002092680A4200D00120CF
:104D40007047014988727047001002400000FFF868
:104D5000FFFFF6FE000042428004424200127A0049
:104D600000093D0020000020C44910B588420AD146
:104D700001218C032046FFF7BAFF2046BDE8104012
:104D80000021FFF7B4BFBE49884202D101214C0483
:104D900010E0BC49884202D101218C040AE0BA49E2
:104DA000884202D10121CC0404E0B84988420AD1EA
:104DB00001210C052046FFF7A3FF2046BDE8104067
:104DC0000021FFF79DBF10BD30B50446008A85B0B5
:104DD0000D464CF6FF710840E98801432182A08905
:104DE0004EF6F3110840A9882A8911436A890243C3
:104DF0001143A181A08A4FF6FF410840A9890143D0
:104E0000A1826846FFF716FF9C48844201D10398AF
:104E100000E00298A189090400EBC00101EB001039
:104E2000296801D5490000E08900B0FBF1F0642257
:104E3000B0FBF2F109010B096FF018056B4300EBB1
:104E40008300A3891D044FF0320306D503EBC00095
:104E5000B0FBF2F000F0070005E003EB0010B0FB40
:104E6000F2F000F00F000843208105B030BD4FF490
:104E70001651016000218180C18001810C22428194
:104E80008181704710B5028A4FF2FF031A400B88E8
:104E90004C8823438C88C9880C43234313430382E3
:104EA00010BD0021018041808180C18070470029B0
:104EB000818902D041F4005101E021F40051818147
:104EC000704710B5C1F3421301F01F040121A14046
:104ED000012B07D0022B07D01430002A026805D01E
:104EE0000A4304E00C30F8E71030F6E78A4302602A
:104EF00010BD002A828A01D00A4300E08A438282E0
:104F00007047028A22F00F020282028A0A4302825A
:104F10007047828922F40062828182890A438281F9
:104F200070470029818902D041F0020101E021F09F
:104F3000020181817047028A22F020020282028AE5
:104F40000A43028270470029018A02D041F480415D
:104F500001E021F4804101827047C1F308018180A2
:104F600070478088C0F308007047818941F00101D3
:104F700081817047028BD2B20283028B42EA012107
:104F800001837047028B02F47F420283028B0A4343
:104F9000028370470029818A02D041F0200101E09C
:104FA00021F02001818270470029818A02D041F0DE
:104FB000100101E021F01001818270470029818AEF
:104FC00002D041F0080101E021F008018182704720
:104FD0000029818902D041F4004101E0C1F30E01B2
:104FE000818170470029818A02D041F4006101E08B
:104FF00021F4006181827047828A22F00402828259
:10500000828A0A43828270470029818A02D041F055
:10501000020101E021F00201818270470246002076
:1050200012880A4200D001207047C94301807047AE
:1050300070B501F01F0501260024C1F3421306FAE2
:1050400005F2012B0FD0022B0FD0838A4FEA1121DA
:105050000088134206FA01F600EA060001D000B10A
:105060000124204670BD8389F0E7038AEEE70A0A2F
:1050700001219140C9430180704700000038014080
:105080000044004000480040004C004000500040F8
:10509000374900200860091D0860091D0860091DC6
:1050A00008603349334814310860704730B5304ADE
:1050B0008379016853B313688B431360111D0B6828
:1050C0000468A3430B60017911440B68046823430F
:1050D0000B60274B083319680468A14319601C1D35
:1050E00021680568A94321604179102905D0114440
:1050F0000A68006802430A6030BD196802681143FB
:105100001960216800680143216030BD00791044B6
:1051100002688A43026030BD0021016001710C22E7
:10512000427181717047124910310A6802430A6066
:10513000704701460E4A0020143212680A4200D01D
:10514000012070470A49143108607047084A014637
:1051500000201268064B0A4014331B680B4202D031
:10516000002A00D0012070470149143108607047BF
:1051700000040140FFFF0F00F94910B5884202D139
:105180000121C41486E0B0F1804F09D0F54988426E
:105190000DD101210220FFF7B3FD0021022064E0C0
:1051A00001210846FFF7ACFD002101205DE0EE493A
:1051B000884206D101210420FFF7A2FD002104202E
:1051C00053E0EA49884206D101210820FFF798FD03
:1051D0000021082049E0E649884206D1012110203B
:1051E000FFF78EFD002110203FE0E249884206D102
:1051F00001212020FFF784FD0021202035E0DE4939
:10520000884202D10121441444E0DC49884202D1A1
:105210000121CC043EE0DA49884202D101210C058B
:1052200038E0D849884202D101214C0532E0D64904
:10523000884206D101214020FFF762FD0021402075
:1052400013E0D249884206D101218020FFF758FDA2
:105250000021802009E0CE4988420AD1841501212D
:105260002046FFF74DFD00212046BDE81040FFF726
:1052700047BDC849884202D101210C040AE0C64951
:10528000884202D101214C0404E0C44988420AD179
:1052900001218C042046FFF72AFD2046BDE810407E
:1052A0000021FFF724BD10BD30B50288AC4CB24DD3
:1052B000A0420DD0A8420BD0B0F1804F08D0A94B2E
:1052C000984205D0A84B984202D0A84B984203D1EF
:1052D00022F070034A881A43A54B984206D0A54B8A
:1052E000984203D022F44073CA881A4302808A8805
:1052F00082850A880285A0420AD0A84208D0A54A21
:10530000904205D0A44A904202D0A44A904201D1D2
:10531000097A01860121818230BD30B5028C22F0EC
:1053200001020284028C8388048B22F0020224F0A2
:1053300073050C882C430D8915434A882A43884DF0
:10534000A8420BD08C4DA84208D0924DA84205D05F
:10535000914DA84202D0914DA8420DD122F00805EE
:105360004A8923F440732A4322F004058A882A4399
:105370008D891D43CB892B4383800483C988818613
:10538000028430BD70B5028C22F010020284028CBF
:105390008388048B0D8824F4E6464FF6FF7404EAF4
:1053A000052535430E8922F0200204EA061616432D
:1053B0004A8804EA02123243694EB04202D06E4E6D
:1053C000B04215D122F080064A8923F4406304EAF2
:1053D0000212324322F040068A8804EA0212324363
:1053E0008E8904EA86061E43CB8904EA830333438D
:1053F00083800583C9880187028470BD70B5028CE3
:1054000022F480720284028C8388848B0D8824F0BD
:10541000730425430E894FF6FF7422F4007204EAE8
:10542000062616434A8804EA022232434C4EB04212
:1054300002D0514EB04215D122F400664A8923F4BD
:10544000405304EA0222324322F480668A8804EA46
:10545000022232438E8904EA06161E43CB8904EAEF
:105460000313334383808583C9888187028470BD99
:1054700070B5028C22F480520284058C8288838B62
:105480000C8823F4E6464FF6FF7303EA0424344302
:1054900025F400560D8903EA053535434E8803EAA5
:1054A00006362E432E4DA84202D0334DA84205D1D8
:1054B00022F480458A8903EA82122A438280848307
:1054C000C988A0F84010068470BD828B22F4406227
:1054D0008283828B4FF6FF7303EA01210A438283A2
:1054E0007047828B22F00C028283828B0A43828374
:1054F0007047028B22F440620283028B4FF6FF73E7
:1055000003EA01210A4302837047F0B5048C24F0BA
:1055100010040484078B048C4FF6FF7527F473473F
:1055200005EA03333B4305EA02221A430C4B05EA22
:10553000011698420ED0104B98420BD0B0F1804F1C
:1055400008D0084B984205D0074B984202D0074B31
:10555000984225D124F02001314341F0100124E08C
:10556000002C01400004004000080040000C0040F6
:10557000001000400014004000340140004C014085
:10558000005001400054014000180040001C004041
:10559000002000400040014000440140004801401C
:1055A00024F0A0030B4343F0100102830184F0BDFB
:1055B000028B22F00C020283028B0A4302837047A3
:1055C00070B5048C24F001040484058B048C4FF620
:1055D000FF7606EA0313134325F0F305F84A2B433D
:1055E00090420ED0F74A90420BD0B0F1804F08D0D5
:1055F000F54A904205D0F54A904202D0F44A9042D2
:1056000002D124F0020201E024F00A020A4342F02F
:1056100001010383018470BD2DE9F84F0D46044656
:105620000888E74FDFF89CC3DFF89C83DFF89C9382
:105630004988AA882B894FF0804A48B304282FD084
:105640004FF6FF760828934632D0208C9E4620F4F1
:1056500080502084A38B208C06EA0132009223F430
:10566000734306EA0B221A4306EA0E331343BC4285
:105670000AD0644508D0544506D0444504D04C4572
:1056800002D0D34A944242D120F40050009940E025
:105690002046FFF795FFE9882046BDE8F84F87E7E9
:1056A0002046FFF732FFE9882046BDE8F84F20E7A3
:1056B000208C20F480702084B4F81CE0208C06EA52
:1056C000031306EA01222EF0F30E43EA0B0343EA2A
:1056D0000E030092BC420AD0644508D0544506D05F
:1056E000444504D04C4502D0B94A944203D120F439
:1056F0000070009901E020F42060084340F48070BD
:10570000A3832084E9882046BDE8F84FE9E620F429
:105710000240084340F48050A3832084E988204657
:10572000BDE8F84FD1E62DE9F0410C460026498846
:105730000746012501B90226A288012A00D10225C7
:10574000208823890028384610D0FFF7DEFEE18844
:105750003846FFF7CEFE23892A4631463846FFF702
:105760002FFFE1883846BDE8F04121E7FFF728FF29
:10577000E1883846FFF71CFF23892A463146384620
:10578000FFF7C3FEE1883846BDE8F041B1E610B549
:105790000A884B88CC881A438B8823431A430B8989
:1057A0001A434B8989891A430A43A0F8442010BD43
:1057B0004FF6FF71818000210180C180418001721C
:1057C00070470021018041808180C1800181418139
:1057D0008181C18170470021018041800122828046
:1057E000C180018170470021018041808180C1809A
:1057F00001814181818170470029018802D041F0F7
:10580000010101E021F0010101807047002930F819
:10581000441F02D041F4004101E0C1F30E010180B8
:105820007047002A828901D00A4300E08A438281BE
:105830007047818270471143A0F848107047002AD2
:10584000828901D00A4300E08A438281704701893E
:1058500021F0070101817047028922F070020A439A
:105860000281704700B50346FFF7F6FF188940F044
:105870000700188100BD70B516460D466029044624
:105880004FF0010231460AD0FFF79AFE2946204622
:10589000FFF7E2FF208940F00700208170BDFFF78D
:1058A00034FEF3E730B504894FF6FF7505EA0323AC
:1058B0001343E4B20B432343038130BD10B50446C8
:1058C000FFF7F0FF208940F07700208110BD10B570
:1058D0000446FFF7E7FF208940F48040208110BD97
:1058E000018582827047028822F070020A4302809A
:1058F000704770B50589048B068C25F007050D43AC
:105900004FF6FC410C4040F201110C434FF6FF7181
:1059100001EA031126F02206114331430581048375
:10592000018470BD028B22F070020A43028370472B
:10593000028B4FF6FF7322F4E04203EA0121114388
:1059400001837047828B22F070020A438283704782
:10595000828B4FF6FF7322F4E04203EA01211143E8
:10596000818370470029018802D041F0800101E065
:1059700021F08001018070470029818802D041F028
:10598000040101E021F00401818070470029818831
:1059900002D041F0080101E021F008018180704748
:1059A0000029818802D041F0010101E021F00101CC
:1059B00081807047028B22F008020A4302837047FD
:1059C000002C014000340140000400400008004069
:1059D000000C0040028B4FF6FF7322F4006203EAD2
:1059E000012111430183EAE7828B22F008020A4376
:1059F0008283E4E7828B4FF6FF7322F4006203EAAE
:105A0000012111438183DAE7028B22F004020A4369
:105A10000283D4E7028B4FF6FF7322F4806203EA1D
:105A2000012111430183CAE7828B22F004020A4359
:105A30008283C4E7828B4FF6FF7322F4806203EA0D
:105A4000012111438183BAE7028B22F080020A43CD
:105A50000283B4E7028B4FF6FF73C2F30E0203EA30
:105A6000012111430183AAE7828B22F080020A43BD
:105A70008283A4E7828B4FF6FF73C2F30E0203EA20
:105A80000121114381839AE7028C22F002020A432A
:105A9000028494E7028C22F008020A4302848EE713
:105AA000028C4FF6FF7322F0200203EA011111432A
:105AB000018484E7028C4FF6FF7322F0800203EA30
:105AC0000111114301847AE7028C4FF6FF7322F42F
:105AD000007203EA01211143018470E7028C4FF642
