:020000040800F2
:1000000090130020AD680008ED470008EF47000896
:10001000F1470008F3470008F5470008000000001A
:10002000000000000000000000000000F74700088A
:10003000F947000800000000FB470008FD470008E2
:10004000C7680008C7680008C7680008C7680008D4
:10005000C7680008C7680008C7680008C7680008C4
:1000600089460008C7680008C7680008C768000814
:10007000C7680008C7680008C7680008C7680008A4
:10008000C7680008C7680008C7680008C768000894
:10009000C7680008C7680008C7680008D14600089C
:1000A000C7680008C7680008C7680008C768000874
:1000B000C7680008A9470008C7680008C7680008A3
:1000C000C7680008C7680008C7680008C768000854
:1000D000C7680008C768000855470008C7680008D7
:1000E000C7680008C7680008C7680008C768000834
:1000F000C7680008C7680008C7680008C768000824
:10010000C7680008C7680008C7680008C768000813
:10011000C7680008C7680008C7680008C768000803
:10012000C7680008C7680008C7680008C7680008F3
:1001300000F002F800F043F80AA090E8000C8244B6
:100140008344AAF10107DA4501D100F038F8AFF293
:10015000090EBAE80F0013F0010F18BFFB1A43F0A5
:1001600001031847886C0000A86C0000103A24BFF7
:1001700078C878C1FAD8520724BF30C830C144BF0C
:1001800004680C607047000000230024002500264E
:10019000103A28BF78C1FBD8520728BF30C148BFEA
:1001A0000B6070471FB506F09FFD04000020002182
:1001B00006F0D8FD401C60601FBD10B510BD06F0F4
:1001C0009BFD1146FFF7EEFF04F0F0F806F0B9FDD5
:1001D00003B4FFF7F2FF03BC06F0BCFD002806D015
:1001E0004FF4FA621146491EFDD1401EFAD1704704
:1001F00008B505F045FF0121102004F0D0FD2020B6
:10020000ADF8000010208DF8030003208DF80200E7
:100210006946314804F0DBFB08BDF0B595B00E46E9
:1002200007465021684606F0B9FC2B4D2021284690
:1002300004F037FC4FF47A70FFF7D0FF384606F031
:100240003DFC84B2FD208DF8000000208DF80100F7
:10025000A01C8DF8020001208DF803008DF8040029
:10026000224639460DF1050006F053FC641DA1B28B
:10027000684605F066FF3046FFF7B0FF20212846AC
:1002800004F011FC40F2AD3005F086FD15B0F0BD74
:1002900010B5044600F058FD2046BDE8104044F675
:1002A0002061BAE748F6B801B7E710B50B46044637
:1002B0001146184600F0D8FC2046BDE8104044F630
:1002C0002061AAE710B5044600F03EFD2046BDE8D7
:1002D000104044F62061A0E70010014008B506F088
:1002E0008DF90121102004F05AFD1020ADF8000016
:1002F0008DF8030003208DF802006946D94804F008
:1003000066FB08BD10B50B460021D74A02E0545CDD
:100310004454491C9942FAD300244454D24806F06C
:10032000CDFB0146D04806F0A2F8D048046010BDCD
:100330002DE9F047CE4D4FF00009044685F80290B4
:100340004F464FF0630840F24A367F1CFFB23246F8
:10035000C8A1C9A006F0BEF9012802D0032FF4D32A
:1003600001E0032F03D385F80280BDE8F087002762
:100370007F1CFFB23246C1A1C1A006F0ABF9012833
:1003800002D0032FF4D3EEE7032FECD23221BF4883
:1003900006F06DF8B5480168BC48FFF7B3FF0023CD
:1003A000BA4F00E0DBB2F85C03F101033A28F9D15F
:1003B000D8B201E0401CC0B2395C2029FAD100213A
:1003C000401CC0B204E0401C6254491CC0B2C9B217
:1003D0003A5C2C2AF7D104F800903246A5A1ACA0D3
:1003E00006F078F90128BED12146BDE8F047A048C3
:1003F00006F0D1BA2DE9F04704460125084600F081
:10040000A3FC40F24A3940F25E3840F2AD3600F0CB
:10041000E5F800287DD04F464A4696A19EA006F0FA
:1004200059F90028F6D0304605F0B6FC3A4691A1BD
:100430009BA006F04FF900287FD0304605F0ACFCB9
:100440003A469CA19EA006F045F9002875D030469A
:1004500005F0A2FC4746424686A19CA006F03AF968
:1004600000286AD0304605F097FC324681A19EA054
:1004700006F030F9002860D0304605F08DFC3A4691
:100480007CA19DA006F026F9002856D0304605F044
:1004900083FC3A4677A19CA006F01CF900284CD0BA
:1004A000304605F079FC3A4672A19BA006F012F99D
:1004B000002842D0304605F06FFC74489BA15038AC
:1004C00006F0D8FA71482146503806F016FB6F48FE
:1004D0009BA1503806F011FB6C4804F11201503812
:1004E00006F00BFB694890A1503806F006FB674800
:1004F000324694A1503806F0EDF850B104F1640092
:10050000FFF716FF5A488078632816D08F480446B4
:1005100000E012E000F01EFA01468D48016001681B
:10052000491C01600168204600F079F900F090FB59
:100530003046BDE8F04705F02FBC002D7FF467AFD3
:1005400013E770B505460C46474806F0B7FA014672
:10055000454805F08CFF45490020086021462846A3
:1005600006F09EF8BDE87040142005F015BC2DE99A
:10057000FF5F1F4692468B4600253C4E40F25518C1
:100580004FF4167926E0584606F098FA0146584688
:10059000FFF7D7FF6D1CEDB20024306898B14046DC
:1005A00005F0FAFB5146304806F052FA58B10E9960
:1005B000009805F05CFF31680098FFF7A3FE01206A
:1005C00004B0BDE8F09F484605F0E6FB641CE4B2C9
:1005D000142CE2D3BD42D6DB0020F1E72DE9F04137
:1005E000234901201F4D48701021284604F05BFA72
:1005F000002440F25517384605F0CEFB641CE4B2E7
:10060000052CF8D31021284604F04BFA0024384674
:1006100005F0C2FB641CE4B2052CF8D30025134E90
:10062000A84600243068002838460BD005F0B4FBFB
:100630001E2C10D247A10C4806F00AFA48B101203E
:10064000BDE8F08105F0A8FB641CE4B21E2CE9D3E0
:1006500001E0C6F800806D1CEDB2122DE1D3002040
:10066000EEE7000000100140E608002038000020FE
:10067000000000204F4B00002B2B2B004353510058
:1006800041542B4353510D0A00000000A0000020EC
:1006900041544F0D0A00000041540D0A00000000B3
:1006A00041542B4950523D3131353230303B265781
:1006B000200D0A002B43475245473A20302C310089
:1006C00041542B43475245473F0D0A0041542B43A9
:1006D0004744434F4E543D312C224950222C224353
:1006E0004D4E4554220D0A0041542B43474143547B
:1006F0003D312C31200D0A0041542B434D4D5558AE
:100700003D300D0A0000000041542B434D4D4F4435
:10071000453D310D0A00000041542B434D544346E2
:10072000473D312C313032340D0A000041542B4901
:100730005053544152543D22544350222C22000025
:10074000222C0000434F4E4E4543540039010020F7
:100750000400002043545A560000000005F00CBD70
:100760002DE9F04116460F46044625E02546641C57
:10077000A4B205F03BFD280AA02101EB4000C0B265
:1007800005F0DBFD05F0ACFDE8B205F0D6FD05F0A7
:10079000A7FD05F02BFDA12005F0CFFD05F0A0FD84
:1007A000002005F0F7FD054605F07CFD05F03DFD58
:1007B000761E07F8015BB6B2002ED7D1BDE8F081F6
:1007C0002DE9F04115460E46044623E00120F5E7E9
:1007D000377805F00BFD200AA02101EB4000C0B2E4
:1007E00005F0ABFD05F07CFD0028EFD1E0B205F08F
:1007F000A4FD05F075FD0028E8D1384605F09DFD03
:1008000005F06EFD05F011FD0A2005F0C5FA641C27
:10081000A4B2761C28466D1EADB2D9D2CEE74FF4F5
:100820007A7291FBF2F33033037091FBF2F302FB27
:100830001313642293FBF2F33033437091FBF2F312
:1008400002FB13130A2293FBF2F33033837091FB04
:10085000F2F302FB13113031C17000210171052246
:1008600001466420ACE700B58BB02821684606F04D
:1008700095F94248642100680A90414805F0F7FD67
:1008800002220AA96220FFF76BFF3EA10AA806F028
:10089000DFF8E0B363223A490520FFF761FF252224
:1008A0003749684605F0AAFD35490022A1F15400F8
:1008B000009B05F0CFFDDDE900233149521CA1F179
:1008C000450005F0C7FDDDE901232D49521CA1F1CA
:1008D0002C0005F0BFFDDDE902232949521CA1F1DE
:1008E000270005F0B7FDDDE903232549521CA1F1DE
:1008F0006C0005F0AFFDDDE904232149521CA1F194
:100900005A0005F0A7FDDDE905231D4900E006E0DA
:10091000A1F12200521C05F09DFD0BB000BD1A494B
:10092000174806F0A7F8164806F0C8F882B214492E
:100930000520FFF745FF13A10AA806F09BF8022245
:100940000AA96220FFF73CFF0D480021401FFFF776
:1009500066FFA4E770B50446002505222146642001
:10096000FFF7FEFE05E005EB85014900303945182B
:10097000641C20780028F6D1284670BD906D0008D0
:100980003E01002048580000946D00082DE9F05FFA
:10099000044632216A4805F06AFD6948322132383E
:1009A00005F065FD67A1664806F064F868A1644833
:1009B00006F0A3F82146624806F09FF867A1604858
:1009C00006F09BF85E49A1F1320006F053F8DFF81B
:1009D00090A1012100258AF8001062492F46AB46FC
:1009E0000D70614E40F255184FF41679642005F0F1
:1009F000D3F95348323806F061F80146504832388E
:100A0000FFF79FFD6D1CEDB20024306868B14046D1
:100A100005F0C2F955A1564806F01AF828B164202D
:100A200005F0BAF9142C0AD306E0484605F0B4F9EB
:100A3000641CE4B2142CE8D3032DD7D33FB18AF859
:100A400000B0BDE8F05F07214AA0FFF77ABD454836
:100A500063210170BDE8F09F2DE9F047322138484D
:100A600005F005FD36483221323805F000FD4348D7
:100A70000446FFF76FFF4148C01E0546FFF758FCCC
:100A800030A12F4805F0F6FF3C492D484F3906F0BC
:100A900034F83BA12A4806F030F83AA1284806F07D
:100AA0002CF82EA1264806F028F82146244806F006
:100AB00024F835A1224806F020F82946204806F0FF
:100AC0001CF81F49A1F1320005F0D4FFDFF894A013
:100AD00000252F468AF80050234E40F255184FF457
:100AE00016791748323805F0E9FF014614483238C4
:100AF000FFF727FD6D1CEDB20024306890B1404631
:100B000005F04AF919A11A4805F0A2FF50B1142CBA
:100B100002D3032DE5D36FB1BDE8F047072115A03F
:100B2000FFF70FBD484605F037F9641CE4B2142CFA
:100B3000E3D3EEE763218AF80010BDE8F0870000F8
:100B4000D40100205453656E646865617274250099
:100B5000466972737448656172740000252424002C
:100B60000100002002000020380000204B0000009F
:100B7000E608002048656172744F4B00390100207F
:100B800025000000763600002F00000005F080BC34
:100B900010B505F0C8FC0321BDE81040FF2005F0AA
:100BA000D4BC70B51C461646054605F063FF3146B9
:100BB000284605F0A2FF3CB1ABA1284605F09DFFF9
:100BC0002846BDE87040E3E7A9A1F6E7411E0429E5
:100BD00001D8A9A014E0811F052901D8A9A00FE020
:100BE000A0F10C01052901D8A9A009E0A0F112018A
:100BF000052901D8A9A003E018380728E9D8AAA038
:100C0000C6E710B50020FFF7E1FFAAA0FFF7C0FF7D
:100C1000BDE81040A9A0BBE7411E042901D896A059
:100C200014E0811F052901D896A00FE0A0F10C0166
:100C3000052901D896A009E0A0F11201052901D8E3
:100C400096A003E01838072801D897A0A0E77047BE
:100C500010B5A2A0FFF79CFFA2480078FFF7DCFFC9
:100C6000BDE81040A0A093E770B58EB00D460646D3
:100C70003221684605F0FBFB98A0FFF789FF994CED
:100C80002078FFF7C9FF2B4632469DA16846FFF743
:100C900088FF0EB070BD2DE9F0478EB0074616A84C
:100CA0000C4690E8000716461D463421684605F0BC
:100CB00075FF99A0FFF76CFF8A480078FFF7ACFF3B
:100CC0003A4697A1684600F0BEF8BAF1010F2ED05F
:100CD00096A0FFF75DFF98A0FFF75AFF3221684604
:100CE00005F0C5FB224697A1684600F0ACF832211A
:100CF000684605F0BCFB324695A1684600F0A3F8B3
:100D00003221684605F0B3FB4B462A4693A168465C
:100D1000FFF747FF3221684605F0A9FB4246012351
:100D200091A16846FFF73DFF0EB0BDE8F08791A0A6
:100D3000FFF72EFF92A0FFF72BFF3221684605F048
:100D400096FB224691A1CFE710B58EB00446342120
:100D5000684605F023FF61A0FFF71AFF6149087894
:100D6000FFF75AFF22467AA1684600F06CF80EB0F1
:100D700010BD10B588A0FFF70BFF5A480078BDE8FA
:100D8000104049E710B555A0FFF702FF554800781D
:100D9000FFF742FFBDE8104081A0F9E610B58EB024
:100DA00004463221684605F062FB82A0FFF7F0FEA0
:100DB0004C480078FFF730FF04F118027FA1684625
:100DC00000F041F804F127027FA1684600F03BF8EB
:100DD00022465CA1684600F036F804F112027DA1BB
:100DE000684600F030F804F140025FA1684600F068
:100DF0002AF804F145027AA1684600F024F804F1CB
:100E000064027AA1684600F01EF8B0E710B5044607
:100E10006421794805F02BFB26A0FFF7B9FE314984
:100E20000878FFF7F9FE04F14A02BDE8104073A10B
:100E3000714800F008B810B528A0FFF7A9FEBDE87A
:100E4000104077A0A4E670B51546044605F012FEE2
:100E50002946204605F051FE78A1204605F04DFEBA
:100E60002046BDE8704093E620B6D6220000000080
:100E700020D4AA220000000070312E7069633D3139
:100E80003000000070312E7069633D313100000088
:100E900070312E7069633D313200000070312E7068
:100EA00069633D313300000070312E7069633D315C
:100EB00034000000706167652030000074302E74CB
:100EC00078743D22CDF8C2E7B3F5CABCBBAFD6D02B
:100ED000A1A3A1A3A1A3A1A3220000007061676543
:100EE000203100000000002074302E7478743D2200
:100EF000C1ACBDD3B3C9B9A6A3A1A3A12200000070
:100F000074302E7478743D22C4FAD2D1B3C9B9A614
:100F1000B3E4D6B52000000070616765203400009E
:100F200074342E7478743D220000000076697320BA
:100F300067312C30000000007669732074352C3145
:100F40000000000074352E7478743D22000000000B
:100F500074302E7478743D220000000074362E74B4
:100F600078743D220000000074392E7478743D229C
:100F7000000000007669732067312C31000000000A
:100F80007669732074352C300000000067312E74B0
:100F900078743D2200000000706167652032000017
:100FA00074302E7478743D22B8FCB8C4B3C9B9A6A5
:100FB00022000000706167652033000074312E74D8
:100FC00078743D220000000074332E7478743D2242
:100FD0000000000074372E7478743D220000000079
:100FE0007431312E7478743D220000007431332E38
:100FF0007478743D22000000060200207172302EC9
:101000007478743D22687474703A2F2F776569780C
:10101000696E2E71712E636F6D2F722F00000000AC
:1010200074302E7478743D22D3B2BCFECECACCE2AA
:101030002CC1AACFB5B3A7BCD22200002022000049
:1010400038B50C46054604F0D5FE0121082003F012
:10105000A6FE2022ADF8002010228DF803200320E8
:101060008DF802006946FE4803F0B1FC214628468F
:10107000BDE8384001F0F8BF00B58DB0142108A8D4
:1010800005F08CFD20226946052002F093F8252208
:10109000694608A805F0B2F9642004F07DFE0898BE
:1010A0000A2809D109981F2806D12022694605205F
:1010B000FFF786FB002800D001200DB000BD1CB555
:1010C00005226946252002F075F8642004F064FECC
:1010D000052269462520FFF773FB002800D0012078
:1010E0001CBD1CB5052269462A2002F063F8642065
:1010F00004F052FE052269462A20FFF761FB002812
:1011000000D001201CBD00B587B0162269462F20F3
:1011100002F050F8642004F03FFE162269462F20AA
:10112000FFF74EFB002800D0012007B000BD00B53E
:1011300087B015226946452002F03CF8642004F08F
:101140002BFE152269464520FFF73AFB0028ECD01C
:101150000120EAE72DE9F04FC24C87B04FF00008BC
:10116000C14DC4F8048084F80080064685F80080EC
:10117000BE4808223146019005F0B8FBBB48082262
:10118000D2300199029005F0C8FBB848711D0F30AC
:101190000622064605F0AAFBB4483146E130062295
:1011A000064605F0BAFBB148B1A1693805F062FC0A
:1011B000AE48B349693805F0A0FCAC48B1A1693824
:1011C00005F09BFCA9480299693805F096FCA748F0
:1011D000ACA1693805F091FCA4483146693805F0A6
:1011E0008CFCA248A8A1693805F087FC9F496939A1
:1011F00001F20E4005F03EFCA4494FF0C80903235C
:10120000A1A201F1C800CDF80090FFF7B0F920705D
:10121000002865D0012860D114219D4805F02FF9E0
:101220009A492522C8319A4805F0E8F8984E0022DC
:10123000A6F1E601A1F2C620336805F00BF995A1ED
:10124000A6F56B7005F0D2FCA6F56B7505F12307CA
:101250000F35002847D092A1A5F10F0005F0C6FC7C
:1012600000287DD092A1A5F10F0005F0BFFC002859
:1012700077D093A1A5F10F0005F0B8FC002871D03C
:1012800093A1A5F10F0005F0B1FC00286BD094A14B
:10129000A5F10F0005F0AAFC002865D094A1A5F1E6
:1012A0000F0005F0A3FC00287DD095A1A5F10F004B
:1012B00005F09CFC002877D094A1A5F10F0005F063
:1012C00095FC002809D194A00522D0E90010CDE9B1
:1012D000001069466420FFF773FA07B0BDE8F08F8D
:1012E00063202870F9E7D6E9002368492846C83109
:1012F000521C05F0AFF8D6E9012364493846C831DD
:10130000521C05F0A7F86149D6E90223C831A1F5BE
:1013100025700446521C05F09DF8D6E903235B496D
:10132000521CC831A1F5D270009005F093F85749CE
:10133000D6E90423C831A1F24F108246521C05F0B1
:1013400089F85249D6E90523C831A1F5A070804635
:10135000521C05F07FF8D6E906234C49C83104E059
:101360004BE1ABE1ACE1ADE1AEE1A1F26D10834642
:10137000521C05F06FF83D4869A1693805F07AFB09
:101380003A482946693805F0B8FB38483DA1693824
:1013900005F0B3FB35483946693805F0AEFB3348F4
:1013A00038A1693801E091E192E105F0A6FB2F48F0
:1013B0002146693805F0A1FB03A801F00CFF0822C3
:1013C00003A9019805F092FADDE90110082205F061
:1013D000A4FA3846029905F009FC90B1234854A1BB
:1013E000693805F08AFB21492848693905F042FB34
:1013F000264805F063FB01462448FFF7A2F84FA0FA
:10140000E0E01A480099FF30064605F033FB4D48EE
:101410005146054605F02EFB4A4841460F3004462A
:1014200005F028FB114831462D300222064605F012
:101430008CFA0E48012229464B3005F086FA0B48FB
:1014400002225A302146054605F07FFA074C29460C
:10145000693C304694F8B42001F0E1FE74E00000ED
:10146000000C01401400002002000020F1020020C6
:101470005453656E643234504349442500000000E3
:10148000EA00002025000000252424009606002004
:10149000440800205353656E64323450000000004D
:1014A0005353656E64323450636865636B000000AB
:1014B0005353656E64323450657272300000000020
:1014C0005353656E6432345065727231000000000F
:1014D0005353656E643234506572723300000000FD
:1014E0005353656E643234506572723132000000BD
:1014F000576562736572766963654572726F000045
:101500005765624E6F416E7377657200636F6D6DE4
:10151000616E646572720000FFFFFFFFFF00000054
:101520005453656E64323450526573756C74250083
:10153000254661696C25242400000000C7EBD6D83D
:10154000CBA200000E04002084F86800012816D009
:10155000FEA0FEF7B7FEAFF22801204605F0CDFA57
:10156000214601F20E4005F085FA04F20E4005F026
:10157000A5FA014604F20E40FEF7E3FFADE6F7A13F
:10158000F94805F0BAFAF84901F20E4005F072FA8E
:10159000F8490123F5A201F1C800CDF80090FEF74B
:1015A000E6FF90B10128E9D1F248F3A1C83005F077
:1015B0001DFB60B1EF48F5A1C83005F017FB00280E
:1015C000DCD1F7A0FEF77EFE87E6FAA0FAE71E213F
:1015D000FD4804F04CFFFDA1FB4805F04BFA5946CD
:1015E000F94805F08AFAFDA1F74805F086FA0122CC
:1015F0005946F548FEF759FE6FE6D6E90023DD4966
:101600002846C831521C04F025FFD6E90123D949E8
:101610003846C831521C04F01DFFD649D6E90223D2
:10162000C831A1F51B708246521C04F013FFD1494A
:10163000D6E90323C831A1F511708146521C04F08C
:1016400009FF484605F03AFA0125182801D96560D6
:1016500001E0C4F80480C749D6E90423C831A1F5E4
:1016600007708046521C04F0F5FEC249D6E90523F6
:10167000C831A1F5FA700746521C04F0EBFED6E91A
:101680000623BC49521CC831A1F5E670064604F099
:10169000E1FEB54849461C38424640F804AB3B469B
:1016A0004EC06468C0E900540096CDE9015450462C
:1016B000FFF7F1FACAA0FEF7F5FD0EE6D3A081E729
:1016C000D8A07FE7DCA07DE7E1A07BE7E6A079E793
:1016D000E9A077E72DE9F04F93B00025E94C039599
:1016E000049505950695E84F6560257006463D70A2
:1016F00001469D4808226930019005F0F7F8E3485B
:1017000008228246019905F008F9974806227830A8
:10171000711D804605F0EAF8DC4841460F3006228C
:10172000804605F0FAF8904806F108018730082253
:10173000064605F0DBF8D54831461E30082206463D
:1017400005F0EBF8D2A1884805F094F9D449864811
:1017500005F0D3F9AFF2D421834805F0CEF9514614
:10176000814805F0CAF9AFF2E4217F4805F0C5F9D8
:1017700041467D4805F0C1F9AFF2F8217A4805F0FD
:10178000BCF93146784805F0B8F976A1764805F0FD
:10179000B4F97549774805F06DF976494FF0C809F5
:1017A000032370A201F1C800CDF80090FEF7DFFE20
:1017B000207000286AD0844814211E3004F05FFE97
:1017C0006C492522C83101F1E60004F017FE7E4E77
:1017D00000221E36A6F1E601A1F2C620336804F00D
:1017E00039FEB0A1A6F56B7005F000FAA6F56B778F
:1017F00007F12308010007F10F074AD0ACA1A6F5B5
:101800006B7005F0F3F900287ED0ADA1A6F56B70E2
:1018100005F0ECF9002878D0ADA1A6F56B7005F0C5
:10182000E5F9002872D0AEA1A6F56B7005F0DEF9DF
:1018300000286CD0AEA1A6F56B7005F0D7F9002892
:1018400066D0AFF25431A6F56B7005F0CFF90028E1
:101850007AD0AFF25431A6F56B7005F0C7F90028C5
:1018600073D0AFF25831A6F56B7005F0BFF90028C0
:101870000AD1AFF25C30D0E90010CDE900100522AA
:1018800069466420FEF79CFF13B027E5632038709B
:10189000FAE7D6E9002337493846C831521C04F02C
:1018A000D9FDD6E9012333494046C831521C04F022
:1018B000D1FD3049D6E90223C831A1F5257004468F
:1018C000521C04F0C7FDD6E903232A49521CC83133
:1018D000A1F23110129004F0BDFDD6E90423254990
:1018E000521CC831A1F59170119004F0B3FD21494B
:1018F000D6E90523C831A1F213108346521C04F027
:10190000A9FDD6E9062304E056E2B2E2B4E2B6E26B
:10191000B8E21849521CC831A1F58270109004F049
:1019200099FDD6E907231349521CC831A1F1F500EE
:101930000F9004F08FFD0F49D6E90823C831A1F1BB
:10194000E600521C0E90DBE09FE2A1E2B3E4D6B5C4
:10195000CAA7B0DC2CC7EBD6D8CBA2002553756341
:101960006365737325242400880200207570646108
:1019700074650000960600207570646174656F726E
:1019800064657273746174654F4B32007570646185
:1019900074656F7264657273746174654F4B310066
:1019A000BDBBD2D7CEB4CADCC0EDA3ACC7EBD6D892
:1019B000CBA20000CDA8D0C5CAA7B0DCA3ACC7EBB2
:1019C000D6D8CBA20000000026080020C4FAD2D14D
:1019D000B3C9B9A6B3E4D6B500000000B6D600007E
:1019E000CEA2D0C5BDC9B7D1BAF3C7EBBDABBFA8B6
:1019F000C8A1B3F6A3ACD6D8D0C2B2E5C8EBCDEA45
:101A0000B3C9D0B4BFA8B2D9D7F70000CEB4D6AA14
:101A1000D3C3BBA7A3ACC7EBD3AAD2B5CCFCB0EC65
:101A2000C0ED0000C7EBCEA2D0C5D6A7B8B6BAF3BA
:101A3000D4D9CBA2BFA80000CEDED0A7BFA8A3AC4C
:101A4000C7EBD3AAD2B5CCFCB0ECC0ED00000000CF
:101A5000BDBBD2D7B9D8B1D5A3ACC7EBD3AAD2B549
:101A6000CCFCB0ECC0ED0000CDF8C2E7B7FECEF183
:101A7000CEB4BFAAC6F40000CDF8C2E7CEDECFECEC
:101A8000D3A600001400002002000020C3030020A1
:101A90005453656E6432344C4349442500000000C1
:101AA000EA0000205353656E6432344C000000009D
:101AB0005353656E6432344C636865636B00000099
:101AC0005353656E6432344C65727230000000000E
:101AD0005353656E6432344C6572723100000000FD
:101AE0005353656E6432344C6572723300000000EB
:101AF0005353656E6432344C6572723132000000AB
:101B000004F0A8FCD6E90923FE49521CA1F1D70034
:101B1000009004F09FFCD6E90A23FA49521CA1F573
:101B2000D270054604F096FCD6E90B23F549521C09
:101B3000A1F26D10029004F08DFCF3A1F64804F0C0
:101B400099FF3946F44804F0D8FFAFF2C861F24873
:101B500004F0D3FF4146F04804F0CFFFAFF2DC6160
:101B6000ED4804F0CAFF2146EB4804F0C6FF07A881
:101B700001F08EFB082207A9019804F0B7FE0822A5
:101B80005046019904F0C9FE5146404605F02EF832
:101B9000A8B1AFF26461E04804F0AFFFDE4901F2A2
:101BA0000E4004F067FFD748C83804F087FF0146AD
:101BB000D448C838FEF7C5FCAFF21020DAE0D748A9
:101BC0002946824604F056FFD44812993C3080469C
:101BD00004F050FFD14811994B30019004F04AFFB6
:101BE000CE4859465A30834604F044FFCB481099FA
:101BF0006930074604F03EFFC8480F997830064622
:101C000004F038FFC5480E998730054604F032FFCE
:101C1000C24800999630044604F02CFFBE48514655
:101C200096300422824604F090FEBC4802224146CF
:101C3000963804F08AFEB94802228738019904F0E8
:101C400084FEB64802225946783804F07EFEB34836
:101C500002223946693804F078FEB0480222314643
:101C60005A3804F072FEAD48022229464B3804F07F
:101C70006CFEAA48022221463C3804F066FEA64CBF
:101C800005AA03A914F8D20F8DF80C0060788DF81E
:101C90000D00E07B8DF80E00207C8DF80F00A07FFA
:101CA0008DF81000E07F8DF8110094F82D008DF86C
:101CB000120094F82E008DF8130094F83C008DF873
:101CC000140094F83D008DF8150094F84B008DF841
:101CD000160094F84C008DF8170094F85A008DF80F
:101CE000180094F85B008DF81900504601F0F9FADD
:101CF00004F86A0C012817D0AFF2B030FEF7E2FA10
:101D0000AFF2D471844804F0F8FE834901F20E402A
:101D100004F0B0FE7B48C83804F0D0FE0146794894
:101D2000C838FEF70EFCAFE5AFF2D0317A4804F0C8
:101D3000E4FE794901F20E4004F09CFE0123AFF26B
:101D4000D43270496F48C839CDF80090FEF70FFCC7
:101D500098B10128E7D1AFF2E0316A4804F046FFBC
:101D600070B1AFF2D831674804F040FF0028DAD1F3
:101D7000AFF2D430FEF7A6FA86E5AFF2C830F9E745
:101D800060481E21C83004F072FBAFF2C0315D48DC
:101D9000C83004F06FFE5B480299C83004F0ADFE15
:101DA00058485FA1C83004F0A8FE56480022C83049
:101DB0000299FEF77AFA67E5D6E9002351493846D9
:101DC000521C04F047FBD6E901234E494046521C01
:101DD00004F040FBD6E902234A49521CA1F51B70CE
:101DE000824604F037FBD6E903234649521CA1F58D
:101DF0001170814604F02EFB484604F05FFE18285F
:101E000002D90120606000E06560D6E904233D4905
:101E1000521CA1F50770804604F01CFBD6E905238F
:101E20003849521CA1F5FA70074604F013FBD6E9B5
:101E300006233449521CA1F5E670064604F00AFB5D
:101E4000354849461C38031DC0F800A042460661CB
:101E500083E8860064683B46C0E905540096CDE9F6
:101E600001545046FEF717FFAFF28C40FEF71AFA06
:101E70000AE5AFF268407DE7AFF258407AE7AFF28B
:101E8000484077E7AFF2384074E7AFF2244071E79B
:101E9000AFF21C406EE72DE9F04F224C87B04FF0B7
:101EA0000008214EC4F8048084F80080054686F8B6
:101EB00000801948082269302946834604F016FD3F
:101EC000164808222D385946824604F026FD12484D
:101ED00004227830691D074604F008FD0F48394692
:101EE0001E380422074604F018FD0B48E91D873010
:101EF0000622054604F0FAFC0848062229460F3857
:101F0000054613E05E0700205453656E6432344C7E
:101F1000526573756C74250088020020F003002060
:101F2000D4AA0000140000200200002004F0F5FCF8
:101F3000F7A1FB4804F09EFDFA49F94804F0DDFDE5
:101F4000F6A1F74804F0D9FD5146F54804F0D5FD57
:101F5000F2A1F34804F0D1FD3946F14804F0CDFD7B
:101F6000EEA1EF4804F0C9FD2946ED4804F0C5FD97
:101F7000AFF21061EA4804F0C0FDE94901F20E40F9
:101F800004F078FD4FF0C8090323AFF22862E64958
:101F9000CDF8009001F1C800FEF7E9FA20700028A2
:101FA00067D01421E14804F06AFADF492522C831DC
:101FB000DE4804F023FADD4D0022A5F1E601A1F28E
:101FC000C6202B6804F046FAD9A1A5F56B7004F081
:101FD0000DFEA5F56B7606F123070F3600284BD0D2
:101FE000D6A1A5F56B7004F001FE00287ED0D7A124
:101FF000A5F56B7004F0FAFD002878D0D7A1A5F5FF
:102000006B7004F0F3FD002872D0D8A1A5F56B70B9
:1020100004F0ECFD00286CD0D8A1A5F56B7004F09D
:10202000E5FD002866D0AFF63831A5F56B7004F0F9
:10203000DDFD00287DD0AFF63831A5F56B7004F0DA
:10204000D5FD002876D0AFF63C31A5F56B7004F0D5
:10205000CDFD00280AD1AFF64030D0E90010CDE91F
:102060000010052269466420FEF7AAFB07B0BDE810
:10207000F08F63203070F9E7D5E90023AA49304694
:10208000C831521C04F0E6F9D5E90123A6493846C7
:10209000C831521C04F0DEF9A349D5E90223C83146
:1020A000A1F525708046521C04F0D4F99E49D5E96B
:1020B0000323C831A1F5D2700446521C04F0CAF9BA
:1020C000D5E904239849521CC831A1F26D10054688
:1020D00004F0C0F9AD482146044604F0CBFCACA1A5
:1020E0008F4804F0C7FC31468D4804E0ABE059E16D
:1020F0005BE15DE15FE104F000FD88A1884804F048
:10210000FCFC3946864804F0F8FC84A1844804F0BD
:10211000F4FC4146824804F0F0FC03A801F02EFCD8
:10212000082203A9584604F0E1FB0822594650460C
:1021300001E043E145E104F0F0FB5146384604F08C
:1021400055FD90B1AFF61841754804F0D6FC7449BE
:10215000754804F08FFC744804F0B0FC01467248E6
:10216000FEF7EFF9AFF2BC704AE06D4821469630B9
:102170000322044604F0E9FB204601F03DFC6849D7
:10218000012881F8680014D0AFF64000FEF79AF8F5
:10219000AFF66441624804F0B0FC6149624804F063
:1021A00069FC614804F08AFC01465F48FEF7C9F902
:1021B0005CE7AFF658015A4804F09FFC58495A486A
:1021C00004F058FC0123AFF65C025749CDF80090AB
:1021D00001F1C800FEF7CBF9A8B10128E8D1AFF6AC
:1021E00068015148C83004F001FD78B1AFF66401D0
:1021F0004D48C83004F0FAFC0028D9D1AFF6600091
:10220000FEF760F832E7AFF65400F9E747481E21C1
:102210001E3804F02CF9AFF64C0144481E3804F087
:1022200029FC424829461E3804F067FCAFF65401E9
:102230003E481E3804F061FC3C48012229461E3805
:10224000FEF733F812E7D5E9002337493046C831A5
:10225000521C04F0FFF8D5E9012333493846C83150
:10226000521C04F0F7F83049D5E90223C831A1F532
:102270001B708246521C04F0EDF82B49D5E903236C
:10228000C831A1F511708146521C04F0E3F84846AC
:1022900004F014FC0126182801D9666001E0C4F896
:1022A00004802149D5E90423C831A1F5077080468F
:1022B000521C04F0CFF81C49D5E90523C831A1F51B
:1022C000FA700746521C04F0C5F8D5E906231649F2
:1022D000521CC831A1F5E670054604F0BBF8104861
:1022E00049461C38031DC0F800A04246056183E83A
:1022F000860064683B46C0E905640095CDE9016449
:102300005046FEF7C8FCAFF62810FDF7CBFFADE650
:102310005453656E6434343432434944250000001C
:1023200088020020EA0000209606002044080020D1
:102330005353656E64343434320000005353656E79
:102340006434343432636865636B00005353656EE4
:102350006434343432657272300000005353656E59
:102360006434343432657272310000005353656E48
:102370006434343432657272330000005353656E36
:10238000643434343265727231320000F00300205C
:102390005453656E6434343432526573756C7425ED
:1023A00000000000AFF69C102AE7AFF6881027E780
:1023B000AFF67C1024E7AFF6681021E7AFF65810AF
:1023C0001EE7AFF64C101BE72DE9F04FF94C87B034
:1023D0004FF00008F84EC4F8048084F800800546E9
:1023E00086F80080F5480A222946019004F07EFA1A
:1023F000F2480A22D2300199029004F08EFAEF4896
:1024000004221E30A91D074604F070FAEB48394635
:10241000F0300422074604F080FAE84805F108018C
:102420003C300422054604F061FAE54804222946BE
:10243000834604F072FAE148E2A1693804F01AFB1D
:10244000DE48E449693804F058FBAFF23011DB484C
:10245000693804F052FBD9480299693804F04DFB01
:10246000AFF24811D548693804F047FBD3483946E4
:10247000693804F042FBAFF25C11D048693804F0CF
:102480003CFBCE485946693804F037FBAFF62C3197
:10249000CA48693804F031FBC849693901F20E4075
:1024A00004F0E8FA4FF0C8090323AFF64832CA49EE
:1024B000CDF8009001F1C800FEF759F8207000280F
:1024C00064D01421C54803F0DAFFC3492522C8317E
:1024D000C24803F093FFC14D0022A5F1E601A1F22D
:1024E000C6202B6803F0B6FFBDA1A5F56B7004F004
:1024F0007DFBA5F56B7606F123070F36002848D043
:10250000BAA1A5F56B7004F071FB00287DD0BBA1CA
:10251000A5F56B7004F06AFB002877D0BBA1A5F588
:102520006B7004F063FB002871D0BCA1A5F56B7043
:1025300004F05CFB00286BD0BCA1A5F56B7004F027
:1025400055FB002865D0BD49A5F56B7004F04EFB26
:1025500000287CD0B949A5F56B70103104F046FB1A
:10256000002875D0B549A5F56B701C3104F03EFB11
:1025700000280AD1B14805222830D0E90010CDE961
:10258000001069466420FEF71BF96FE56320307088
:102590006CE5D5E9002390493046C831521C03F060
:1025A00059FFD5E901238C493846C831521C03F044
:1025B00051FF8949D5E90223C831A1F525700446A8
:1025C000521C03F047FF8449D5E90323C831A1F524
:1025D000D2708246521C03F03DFF7F49D5E90423A7
:1025E000C831A1F5BE708046521C03F033FFD5E917
:1025F00005237949521CC831A1F26D10054603F03C
:1026000029FF6E488EA1693804E029E185E187E160
:1026100089E18BE104F02EFA68483146693804F00C
:102620006CFA66488AA1693804F067FA634839464B
:10263000693804F062FA614885A1693804F05DFAEE
:102640005E482146693804F058FA03A801E070E1B9
:1026500072E101F06DFC0A2203A9019804F046F929
:10266000DDE901100A2204F058F93846029904F015
:10267000BDFAA0B1714951484031693804F03DFAC2
:102680004E495548693904F0F5F9534804F016FAF3
:1026900001465148FDF755FFAFF6F04050E048487D
:1026A00051460F38044604F0E5F94146584604F017
:1026B000E1F9022221460DF1120004F046F902224E
:1026C000594605A804F041F93C4E0024693E03AB8D
:1026D00093E8070001F0BAFC641C86F86800E4B2D5
:1026E000012803D0032C4ED0F1D3BFE4AFF69451B0
:1026F0003248A0F1690004F000FA304936486939DF
:1027000004F0B8F90123AFF69C523349CDF800909C
:1027100001F1C800FDF72BFFA8B10128E5D1AFF604
:10272000A8512D48C83004F061FA78B1AFF6A45131
:102730002948C83004F05AFA0028D6D1AFF6A05084
:10274000FDF7C0FD92E4AFF69450F9E723481E214F
:102750001E3803F08CFEAFF68C5120481E3804F072
:1027600089F91E4829461E3804F0C7F9AFF694517E
:102770001A481E3804F0C1F91848012229461E38AB
:10278000FDF793FD72E433A0FDF79CFD2B490B4848
:102790004031693804F0B1F908490F48693904F04B
:1027A00069F90D4804F08AF901460B48FDF7C9FEA6
:1027B0005CE400001400002002000020F102002070
:1027C000FF0300205453656E643535353750434957
:1027D00044250000EA00002096060020440800205E
:1027E0005353656E64353535375000005353656E6D
:1027F000643535353750636865636B005353656ED8
:102800006435353537506572723000005353656E4C
:102810006435353537506572723100005353656E3B
:102820006435353537506572723300005353656E29
:10283000643535353750657272313200F014000856
:102840005453656E643535353750526573756C7405
:1028500025000000B3E4D6B5CAA7B0DC0000000034
:10286000D5E90023FE493046521C03F0F3FDD5E9BB
:102870000123FB493846521C03F0ECFDD5E9022345
:10288000F749521CA1F51B70824603F0E3FDD5E920
:102890000323F349521CA1F51170814603F0DAFDC0
:1028A000484604F00BF90126182801D9666001E0BA
:1028B000C4F80480D5E90423E949521CA1F5077046
:1028C000804603F0C7FDD5E90523E549521CA1F573
:1028D000FA70074603F0BEFDD5E90623E049521C15
:1028E000A1F5E670054603F0B5FDDE484946031D37
:1028F000C0F800A04246056183E8860064683B4654
:10290000C0E905640095CDE901645046FEF7C3F9BE
:10291000AFF63470FDF7C6FC4AE4AFF610700FE76F
:10292000AFF600700CE7AFF6F06009E7AFF6E060D5
:1029300006E7AFF6CC6003E7AFF6C46000E72DE929
:10294000F04FC94C99B00025C84F65602570064608
:102950003D700146C3480A228530019003F0C6FF4E
:10296000C3480A220199029003F0D7FFBD4808220C
:10297000A330B11D804603F0B9FFBD4841461E306B
:102980000822804603F0C9FFB94806F113019638C2
:102990000622064603F0AAFFB54806223C3031461F
:1029A000139003F0BAFFAF48B2A11C3004F062F8F4
:1029B000AC48B4491C3004F0A0F8AFF26C11A9483F
:1029C0001C3004F09AF8A74802991C3004F095F8DE
:1029D000AFF28411A3481C3004F08FF8A14841469F
:1029E0001C3004F08AF8AFF298119E481C3004F0B5
:1029F00084F89C4813991C3004F07FF89948A24948
:102A00001C3004F07AF897491C3101F20E4004F0B2
:102A100031F893494FF0C80903239B4AC8399048BD
:102A2000CDF80090FDF7A3FD2070002868D08C48F9
:102A30001421E63003F023FD8949252201F1E60047
:102A400003F0DCFC864E8649E6360022A1F2C62061
:102A5000336803F0FFFC8DA1A6F56B7004F0C6F897
:102A6000A6F56B7707F12308010007F10F074AD09D
:102A700089A1A6F56B7004F0B9F800287DD08AA171
:102A8000A6F56B7004F0B2F8002877D08AA1A6F5FD
:102A90006B7004F0ABF8002871D08BA1A6F56B70B9
:102AA00004F0A4F800286BD08BA1A6F56B7004F09D
:102AB0009DF8002865D08C49A6F56B7004F096F857
:102AC00000287DD08849A6F56B70103104F08EF88F
:102AD000002876D08449A6F56B701C3104F086F886
:102AE00000280AD1804805222830D0E90010CDE91D
:102AF000001069466420FDF763FE19B0BDE8F08F51
:102B000063203870F9E7D6E9002355493846521C4E
:102B100003F0A0FCD6E9012351494046521C03F0C2
:102B200099FCD6E902234E49521CA1F525700446B2
:102B300003F090FCD6E903234949521CA1F231105D
:102B4000824603F087FCD6E904234549521CA1F5CF
:102B50009170179003F07EFCD6E905234049521C82
:102B6000A1F21310169003F075FCD6E906233C4938
:102B7000521CA1F1F500054604E08AE1EDE1EFE128
:102B8000F1E1F3E103F066FCD6E907233449521C76
:102B9000A1F1E600159003F05DFCD6E90823304969
:102BA000521CA1F5D270149003F054FCD6E909230D
:102BB0002B49521CA1F5BE70009003F04BFC01E0C4
:102BC000D7E1D9E1D6E90A232549521CA1F26D10BB
:102BD000834603F03FFC234844A11C3003F04AFF26
:102BE000204839461C3003F088FF1E4843A11C30A2
:102BF00003F083FF1B4841461C3003F07EFF194859
:102C00003EA11C3003F079FF164821461C3003F02A
:102C100074FF03A801F042FA0A2203A9019803F005
:102C200065FEDDE901100A2203F077FE40460299B5
:102C300003F0DCFF90B12C490A4840311C3003F00E
:102C40005CFF08491C3101F20E4003F013FF0448F9
:102C5000C83803F033FF0146014851E055E0000059
:102C60005E0700206C0200201400002002000020FB
:102C7000C30300205453656E64353535374C4349E2
:102C800044250000EA000020641900085353656ED3
:102C900064353535374C00005353656E6435353532
:102CA000374C636865636B005353656E6435353527
:102CB000374C6572723000005353656E643535359C
:102CC000374C6572723100005353656E643535358B
:102CD000374C6572723300005353656E6435353579
:102CE000374C657272313200F01400085453656E2F
:102CF00064353535374C526573756C7425000000AA
:102D0000C838FDF71EFCF44891E0F448514682466D
:102D100003F0B0FEF14817990F30804603F0AAFE89
:102D2000EE4816991E30044603F0A4FEEB482946EF
:102D30003C30054603F09EFEE84815994B300646A8
:102D400003F098FEE54814993C38074603F092FEDC
:102D50000099139803F08EFE514609A803F08AFEED
:102D6000414609A803F0C9FE214609A803F0C5FEA3
:102D700029460EA803F07EFE31460EA803F0BDFEE4
:102D8000042239460DF1120003F0DFFD03220DF19C
:102D90001F00139903F0D9FD062209A90DF11600B1
:102DA00003F0D3FD03220EA907A803F0CEFDCC4DFE
:102DB000002407980090BDF8200003AEADF8040091
:102DC00096E80F0001F022FA641C85F86800E4B26E
:102DD000012803D0032C48D0EBD38EE6BE49C0486F
:102DE000A1F1500103F089FEBD4901F20E4003F04C
:102DF00041FEB94ABB490123403A01F1C800CDF870
:102E00000090FDF7B4FBA8B10128E6D1B249B5485E
:102E10003439C83003F0EAFE78B1AF49B1482039FF
:102E2000C83003F0E3FE0028D7D1AB480C38FDF7DB
:102E300049FA62E6A8480830F9E71E21AA4803F0DB
:102E400016FBA549A848203103F014FE5946A648B0
:102E500003F053FEAFF63871A34803F04EFE002294
:102E60005946A148FDF721FA47E6AFF21860FDF791
:102E700029FA9E499A4803F040FE9949994803F07F
:102E8000F9FD984803F01AFE01469648FDF759FBF4
:102E900033E6D6E9002393493846C831521C03F083
:102EA000D9FAD6E901238F494046C831521C03F0B4
:102EB000D1FA8C49D6E90223C831A1F51B708246AC
:102EC000521C03F0C7FA8749D6E90323C831A1F59C
:102ED00011708146521C03F0BDFA484603F0EEFD26
:102EE000182802D90120606000E065607D49D6E9BC
:102EF0000423C831A1F507708046521C03F0AAFADA
:102F00007849D6E90523C831A1F5FA700746521C65
:102F100003F0A0FAD6E906237249521CC831A1F584
:102F2000E670064603F096FA6D4849461C38031DC4
:102F3000C0F800A04246066183E8860064683B460C
:102F4000C0E905540096CDE901545046FDF7A3FEB3
:102F500061483430FDF7A6F9CFE55F48603066E799
:102F60005D48783063E75C488C3060E75A48A430AD
:102F70005DE75948BC305AE75748CC3057E72DE950
:102F8000F0415A489EB01838594ED0E90010CDE9AA
:102F90001C10002030700A2119A803F068FA64217F
:102FA000504803F064FA504814211E3003F067FAC9
:102FB00064224C491046FDF7D3FB4A49252201F50E
:102FC000D77003F01BFA484800221E3045490368B9
:102FD00019A803F03FFA47A119A803F007FE00283B
:102FE0003CD146A13F4803F001FE70BB3D4803F0D1
:102FF00065FD01463B48FDF7A4FA414D002440F22F
:1030000055174FF41678286800B3384602F0C4FE0E
:1030100031493C48403903F01BFDB8B1142C11D2A2
:1030200030486421C83003F022FA29682D48C8309E
:10303000FDF768F928496846343903F0D7FD20B117
:10304000632030701EB0BDE8F08107E0404602F01A
:10305000A3FE641CE4B2142CD5D3F3E705221CA90B
:103060006420FDF7ADFBEDE77FB50E460446012178
:10307000084601F094FE0121082001F090FE4FF473
:103080000075ADF80C5003208DF80E0048208DF827
:103090000F0003A91C4801F09AFC0921012001F04E
:1030A0004AFD00208DF804000C2000958DF80500E5
:1030B00001258DF80650684602F062F817208DF859
:1030C00008008DF809408DF80A608DF80B5002A8B1
:1030D00001F0D3FB7FBD0000AC1900082C040020D8
:1030E00088020020960600202608002030150008DF
:1030F000020000205453656E640000002424000088
:1031000038000020E6080020000C014070B5984D02
:1031100004462021284601F0C4FC02F0C1FE200A2A
:10312000A02101EB4000C0B202F052FF02F028FFE4
:10313000E0B202F04DFF02F023FF02F0B1FEA12049
:1031400002F046FF02F01CFF002002F06AFF044676
:1031500002F0FAFE02F0C0FE2021284601F0A3FC96
:10316000204670BD70B5824D0E460446202128468B
:1031700001F097FC02F094FE200AA02101EB400030
:10318000C0B202F025FF02F0FBFEE0B202F020FF29
:1031900002F0F6FE304602F01BFF02F0F1FE02F0F4
:1031A0009BFE0A2002F0F8FD2846BDE87040202171
:1031B00001F079BC70B515460E46044608E020467D
:1031C000641CA4B2FFF7A2FF6D1E06F8010BADB29E
:1031D000002DF4D170BD70B5054600242046FFF7E0
:1031E00095FF2855641CE4B2042CF7D30420FFF7A4
:1031F0008DFF28710620FFF789FF28720720FFF74F
:1032000085FF68727520FFF781FF68717620FFF7F0
:103210007DFFA8717720FFF779FFE87170BD70B569
:103220000C460546017816460620FFF79BFF062050
:10323000FFF76CFF2978884226D169780720FFF7CD
:1032400091FF0720FFF762FF697888421CD121783F
:103250004620FFF787FF4620FFF758FF2178884276
:1032600012D161784920FFF77DFF4920FFF74EFF1B
:103270006178884208D131464A20FFF773FF4A201F
:10328000FFF744FFB04201D0002070BD012070BDA7
:1032900070B50024054634262046FFF737FF285531
:1032A000641CE4B2042CF7D30420FFF72FFF28712D
:1032B0001E20FFF72BFF68711F20FFF727FFA87163
:1032C0002020FFF723FFE87100243046FFF71EFFA0
:1032D0002919761C641CE4B20872F6B2042CF4D3EB
:1032E00070BD2DE9F0470024342715269246894603
:1032F0008046242518F804103846FFF733FF384677
:10330000FFF704FF18F80410884225D17F1C641CC5
:10331000E4B2FFB2042CEDD30024304619F80410B7
:10332000FFF720FF3046FFF7F1FE19F8041088423E
:1033300012D1761C641CE4B2F6B2082CEDD3002442
:1033400028461AF80410FFF70DFF2846FFF7DEFEA7
:103350001AF80410884202D00020BDE8F0876D1CE6
:10336000641CE4B2EDB2062CEAD30120F5E70000BC
:10337000000C014010B52021FE4801F092FB002412
:103380000F2002F0F2FC641CE4B20A2CF8D310BD4A
:103390002021F84801F087BB70B50546002402F0F3
:1033A00058FDF44E4021304601F07DFBE8074FF018
:1033B0008001304615D001F074FB0A2002F0D5FCE4
:1033C0004021304601F06DFB0A2002F0CEFC402186
:1033D000304601F068FB641C6D08E4B2082CE1D3B0
:1033E00070BD01F060FBE8E72DE9F0410C460646B0
:1033F000002502F01FFD02F02CFDDE4F2021384693
:1034000001F04FFB0F2002F0B0FC0F2002F0ADFCEA
:103410004021384601F047FB8021384601F043FB4C
:103420004021384601F03DFB8021384601F039FB50
:103430008021384601F037FB3020FFF7ADFF3046E2
:10344000FFF7AAFF0020FFF7A7FF4021384601F051
:103450002AFB4021384601F024FB8021384601F048
:1034600022FB8021384601F01CFB02F001FD3E46A4
:103470004021304601F017FB012002F08DFC20783E
:10348000802140082070304601F0F7FA18B120780A
:1034900040F0800020704021304601F002FB012006
:1034A00002F07AFC6D1CEDB2082DE1D320213046EC
:1034B00001F0F9FA0020BDE8F0812DE9F047164649
:1034C00088468146002402F0B5FC02F0C2FCA94DFA
:1034D0004021284601F0E7FA8021284601F0E1FA70
:1034E0004021284601F0DDFA8021284601F0DBFA70
:1034F0003120FFF751FF0020FFF74EFF0020FFF7BC
:103500004BFF4021284601F0CEFA4021284601F029
:10351000C8FA8021284601F0C6FA8021284601F029
:10352000C0FA02F0A5FC00274021284601F0BBFAB2
:103530004021284601F0B5FA64088021284601F0B0
:103540009CFA08B144F080047F1CFFB2082FEBD333
:1035500000274021284601F0A6FA0F2002F005FCC2
:103560004021284601F09DFA0F2002F0FEFB7F1C4F
:10357000FFB2182FEDD302F06CFC60077ED0E0079D
:1035800002D004F0FE0406E0A00702D504F0FD041A
:1035900001E004F0FB044021284601F084FA802178
:1035A000284601F07EFA4021284601F07AFA80216F
:1035B000284601F078FA3920FFF7EEFE0020FFF7E9
:1035C000EBFE2046FFF7E8FE4021284601F06BFAAB
:1035D0008021284601F067FA4021284601F061FA6F
:1035E0008021284601F05DFA02F042FC00274021CC
:1035F000284601F058FA0F2002F0B7FB4021284678
:1036000001F04FFA0F2002F0B0FB7F1CFFB27C2FBD
:10361000EDD302F01EFC4021284601F044FA80213F
:10362000284601F03EFA4021284601F03AFA80216E
:10363000284601F038FA0F2002F097FB3320FFF7FD
:10364000ABFE0120FFF7A8FE4846FFF7A5FE40218C
:10365000284601F028FA8021284601F024FA40216A
:10366000284601F01EFA8021284601F01AFA40216E
:10367000284601F018FA4021284600E02AE101F02E
:1036800010FA4021284601F00EFA4021284601F0A8
:1036900008FA4021284601F006FA8021284601F068
:1036A00000FA4021284601F0FCF98021284601F06B
:1036B000FAF93320FFF770FE0220FFF76DFE404657
:1036C000FFF76AFE4021284601F0EDF980212846E7
:1036D00001F0E9F94021284601F0E3F9802128466C
:1036E00001F0DFF94021284601F0DDF940212846AC
:1036F00001F0D7F94021284601F0D5F940212846AC
:1037000001F0CFF94021284601F0CDF9802128466B
:1037100001F0C7F90F2002F028FB4021284601F0F4
:10372000C0F98021284601F0BEF90F2002F01DFBF0
:103730003320FFF731FE0320FFF72EFE3046FFF760
:103740002BFE4021284601F0AEF98021284601F0E9
:10375000AAF94021284601F0A4F98021284601F069
:10376000A0F94021284601F09EF94021284601F0A9
:1037700098F901E0000C01404021284601F093F93E
:103780004021284601F08DF94021284601F08BF9AF
:103790008021284601F085F90F2002F0E6FA402149
:1037A000284601F07EF98021284601F07CF90F209F
:1037B00002F0DBFA3920FFF7EFFD0020FFF7ECFD08
:1037C000FF20FFF7E9FD4021284601F06CF9802138
:1037D000284601F068F94021284601F062F980216D
:1037E000284601F05EF902F043FB00262F464021F7
:1037F000384601F058F90F2002F0B7FA4021384658
:1038000001F04FF90F2002F0B0FA761CF6B27C2ED0
:10381000EDD302F01EFB4021384601F044F980212F
:10382000384601F03EF94021384601F03AF980214E
:10383000384601F038F90F2002F097FA3120FFF7EF
:10384000ABFD0020FFF7A8FD0020FFF7A5FD4021FC
:10385000384601F028F94021384601F022F980214C
:10386000384601F020F98021384601F01AF902F0BB
:10387000FFFA00254021384601F015F9402138466D
:1038800001F00FF964088021384601F0F6F808B11C
:1038900044F080046D1CEDB2082DEBD300254021CF
:1038A000384601F000F90F2002F05FFA4021384657
:1038B00001F0F7F80F2002F058FA6D1CEDB2182D48
:1038C000EDD34021384601F0EEF802F0C2FAE043B1
:1038D000400700D00120BDE8F0872DE9F0410F46F8
:1038E0000646002402F0A6FA02F0B3FA584D402131
:1038F000284601F0D8F88021284601F0D2F840216E
:10390000284601F0CEF88021284601F0CCF8382076
:10391000FFF742FD3046FFF73FFD3846FFF73CFD1D
:103920004021284601F0BFF88021284601F0BBF86D
:103930004021284601F0B5F88021284601F0B1F871
:103940004021284601F0AFF88021284601F095F883
:103950004021284601F0A5F80F2002F006FA402188
:10396000284601F0A0F80F2002F0FFF9641CE4B231
:10397000FE2CEDD302F06DFA00209CE52DE9FC4110
:103980000546002469460B20FFF72EFD6E460C20ED
:10399000711CFFF729FDB11C0D20FFF725FDF11C5F
:1039A0000E20FFF721FD01A90820FFF71DFD01AF43
:1039B0000920711DFFF718FD385D2919641C487135
:1039C000022CF9DB0022B05CA854521C042AFADB5A
:1039D000E91D3C20FFF708FD05F108013D20FFF738
:1039E00003FD05F109013E20FFF7FEFC291D0A2019
:1039F000FFF7FAFCBDE8FC81F8B5064600208DF81B
:103A0000000004463C25FFF7B5FC99226121A32064
:103A1000FFF753FD30B90A2002F0A7F9315D2846BF
:103A2000FFF75BFFFFF7B4FC69462846FFF7DCFCB5
:103A3000305D9DF80010884201D00020F8BD6D1C5B
:103A4000641CE4B2EDB2032CDDD30120F8BD00000C
:103A5000000C01402DE9FF5F8B46824601211020BA
:103A600001F09DF90121084601F099F90220ADF815
:103A700000001027DFF894948DF8037003248DF86C
:103A800002406946484600F0A2FF0125ADF800500B
:103A900004268DF803608DF802406946484600F020
:103AA00096FF4FF00808ADF800808DF803708DF890
:103AB00002406946484600F08AFFADF800608DF884
:103AC000024048208DF803006946484600F07FFF19
:103AD0000221084601F02FF800208DF808000C2084
:103AE0008DF8090001968DF80A5001A801F048FBF5
:103AF0008DF80C808DF80DA08DF80EB08DF80F505C
:103B000003A800F0BAFEBDE8FF9F10B5002408210D
:103B1000FE4800F0C6FF0F2002F027F9641CE4B253
:103B20000A2CF8D310BD0821F84800F0BCBF10B52E
:103B3000F64C01284FF0020120460DD000F0B3FFF3
:103B4000C02002F012F90221204600F0AAFFBDE8D1
:103B50001040C02002F009B900F0A5FF4FF4E0705A
:103B6000EFE770B50D4606460024300401D501206C
:103B700000E00020FFF7DBFF641C7600E4B2102CAD
:103B8000F3D30024280401D5012000E00020FFF732
:103B9000CEFF641C6D00E4B2102CF3D370BD2DE990
:103BA000F74FDA4D0C468046ADF5966D00270221A1
:103BB000284600F076FF0A2002F0EEF800200146C9
:103BC00096AB4DF8201043F82010401CC0B28B4635
:103BD0009A469628F5D30221284600F064FF052076
:103BE00002F0DAF80221284600F05BFF4FF4C876B5
:103BF000304602F0BAF80020FFF799FF0020FFF7E7
:103C000096FF0221284600F04EFF062002F0C4F87D
:103C10000221284600F045FF304602F0A6F80120B8
:103C2000FFF785FF4046FFF782FF48F2446148F600
:103C30009900FFF796FF0020FFF779FF600701D496
:103C4000002000E00120FFF772FFA00701D4002050
:103C500000E00120FFF76BFFE00700D00120FFF735
:103C600066FF0221284600F01EFF0024142002F007
:103C700093F8022600254FF4966805E028466D1C4F
:103C8000404501D90B27AAE00121A04800F0F5FE2C
:103C90000128F3D04AE04FF0E02042F228314161A0
:103CA00001210161C0F818B0DFF860828146984DAB
:103CB00001E06D1E54D30121404600F0DEFE0028D5
:103CC000F7D0D9F81410D9F81800081A6428EED3E0
:103CD0004946C9F810B0C9F818B04FF00909B0FB4F
:103CE000F9F34DF8263042F228304861012008618E
:103CF000C1F818B08846874D01E06D1E6FD30121D1
:103D0000824800F0BAFE0128F7D0D8F81410D8F88D
:103D10001800081A6428EED3C8F810B0C8F818B014
:103D2000B0FBF9F14AF82610761CF6B2962EB2D105
:103D300000210846564605E056F82120A2F22D1231
:103D4000632A04D30A46491CC9B2962AF4D196299B
:103D500007D05DF821206D46503A5B2A03D3022735
:103D60003DE001273BE0491CC9B255F82120503AFB
:103D70005B2A01D3032732E056F82120A2F1640325
:103D8000B3F5917F01D9042729E0B2F5967F04D9D4
:103D900064000022401C641C3BE0012239E0491C05
:103DA000C9B2962907D055F82130A3F15007DD2F6D
:103DB00003D3062713E0052711E0AF2B1AD2521CBC
:103DC000D2B2D30704D1401C6400C0B2202822D054
:103DD00056F82130A3F16407C92F0ED3072702211B
:103DE0004A4800F05EFE012F21D038460DF2BC4D4E
:103DF000BDE8F08F921CD2B2E5E7CD2B14D2521C55
:103E0000D2B2D30705D16400401CC0B2641C202884
:103E100001D02028C3D3DDF8B804022104603B4858
:103E200000F03FFE0120E1E7921CD2B2EBE7002058
:103E3000DCE72DE9F84F04460020DDF828900090DB
:103E4000164608061D460F4600EB064000EB05210E
:103E5000DFF8B8A001EB09080221504600F023FE6C
:103E6000052001F099FF0221504600F01AFE4FF4A0
:103E7000C87B584601F079FF0020FFF758FE00206C
:103E8000FFF755FE0221504600F00DFE052001F01F
:103E900083FF0221504600F004FE584601F065FF02
:103EA0000120FFF744FE0020FFF741FE48F2446185
:103EB00048F69900FFF755FE0020FFF738FE09EBA2
:103EC000052106EB0720FFF74CFE600701D4002018
:103ED00000E00120FFF72BFEA00701D4002000E046
:103EE0000120FFF724FEE00700D00120FFF71FFEAE
:103EF00002215546504600F0D6FD062001F04CFF49
:103F00006A4621460020FFF74AFE05E00010014006
:103F10009C5D0100FFFF03000221284600F0C1FD67
:103F20000099414502D00020BDE8F88F0120FBE751
:103F300010B58EB0044600200090019002900C90C5
:103F40000590049006900390079009900A900B90BA
:103F5000FFF7DBFD6A4601210020FFF720FE01AAE2
:103F600002210020FFF71BFE02AA03210020FFF719
:103F700016FE03AA01210020FFF711FE0CAA022160
:103F80000020FFF70CFE05AA03210020FFF707FE23
:103F900004AA01210020FFF702FE07AA0221002047
:103FA000FFF7FDFD06AA03210020FFF7F8FD09AA8F
:103FB00001210020FFF7F3FD0AAA02210020FFF7EC
:103FC000EEFD0BAA03210020FFF7E9FDDDE9031058
:103FD000814200D10090099A824200D100908A4229
:103FE00000D100910C990798814200D101900A9A62
:103FF000824200D101908A4200D10191DDE9051091
:10400000814200D102900B9A824200D102908A42F2
:1040100000D102910198010C2171000EE07000980E
:10402000A0700098000A60700098000C2070009842
:10403000000E60710298010EA171010CE171010A7C
:1040400021726072FFF76FFD0EB010BDF8B50C461F
:104050001546FFF75AFD4FF47A76304601F09CFE84
:10406000C5F307200090EBB2220EC4F307410320F2
:10407000FFF7DFFE0446304601F08EFE00200346C7
:104080000246014600900620FFF7D3FE24B118B186
:10409000FFF749FD0120F8BD0020F8BD10B594B030
:1040A0000446002000900190029003900490059037
:1040B0001090079013900A90089006900C900D9025
:1040C0000E900F90FFF721FD6A4601210020FFF7B7
:1040D00066FD01AA02210020FFF761FD02AA062168
:1040E0000020FFF75CFD03AA03210020FFF757FD26
:1040F00004AA01210020FFF752FD05AA0221002099
:10410000FFF74DFD10AA06210020FFF748FD07AA82
:1041100003210020FFF743FD13AA01210020FFF730
:104120003EFD06AA02210020FFF739FD0AAA06215A
:104130000020FFF734FD08AA03210020FFF72FFD20
:104140000CAA01210020FFF72AFD0DAA0221002060
:10415000FFF725FD0EAA06210020FFF720FD0FAA7C
:1041600003210020FFF71BFD04991398814200D121
:1041700000900C9A824200D100908A4200D10091B6
:10418000DDE90510814200D101900D9A824200D1F3
:1041900001908A4200D1019110990A98814200D180
:1041A00002900E9A824200D102908A4200D102917E
:1041B000DDE90710814200D103900F9A824200D1BD
:1041C00003908A4200D103910198010C2171000EE5
:1041D000E0700098A0700098000A60700098000CD1
:1041E00020700098000E60710298010EA171010C00
:1041F000E171010A217260720398010CE174010AF5
:1042000021756075FFF78FFC14B010BD2DE9F843E0
:104210000F46DDE9086814461D46FFF776FCC8F333
:104220000720009008F0FF03320EC6F30721032099
:10423000FFF7FFFD28B3C5F307200090EBB2220E75
:10424000C4F307410420FFF7F4FDD0B1C6F30740E3
:104250000090F3B22A0EC5F307410520FFF7E9FDF0
:1042600078B1C4F307200090E3B23A0EC7F30741D8
:104270000620FFF7DEFD20B1FFF755FC0120BDE869
:10428000F883FFF750FC0020F9E74FF4A06000F03E
:10429000EFBA10B54FF48034204600F08CFC00F0EB
:1042A000B7FC01281CD1002000F0EAFCA01100F0AE
:1042B000EEFC002000F0F2FC4FF4E011204600F08C
:1042C000C8FC012000F0CDFC392000F08CFC002857
:1042D000FAD0022000F0C8FC00F0CDFC0828FBD189
:1042E00010BD0000254910B51F20087000F04AFCE1
:1042F00002F080FAFFF7CDFFFFF7C7FF01F01EFDC8
:10430000FCF72CFA4FF4E134002203212046FBF79E
:104310006FFF012203214FF41650FCF737FC0022F7
:1043200002212046FBF7DAFF00210120FFF792FB74
:1043300000210120FCF784FE11A0FCF705FD64209C
:1043400001F02AFDFCF78FFA11A11548FCF752F88D
:1043500013481830FCF71AFB0023012241F61F41D5
:1043600042F20F7002F010F90D48FCF74FFD0D49B5
:10437000002008600C49086010BD0000000000200B
:10438000CFB5CDB3B3F5CABCBBAFCDEAB3C900005E
:10439000CDF8C2E7C1ACBDD3D6D02E2E2E00000082
:1043A000D2000020100000201C000020FFF79AFF20
:1043B000DFF8F8A1DFF8F0B17D4D7E4FAAF11A09C0
:1043C0000024DBF800005E4601287DD1002128464C
:1043D00001F07CFA3C60346074481A38FEF758FFEC
:1043E00072480E30FFF7CAFAFCF7C3FC6F480E3074
:1043F0000079B22810D099F804004946C12810D09D
:10440000C22817D0C32824D0C5282BD0487900282B
:1044100030D0FF2849D141E064480E30FDF73BFD24
:1044200047E0FCF729FE08B163A007E0FCF7AAFC0F
:1044300067A009E0FCF743FE18B169A0FBF728FF6D
:1044400037E0FCF79FFC6DA0FBF72CFFFCF70BFAA5
:104450002FE0FCF746FE08B16DA0EFE7FCF792FCF9
:1044600072A0F1E77648FCF799FC40F2AD3001F01C
:1044700093FC1EE08879C0B999F80700A8B94B48A9
:10448000FEF7A9FE9AF8081011B99AF8090008B1C8
:104490006CA0D3E74548FCF75DFE0AE08879FF2869
:1044A00003D199F80700FF281BD040481A38FDF7C0
:1044B00011F9DFF8A8814FF400763146404600F04C
:1044C000DCFA0028F9D000E006E00121284601F0DE
:1044D000FDF95B48FCF79AFC614E3068012802D078
:1044E00025E060A0AAE70021284601F0EFF934603A
:1044F0003C602E481830FFF71BFDFCF73AFC2B48B8
:1045000018304079B42817D0B6281AD055A0FBF738
:10451000BFFE564E0421304600F0AFFA0028F9D015
:104520000121284601F0D2F94548FCF76FFC504EB6
:10453000306801280ED01BE01C481830FDF744FFFE
:10454000E7E71A482230FFF7A9FD18482230FEF7A6
:10455000F6F9DEE70021284601F0B8F93460FCF7EF
:104560007BFA3748FCF752FC0121284601F0AEF9EE
:10457000404E307863287FF424AF0021284601F0B4
:10458000A5F934703C603CA12D48FBF733FF2C4863
:104590001830FCF7FBF92A48FCF738FC01212846C3
:1045A00001F094F90DE7000010000020AE08002093
:1045B0000004004008000020C9E8B1B8BAC5B8FC42
:1045C000B8C4CAA7B0DCA3ACC7EBD6D8CAD4000025
:1045D000C9E8B1B8BAC5B8FCB8C4B3C9B9A6000037
:1045E000C6C1C4BBB0E6B1BEBAC5B8FCB8C4CAA7A0
:1045F000B0DCA3ACC7EBD6D8CAD40000C6C1C4BBDC
:10460000B0E6B1BEBAC5B8FCB8C4B3C9B9A600001B
:10461000C9E8B1B8B0E6B1BEBAC5B8FCB8C4CAA75B
:10462000B0DCA3ACC7EBD6D8CAD40000C9E8B1B897
:10463000B0E6B1BEBAC5B8FCB8C4B3C9B9A60000EB
:10464000D2000020BFA8D3E0C1BFB2BBCEAAC1E355
:10465000A3ACCFC8B2E5B1ED00000000000C0140F2
:104660001C000020C7EBD6D8CBA2000000100140F0
:104670000C00002002000020CDF8C2E7D6D8C1AC63
:10468000D6D02E2E2E00000010B5042000F0C8FD5C
:10469000012817D1642001F07FFB042000F0C0FD49
:1046A00001280FD1042000F0C9FD0421544800F076
:1046B000E4F9002806D153480078012803D0524974
:1046C0000120086010BDBDE8104050A0FBF7EABD16
:1046D00010B54FF4007488B0204600F0A1FD012809
:1046E0001FD14FF4FA7001F057FB204600F098FDFF
:1046F000012816D1204600F0A1FD2146484800F0CF
:10470000BCF900280DD16846FEF7C2FD9DF80400F3
:10471000C42808D03B480078012817D0414901201F
:10472000086008B010BDFCF7EEFC30B1FCF7FFFCF0
:1047300018B13DA0FBF7ACFDF3E740A0FBF7A8FDE7
:10474000FCF791F8424963200870EAE72FA0FBF7D5
:10475000A9FDE6E770B53F4C0821204600F0C8FCF3
:1047600018B10821204600F0CAFC40F2255500226D
:104770002946204600F00FFC20880107364801D06A
:1047800000880AE02188890607D503883348026833
:1047900033491144521C02600B7029462046BDE883
:1047A0007040012200F0F7BB10B52E4C00212046CE
:1047B00001F08CF80121204601F0B1FA18B1012175
:1047C000204601F0B8FA28490A68521C0A600868B5
:1047D000B0F5167F04D3002008602449012008604A
:1047E0002046BDE81040012101F070B87047FEE797
:1047F000FEE7FEE7FEE7704770477047704700002E
:1048000000100140010000201C000020CDF8C2E78C
:10481000C1ACBDD3D6D0A3ACC7EBC9D4BAF30000AA
:10482000000C014010000020B8FCB8C4CAA7B0DCDE
:10483000A3ACC7EBD6D8CAD4000000004950B6FEDE
:10484000CEACC2EBB8FCB8C4B3C9B9A60000000036
:1048500002000020004400400444004038000020D2
:10486000E608002000040040080000200C000020A2
:104870002849084328490860704730B50F23C2789B
:1048800001780125F2B1244A126801F1E02102F415
:10489000E062C2F5E062120AC2F10404D340427839
:1048A000A24084781C401443220181F8002400783F
:1048B00000F01F018D404009800000F1E020C0F8A9
:1048C000005130BD01F01F0085404809800000F113
:1048D000E020C0F8805130BD104A114001430E481D
:1048E000001F016070470C4A121D0029116801D099
:1048F000014300E08143116070474FF0E02104283C
:10490000086903D020F004000861704740F00400FB
:10491000FAE700000000FA050CED00E080FFFF1F41
:104920008F4910B5884206D10121042000F049FAD0
:10493000002104203BE08B49884206D10121082058
:1049400000F03FFA0021082031E08749884206D173
:104950000121102000F035FA0021102027E08349C2
:10496000884206D10121202000F02BFA00212020CE
:104970001DE07F49884206D10121402000F021FA44
:104980000021402013E07B49884206D1012180208C
:1049900000F017FA0021802009E0774988420AD107
:1049A00084150121204600F00CFA00212046BDE8C4
:1049B000104000F006BA10BD10B50121084600F005
:1049C00000FA0021BDE81040012000F0FAB9F0B56E
:1049D000CC78002204F00F03E40601D58C78234341
:1049E0000C784FF00F0C14F0FF0F4FF0010E1BD09E
:1049F00005680E880EFA02F42640A64210D19600F1
:104A00000CFA06F725EA070703FA06F5CE783D43C8
:104A1000282E02D0482E02D002E0446100E004615A
:104A2000521C082AE5D305600A88FF2A1CD944686D
:104A3000002202F108060EFA06F50E882E40AE425C
:104A40000ED196000CFA06F7BC4303FA06F7CE78AF
:104A50003C43282E00D14561CE78482E00D1056117
:104A6000521C082AE5D34460F0BD4FF6FF71018067
:104A7000022181700421C1707047024600209268B3
:104A80000A4200D001207047806880B27047024619
:104A90000020D2680A4200D001207047C06880B26E
:104AA000704701617047416170470AB10161704709
:104AB00041617047C160704741F480328261816119
:104AC00082618169806970472C4B10B51A684FF676
:104AD0008074224042EA00100843186010BD284943
:104AE000C8617047F0B5254C002801DAE36900E0A1
:104AF0006368450D2E0185B2C0F30157B540C0F380
:104B00000342032F05D0C6020AD503269640B343BD
:104B100007E023F07062636823F07063636002E073
:104B2000AB4343F0706201B12A43002801DAE2612D
:104B3000F0BD6260F0BD10B58A0721F003040F4993
:104B4000120F21440F238C6893409C438C608B6828
:104B5000904003438B6010BD0949C1F8DC007047E9
:104B600000080140000C0140001001400014014009
:104B700000180140001C01400020014000000140DD
:104B800000002042A548016841F001010160416830
:104B9000A34A114041600168A24A114001600168C6
:104BA00021F480210160416821F4FE0141604FF44D
:104BB0001F018160704799490A6822F480320A60B7
:104BC0000A6822F480220A60B0F5803F07D0B0F571
:104BD000802F03D1086840F4A0200860704708685F
:104BE00040F48030F9E70346002059098B4A012937
:104BF0000AD002290AD0516A03F01F020123934010
:104C00000B4200D0012070471168F5E7116AF3E705
:104C100018B500204FF4A06400903120FFF7E3FFA7
:104C20000099491C0091A14201D00028F5D0312003
:104C3000FFF7D9FF002800D0012018BD774A11687E
:104C400021F0F80141EAC000106070477649086021
:104C50007047724B5A68084322F47C121043586024
:104C600070477149086670476C4A516821F003012A
:104C70000143516070476948406800F00C0070477C
:104C8000664A516821F0F001014351607047634A60
:104C9000516821F4E0610143516070475F4A5168F7
:104CA00021F4605141EAC000506070475B4A00291E
:104CB000517A01D0014300E08143517270475A4953
:104CC000C1F8D8007047554A516821F4404101436A
:104CD000516070475149002281F8202081F820203E
:104CE000012802D0042802D1052081F82000704755
:104CF0004E490860704749490A6A02430A62704790
:104D00004A4944390860704730B5444A5168484BB5
:104D100011F00C0103D0042901D0082901D003604F
:104D200012E05168536801F470114FF0020413F45B
:104D3000803F04EB914102D053689B0301D53D4B6A
:104D400000E03B4B5943016051680F2303EA111106
:104D5000394B5C5C0168E14041605468072505EA15
:104D600014241C5D21FA04F48460546805EAD424F8
:104D70001B5DD940C1605268032303EA92322E4B77
:104D80001B1F9A5CB1FBF2F1016130BD234A00297F
:104D9000516901D0014300E08143516170471F4ACE
:104DA0000029916901D0014300E08143916170477E
:104DB0001A4A0029D16901D0014300E08143D16141
:104DC0007047164A0029D16801D0014300E08143B1
:104DD000D1607047114A0029116901D0014300E0F8
:104DE00081431161704711494039086070470E498D
:104DF000C86470470949C87170470848416A41F062
:104E0000807141627047054A0146002092680A425B
:104E100000D001207047014988727047001002409D
:104E20000000FFF8FFFFF6FE00004242800442420D
:104E300000127A0000093D0024000020C44910B58A
:104E400088420AD101218C032046FFF7BAFF204691
:104E5000BDE810400021FFF7B4BFBE49884202D12F
:104E600001214C0410E0BC49884202D101218C048C
:104E70000AE0BA49884202D10121CC0404E0B849D1
:104E800088420AD101210C052046FFF7A3FF2046E6
:104E9000BDE810400021FFF79DBF10BD30B50446AE
:104EA000008A85B00D464CF6FF710840E988014341
:104EB0002182A0894EF6F3110840A9882A8911435E
:104EC0006A8902431143A181A08A4FF6FF4108403D
:104ED000A9890143A1826846FFF716FF9C488442D6
:104EE00001D1039800E00298A189090400EBC001F8
:104EF00001EB0010296801D5490000E08900B0FBF2
:104F0000F1F06422B0FBF2F109010B096FF0180512
:104F10006B4300EB8300A3891D044FF0320306D5D9
:104F200003EBC000B0FBF2F000F0070005E003EB7C
:104F30000010B0FBF2F000F00F000843208105B034
:104F400030BD4FF41651016000218180C180018184
:104F50000C2242818181704710B5028A4FF2FF0313
:104F60001A400B884C8823438C88C9880C43234300
:104F70001343038210BD0021018041808180C180E4
:104F800070470029818902D041F4005101E021F4E9
:104F900000518181704710B5C1F3421301F01F0425
:104FA0000121A140012B07D0022B07D01430002A89
:104FB000026805D00A4304E00C30F8E71030F6E749
:104FC0008A43026010BD002A828A01D00A4300E0B1
:104FD0008A4382827047028A22F00F020282028A8A
:104FE0000A4302827047828922F4006282818289A8
:104FF0000A43828170470029818902D041F0020171
:1050000001E021F0020181817047028A22F0200232
:105010000282028A0A43028270470029018A02D072
:1050200041F4804101E021F4804101827047C1F3E5
:105030000801818070478088C0F30800704781892B
:1050400041F0010181817047028BD2B20283028B51
:1050500042EA012101837047028B02F47F420283FE
:10506000028B0A43028370470029818A02D041F0F3
:10507000200101E021F02001818270470029818A0E
:1050800002D041F0100101E021F01001818270474F
:105090000029818A02D041F0080101E021F00801D5
:1050A000818270470029818902D041F4004101E0EA
:1050B000C1F30E01818170470029818A02D041F439
:1050C000006101E021F4006181827047828A22F050
:1050D00004028282828A0A43828270470029818A7E
:1050E00002D041F0020101E021F00201818270470B
:1050F0000246002012880A4200D001207047C943AE
:105100000180704770B501F01F0501260024C1F32E
:10511000421306FA05F2012B0FD0022B0FD0838A1F
:105120004FEA11210088134206FA01F600EA060050
:1051300001D000B10124204670BD8389F0E7038AC5
:10514000EEE70A0A01219140C9430180704700003F
:10515000003801400044004000480040004C00403E
:1051600000500040374900200860091D0860091DF3
:105170000860091D086033493348143108607047DE
:1051800030B5304A8379016853B313688B43136099
:10519000111D0B680468A3430B60017911440B686F
:1051A000046823430B60274B083319680468A14344
:1051B00019601C1D21680568A943216041791029E7
:1051C00005D011440A68006802430A6030BD1968BE
:1051D000026811431960216800680143216030BDF5
:1051E0000079104402688A43026030BD00210160EA
:1051F00001710C22427181717047124910310A68A5
:1052000002430A60704701460E4A002014321268B9
:105210000A4200D0012070470A49143108607047E3
:10522000084A014600201268064B0A4014331B68E6
:105230000B4202D0002A00D00120704701491431EE
:105240000860704700040140FFFF0F00F94910B5E6
:10525000884202D10121C41486E0B0F1804F09D008
:10526000F54988420DD101210220FFF7B3FD00214D
:10527000022064E001210846FFF7ACFD0021012077
:105280005DE0EE49884206D101210420FFF7A2FD2E
:105290000021042053E0EA49884206D10121082078
:1052A000FFF798FD0021082049E0E649884206D131
:1052B00001211020FFF78EFD002110203FE0E24980
:1052C000884206D101212020FFF784FD0021202003
:1052D00035E0DE49884202D10121441444E0DC4932
:1052E000884202D10121CC043EE0DA49884202D151
:1052F00001210C0538E0D849884202D101214C0532
:1053000032E0D649884206D101214020FFF762FDF4
:105310000021402013E0D249884206D1012180209B
:10532000FFF758FD0021802009E0CE4988420AD1CC
:10533000841501212046FFF74DFD00212046BDE8E0
:105340001040FFF747BDC849884202D101210C0433
:105350000AE0C649884202D101214C0404E0C44954
:1053600088420AD101218C042046FFF72AFD2046FD
:10537000BDE810400021FFF724BD10BD30B5028804
:10538000AC4CB24DA0420DD0A8420BD0B0F1804F32
:1053900008D0A94B984205D0A84B984202D0A84B00
:1053A000984203D122F070034A881A43A54B9842D1
:1053B00006D0A54B984203D022F44073CA881A4302
:1053C00002808A8882850A880285A0420AD0A84283
:1053D00008D0A54A904205D0A44A904202D0A44ADF
:1053E000904201D1097A01860121818230BD30B518
:1053F000028C22F001020284028C8388048B22F04A
:10540000020224F073050C882C430D8915434A8849
:105410002A43884DA8420BD08C4DA84208D0924D0B
:10542000A84205D0914DA84202D0914DA8420DD17D
:1054300022F008054A8923F440732A4322F0040528
:105440008A882A438D891D43CB892B43838004831B
:10545000C9888186028430BD70B5028C22F01002AA
:105460000284028C8388048B0D8824F4E6464FF670
:10547000FF7404EA052535430E8922F0200204EA70
:10548000061616434A8804EA02123243694EB042B5
:1054900002D06E4EB04215D122F080064A8923F424
:1054A000406304EA0212324322F040068A8804EA8A
:1054B000021232438E8904EA86061E43CB8904EA2F
:1054C0008303334383800583C9880187028470BDC9
:1054D00070B5028C22F480720284028C8388848BE3
:1054E0000D8824F0730425430E894FF6FF7422F4CF
:1054F000007204EA062616434A8804EA022232436E
:105500004C4EB04202D0514EB04215D122F400664A
:105510004A8923F4405304EA0222324322F480668B
:105520008A8804EA022232438E8904EA06161E4360
:10553000CB8904EA0313334383808583C988818739
:10554000028470BD70B5028C22F480520284058CF6
:105550008288838B0C8823F4E6464FF6FF7303EAB8
:105560000424344325F400560D8903EA05353543F8
:105570004E8803EA06362E432E4DA84202D0334D04
:10558000A84205D122F480458A8903EA82122A437F
:1055900082808483C988A0F84010068470BD828B05
:1055A00022F440628283828B4FF6FF7303EA01216B
:1055B0000A4382837047828B22F00C028283828BA3
:1055C0000A4382837047028B22F440620283028B7B
:1055D0004FF6FF7303EA01210A4302837047F0B5D7
:1055E000048C24F010040484078B048C4FF6FF75A0
:1055F00027F4734705EA03333B4305EA02221A43C3
:105600000C4B05EA011698420ED0104B98420BD075
:10561000B0F1804F08D0084B984205D0074B984214
:1056200002D0074B984225D124F02001314341F0AC
:10563000100124E0002C014000040040000800405C
:10564000000C0040001000400014004000340140F5
:10565000004C01400050014000540140001800403F
:10566000001C004000200040004001400044014078
:105670000048014024F0A0030B4343F010010283D3
:105680000184F0BD028B22F00C020283028B0A43DC
:105690000283704770B5048C24F001040484058BE8
:1056A000048C4FF6FF7606EA0313134325F0F30547
:1056B000F84A2B4390420ED0F74A90420BD0B0F1FB
:1056C000804F08D0F54A904205D0F54A904202D06A
:1056D000F44A904202D124F0020201E024F00A02CE
:1056E0000A4342F001010383018470BD2DE9F84FA4
:1056F0000D4604460888E74FDFF89CC3DFF89C831B
:10570000DFF89C934988AA882B894FF0804A48B3D8
:1057100004282FD04FF6FF760828934632D0208CED
:105720009E4620F480502084A38B208C06EA013210
:10573000009223F4734306EA0B221A4306EA0E335F
:105740001343BC420AD0644508D0544506D04445B2
:1057500004D04C4502D0D34A944242D120F40050A8
:10576000009940E02046FFF795FFE9882046BDE814
:10577000F84F87E72046FFF732FFE9882046BDE86B
:10578000F84F20E7208C20F480702084B4F81CE0CF
:10579000208C06EA031306EA01222EF0F30E43EAF8
:1057A0000B0343EA0E030092BC420AD0644508D0C2
:1057B000544506D0444504D04C4502D0B94A9442E1
:1057C00003D120F40070009901E020F42060084328
:1057D00040F48070A3832084E9882046BDE8F84F18
:1057E000E9E620F40240084340F48050A38320847B
:1057F000E9882046BDE8F84FD1E62DE9F0410C4696
:10580000002649880746012501B90226A288012AF7
:1058100000D10225208823890028384610D0FFF7C0
:10582000DEFEE1883846FFF7CEFE23892A46314660
:105830003846FFF72FFFE1883846BDE8F04121E701
:10584000FFF728FFE1883846FFF71CFF23892A4627
:1058500031463846FFF7C3FEE1883846BDE8F041DF
:10586000B1E610B50A884B88CC881A438B8823434D
:105870001A430B891A434B8989891A430A43A0F8B2
:10588000442010BD4FF6FF71818000210180C1804E
:105890004180017270470021018041808180C18078
:1058A000018141818181C181704700210180418056
:1058B00001228280C18001817047002101804180E6
:1058C0008180C180018141818181704700290188E7
:1058D00002D041F0010101E021F001010180704797
:1058E000002930F8441F02D041F4004101E0C1F327
:1058F0000E0101807047002A828901D00A4300E02E
:105900008A4382817047818270471143A0F8481012
:105910007047002A828901D00A4300E08A438281CD
:105920007047018921F0070101817047028922F047
:1059300070020A430281704700B50346FFF7F6FF85
:10594000188940F00700188100BD70B516460D4655
:10595000602904464FF0010231460AD0FFF79AFE53
:1059600029462046FFF7E2FF208940F0070020810A
:1059700070BDFFF734FEF3E730B504894FF6FF75CD
:1059800005EA03231343E4B20B432343038130BDF1
:1059900010B50446FFF7F0FF208940F07700208122
:1059A00010BD10B50446FFF7E7FF208940F48040A2
:1059B000208110BD018582827047028822F070022A
:1059C0000A430280704770B50589048B068C25F068
:1059D00007050D434FF6FC410C4040F201110C430A
:1059E0004FF6FF7101EA031126F0220611433143FD
:1059F00005810483018470BD028B22F070020A438A
:105A000002837047028B4FF6FF7322F4E04203EAF1
:105A10000121114301837047828B22F070020A43F7
:105A200082837047828B4FF6FF7322F4E04203EAD1
:105A300001211143818370470029018802D041F080
:105A4000800101E021F080010180704700298188F8
:105A500002D041F0040101E021F00401818070478F
:105A60000029818802D041F0080101E021F00801FD
:105A7000818070470029818802D041F0010101E056
:105A800021F0010181807047028B22F008020A4355
:105A900002837047002C01400034014000040040A4
:105AA00000080040000C0040028B4FF6FF7322F408
:105AB000006203EA012111430183EAE7828B22F0AD
:105AC00008020A438283E4E7828B4FF6FF7322F4D5
:105AD000006203EA012111438183DAE7028B22F09D
