:020000040800F2
:1000000090130020B1680008E9470008EB4700089A
:10001000ED470008EF470008F14700080000000026
:10002000000000000000000000000000F34700088E
:10003000F547000800000000F7470008F9470008EE
:10004000CB680008CB680008CB680008CB680008C4
:10005000CB680008CB680008CB680008CB680008B4
:1000600085460008CB680008CB680008CB6800080C
:10007000CB680008CB680008CB680008CB68000894
:10008000CB680008CB680008CB680008CB68000884
:10009000CB680008CB680008CB680008CD46000894
:1000A000CB680008CB680008CB680008CB68000864
:1000B000CB680008A5470008CB680008CB6800089B
:1000C000CB680008CB680008CB680008CB68000844
:1000D000CB680008CB68000851470008CB680008CF
:1000E000CB680008CB680008CB680008CB68000824
:1000F000CB680008CB680008CB680008CB68000814
:10010000CB680008CB680008CB680008CB68000803
:10011000CB680008CB680008CB680008CB680008F3
:10012000CB680008CB680008CB680008CB680008E3
:1001300000F002F800F043F80AA090E8000C8244B6
:100140008344AAF10107DA4501D100F038F8AFF293
:10015000090EBAE80F0013F0010F18BFFB1A43F0A5
:10016000010318478C6C0000AC6C0000103A24BFEF
:1001700078C878C1FAD8520724BF30C830C144BF0C
:1001800004680C607047000000230024002500264E
:10019000103A28BF78C1FBD8520728BF30C148BFEA
:1001A0000B6070471FB506F0A1FD04000020002180
:1001B00006F0DAFD401C60601FBD10B510BD06F0F2
:1001C0009DFD1146FFF7EEFF04F0DEF806F0BBFDE3
:1001D00003B4FFF7F2FF03BC06F0BEFD002806D013
:1001E0004FF4FA621146491EFDD1401EFAD1704704
:1001F00008B505F043FF0121102004F0CEFD2020BA
:10020000ADF8000010208DF8030003208DF80200E7
:100210006946314804F0D9FB08BDF0B595B00E46EB
:1002200007465021684606F0BBFC2B4D202128468E
:1002300004F035FC4FF47A70FFF7D0FF384606F033
:100240003FFC84B2FD208DF8000000208DF80100F5
:10025000A01C8DF8020001208DF803008DF8040029
:10026000224639460DF1050006F055FC641DA1B289
:10027000684605F064FF3046FFF7B0FF20212846AE
:1002800004F00FFC40F2AD3005F084FD15B0F0BD78
:1002900010B5044600F046FD2046BDE8104044F687
:1002A0002061BAE748F6B801B7E710B50B46044637
:1002B0001146184600F0C6FC2046BDE8104044F642
:1002C0002061AAE710B5044600F02CFD2046BDE8E9
:1002D000104044F62061A0E70010014008B506F088
:1002E0008BF90121102004F058FD1020ADF800001A
:1002F0008DF8030003208DF802006946D14804F010
:1003000064FB08BD10B50B460021CF4A02E0545CE7
:100310004454491C9942FAD300244454CA4806F074
:10032000CFFB0146C84806F0A0F8C848046010BDDD
:100330002DE9F047C64D4FF00009044685F80290BC
:100340004F464FF063084FF47A767F1CFFB2324677
:10035000C0A1C1A006F0BCF9012802D0032FF4D33C
:1003600001E0032F03D385F80280BDE8F087002762
:100370007F1CFFB23246B9A1B9A006F0A9F9012845
:1003800002D0032FF4D3EEE7032FECD23221B7488B
:1003900006F06BF8AD480168B448FFF7B3FF0023DF
:1003A000B24F00E0DBB2F85C03F101033A28F9D167
:1003B000D8B201E0401CC0B2395C2029FAD100213A
:1003C000401CC0B204E0401C6254491CC0B2C9B217
:1003D0003A5C2C2AF7D104F8009032469DA1A4A0E3
:1003E00006F076F90128BED12146BDE8F0479848CD
:1003F00006F0D3BA2DE9F04704460125084600F07F
:1004000091FC40F24A3940F25E3840F2AD3600F0DD
:10041000D6F800287DD04F464A468EA196A006F019
:1004200057F900287AD0304605F0B4FC3A4689A145
:1004300093A006F04DF9002870D0304605F0AAFCD4
:100440003A4694A196A006F043F9002866D03046BB
:1004500005F0A0FC474642467EA194A006F038F97C
:1004600000285BD0304605F095FC324679A196A075
:1004700006F02EF9002851D0304605F08BFC3A46A4
:1004800074A195A006F024F9002847D0304605F065
:1004900081FC3A466FA194A006F01AF900283DD0DD
:1004A000304605F077FC3A466AA193A006F010F9B1
:1004B00078B3304605F06EFC6C4894A1503806F0D5
:1004C000DBFA6A482146503806F019FB674894A1C8
:1004D000503806F014FB654804F11201503806F05C
:1004E0000EFB624888A1503806F009FB5F4832468F
:1004F0008CA1503806F0ECF858B104F16400FFF715
:1005000017FF53488078632808D000F08FFB3046EF
:1005100000E003E0BDE8F04705F03CBC002D7FF4AF
:1005200076AF22E770B505460C46474806F0C8FA94
:100530000146454805F099FF4449002008602146DE
:10054000284606F0ABF8BDE87040142005F022BC48
:100550002DE9FF5F1F4692468B4600253B4E40F239
:1005600055184FF4167926E0584606F0A9FA0146C8
:100570005846FFF7D7FF6D1CEDB20024306898B1E4
:10058000404605F007FC51462F4806F063FA58B183
:100590000E99009805F069FF31680098FFF7B2FEE8
:1005A000012004B0BDE8F09F484605F0F3FB641C51
:1005B000E4B2142CE2D3BD42D6DB0020F1E72DE9F2
:1005C000F041234901201F4D48701021284604F0B6
:1005D00068FA002440F25517384605F0DBFB641C2E
:1005E000E4B2052CF8D31021284604F058FA002470
:1005F000384605F0CFFB641CE4B2052CF8D3002587
:10060000124EA84600243068002838460BD005F06A
:10061000C1FB1E2C10D245A10B4806F01BFA48B1B5
:100620000120BDE8F08105F0B5FB641CE4B21E2C8E
:10063000E9D301E0C6F800806D1CEDB2122DE1D3C4
:100640000020EEE700100140E608002038000020FE
:10065000000000204F4B00002B2B2B004353510078
:1006600041542B4353510D0A00000000A00000200C
:1006700041544F0D0A00000041540D0A00000000D3
:1006800041542B4950523D3131353230303B2657A1
:10069000200D0A002B43475245473A20302C3100A9
:1006A00041542B43475245473F0D0A0041542B43C9
:1006B0004744434F4E543D312C224950222C224373
:1006C0004D4E4554220D0A0041542B43474143549B
:1006D0003D312C31200D0A0041542B434D4D5558CE
:1006E0003D300D0A0000000041542B434D4D4F4456
:1006F000453D310D0A00000041542B434D54434603
:10070000473D312C313032340D0A000041542B4921
:100710005053544152543D22544350222C22000045
:10072000222C0000434F4E4E4543540043545A562A
:100730000000000005F01EBD2DE9F04116460F46F1
:10074000044625E02546641CA4B205F04DFD280AA8
:10075000A02101EB4000C0B205F0EDFD05F0BEFDAB
:10076000E8B205F0E8FD05F0B9FD05F03DFDA1207A
:1007700005F0E1FD05F0B2FD002005F009FE05469B
:1007800005F08EFD05F04FFD761E07F8015BB6B251
:10079000002ED7D1BDE8F0812DE9F04115460E4677
:1007A000044623E00120F5E7377805F01DFD200A17
:1007B000A02101EB4000C0B205F0BDFD05F08EFDAB
:1007C0000028EFD1E0B205F0B6FD05F087FD002866
:1007D000E8D1384605F0AFFD05F080FD05F023FDBA
:1007E0000A2005F0D7FA641CA4B2761C28466D1EB8
:1007F000ADB2D9D2CEE74FF47A7291FBF2F3303337
:10080000037091FBF2F302FB1313642293FBF2F3E8
:100810003033437091FBF2F302FB13130A2293FB74
:10082000F2F33033837091FBF2F302FB131130319A
:10083000C17000210171052201466420ACE700B5BA
:100840008BB02821684606F0ABF942486421006865
:100850000A90414805F009FE02220AA96220FFF72A
:100860006BFF3EA10AA806F0F5F8E0B363223A490F
:100870000520FFF761FF25223749684605F0BCFDDA
:1008800035490022A1F15400009B05F0E1FDDDE9AE
:1008900000233149521CA1F1450005F0D9FDDDE9E5
:1008A00001232D49521CA1F12C0005F0D1FDDDE9F9
:1008B00002232949521CA1F1270005F0C9FDDDE9F9
:1008C00003232549521CA1F16C0005F0C1FDDDE9AF
:1008D00004232149521CA1F15A0005F0B9FDDDE9BC
:1008E00005231D4900E006E0A1F12200521C05F09D
:1008F000AFFD0BB000BD1A49174806F0BDF8164809
:1009000006F0DEF882B214490520FFF745FF13A177
:100910000AA806F0B1F802220AA96220FFF73CFFFC
:100920000D480021401FFFF766FFA4E770B504469D
:100930000025052221466420FFF7FEFE05E005EBB9
:100940008501490030394518641C20780028F6D10B
:10095000284670BD946D00083E01002048580000F4
:10096000986D00082DE9F05F044632216B4805F0D0
:100970007CFD6A483221323805F077FD68A167486E
:1009800006F07AF869A1654806F0B9F8214663488F
:1009900006F0B5F868A1614806F0B1F85F49A1F129
:1009A000320006F069F8DFF894A1012100258AF8E9
:1009B000001063492F46AB460D70624E40F2551849
:1009C0004FF41679642005F0E5F95448323806F002
:1009D00077F8014651483238FFF7A4FD6D1CEDB29F
:1009E0000024306868B1404605F0D4F956A1574854
:1009F00006F030F828B1642005F0CCF9142C0AD3A5
:100A000006E0484605F0C6F9641CE4B2142CE8D3AD
:100A1000032DD7D33FB18AF800B0BDE8F05F0721BE
:100A20004BA0FFF77FBD464863210170BDE8F09FF2
:100A30002DE9F0473221394805F017FD37483221BA
:100A4000323805F012FD44480446FFF76FFF424874
:100A5000C01E0546FFF76CFC31A1304806F00CF8CB
:100A60003D492E484F3906F04AF83CA12B4806F084
:100A700046F83BA1294806F042F82FA1274806F086
:100A80003EF82146254806F03AF836A1234806F0FC
:100A900036F82946214806F032F82049A1F1320003
:100AA00005F0EAFFDFF898A000252F468AF80050ED
:100AB000244E40F255184FF416791848323805F094
:100AC000FFFF014615483238FFF72CFD6D1CEDB2D3
:100AD0000024306868B1404605F05CF91AA11B4853
:100AE00005F0B8FF28B1642005F054F9142C0AD39E
:100AF00006E0484605F04EF9641CE4B2142CE8D335
:100B0000032DDAD32FB1BDE8F047072110A0FFF77E
:100B100009BD63218AF80010BDE8F087D4010020E8
:100B20005453656E6468656172742500466972731A
:100B300074486561727400002524240001000020BF
:100B400002000020380000204B000000E6080020D2
:100B500048656172744F4B00390100202500000088
:100B6000763600002F00000005F090BC10B505F0AF
:100B7000D8FC0321BDE81040FF2005F0E4BC70B5AF
:100B80001C461646054605F077FF3146284605F017
:100B9000B6FF3CB1ABA1284605F0B1FF2846BDE841
:100BA0007040E3E7A9A1F6E7411E042901D8A9A0F6
:100BB00014E0811F052901D8A9A00FE0A0F10C01C4
:100BC000052901D8A9A009E0A0F11201052901D841
:100BD000A9A003E018380728E9D8AAA0C6E710B5ED
:100BE0000020FFF7E1FFAAA0FFF7C0FFBDE810401B
:100BF000A9A0BBE7411E042901D896A014E0811FDB
:100C0000052901D896A00FE0A0F10C01052901D813
:100C100096A009E0A0F11201052901D896A003E0F1
:100C20001838072801D897A0A0E7704710B5A2A0F0
:100C3000FFF79CFFA2480078FFF7DCFFBDE81040FB
:100C4000A0A093E770B58EB00D46064632216846E7
:100C500005F00BFC98A0FFF789FF994C2078FFF76F
:100C6000C9FF2B4632469DA16846FFF788FF0EB0AC
:100C700070BD2DE9F0478EB0074616A80C4690E8E7
:100C8000000716461D463421684605F089FF99A0E5
:100C9000FFF76CFF8A480078FFF7ACFF3A4697A150
:100CA000684600F0BEF8BAF1010F2ED096A0FFF70B
:100CB0005DFF98A0FFF75AFF3221684605F0D5FB8B
:100CC000224697A1684600F0ACF83221684605F04C
:100CD000CCFB324695A1684600F0A3F83221684665
:100CE00005F0C3FB4B462A4693A16846FFF747FF32
:100CF0003221684605F0B9FB4246012391A16846BE
:100D0000FFF73DFF0EB0BDE8F08791A0FFF72EFF83
:100D100092A0FFF72BFF3221684605F0A6FB224682
:100D200091A1CFE710B58EB004463421684605F096
:100D300037FF61A0FFF71AFF61490878FFF75AFFF4
:100D400022467AA1684600F06CF80EB010BD10B5CE
:100D500088A0FFF70BFF5A480078BDE8104049E72C
:100D600010B555A0FFF702FF55480078FFF742FF86
:100D7000BDE8104081A0F9E610B58EB004463221DE
:100D8000684605F072FB82A0FFF7F0FE4C48007841
:100D9000FFF730FF04F118027FA1684600F041F828
:100DA00004F127027FA1684600F03BF822465CA1CF
:100DB000684600F036F804F112027DA1684600F0A2
:100DC00030F804F140025FA1684600F02AF804F10F
:100DD00045027AA1684600F024F804F164027AA181
:100DE000684600F01EF8B0E710B504466421794863
:100DF00005F03BFB26A0FFF7B9FE31490878FFF765
:100E0000F9FE04F14A02BDE8104073A1714800F0F8
:100E100008B810B528A0FFF7A9FEBDE8104077A0DC
:100E2000A4E670B51546044605F026FE2946204680
:100E300005F065FE78A1204605F061FE2046BDE87C
:100E4000704093E620B6D6220000000020D4AA22EB
:100E50000000000070312E7069633D3130000000E9
:100E600070312E7069633D313100000070312E7099
:100E700069633D313200000070312E7069633D318D
:100E80003300000070312E7069633D313400000082
:100E9000706167652030000074302E7478743D22D4
:100EA000CDF8C2E7B3F5CABCBBAFD6D0A1A3A1A30E
:100EB000A1A3A1A32200000070616765203100009A
:100EC0000000002074302E7478743D22C1ACBDD374
:100ED000B3C9B9A6A3A1A3A12200000074302E7447
:100EE00078743D22C4FAD2D1B3C9B9A6B3E4D6B559
:100EF00020000000706167652034000074342E7497
:100F000078743D22000000007669732067312C3030
:100F1000000000007669732074352C310000000059
:100F200074352E7478743D220000000074302E74E5
:100F300078743D220000000074362E7478743D22CF
:100F40000000000074392E7478743D220000000007
:100F50007669732067312C310000000076697320B8
:100F600074352C300000000067312E7478743D22F7
:100F700000000000706167652032000074302E743C
:100F800078743D22B8FCB8C4B3C9B9A622000000E9
:100F9000706167652033000074312E7478743D22CF
:100FA0000000000074332E7478743D2200000000AD
:100FB00074372E7478743D22000000007431312E95
:100FC0007478743D220000007431332E7478743DBF
:100FD00022000000060200207172302E7478743DE9
:100FE00022687474703A2F2F77656978696E2E7154
:100FF000712E636F6D2F722F0000000074302E74FD
:1010000078743D22D3B2BCFECECACCE22CC1AACFAA
:10101000B5B3A7BCD22200002022000038B50C4690
:10102000054604F0E5FE0121082003F0B6FE20226B
:10103000ADF8002010228DF8032003208DF8020067
:101040006946FE4803F0C1FC21462846BDE8384009
:1010500001F0F8BF00B58DB0142108A805F0A0FD7F
:1010600020226946052002F093F82522694608A847
:1010700005F0C2F9642004F08DFE08980A2809D111
:1010800009981F2806D1202269460520FFF784FB16
:10109000002800D001200DB000BD1CB50522694616
:1010A000252002F075F8642004F074FE05226946DC
:1010B0002520FFF771FB002800D001201CBD1CB5C6
:1010C000052269462A2002F063F8642004F062FEDB
:1010D000052269462A20FFF75FFB002800D0012087
:1010E0001CBD00B587B0162269462F2002F050F8CB
:1010F000642004F04FFE162269462F20FFF74CFBB8
:10110000002800D0012007B000BD00B587B015222F
:101110006946452002F03CF8642004F03BFE1522AD
:1011200069464520FFF738FB0028ECD00120EAE7AC
:101130002DE9F04FC24C87B04FF00008C14DC4F804
:10114000048084F80080064685F80080BE480822A6
:101150003146019005F0CCFBBB480822D230019902
:10116000029005F0DCFBB848711D0F3006220646E0
:1011700005F0BEFBB4483146E1300622064605F0D4
:10118000CEFBB148B1A1693805F076FCAE48B34951
:10119000693805F0B4FCAC48B1A1693805F0AFFC82
:1011A000A9480299693805F0AAFCA748ACA169389A
:1011B00005F0A5FCA4483146693805F0A0FCA2481A
:1011C000A8A1693805F09BFC9F49693901F20E40DE
:1011D00005F052FCA4494FF0C8090323A1A201F174
:1011E000C800CDF80090FFF7B3F92070002865D053
:1011F000012860D114219D4805F03FF99A49252224
:10120000C8319A4805F0F8F8984E0022A6F1E60198
:10121000A1F2C620336805F01BF995A1A6F56B7005
:1012200005F0E6FCA6F56B7505F123070F350028E0
:1012300047D092A1A5F10F0005F0DAFC00287DD07F
:1012400092A1A5F10F0005F0D3FC002877D093A15F
:10125000A5F10F0005F0CCFC002871D093A1A5F1F9
:101260000F0005F0C5FC00286BD094A1A5F10F007C
:1012700005F0BEFC002865D094A1A5F10F0005F093
:10128000B7FC00287DD095A1A5F10F0005F0B0FCBA
:10129000002877D094A1A5F10F0005F0A9FC002843
:1012A00009D194A00522D0E90010CDE900106946CB
:1012B0006420FFF771FA07B0BDE8F08F6320287053
:1012C000F9E7D6E9002368492846C831521C05F0E1
:1012D000BFF8D6E9012364493846C831521C05F0ED
:1012E000B7F86149D6E90223C831A1F52570044653
:1012F000521C05F0ADF8D6E903235B49521CC831F6
:10130000A1F5D270009005F0A3F85749D6E904235F
:10131000C831A1F24F108246521C05F099F852498B
:10132000D6E90523C831A1F5A0708046521C05F00E
:101330008FF8D6E906234C49C83104E04BE1ABE114
:10134000ACE1ADE1AEE1A1F26D108346521C05F0B7
:101350007FF83D4869A1693805F08EFB3A48294677
:10136000693805F0CCFB38483DA1693805F0C7FB6A
:1013700035483946693805F0C2FB334838A1693829
:1013800001E091E192E105F0BAFB2F48214669386E
:1013900005F0B5FB03A801F00CFF082203A9019892
:1013A00005F0A6FADDE90110082205F0B8FA384682
:1013B000029905F01DFC90B1234854A1693805F04D
:1013C0009EFB21492848693905F056FB264805F05F
:1013D00077FB01462448FFF7A5F84FA0E0E01A4844
:1013E0000099FF30064605F047FB4D48514605463B
:1013F00005F042FB4A4841460F30044605F03CFBED
:10140000114831462D300222064605F0A0FA0E485A
:10141000012229464B3005F09AFA0B4802225A3035
:101420002146054605F093FA074C2946693C3046AB
:1014300094F8B42001F0E1FE74E00000000C0140DB
:101440001400002002000020F10200205453656EB9
:10145000643234504349442500000000EA00002073
:1014600025000000252424009606002044080020C2
:101470005353656E64323450000000005353656E60
:1014800064323450636865636B0000005353656ECB
:101490006432345065727230000000005353656E40
:1014A0006432345065727231000000005353656E2F
:1014B0006432345065727233000000005353656E1D
:1014C00064323450657272313200000057656273C5
:1014D0006572766963654572726F00005765624E8A
:1014E0006F416E7377657200636F6D6D616E6465D9
:1014F00072720000FFFFFFFFFF0000005453656E93
:1015000064323450526573756C74250025466169E8
:101510006C25242400000000C7EBD6D8CBA2000025
:101520000E04002084F86800012816D0FEA0FEF703
:10153000C9FEAFF22801204605F0E1FA214601F28A
:101540000E4005F099FA04F20E4005F0B9FA014692
:1015500004F20E40FEF7E6FFADE6F7A1F94805F00C
:10156000CEFAF84901F20E4005F086FAF849012357
:10157000F5A201F1C800CDF80090FEF7E9FF90B1A7
:101580000128E9D1F248F3A1C83005F031FB60B180
:10159000EF48F5A1C83005F02BFB0028DCD1F7A0FF
:1015A000FEF790FE87E6FAA0FAE71E21FD4804F058
:1015B0005CFFFDA1FB4805F05FFA5946F94805F0CC
:1015C0009EFAFDA1F74805F09AFA01225946F5481E
:1015D000FEF76BFE6FE6D6E90023DD492846C831E9
:1015E000521C04F035FFD6E90123D9493846C831E9
:1015F000521C04F02DFFD649D6E90223C831A1F5CB
:101600001B708246521C04F023FFD149D6E9032304
:10161000C831A1F511708146521C04F019FF4846EB
:1016200005F04EFA0125182801D9656001E0C4F8DB
:101630000480C749D6E90423C831A1F50770804664
:10164000521C04F005FFC249D6E90523C831A1F5B3
:10165000FA700746521C04F0FBFED6E90623BC498B
:10166000521CC831A1F5E670064604F0F1FEB548FB
:1016700049461C38424640F804AB3B464EC06468BD
:10168000C0E900540096CDE901545046FFF7F1FA45
:10169000CAA0FEF707FE0EE6D3A081E7D8A07FE739
:1016A000DCA07DE7E1A07BE7E6A079E7E9A077E7AA
:1016B0002DE9F04F93B00025E94C0395049505956D
:1016C0000695E84F6560257006463D7001469D48C9
:1016D00008226930019005F00BF9E34808228246A0
:1016E000019905F01CF9974806227830711D804653
:1016F00005F0FEF8DC4841460F300622804605F032
:101700000EF9904806F1080187300822064605F0D8
:10171000EFF8D54831461E300822064605F0FFF89E
:10172000D2A1884805F0A8F9D449864805F0E7F920
:10173000AFF2D421834805F0E2F95146814805F023
:10174000DEF9AFF2E4217F4805F0D9F941467D4842
:1017500005F0D5F9AFF2F8217A4805F0D0F9314615
:10176000784805F0CCF976A1764805F0C8F97549B6
:10177000774805F081F976494FF0C809032370A234
:1017800001F1C800CDF80090FEF7E2FE20700028BD
:101790006AD0844814211E3004F06FFE6C49252263
:1017A000C83101F1E60004F027FE7E4E00221E360D
:1017B000A6F1E601A1F2C620336804F049FEB0A10B
:1017C000A6F56B7005F014FAA6F56B7707F1230800
:1017D000010007F10F074AD0ACA1A6F56B7005F028
:1017E00007FA00287ED0ADA1A6F56B7005F000FACF
:1017F000002878D0ADA1A6F56B7005F0F9F90028A6
:1018000072D0AEA1A6F56B7005F0F2F900286CD08D
:10181000AEA1A6F56B7005F0EBF9002866D0AFF22B
:101820005431A6F56B7005F0E3F900287AD0AFF2D9
:101830005431A6F56B7005F0DBF9002873D0AFF2D8
:101840005831A6F56B7005F0D3F900280AD1AFF234
:101850005C30D0E90010CDE9001005226946642013
:10186000FEF79AFF13B027E563203870FAE7D6E950
:10187000002337493846C831521C04F0E9FDD6E947
:10188000012333494046C831521C04F0E1FD304980
:10189000D6E90223C831A1F525700446521C04F094
:1018A000D7FDD6E903232A49521CC831A1F23110D1
:1018B000129004F0CDFDD6E904232549521CC8310D
:1018C000A1F59170119004F0C3FD2149D6E90523DB
:1018D000C831A1F213108346521C04F0B9FDD6E9B9
:1018E000062304E056E2B2E2B4E2B6E2B8E21849F6
:1018F000521CC831A1F58270109004F0A9FDD6E900
:1019000007231349521CC831A1F1F5000F9004F0D0
:101910009FFD0F49D6E90823C831A1F1E600521C0A
:101920000E90DBE09FE2A1E2B3E4D6B5CAA7B0DC3B
:101930002CC7EBD6D8CBA2002553756363657373B0
:1019400025242400880200207570646174650000FD
:10195000960600207570646174656F7264657273B9
:10196000746174654F4B32007570646174656F7299
:1019700064657273746174654F4B3100BDBBD2D71F
:10198000CEB4CADCC0EDA3ACC7EBD6D8CBA2000066
:10199000CDA8D0C5CAA7B0DCA3ACC7EBD6D8CBA224
:1019A0000000000026080020C4FAD2D1B3C9B9A6AD
:1019B000B3E4D6B500000000B6D60000CEA2D0C574
:1019C000BDC9B7D1BAF3C7EBBDABBFA8C8A1B3F6C9
:1019D000A3ACD6D8D0C2B2E5C8EBCDEAB3C9D0B477
:1019E000BFA8B2D9D7F70000CEB4D6AAD3C3BBA73D
:1019F000A3ACC7EBD3AAD2B5CCFCB0ECC0ED0000D1
:101A0000C7EBCEA2D0C5D6A7B8B6BAF3D4D9CBA26D
:101A1000BFA80000CEDED0A7BFA8A3ACC7EBD3AA57
:101A2000D2B5CCFCB0ECC0ED00000000BDBBD2D7FD
:101A3000B9D8B1D5A3ACC7EBD3AAD2B5CCFCB0EC26
:101A4000C0ED0000CDF8C2E7B7FECEF1CEB4BFAA1C
:101A5000C6F40000CDF8C2E7CEDECFECD3A600007E
:101A60001400002002000020C30300205453656EC0
:101A70006432344C4349442500000000EA00002051
:101A80005353656E6432344C000000005353656E4E
:101A90006432344C636865636B0000005353656EB9
:101AA0006432344C65727230000000005353656E2E
:101AB0006432344C65727231000000005353656E1D
:101AC0006432344C65727233000000005353656E0B
:101AD0006432344C657272313200000004F0B8FC9C
:101AE000D6E90923FE49521CA1F1D700009004F069
:101AF000AFFCD6E90A23FA49521CA1F5D27005467B
:101B000004F0A6FCD6E90B23F549521CA1F26D1096
:101B1000029004F09DFCF3A1F64804F0ADFF3946B5
:101B2000F44804F0ECFFAFF2C861F24804F0E7FFBC
:101B30004146F04804F0E3FFAFF2DC61ED4804F009
:101B4000DEFF2146EB4804F0DAFF07A801F08EFB28
:101B5000082207A9019804F0CBFE082250460199FB
:101B600004F0DDFE5146404605F042F8A8B1AFF260
:101B70006461E04804F0C3FFDE4901F20E4004F066
:101B80007BFFD748C83804F09BFF0146D448C838CB
:101B9000FEF7C8FCAFF21020DAE0D74829468246AB
:101BA00004F06AFFD44812993C30804604F064FF88
:101BB000D14811994B30019004F05EFFCE48594650
:101BC0005A30834604F058FFCB48109969300746D5
:101BD00004F052FFC8480F997830064604F04CFFD5
:101BE000C5480E998730054604F046FFC248009963
:101BF0009630044604F040FFBE4851469630042219
:101C0000824604F0A4FEBC4802224146963804F005
:101C10009EFEB94802228738019904F098FEB64822
:101C200002225946783804F092FEB348022239461F
:101C3000693804F08CFEB048022231465A3804F06C
:101C400086FEAD48022229464B3804F080FEAA48A1
:101C5000022221463C3804F07AFEA64C05AA03A9CC
:101C600014F8D20F8DF80C0060788DF80D00E07B31
:101C70008DF80E00207C8DF80F00A07F8DF81000ED
:101C8000E07F8DF8110094F82D008DF8120094F883
:101C90002E008DF8130094F83C008DF8140094F891
:101CA0003D008DF8150094F84B008DF8160094F85F
:101CB0004C008DF8170094F85A008DF8180094F82D
:101CC0005B008DF81900504601F0F9FA04F86A0C2F
:101CD000012817D0AFF2B030FEF7F4FAAFF2D471AA
:101CE000844804F00CFF834901F20E4004F0C4FE66
:101CF0007B48C83804F0E4FE01467948C838FEF74E
:101D000011FCAFE5AFF2D0317A4804F0F8FE794922
:101D100001F20E4004F0B0FE0123AFF2D43270495C
:101D20006F48C839CDF80090FEF712FC98B1012831
:101D3000E7D1AFF2E0316A4804F05AFF70B1AFF278
:101D4000D831674804F054FF0028DAD1AFF2D4301C
:101D5000FEF7B8FA86E5AFF2C830F9E760481E2111
:101D6000C83004F082FBAFF2C0315D48C83004F0E7
:101D700083FE5B480299C83004F0C1FE58485FA159
:101D8000C83004F0BCFE56480022C8300299FEF765
:101D90008CFA67E5D6E9002351493846521C04F015
:101DA00057FBD6E901234E494046521C04F050FB34
:101DB000D6E902234A49521CA1F51B70824604F061
:101DC00047FBD6E903234649521CA1F51170814611
:101DD00004F03EFB484604F073FE182802D90120A7
:101DE000606000E06560D6E904233D49521CA1F51E
:101DF0000770804604F02CFBD6E905233849521CB5
:101E0000A1F5FA70074604F023FBD6E9062334490E
:101E1000521CA1F5E670064604F01AFB3548494607
:101E20001C38031DC0F800A04246066183E8860006
:101E300064683B46C0E905540096CDE9015450461C
:101E4000FEF717FFAFF28C40FEF72CFA0AE5AFF26F
:101E500068407DE7AFF258407AE7AFF2484077E755
:101E6000AFF2384074E7AFF2244071E7AFF21C40A4
:101E70006EE72DE9F04F224C87B04FF00008214E5D
:101E8000C4F8048084F80080054686F8008019486C
:101E9000082269302946834604F02AFD16480822A4
:101EA0002D385946824604F03AFD12480422783013
:101EB000691D074604F01CFD0F4839461E380422F0
:101EC000074604F02CFD0B48E91D87300622054625
:101ED00004F00EFD0848062229460F38054613E097
:101EE0005E0700205453656E6432344C526573753E
:101EF0006C74250088020020F0030020D4AA0000A2
:101F0000140000200200002004F009FDF7A1FB48A6
:101F100004F0B2FDFA49F94804F0F1FDF6A1F748E2
:101F200004F0EDFD5146F54804F0E9FDF2A1F34857
:101F300004F0E5FD3946F14804F0E1FDEEA1EF487B
:101F400004F0DDFD2946ED4804F0D9FDAFF2106143
:101F5000EA4804F0D4FDE94901F20E4004F08CFD9A
:101F60004FF0C8090323AFF22862E649CDF800908C
:101F700001F1C800FEF7ECFA2070002867D01421A8
:101F8000E14804F07AFADF492522C831DE4804F03E
:101F900033FADD4D0022A5F1E601A1F2C6202B683F
:101FA00004F056FAD9A1A5F56B7004F021FEA5F551
:101FB0006B7606F123070F3600284BD0D6A1A5F586
:101FC0006B7004F015FE00287ED0D7A1A5F56B70CC
:101FD00004F00EFE002878D0D7A1A5F56B7004F0B0
:101FE00007FE002872D0D8A1A5F56B7004F000FEA2
:101FF00000286CD0D8A1A5F56B7004F0F9FD00287D
:1020000066D0AFF63831A5F56B7004F0F1FD00280D
:102010007DD0AFF63831A5F56B7004F0E9FD0028EE
:1020200076D0AFF63C31A5F56B7004F0E1FD0028E9
:102030000AD1AFF64030D0E90010CDE900100522FA
:1020400069466420FEF7A8FB07B0BDE8F08F632067
:102050003070F9E7D5E90023AA493046C831521C4F
:1020600004F0F6F9D5E90123A6493846C831521CD7
:1020700004F0EEF9A349D5E90223C831A1F5257092
:102080008046521C04F0E4F99E49D5E90323C83187
:10209000A1F5D2700446521C04F0DAF9D5E9042304
:1020A0009849521CC831A1F26D10054604F0D0F9D0
:1020B000AD482146044604F0DFFCACA18F4804F093
:1020C000DBFC31468D4804E0ABE059E15BE15DE1CA
:1020D0005FE104F014FD88A1884804F010FD394642
:1020E000864804F00CFD84A1844804F008FD4146B4
:1020F000824804F004FD03A801F02EFC082203A985
:10210000584604F0F5FB08225946504601E043E1E9
:1021100045E104F004FC5146384604F069FD90B1F5
:10212000AFF61841754804F0EAFC7449754804F0AC
:10213000A3FC744804F0C4FC01467248FEF7F2F9AF
:10214000AFF2BC704AE06D48214696300322044647
:1021500004F0FDFB204601F03DFC6849012881F8B0
:10216000680014D0AFF64000FEF7ACF8AFF664415B
:10217000624804F0C4FC6149624804F07DFC614897
:1021800004F09EFC01465F48FEF7CCF95CE7AFF631
:1021900058015A4804F0B3FC58495A4804F06CFC02
:1021A0000123AFF65C025749CDF8009001F1C80059
:1021B000FEF7CEF9A8B10128E8D1AFF66801514881
:1021C000C83004F015FD78B1AFF664014D48C83051
:1021D00004F00EFD0028D9D1AFF66000FEF772F8CA
:1021E00032E7AFF65400F9E747481E211E3804F0E5
:1021F0003CF9AFF64C0144481E3804F03DFC42481F
:1022000029461E3804F07BFCAFF654013E481E38C8
:1022100004F075FC3C48012229461E38FEF745F8BB
:1022200012E7D5E9002337493046C831521C04F083
:102230000FF9D5E9012333493846C831521C04F05F
:1022400007F93049D5E90223C831A1F51B70824650
:10225000521C04F0FDF82B49D5E90323C831A1F540
:1022600011708146521C04F0F3F8484604F028FC33
:102270000126182801D9666001E0C4F804802149CC
:10228000D5E90423C831A1F507708046521C04F03B
:10229000DFF81C49D5E90523C831A1F5FA700746D6
:1022A000521C04F0D5F8D5E906231649521CC83152
:1022B000A1F5E670054604F0CBF8104849461C38F5
:1022C000031DC0F800A04246056183E886006468EB
:1022D0003B46C0E905640095CDE901645046FEF730
:1022E000C8FCAFF62810FDF7DDFFADE65453656E70
:1022F000643434343243494425000000880200200D
:10230000EA00002096060020440800205353656E22
:1023100064343434320000005353656E6434343412
:1023200032636865636B00005353656E6434343404
:1023300032657272300000005353656E6434343479
:1023400032657272310000005353656E6434343468
:1023500032657272330000005353656E6434343456
:102360003265727231320000F00300205453656E02
:102370006434343432526573756C74250000000087
:10238000AFF69C102AE7AFF6881027E7AFF67C106F
:1023900024E7AFF6681021E7AFF658101EE7AFF656
:1023A0004C101BE72DE9F04FF94C87B04FF00008B7
:1023B000F84EC4F8048084F80080054686F8008052
:1023C000F5480A222946019004F092FAF2480A22BE
:1023D000D2300199029004F0A2FAEF4804221E3094
:1023E000A91D074604F084FAEB483946F030042270
:1023F000074604F094FAE84805F108013C3004224D
:10240000054604F075FAE54804222946834604F09F
:1024100086FAE148E2A1693804F02EFBDE48E4497F
:10242000693804F06CFBAFF23011DB48693804F016
:1024300066FBD9480299693804F061FBAFF2481194
:10244000D548693804F05BFBD3483946693804F055
:1024500056FBAFF25C11D048693804F050FBCE480F
:102460005946693804F04BFBAFF62C31CA4869383D
:1024700004F045FBC849693901F20E4004F0FCFA4A
:102480004FF0C8090323AFF64832CA49CDF800908F
:1024900001F1C800FEF75CF82070002864D0142118
:1024A000C54803F0EAFFC3492522C831C24803F0FA
:1024B000A3FFC14D0022A5F1E601A1F2C6202B68C1
:1024C00003F0C6FFBDA1A5F56B7004F091FBA5F567
:1024D0006B7606F123070F36002848D0BAA1A5F580
:1024E0006B7004F085FB00287DD0BBA1A5F56B7057
:1024F00004F07EFB002877D0BBA1A5F56B7004F03B
:1025000077FB002871D0BCA1A5F56B7004F070FBBF
:1025100000286BD0BCA1A5F56B7004F069FB002806
:1025200065D0BD49A5F56B7004F062FB00287CD036
:10253000B949A5F56B70103104F05AFB002875D02D
:10254000B549A5F56B701C3104F052FB00280AD187
:10255000B14805222830D0E90010CDE900106946C5
:102560006420FEF719F96FE5632030706CE5D5E95A
:10257000002390493046C831521C03F069FFD5E969
:1025800001238C493846C831521C03F061FF894948
:10259000D5E90223C831A1F525700446521C03F089
:1025A00057FF8449D5E90323C831A1F5D27082468B
:1025B000521C03F04DFF7F49D5E90423C831A1F532
:1025C000BE708046521C03F043FFD5E905237949CC
:1025D000521CC831A1F26D10054603F039FF6E4858
:1025E0008EA1693804E029E185E187E189E18BE189
:1025F00004F042FA68483146693804F080FA6648C7
:102600008AA1693804F07BFA63483946693804F0D6
:1026100076FA614885A1693804F071FA5E4821466E
:10262000693804F06CFA03A801E070E172E101F08E
:102630006DFC0A2203A9019804F05AF9DDE90110A2
:102640000A2204F06CF93846029904F0D1FAA0B1DC
:10265000714951484031693804F051FA4E495548A2
:10266000693904F009FA534804F02AFA014651483E
:10267000FDF758FFAFF6F04050E0484851460F389C
:10268000044604F0F9F94146584604F0F5F90222EF
:1026900021460DF1120004F05AF90222594605A80C
:1026A00004F055F93C4E0024693E03AB93E8070063
:1026B00001F0BAFC641C86F86800E4B2012803D07B
:1026C000032C4ED0F1D3BFE4AFF694513248A0F1C1
:1026D000690004F014FA30493648693904F0CCF93D
:1026E0000123AFF69C523349CDF8009001F1C800A8
:1026F000FDF72EFFA8B10128E5D1AFF6A8512D486E
:10270000C83004F075FA78B1AFF6A4512948C83042
:1027100004F06EFA0028D6D1AFF6A050FDF7D2FD36
:1027200092E4AFF69450F9E723481E211E3803F0D7
:102730009CFEAFF68C5120481E3804F09DF91E48CF
:1027400029461E3804F0DBF9AFF694511A481E38BA
:1027500004F0D5F91848012229461E38FDF7A5FDD9
:1027600072E433A0FDF7AEFD2B490B4840316938C8
:1027700004F0C5F908490F48693904F07DF90D489E
:1027800004F09EF901460B48FDF7CCFE5CE4000026
:102790001400002002000020F1020020FF030020AE
:1027A0005453656E64353535375043494425000030
:1027B000EA00002096060020440800205353656E6E
:1027C00064353535375000005353656E6435353503
:1027D0003750636865636B005353656E64353535F8
:1027E00037506572723000005353656E643535356D
:1027F00037506572723100005353656E643535355C
:1028000037506572723300005353656E6435353549
:102810003750657272313200CC1400085453656E23
:10282000643535353750526573756C74250000007A
:10283000B3E4D6B5CAA7B0DC00000000D5E9002398
:10284000FE493046521C03F003FED5E90123FB4943
:102850003846521C03F0FCFDD5E90223F749521C0F
:10286000A1F51B70824603F0F3FDD5E90323F3497C
:10287000521CA1F51170814603F0EAFD484604F0B0
:102880001FF90126182801D9666001E0C4F8048008
:10289000D5E90423E949521CA1F50770804603F0ED
:1028A000D7FDD5E90523E549521CA1F5FA70074685
:1028B00003F0CEFDD5E90623E049521CA1F5E670F0
:1028C000054603F0C5FDDE484946031DC0F800A0DB
:1028D0004246056183E8860064683B46C0E90564BA
:1028E0000095CDE901645046FEF7C3F9AFF63470A8
:1028F000FDF7D8FC4AE4AFF610700FE7AFF60070B2
:102900000CE7AFF6F06009E7AFF6E06006E7AFF678
:10291000CC6003E7AFF6C46000E72DE9F04FC94C87
:1029200099B00025C84F6560257006463D70014688
:10293000C3480A228530019003F0DAFFC3480A2217
:102940000199029003F0EBFFBD480822A330B11DAE
:10295000804603F0CDFFBD4841461E300822804628
:1029600003F0DDFFB94806F113019638062206464A
:1029700003F0BEFFB54806223C303146139003F009
:10298000CEFFAF48B2A11C3004F076F8AC48B44991
:102990001C3004F0B4F8AFF26C11A9481C3004F0FC
:1029A000AEF8A74802991C3004F0A9F8AFF28411E0
:1029B000A3481C3004F0A3F8A14841461C3004F0A1
:1029C0009EF8AFF298119E481C3004F098F89C488D
:1029D00013991C3004F093F89948A2491C3004F074
:1029E0008EF897491C3101F20E4004F045F89349E6
:1029F0004FF0C80903239B4AC8399048CDF800908E
:102A0000FDF7A6FD2070002868D08C481421E63020
:102A100003F033FD8949252201F1E60003F0ECFCC7
:102A2000864E8649E6360022A1F2C620336803F0BE
:102A30000FFD8DA1A6F56B7004F0DAF8A6F56B77A3
:102A400007F12308010007F10F074AD089A1A6F575
:102A50006B7004F0CDF800287DD08AA1A6F56B70CC
:102A600004F0C6F8002877D08AA1A6F56B7004F0B0
:102A7000BFF8002871D08BA1A6F56B7004F0B8F8F0
:102A800000286BD08BA1A6F56B7004F0B1F800287C
:102A900065D08C49A6F56B7004F0AAF800287DD0AB
:102AA0008849A6F56B70103104F0A2F8002876D0A2
:102AB0008449A6F56B701C3104F09AF800280AD1FD
:102AC000804805222830D0E90010CDE90010694681
:102AD0006420FDF761FE19B0BDE8F08F6320387007
:102AE000F9E7D6E9002355493846521C03F0B0FCFB
:102AF000D6E9012351494046521C03F0A9FCD6E90E
:102B000002234E49521CA1F52570044603F0A0FC97
:102B1000D6E903234949521CA1F23110824603F041
:102B200097FCD6E904234549521CA1F591701790F2
:102B300003F08EFCD6E905234049521CA1F2131084
:102B4000169003F085FCD6E906233C49521CA1F1FE
:102B5000F500054604E08AE1EDE1EFE1F1E1F3E1A2
:102B600003F076FCD6E907233449521CA1F1E600B4
:102B7000159003F06DFCD6E908233049521CA1F5ED
:102B8000D270149003F064FCD6E909232B49521C3F
:102B9000A1F5BE70009003F05BFC01E0D7E1D9E144
:102BA000D6E90A232549521CA1F26D10834603F091
:102BB0004FFC234844A11C3003F05EFF20483946F7
:102BC0001C3003F09CFF1E4843A11C3003F097FF0C
:102BD0001B4841461C3003F092FF19483EA11C30AF
:102BE00003F08DFF164821461C3003F088FF03A830
:102BF00001F042FA0A2203A9019803F079FEDDE907
:102C000001100A2203F08BFE4046029903F0F0FF08
:102C100090B12C490A4840311C3003F070FF08493C
:102C20001C3101F20E4003F027FF0448C83803F0BE
:102C300047FF0146014851E055E000005E070020D3
:102C40006C0200201400002002000020C3030020BA
:102C50005453656E64353535374C4349442500007F
:102C6000EA000020401900085353656E643535357D
:102C7000374C00005353656E64353535374C636807
:102C800065636B005353656E64353535374C65723B
:102C9000723000005353656E64353535374C6572BC
:102CA000723100005353656E64353535374C6572AB
:102CB000723300005353656E64353535374C657299
:102CC00072313200CC1400085453656E64353535CA
:102CD000374C526573756C7425000000C838FDF7D9
:102CE00021FCF44891E0F4485146824603F0C4FECA
:102CF000F14817990F30804603F0BEFEEE48169952
:102D00001E30044603F0B8FEEB4829463C30054629
:102D100003F0B2FEE84815994B30064603F0ACFECE
:102D2000E54814993C38074603F0A6FE009913982D
:102D300003F0A2FE514609A803F09EFE414609A8F1
:102D400003F0DDFE214609A803F0D9FE29460EA8AE
:102D500003F092FE31460EA803F0D1FE042239465C
:102D60000DF1120003F0F3FD03220DF11F00139982
:102D700003F0EDFD062209A90DF1160003F0E7FDB1
:102D800003220EA907A803F0E2FDCC4D002407980A
:102D90000090BDF8200003AEADF8040096E80F00E7
:102DA00001F022FA641C85F86800E4B2012803D01F
:102DB000032C48D0EBD38EE6BE49C048A1F15001A8
:102DC00003F09DFEBD4901F20E4003F055FEB94AE5
:102DD000BB490123403A01F1C800CDF80090FDF74E
:102DE000B7FBA8B10128E6D1B249B5483439C8309B
:102DF00003F0FEFE78B1AF49B1482039C83003F086
:102E0000F7FE0028D7D1AB480C38FDF75BFA62E635
:102E1000A8480830F9E71E21AA4803F026FBA54977
:102E2000A848203103F028FE5946A64803F067FE63
:102E3000AFF63871A34803F062FE00225946A1485C
:102E4000FDF733FA47E6AFF21860FDF73BFA9E490B
:102E50009A4803F054FE9949994803F00DFE9848AA
:102E600003F02EFE01469648FDF75CFB33E6D6E9FB
:102E7000002393493846C831521C03F0E9FAD6E9D9
:102E800001238F494046C831521C03F0E1FA8C49B6
:102E9000D6E90223C831A1F51B708246521C03F00B
:102EA000D7FA8749D6E90323C831A1F511708146C5
:102EB000521C03F0CDFA484603F002FE182802D94E
:102EC0000120606000E065607D49D6E90423C831D7
:102ED000A1F507708046521C03F0BAFA7849D6E98A
:102EE0000523C831A1F5FA700746521C03F0B0FA69
:102EF000D6E906237249521CC831A1F5E670064690
:102F000003F0A6FA6D4849461C38031DC0F800A01E
:102F10004246066183E8860064683B46C0E9055482
:102F20000096CDE901545046FDF7A3FE61483430C8
:102F3000FDF7B8F9CFE55F48603066E75D48783067
:102F400063E75C488C3060E75A48A4305DE7594835
:102F5000BC305AE75748CC3057E72DE9F0415A4882
:102F60009EB01838594ED0E90010CDE91C10002051
:102F700030700A2119A803F078FA6421504803F050
:102F800074FA504814211E3003F077FA64224C4939
:102F90001046FDF7D1FB4A49252201F5D77003F011
:102FA0002BFA484800221E304549036819A803F04F
:102FB0004FFA47A119A803F01BFE00283CD146A1F7
:102FC0003F4803F015FE70BB3D4803F079FD014614
:102FD0003B48FDF7A7FA414D002440F255174FF446
:102FE0001678286800B3384602F0D4FE31493C48D0
:102FF000403903F02FFDB8B1142C11D230486421B0
:10300000C83003F032FA29682D48C830FDF77AF944
:1030100028496846343903F0EBFD20B16320307055
:103020001EB0BDE8F08107E0404602F0B3FE641C2C
:10303000E4B2142CD5D3F3E705221CA96420FDF7D4
:10304000ABFBEDE77FB50E4604460121084601F0D3
:10305000A4FE0121082001F0A0FE4FF40075ADF898
:103060000C5003208DF80E0048208DF80F0003A9A6
:103070001C4801F0AAFC0921012001F05AFD0020A2
:103080008DF804000C2000958DF8050001258DF8C1
:103090000650684602F072F817208DF808008DF887
:1030A00009408DF80A608DF80B5002A801F0E3FB8F
:1030B0007FBD0000881900082C0400208802002031
:1030C00096060020260800200C15000802000020AB
:1030D0005453656E64000000242400003800002072
:1030E000E6080020000C014070B5984D04462021F0
:1030F000284601F0D4FC02F0D1FE200AA02101EB09
:103100004000C0B202F062FF02F038FFE0B202F00D
:103110005DFF02F033FF02F0C1FEA12002F056FF76
:1031200002F02CFF002002F07AFF044602F00AFFB2
:1031300002F0D0FE2021284601F0B3FC204670BDED
:1031400070B5824D0E4604462021284601F0A7FCAA
:1031500002F0A4FE200AA02101EB4000C0B202F060
:1031600035FF02F00BFFE0B202F030FF02F006FF85
:10317000304602F02BFF02F001FF02F0ABFE0A2006
:1031800002F008FE2846BDE87040202101F089BC0D
:1031900070B515460E46044608E02046641CA4B2ED
:1031A000FFF7A2FF6D1E06F8010BADB2002DF4D1A2
:1031B00070BD70B5054600242046FFF795FF2855E1
:1031C000641CE4B2042CF7D30420FFF78DFF2871B0
:1031D0000620FFF789FF28720720FFF785FF687236
:1031E0007520FFF781FF68717620FFF77DFFA871DA
:1031F0007720FFF779FFE87170BD70B50C46054682
:10320000017816460620FFF79BFF0620FFF76CFFAC
:103210002978884226D169780720FFF791FF072097
:10322000FFF762FF697888421CD121784620FFF7BA
:1032300087FF4620FFF758FF2178884212D1617836
:103240004920FFF77DFF4920FFF74EFF6178884254
:1032500008D131464A20FFF773FF4A20FFF744FFA9
:10326000B04201D0002070BD012070BD70B50024B7
:10327000054634262046FFF737FF2855641CE4B284
:10328000042CF7D30420FFF72FFF28711E20FFF72F
:103290002BFF68711F20FFF727FFA8712020FFF781
:1032A00023FFE87100243046FFF71EFF2919761C22
:1032B000641CE4B20872F6B2042CF4D370BD2DE99C
:1032C000F047002434271526924689468046242557
:1032D00018F804103846FFF733FF3846FFF704FFAD
:1032E00018F80410884225D17F1C641CE4B2FFB298
:1032F000042CEDD30024304619F80410FFF720FF0A
:103300003046FFF7F1FE19F80410884212D1761CFE
:10331000641CE4B2F6B2082CEDD3002428461AF857
:103320000410FFF70DFF2846FFF7DEFE1AF8041021
:10333000884202D00020BDE8F0876D1C641CE4B216
:10334000EDB2062CEAD30120F5E70000000C0140A5
:1033500010B52021FE4801F0A2FB00240F2002F04E
:1033600002FD641CE4B20A2CF8D310BD2021F848F9
:1033700001F097BB70B50546002402F068FDF44EDD
:103380004021304601F08DFBE8074FF080013046C8
:1033900015D001F084FB0A2002F0E5FC4021304604
:1033A00001F07DFB0A2002F0DEFC4021304601F0F6
:1033B00078FB641C6D08E4B2082CE1D370BD01F009
:1033C00070FBE8E72DE9F0410C460646002502F0C7
:1033D0002FFD02F03CFDDE4F2021384601F05FFB5F
:1033E0000F2002F0C0FC0F2002F0BDFC4021384647
:1033F00001F057FB8021384601F053FB402138464D
:1034000001F04DFB8021384601F049FB8021384610
:1034100001F047FB3020FFF7ADFF3046FFF7AAFF72
:103420000020FFF7A7FF4021384601F03AFB40217A
:10343000384601F034FB8021384601F032FB802110
:10344000384601F02CFB02F011FD3E46402130468B
:1034500001F027FB012002F09DFC2078802140082C
:103460002070304601F007FB18B1207840F0800052
:1034700020704021304601F012FB012002F08AFC4E
:103480006D1CEDB2082DE1D32021304601F009FB7F
:103490000020BDE8F0812DE9F047164688468146B8
:1034A000002402F0C5FC02F0D2FCA94D40212846C0
:1034B00001F0F7FA8021284601F0F1FA4021284670
:1034C00001F0EDFA8021284601F0EBFA3120FFF7F8
:1034D00051FF0020FFF74EFF0020FFF74BFF402178
:1034E000284601F0DEFA4021284601F0D8FA802172
:1034F000284601F0D6FA8021284601F0D0FA02F0E1
:10350000B5FC00274021284601F0CBFA402128468F
:1035100001F0C5FA64088021284601F0ACFA08B130
:1035200044F080047F1CFFB2082FEBD3002740211A
:10353000284601F0B6FA0F2002F015FC402128467B
:1035400001F0ADFA0F2002F00EFC7F1CFFB2182F25
:10355000EDD302F07CFC60077ED0E00702D004F0DF
:10356000FE0406E0A00702D504F0FD0401E004F02B
:10357000FB044021284601F094FA8021284601F0FE
:103580008EFA4021284601F08AFA8021284601F06F
:1035900088FA3920FFF7EEFE0020FFF7EBFE204609
:1035A000FFF7E8FE4021284601F07BFA80212846FB
:1035B00001F077FA4021284601F071FA802128466F
:1035C00001F06DFA02F052FC00274021284601F07C
:1035D00068FA0F2002F0C7FB4021284601F05FFA8D
:1035E0000F2002F0C0FB7F1CFFB27C2FEDD302F056
:1035F0002EFC4021284601F054FA8021284601F093
:103600004EFA4021284601F04AFA8021284601F06E
:1036100048FA0F2002F0A7FB3320FFF7ABFE012092
:10362000FFF7A8FE4846FFF7A5FE4021284601F017
:1036300038FA8021284601F034FA4021284601F06A
:103640002EFA8021284601F02AFA4021284601F06E
:1036500028FA4021284600E02AE101F020FA402122
:10366000284601F01EFA4021284601F018FA4021B0
:10367000284601F016FA8021284601F010FA402170
:10368000284601F00CFA8021284601F00AFA33207E
:10369000FFF770FE0220FFF76DFE4046FFF76AFE5F
:1036A0004021284601F0FDF98021284601F0F9F972
:1036B0004021284601F0F3F98021284601F0EFF976
:1036C0004021284601F0EDF94021284601F0E7F9B4
:1036D0004021284601F0E5F94021284601F0DFF9B4
:1036E0004021284601F0DDF98021284601F0D7F974
:1036F0000F2002F038FB4021284601F0D0F980214C
:10370000284601F0CEF90F2002F02DFB3320FFF701
:1037100031FE0320FFF72EFE3046FFF72BFE40213F
:10372000284601F0BEF98021284601F0BAF940216F
:10373000284601F0B4F98021284601F0B0F9402173
:10374000284601F0AEF94021284601F0A8F901E031
:10375000000C01404021284601F0A3F940212846F1
:1037600001F09DF94021284601F09BF9802128466F
:1037700001F095F90F2002F0F6FA4021284601F0F9
:103780008EF98021284601F08CF90F2002F0EBFA27
:103790003920FFF7EFFD0020FFF7ECFDFF20FFF7DA
:1037A000E9FD4021284601F07CF98021284601F0FE
:1037B00078F94021284601F072F98021284601F06D
:1037C0006EF902F053FB00262F464021384601F0E7
:1037D00068F90F2002F0C7FA4021384601F05FF97E
:1037E0000F2002F0C0FA761CF6B27C2EEDD302F068
:1037F0002EFB4021384601F054F98021384601F073
:103800004EF94021384601F04AF98021384601F04E
:1038100048F90F2002F0A7FA3120FFF7ABFD002096
:10382000FFF7A8FD0020FFF7A5FD4021384601F075
:1038300038F94021384601F032F98021384601F04C
:1038400030F98021384601F02AF902F00FFB0025FB
:103850004021384601F025F94021384601F01FF992
:1038600064088021384601F006F908B144F080046C
:103870006D1CEDB2082DEBD300254021384601F038
:1038800010F90F2002F06FFA4021384601F007F9D5
:103890000F2002F068FA6D1CEDB2182DEDD3402117
:1038A000384601F0FEF802F0D2FAE043400700D0BB
:1038B0000120BDE8F0872DE9F0410F4606460024BF
:1038C00002F0B6FA02F0C3FA584D4021284601F042
:1038D000E8F88021284601F0E2F84021284601F06E
:1038E000DEF88021284601F0DCF83820FFF742FDA1
:1038F0003046FFF73FFD3846FFF73CFD40212846A4
:1039000001F0CFF88021284601F0CBF8402128466D
:1039100001F0C5F88021284601F0C1F84021284671
:1039200001F0BFF88021284601F0A5F84021284683
:1039300001F0B5F80F2002F016FA4021284601F0F8
:10394000B0F80F2002F00FFA641CE4B2FE2CEDD3A5
:1039500002F07DFA00209CE52DE9FC41054600249B
:1039600069460B20FFF72EFD6E460C20711CFFF7F9
:1039700029FDB11C0D20FFF725FDF11C0E20FFF7DE
:1039800021FD01A90820FFF71DFD01AF0920711DD0
:10399000FFF718FD385D2919641C4871022CF9DB0A
:1039A0000022B05CA854521C042AFADBE91D3C201A
:1039B000FFF708FD05F108013D20FFF703FD05F1C4
:1039C00009013E20FFF7FEFC291D0A20FFF7FAFC43
:1039D000BDE8FC81F8B5064600208DF800000446DD
:1039E0003C25FFF7B5FC99226121A320FFF753FD89
:1039F00030B90A2002F0B7F9315D2846FFF75BFFC6
:103A0000FFF7B4FC69462846FFF7DCFC305D9DF803
:103A10000010884201D00020F8BD6D1C641CE4B287
:103A2000EDB2032CDDD30120F8BD0000000C0140F5
:103A30002DE9FF5F8B4682460121102001F0ADF990
:103A40000121084601F0A9F90220ADF80000102775
:103A5000DFF894948DF8037003248DF802406946D2
:103A6000484600F0B2FF0125ADF8005004268DF85D
:103A700003608DF802406946484600F0A6FF4FF00B
:103A80000808ADF800808DF803708DF80240694693
:103A9000484600F09AFFADF800608DF802404820DB
:103AA0008DF803006946484600F08FFF0221084662
:103AB00001F03FF800208DF808000C208DF8090077
:103AC00001968DF80A5001A801F058FB8DF80C8082
:103AD0008DF80DA08DF80EB08DF80F5003A800F0F2
:103AE000CAFEBDE8FF9F10B500240821FE4800F083
:103AF000D6FF0F2002F037F9641CE4B20A2CF8D389
:103B000010BD0821F84800F0CCBF10B5F64C0128D4
:103B10004FF0020120460DD000F0C3FFC02002F09C
:103B200022F90221204600F0BAFFBDE81040C02073
:103B300002F019B900F0B5FF4FF4E070EFE770B58F
:103B40000D4606460024300401D5012000E0002087
:103B5000FFF7DBFF641C7600E4B2102CF3D30024E3
:103B6000280401D5012000E00020FFF7CEFF641CEF
:103B70006D00E4B2102CF3D370BD2DE9F74FDA4D90
:103B80000C468046ADF5966D00270221284600F0D0
:103B900086FF0A2002F0FEF80020014696AB4DF8A1
:103BA000201043F82010401CC0B28B469A4696283D
:103BB000F5D30221284600F074FF052002F0EAF850
:103BC0000221284600F06BFF4FF4C876304602F021
:103BD000CAF80020FFF799FF0020FFF796FF0221A7
:103BE000284600F05EFF062002F0D4F802212846A5
:103BF00000F055FF304602F0B6F80120FFF785FFD0
:103C00004046FFF782FF48F2446148F69900FFF70B
:103C100096FF0020FFF779FF600701D4002000E045
:103C20000120FFF772FFA00701D4002000E001206F
:103C3000FFF76BFFE00700D00120FFF766FF0221CE
:103C4000284600F02EFF0024142002F0A3F80226DC
:103C500000254FF4966805E028466D1C404501D9C3
:103C60000B27AAE00121A04800F005FF0128F3D0AE
:103C70004AE04FF0E02042F2283141610121016128
:103C8000C0F818B0DFF860828146984D01E06D1EE3
:103C900054D30121404600F0EEFE0028F7D0D9F8B9
:103CA0001410D9F81800081A6428EED34946C9F848
:103CB00010B0C9F818B04FF00909B0FBF9F34DF88E
:103CC000263042F22830486101200861C1F818B05E
:103CD0008846874D01E06D1E6FD30121824800F0B8
:103CE000CAFE0128F7D0D8F81410D8F81800081A1E
:103CF0006428EED3C8F810B0C8F818B0B0FBF9F1DA
:103D00004AF82610761CF6B2962EB2D1002108464B
:103D1000564605E056F82120A2F22D12632A04D35C
:103D20000A46491CC9B2962AF4D1962907D05DF8F3
:103D300021206D46503A5B2A03D302273DE001273C
:103D40003BE0491CC9B255F82120503A5B2A01D307
:103D5000032732E056F82120A2F16403B3F5917FE6
:103D600001D9042729E0B2F5967F04D96400002226
:103D7000401C641C3BE0012239E0491CC9B2962971
:103D800007D055F82130A3F15007DD2F03D30627C4
:103D900013E0052711E0AF2B1AD2521CD2B2D30781
:103DA00004D1401C6400C0B2202822D056F8213033
:103DB000A3F16407C92F0ED3072702214A4800F058
:103DC0006EFE012F21D038460DF2BC4DBDE8F08FBC
:103DD000921CD2B2E5E7CD2B14D2521CD2B2D3073B
:103DE00005D16400401CC0B2641C202801D02028EA
:103DF000C3D3DDF8B804022104603B4800F04FFE55
:103E00000120E1E7921CD2B2EBE70020DCE72DE9CC
:103E1000F84F04460020DDF828900090164608066A
:103E20001D460F4600EB064000EB0521DFF8B8A069
:103E300001EB09080221504600F033FE052001F095
:103E4000A9FF0221504600F02AFE4FF4C87B5846D5
:103E500001F089FF0020FFF758FE0020FFF755FE14
:103E60000221504600F01DFE052001F093FF0221C3
:103E7000504600F014FE584601F075FF0120FFF790
:103E800044FE0020FFF741FE48F2446148F69900E5
:103E9000FFF755FE0020FFF738FE09EB052106EB82
:103EA0000720FFF74CFE600701D4002000E001204E
:103EB000FFF72BFEA00701D4002000E00120FFF750
:103EC00024FEE00700D00120FFF71FFE0221554627
:103ED000504600F0E6FD062001F05CFF6A462146F0
:103EE0000020FFF74AFE05E0001001409C5D010044
:103EF000FFFF03000221284600F0D1FD0099414553
:103F000002D00020BDE8F88F0120FBE710B58EB08D
:103F1000044600200090019002900C9005900490BF
:103F200006900390079009900A900B90FFF7DBFD35
:103F30006A4601210020FFF720FE01AA022100208D
:103F4000FFF71BFE02AA03210020FFF716FE03AABB
:103F500001210020FFF711FE0CAA02210020FFF72B
:103F60000CFE05AA03210020FFF707FE04AA012189
:103F70000020FFF702FE07AA02210020FFF7FDFD47
:103F800006AA03210020FFF7F8FD09AA012100205D
:103F9000FFF7F3FD0AAA02210020FFF7EEFD0BAAAE
:103FA00003210020FFF7E9FDDDE90310814200D184
:103FB0000090099A824200D100908A4200D100917B
:103FC0000C990798814200D101900A9A824200D14F
:103FD00001908A4200D10191DDE90510814200D1B2
:103FE00002900B9A824200D102908A4200D1029143
:103FF0000198010C2171000EE0700098A0700098EB
:10400000000A60700098000C20700098000E60712B
:104010000298010EA171010CE171010A2172607216
:10402000FFF76FFD0EB010BDF8B50C461546FFF753
:104030005AFD4FF47A76304601F0ACFEC5F3072006
:104040000090EBB2220EC4F307410320FFF7DFFE1E
:104050000446304601F09EFE00200346024601461B
:1040600000900620FFF7D3FE24B118B1FFF749FDF9
:104070000120F8BD0020F8BD10B594B00446002022
:10408000009001900290039004900590109007908A
:1040900013900A90089006900C900D900E900F903F
:1040A000FFF721FD6A4601210020FFF766FD01AA06
:1040B00002210020FFF761FD02AA06210020FFF780
:1040C0005CFD03AA03210020FFF757FD04AA01218C
:1040D0000020FFF752FD05AA02210020FFF74DFD49
:1040E00010AA06210020FFF748FD07AA032100209F
:1040F000FFF743FD13AA01210020FFF73EFD06AAAA
:1041000002210020FFF739FD0AAA06210020FFF74F
:1041100034FD08AA03210020FFF72FFD0CAA01217E
:104120000020FFF72AFD0DAA02210020FFF725FD40
:104130000EAA06210020FFF720FD0FAA0321002070
:10414000FFF71BFD04991398814200D100900C9A4F
:10415000824200D100908A4200D10091DDE9051031
:10416000814200D101900D9A824200D101908A4291
:1041700000D1019110990A98814200D102900E9AC3
:10418000824200D102908A4200D10291DDE90710FB
:10419000814200D103900F9A824200D103908A425B
:1041A00000D103910198010C2171000EE07000987C
:1041B000A0700098000A60700098000C20700098B1
:1041C000000E60710298010EA171010CE171010AEB
:1041D000217260720398010CE174010A2175607507
:1041E000FFF78FFC14B010BD2DE9F8430F46DDE951
:1041F000086814461D46FFF776FCC8F307200090B8
:1042000008F0FF03320EC6F307210320FFF7FFFD7E
:1042100028B3C5F307200090EBB2220EC4F3074188
:104220000420FFF7F4FDD0B1C6F307400090F3B2CD
:104230002A0EC5F307410520FFF7E9FD78B1C4F365
:1042400007200090E3B23A0EC7F307410620FFF7BC
:10425000DEFD20B1FFF755FC0120BDE8F883FFF734
:1042600050FC0020F9E74FF4A06000F0FFBA10B551
:104270004FF48034204600F09CFC00F0C7FC01287D
:104280001CD1002000F0FAFCA01100F0FEFC002080
:1042900000F002FD4FF4E011204600F0D8FC0120B0
:1042A00000F0DDFC392000F09CFC0028FAD0022050
:1042B00000F0D8FC00F0DDFC0828FBD110BD0000A8
:1042C000254910B51F20087000F05AFC02F094FA3E
:1042D000FFF7CDFFFFF7C7FF01F02EFDFCF72AFA2D
:1042E0004FF4E134002203212046FBF781FF012235
:1042F00003214FF41650FCF737FC00220221204620
:10430000FBF7ECFF00210120FFF792FB00210120C9
:10431000FCF784FE11A0FCF705FD642001F03AFDD6
:10432000FCF78DFA11A11548FCF764F81348183012
:10433000FCF718FB0023012241F61F4142F20F70E7
:1043400002F020F90D48FCF74FFD0D4900200860F0
:104350000C49086010BD000000000020CFB5CDB3AF
:10436000B3F5CABCBBAFCDEAB3C90000CDF8C2E714
:10437000C1ACBDD3D6D02E2E2E000000D20000201E
:10438000100000201C000020FFF79AFFDFF814A2A5
:10439000DFF80CB2844D854FAAF11A090024DBF82E
:1043A00000005E4601287DD10021284601F08CFAEC
:1043B0003C6034607B481A38FEF758FF79480E306D
:1043C000FFF7CAFAFCF7C3FC76480E300079B22832
:1043D00010D099F804004946C12810D0C22817D03F
:1043E000C32824D0C5282BD04879002830D0FF28F6
:1043F00049D141E06B480E30FDF73BFD47E0FCF74B
:1044000029FE08B16AA007E0FCF7AAFC6EA009E04B
:10441000FCF743FE18B170A0FBF73AFF37E0FCF75A
:104420009FFC74A0FBF73EFFFCF709FA2FE0FCF7B6
:1044300046FE08B174A0EFE7FCF792FC79A0F1E723
:104440007D48FCF799FC40F2AD3001F0A3FC1EE082
:104450008879C0B999F80700A8B95248FEF7A9FEB3
:104460009AF8081011B99AF8090008B173A0D3E7B7
:104470004C48FCF75DFE0AE08879FF2803D199F8E3
:104480000700FF281BD047481A38FDF711F9DFF85D
:10449000C4814FF400763146404600F0ECFA002823
:1044A000F9D000E006E00121284601F00DFA62484B
:1044B000FCF79AFC684E3068012802D025E067A01E
:1044C000AAE70021284601F0FFF934603C60354836
:1044D0001830FFF71BFDFCF73AFC324818304079E2
:1044E000B42817D0B6281AD05CA0FBF7D1FE5D4ED9
:1044F0000421304600F0BFFA0028F9D001212846F7
:1045000001F0E2F94C48FCF76FFC574E3068012887
:104510000ED01BE023481830FDF744FFE7E72148A1
:104520002230FFF7A9FD1F482230FEF7F6F9DEE73B
:104530000021284601F0C8F93460FCF779FA3E48BA
:10454000FCF752FC0121284601F0BEF9474E3078B5
:1045500063287FF424AF0021284601F0B5F93470B8
:104560003C60354867300646FCF7E0F901464048B4
:1045700001600168491C016001683046FCF73BF9A5
:104580003CA12D48FBF736FF2B481830FCF7EAF921
:104590002948FCF729FC0121284601F095F9FEE69F
:1045A00010000020AE080020000400400800002099
:1045B000C9E8B1B8BAC5B8FCB8C4CAA7B0DCA3ACE6
:1045C000C7EBD6D8CAD40000C9E8B1B8BAC5B8FCA0
:1045D000B8C4B3C9B9A60000C6C1C4BBB0E6B1BE79
:1045E000BAC5B8FCB8C4CAA7B0DCA3ACC7EBD6D870
:1045F000CAD40000C6C1C4BBB0E6B1BEBAC5B8FCDF
:10460000B8C4B3C9B9A60000C9E8B1B8B0E6B1BE34
:10461000BAC5B8FCB8C4CAA7B0DCA3ACC7EBD6D83F
:10462000CAD40000C9E8B1B8B0E6B1BEBAC5B8FC9A
:10463000B8C4B3C9B9A60000D2000020BFA8D3E017
:10464000C1BFB2BBCEAAC1E3A3ACCFC8B2E5B1ED46
:1046500000000000000C01401C000020C7EBD6D871
:10466000CBA20000001001400C000020020000203E
:1046700004000020CDF8C2E7D6D8C1ACD6D02E2E8B
:104680002E00000010B5042000F0C8FD012817D14D
:10469000642001F07FFB042000F0C0FD01280FD151
:1046A000042000F0C9FD0421544800F0E4F900287A
:1046B00006D153480078012803D0524901200860F0
:1046C00010BDBDE8104050A0FBF7ECBD10B54FF495
:1046D000007488B0204600F0A1FD01281FD14FF4DE
:1046E000FA7001F057FB204600F098FD012816D122
:1046F000204600F0A1FD2146484800F0BCF9002802
:104700000DD16846FEF7B2FD9DF80400C42808D01C
:104710003B480078012817D041490120086008B0C3
:1047200010BDFCF7DEFC30B1FCF7EFFC18B13DA08A
:10473000FBF7AEFDF3E740A0FBF7AAFDFCF77FF81F
:10474000424963200870EAE72FA0FBF7ABFDE6E7DC
:1047500070B53F4C0821204600F0C8FC18B1082174
:10476000204600F0CAFC40F225550022294620468A
:1047700000F00FFC20880107364801D000880AE0CD
:104780002188890607D503883348026833491144D4
:10479000521C02600B7029462046BDE87040012281
:1047A00000F0F7BB10B52E4C0021204601F08CF82C
:1047B0000121204601F0B1FA18B10121204601F093
:1047C000B8FA28490A68521C0A600868B0F5167FD2
:1047D00004D3002008602449012008602046BDE879
:1047E0001040012101F070B87047FEE7FEE7FEE7D8
:1047F000FEE77047704770477047000000100140A7
:10480000010000201C000020CDF8C2E7C1ACBDD3E0
:10481000D6D0A3ACC7EBC9D4BAF30000000C01405A
:1048200010000020B8FCB8C4CAA7B0DCA3ACC7EB2A
:10483000D6D8CAD4000000004950B6FECEACC2EBB8
:10484000B8FCB8C4B3C9B9A600000000020000203B
:10485000004400400444004038000020E6080020E6
:1048600000040040080000200C00002028490843F4
:1048700028490860704730B50F23C27801780125B8
:10488000F2B1244A126801F1E02102F4E062C2F5BB
:10489000E062120AC2F10404D3404278A240847854
:1048A0001C401443220181F80024007800F01F010D
:1048B0008D404009800000F1E020C0F8005130BD7B
:1048C00001F01F0085404809800000F1E020C0F899
:1048D000805130BD104A114001430E48001F016055
:1048E00070470C4A121D0029116801D0014300E0F5
:1048F0008143116070474FF0E0210428086903D01C
:1049000020F004000861704740F00400FAE700005E
:104910000000FA050CED00E080FFFF1F8F4910B585
:10492000884206D10121042000F049FA0021042028
:104930003BE08B49884206D10121082000F03FFA74
:104940000021082031E08749884206D1012110204A
:1049500000F035FA0021102027E08349884206D173
:104960000121202000F02BFA002120201DE07F49AA
:10497000884206D10121402000F021FA0021402088
:1049800013E07B49884206D10121802000F017FA0C
:104990000021802009E0774988420AD1841501214D
:1049A000204600F00CFA00212046BDE8104000F03F
:1049B00006BA10BD10B50121084600F000FA00212A
:1049C000BDE81040012000F0FAB9F0B5CC78002223
:1049D00004F00F03E40601D58C7823430C784FF0E4
:1049E0000F0C14F0FF0F4FF0010E1BD005680E885E
:1049F0000EFA02F42640A64210D196000CFA06F7F1
:104A000025EA070703FA06F5CE783D43282E02D0A3
:104A1000482E02D002E0446100E00461521C082AE2
:104A2000E5D305600A88FF2A1CD94468002202F1F8
:104A300008060EFA06F50E882E40AE420ED19600FC
:104A40000CFA06F7BC4303FA06F7CE783C43282E4F
:104A500000D14561CE78482E00D10561521C082A4C
:104A6000E5D34460F0BD4FF6FF71018002218170F3
:104A70000421C17070470246002092680A4200D0AB
:104A800001207047806880B2704702460020D268DB
:104A90000A4200D001207047C06880B270470161AF
:104AA0007047416170470AB10161704741617047C9
:104AB000C160704741F480328261816182618169A5
:104AC000806970472C4B10B51A684FF680742240ED
:104AD00042EA00100843186010BD2849C8617047B9
:104AE000F0B5254C002801DAE36900E06368450D64
:104AF0002E0185B2C0F30157B540C0F30342032F26
:104B000005D0C6020AD503269640B34307E023F03A
:104B10007062636823F07063636002E0AB4343F04C
:104B2000706201B12A43002801DAE261F0BD6260DF
:104B3000F0BD10B58A0721F003040F49120F21447C
:104B40000F238C6893409C438C608B689040034398
:104B50008B6010BD0949C1F8DC00704700080140B6
:104B6000000C0140001001400014014000180140F9
:104B7000001C0140002001400000014000002042D4
:104B8000A548016841F0010101604168A34A114054
:104B900041600168A24A11400160016821F480214E
:104BA0000160416821F4FE0141604FF41F01816002
:104BB000704799490A6822F480320A600A6822F430
:104BC00080220A60B0F5803F07D0B0F5802F03D176
:104BD000086840F4A02008607047086840F48030FE
:104BE000F9E70346002059098B4A01290AD0022916
:104BF0000AD0516A03F01F02012393400B4200D0F8
:104C0000012070471168F5E7116AF3E718B5002035
:104C10004FF4A06400903120FFF7E3FF0099491C96
:104C20000091A14201D00028F5D03120FFF7D9FF33
:104C3000002800D0012018BD774A116821F0F80142
:104C400041EAC00010607047764908607047724BB7
:104C50005A68084322F47C12104358607047714927
:104C6000086670476C4A516821F0030101435160A6
:104C700070476948406800F00C007047664A516808
:104C800021F0F001014351607047634A516821F4FB
:104C9000E0610143516070475F4A516821F46051FF
:104CA00041EAC000506070475B4A0029517A01D048
:104CB000014300E08143517270475A49C1F8D8005E
:104CC0007047554A516821F4404101435160704793
:104CD0005149002281F8202081F82020012802D0AB
:104CE000042802D1052081F8200070474E49086051
:104CF000704749490A6A02430A6270474A4944397F
:104D00000860704730B5444A5168484B11F00C01B7
:104D100003D0042901D0082901D0036012E05168B2
:104D2000536801F470114FF0020413F4803F04EB58
:104D3000914102D053689B0301D53D4B00E03B4BB2
:104D40005943016051680F2303EA1111394B5C5C30
:104D50000168E14041605468072505EA14241C5DA0
:104D600021FA04F48460546805EAD4241B5DD94018
:104D7000C1605268032303EA92322E4B1B1F9A5CD8
:104D8000B1FBF2F1016130BD234A0029516901D024
:104D9000014300E08143516170471F4A0029916936
:104DA00001D0014300E08143916170471A4A002914
:104DB000D16901D0014300E08143D1617047164AB7
:104DC0000029D16801D0014300E08143D1607047E0
:104DD000114A0029116901D0014300E081431161AA
:104DE000704711494039086070470E49C8647047E0
:104DF0000949C87170470848416A41F080714162B1
:104E00007047054A0146002092680A4200D00120FE
:104E10007047014988727047001002400000FFF897
:104E2000FFFFF6FE000042428004424200127A0078
:104E300000093D0024000020C44910B588420AD171
:104E400001218C032046FFF7BAFF2046BDE8104041
:104E50000021FFF7B4BFBE49884202D101214C04B2
:104E600010E0BC49884202D101218C040AE0BA4911
:104E7000884202D10121CC0404E0B84988420AD119
:104E800001210C052046FFF7A3FF2046BDE8104096
:104E90000021FFF79DBF10BD30B50446008A85B0E4
:104EA0000D464CF6FF710840E98801432182A08934
:104EB0004EF6F3110840A9882A8911436A890243F2
:104EC0001143A181A08A4FF6FF410840A9890143FF
:104ED000A1826846FFF716FF9C48844201D10398DF
:104EE00000E00298A189090400EBC00101EB001069
:104EF000296801D5490000E08900B0FBF1F0642287
:104F0000B0FBF2F109010B096FF018056B4300EBE0
:104F10008300A3891D044FF0320306D503EBC000C4
:104F2000B0FBF2F000F0070005E003EB0010B0FB6F
:104F3000F2F000F00F000843208105B030BD4FF4BF
:104F40001651016000218180C18001810C224281C3
:104F50008181704710B5028A4FF2FF031A400B8817
:104F60004C8823438C88C9880C4323431343038212
:104F700010BD0021018041808180C18070470029DF
:104F8000818902D041F4005101E021F40051818176
:104F9000704710B5C1F3421301F01F040121A14075
:104FA000012B07D0022B07D01430002A026805D04D
:104FB0000A4304E00C30F8E71030F6E78A43026059
:104FC00010BD002A828A01D00A4300E08A4382820F
:104FD0007047028A22F00F020282028A0A4302828A
:104FE0007047828922F40062828182890A43828129
:104FF00070470029818902D041F0020101E021F0CF
:10500000020181817047028A22F020020282028A14
:105010000A43028270470029018A02D041F480418C
:1050200001E021F4804101827047C1F308018180D1
:1050300070478088C0F308007047818941F0010102
:1050400081817047028BD2B20283028B42EA012136
:1050500001837047028B02F47F420283028B0A4372
:10506000028370470029818A02D041F0200101E0CB
:1050700021F02001818270470029818A02D041F00D
:10508000100101E021F01001818270470029818A1E
:1050900002D041F0080101E021F00801818270474F
:1050A0000029818902D041F4004101E0C1F30E01E1
:1050B000818170470029818A02D041F4006101E0BA
:1050C00021F4006181827047828A22F00402828288
:1050D000828A0A43828270470029818A02D041F085
:1050E000020101E021F002018182704702460020A6
:1050F00012880A4200D001207047C94301807047DE
:1051000070B501F01F0501260024C1F3421306FA11
:1051100005F2012B0FD0022B0FD0838A4FEA112109
:105120000088134206FA01F600EA060001D000B139
:105130000124204670BD8389F0E7038AEEE70A0A5E
:1051400001219140C94301807047000000380140AF
:105150000044004000480040004C00400050004027
:10516000374900200860091D0860091D0860091DF5
:1051700008603349334814310860704730B5304A0D
:105180008379016853B313688B431360111D0B6857
:105190000468A3430B60017911440B68046823433E
:1051A0000B60274B083319680468A14319601C1D64
:1051B00021680568A94321604179102905D011446F
:1051C0000A68006802430A6030BD1968026811432A
:1051D0001960216800680143216030BD00791044E6
:1051E00002688A43026030BD0021016001710C2217
:1051F000427181717047124910310A6802430A6096
:10520000704701460E4A0020143212680A4200D04C
:10521000012070470A49143108607047084A014666
:1052200000201268064B0A4014331B680B4202D060
:10523000002A00D0012070470149143108607047EE
:1052400000040140FFFF0F00F94910B5884202D168
:105250000121C41486E0B0F1804F09D0F54988429D
:105260000DD101210220FFF7B3FD0021022064E0EF
:1052700001210846FFF7ACFD002101205DE0EE4969
:10528000884206D101210420FFF7A2FD002104205D
:1052900053E0EA49884206D101210820FFF798FD32
:1052A0000021082049E0E649884206D1012110206A
:1052B000FFF78EFD002110203FE0E249884206D131
:1052C00001212020FFF784FD0021202035E0DE4968
:1052D000884202D10121441444E0DC49884202D1D1
:1052E0000121CC043EE0DA49884202D101210C05BB
:1052F00038E0D849884202D101214C0532E0D64934
:10530000884206D101214020FFF762FD00214020A4
:1053100013E0D249884206D101218020FFF758FDD1
:105320000021802009E0CE4988420AD1841501215C
:105330002046FFF74DFD00212046BDE81040FFF755
:1053400047BDC849884202D101210C040AE0C64980
:10535000884202D101214C0404E0C44988420AD1A8
:1053600001218C042046FFF72AFD2046BDE81040AD
:105370000021FFF724BD10BD30B50288AC4CB24D02
:10538000A0420DD0A8420BD0B0F1804F08D0A94B5D
:10539000984205D0A84B984202D0A84B984203D11E
:1053A00022F070034A881A43A54B984206D0A54BB9
:1053B000984203D022F44073CA881A4302808A8834
:1053C00082850A880285A0420AD0A84208D0A54A50
:1053D000904205D0A44A904202D0A44A904201D102
:1053E000097A01860121818230BD30B5028C22F01C
:1053F00001020284028C8388048B22F0020224F0D2
:1054000073050C882C430D8915434A882A43884D1F
:10541000A8420BD08C4DA84208D0924DA84205D08E
:10542000914DA84202D0914DA8420DD122F008051D
:105430004A8923F440732A4322F004058A882A43C8
:105440008D891D43CB892B4383800483C988818642
:10545000028430BD70B5028C22F010020284028CEE
:105460008388048B0D8824F4E6464FF6FF7404EA23
:10547000052535430E8922F0200204EA061616435C
:105480004A8804EA02123243694EB04202D06E4E9C
:10549000B04215D122F080064A8923F4406304EA21
:1054A0000212324322F040068A8804EA0212324392
:1054B0008E8904EA86061E43CB8904EA83033343BC
:1054C00083800583C9880187028470BD70B5028C12
:1054D00022F480720284028C8388848B0D8824F0ED
:1054E000730425430E894FF6FF7422F4007204EA18
:1054F000062616434A8804EA022232434C4EB04242
:1055000002D0514EB04215D122F400664A8923F4EC
:10551000405304EA0222324322F480668A8804EA75
:10552000022232438E8904EA06161E43CB8904EA1E
:105530000313334383808583C9888187028470BDC8
:1055400070B5028C22F480520284058C8288838B91
:105550000C8823F4E6464FF6FF7303EA0424344331
:1055600025F400560D8903EA053535434E8803EAD4
:1055700006362E432E4DA84202D0334DA84205D107
:1055800022F480458A8903EA82122A438280848336
:10559000C988A0F84010068470BD828B22F4406256
:1055A0008283828B4FF6FF7303EA01210A438283D1
:1055B0007047828B22F00C028283828B0A438283A3
:1055C0007047028B22F440620283028B4FF6FF7316
:1055D00003EA01210A4302837047F0B5048C24F0EA
:1055E00010040484078B048C4FF6FF7527F473476F
:1055F00005EA03333B4305EA02221A430C4B05EA52
:10560000011698420ED0104B98420BD0B0F1804F4B
:1056100008D0084B984205D0074B984202D0074B60
:10562000984225D124F02001314341F0100124E0BB
:10563000002C01400004004000080040000C004025
:10564000001000400014004000340140004C0140B4
:10565000005001400054014000180040001C004070
:10566000002000400040014000440140004801404B
:1056700024F0A0030B4343F0100102830184F0BD2A
:10568000028B22F00C020283028B0A4302837047D2
:1056900070B5048C24F001040484058B048C4FF64F
:1056A000FF7606EA0313134325F0F305F84A2B436C
:1056B00090420ED0F74A90420BD0B0F1804F08D004
:1056C000F54A904205D0F54A904202D0F44A904201
:1056D00002D124F0020201E024F00A020A4342F05F
:1056E00001010383018470BD2DE9F84F0D46044686
:1056F0000888E74FDFF89CC3DFF89C83DFF89C93B2
:105700004988AA882B894FF0804A48B304282FD0B3
:105710004FF6FF760828934632D0208C9E4620F420
:1057200080502084A38B208C06EA0132009223F45F
:10573000734306EA0B221A4306EA0E331343BC42B4
:105740000AD0644508D0544506D0444504D04C45A1
:1057500002D0D34A944242D120F40050009940E054
:105760002046FFF795FFE9882046BDE8F84F87E718
:105770002046FFF732FFE9882046BDE8F84F20E7D2
:10578000208C20F480702084B4F81CE0208C06EA81
:10579000031306EA01222EF0F30E43EA0B0343EA59
:1057A0000E030092BC420AD0644508D0544506D08E
:1057B000444504D04C4502D0B94A944203D120F468
:1057C0000070009901E020F42060084340F48070EC
:1057D000A3832084E9882046BDE8F84FE9E620F459
:1057E0000240084340F48050A3832084E988204687
:1057F000BDE8F84FD1E62DE9F0410C460026498876
:105800000746012501B90226A288012A00D10225F6
:10581000208823890028384610D0FFF7DEFEE18873
:105820003846FFF7CEFE23892A4631463846FFF731
:105830002FFFE1883846BDE8F04121E7FFF728FF58
:10584000E1883846FFF71CFF23892A46314638464F
:10585000FFF7C3FEE1883846BDE8F041B1E610B578
:105860000A884B88CC881A438B8823431A430B89B8
:105870001A434B8989891A430A43A0F8442010BD72
:105880004FF6FF71818000210180C180418001724B
:1058900070470021018041808180C1800181418168
:1058A0008181C18170470021018041800122828075
:1058B000C180018170470021018041808180C180C9
:1058C00001814181818170470029018802D041F026
:1058D000010101E021F0010101807047002930F849
:1058E000441F02D041F4004101E0C1F30E010180E8
:1058F0007047002A828901D00A4300E08A438281EE
:105900007047818270471143A0F848107047002A01
:10591000828901D00A4300E08A438281704701896D
:1059200021F0070101817047028922F070020A43C9
:105930000281704700B50346FFF7F6FF188940F073
:105940000700188100BD70B516460D466029044653
:105950004FF0010231460AD0FFF79AFE2946204651
:10596000FFF7E2FF208940F00700208170BDFFF7BC
:1059700034FEF3E730B504894FF6FF7505EA0323DB
:105980001343E4B20B432343038130BD10B50446F7
:10599000FFF7F0FF208940F07700208110BD10B59F
:1059A0000446FFF7E7FF208940F48040208110BDC6
:1059B000018582827047028822F070020A430280C9
:1059C000704770B50589048B068C25F007050D43DB
:1059D0004FF6FC410C4040F201110C434FF6FF71B1
:1059E00001EA031126F022061143314305810483A5
:1059F000018470BD028B22F070020A43028370475B
:105A0000028B4FF6FF7322F4E04203EA01211143B7
:105A100001837047828B22F070020A4382837047B1
:105A2000828B4FF6FF7322F4E04203EA0121114317
:105A3000818370470029018802D041F0800101E094
:105A400021F08001018070470029818802D041F057
:105A5000040101E021F00401818070470029818860
:105A600002D041F0080101E021F008018180704777
:105A70000029818802D041F0010101E021F00101FB
:105A800081807047028B22F008020A43028370472C
:105A9000002C014000340140000400400008004098
:105AA000000C0040028B4FF6FF7322F4006203EA01
:105AB000012111430183EAE7828B22F008020A43A5
:105AC0008283E4E7828B4FF6FF7322F4006203EADD
:105AD000012111438183DAE7028B22F004020A4399
