:020000040800F2
:1000000028190020F501000827250008891D00088F
:1000100025250008D1110008F73F00080000000066
:10002000000000000000000000000000E52C0008B7
:10003000F116000800000000F5280008153400083B
:100040005D4200080F0200080F0200080F020008BE
:100050000F0200080F0200080F0200088D170008A9
:100060000F0200080F0200080F0200080F0200082C
:100070000F0200080F0200080F0200080F0200081C
:100080000F0200080F0200080F0200080F0200080C
:10009000953E00080F0200080F0200080F0200083A
:1000A0000F0200080F0200080F0200080F020008EC
:1000B0000F020008693400080F0200080F02000850
:1000C0000F0200080F0200080F0200080F020008CC
:1000D0000F02000805360008693600080F02000804
:1000E0000F0200080F0200085D3C000800F002F853
:1000F00000F070F80AA090E8000C82448344AAF152
:100100000107DA4501D100F065F8AFF2090EBAE84F
:100110000F0013F0010F18BFFB1A43F0010318473B
:100120003C4300005C4300000A444FF0000C10F810
:10013000013B13F0070408BF10F8014B1D1108BF65
:1001400010F8015B641E05D010F8016B641E01F805
:10015000016BF9D113F0080F1EBF10F8014BAD1C55
:100160000C1B09D16D1E58BF01F801CBFAD505E073
:1001700014F8016B01F8016B6D1EF9D59142D6D3CD
:10018000704700000023002400250026103A28BFF5
:1001900078C1FBD8520728BF30C148BF0B607047F9
:1001A000642900F09780002070471FB59DE8030088
:1001B00000F024FD00F00AFA04000020002104F001
:1001C000D7F8401C606000F021FA1FBD10B500F0A8
:1001D00086FA10BD00F0EEFA1146FFF7E6FF04F0D4
:1001E000A9F800F0DDFC03B4FFF7F0FF03BC00F05A
:1001F00077FE00000948804709480047FEE7FEE710
:10020000FEE7FEE7FEE7FEE7FEE7FEE7FEE7FEE7C6
:1002100004480549054A064B704700001934000898
:10022000ED000008281300202819002028150020C0
:100230002815002010B5044600F054F90068005D50
:10024000000704D5DF2C02D0A4F1200010BD204609
:1002500010BD00000FB4044910B503AA029800F0C5
:10026000A3F910BC5DF814FB1C1200202DE9F0412D
:100270000E460446002020622046E168884730B3DD
:10028000252805D0D4E901219047206A401CF2E7D7
:10029000E168204600278847050018D0A5F14100F5
:1002A000192802D820354FF40067324629462046E7
:1002B0002760FFF775FF40B1012804D0F61D26F036
:1002C00007060836D8E7361DD6E72846DAE7206A5B
:1002D000BDE8F0812DE9F04106460024106875293B
:1002E000314616A510D0AFF30080002802DA404254
:1002F00013A507E031688A0701D512A502E0490776
:1003000004D511A5012401E0AFF3008000210A22E9
:1003100006F1240709E0B0FBF2FCB0FBF2F302FBAC
:100320001C00303078541846491C0028F3D123466D
:100330002A463046BDE8F04100F0DCB8000000007D
:100340002D0000002B0000002000000030B5054605
:100350000B462A4613F8014B12F8010B08B1A042D4
:10036000F8D01CB1002802D06D1CF1E7284630BD42
:1003700040EA0103024630B59B0710D14FF001342B
:1003800000E008C208C91D1B9D4315EAC41FF8D030
:1003900013F0FF0102F8011B0DD01B0AF8E711F85A
:1003A000013B002B02F8013B05D011F8013B002B6B
:1003B00002F8013BF3D130BD10B5431C02E010F848
:1003C000011B71B18107FAD14FF0013202C88C1ABA
:1003D0008C4314EAC211F9D0C01A0A0603D0C01E19
:1003E00010BDC01A10BD0A0401D0801E10BD090244
:1003F000FCD0401E10BD421E12F8013F002BFBD165
:1004000011F8013B002B02F8013BF9D170474FF086
:10041000000200B5134694469646203922BFA0E854
:100420000C50A0E80C50B1F12001BFF4F7AF090760
:1004300028BFA0E80C5048BF0CC05DF804EB890051
:1004400028BF40F8042B08BF704748BF20F8022B94
:1004500011F0804F18BF00F8012B70474FF0013C9E
:1004600050F8042B51F8043B9A4221D1A2EB0C0323
:10047000934313EACC1317D150F8042B51F8043BE3
:100480009A4215D1A2EB0C03934313EACC130BD180
:1004900050F8042B51F8043B9A4209D1A2EB0C030B
:1004A000934313EACC13DBD04FF00000704700BF3A
:1004B000D01A01BAB1FA81F101F0180122FA01F063
:1004C000CB40C1F12001DBB2C0B2C01A2CFA01F35B
:1004D000D11A914311EAC311E6D1704770477047B2
:1004E0007047000010B500F071F8001D10BD00BF8E
:1004F000813E00002DE9F0470D469946924604469C
:1005000000F124080168880604D5E06921F0100193
:10051000216000E00120A84201DD471B00E0002728
:10052000A1697A1902EB0900081AA0612078C006B7
:1005300002D42046AFF30080002608E0D4E9012170
:100540001AF806009047206A401C761C20624E452F
:10055000F4DB2078C0060AD52046AFF3008006E021
:10056000D4E9012130209047206A401C2062381EC7
:10057000A7F10107F4DC07E0D4E9012118F8050030
:100580009047206A401C2062281EA5F10105F3DC7B
:100590002046AFF300802078000602D50220BDE897
:1005A000F0870120FBE70000074B70B50D467B4448
:1005B00000F015F80446284600F024F810B14FF07A
:1005C000FF3070BD204670BD673D00000048704799
:1005D000E412002001694A1C02610878704700B5E6
:1005E0008FB0CDE901310021059105497944CDE96C
:1005F000031011466846FFF739FE0FB000BD00003A
:10060000E5FFFFFF007B00F08000704710B5424817
:100610005421FFF7FCFE41485421FFF7F8FE404803
:100620005421FFF7F4FE3F493B483C4A3F4B0860EA
:100630003D490A603A491960531C0365481C10651E
:10064000012008653B48344A39A1784400F00CFA8F
:1006500020B9384878440A3800F0ABFA37482F4AB6
:1006600035A1784400F000FA20B9344878440A38BB
:1006700000F09FFA32482A4A2FA1784400F0F4F99A
:1006800020B92F4878440A3800F093FA40232248D2
:10069000DC000021224600F0C4F920B1254878444E
:1006A000543800F086FA1D4822464023002100F00D
:1006B000B8F920B121487844543800F07AFA184843
:1006C00022461023002100F0ACF9002806D01C4877
:1006D0007844BDE81040563800F06BBA10BD1048A1
:1006E00070B5006D20F001040B4800F033FA0B48A0
:1006F00000F030FA0A4800F02DFA09E0206D20F0F1
:100700000105204600F026FA204600F078F82C4635
:10071000002CF3D170BD0000C81100201C12002075
:100720007012002070010020740100207801002068
:1007300072000000FF3D000077000000EB3D00006C
:10074000D73D00000EB5CDE90001FFF735FE029060
:1007500069460120ABBE0EBD08B569460090022077
:10076000ABBE08BD1FB58DE8070069460520ABBECE
:1007700004B010BD1FB58DE80F0069460620ABBE62
:10078000F6E708B5694600900920ABBE08BD1CB568
:10079000CDE9000169460A20ABBE1CBD704708B513
:1007A000694600900C20ABBE08BD000000487047B1
:1007B000C41200207546FFF7F9FFAE4605006946F2
:1007C000534620F00700854618B020B5FFF720FDFE
:1007D000BDE820404FF000064FF000074FF0000842
:1007E0004FF0000B21F00701AC46ACE8C009ACE8C3
:1007F000C009ACE8C009ACE8C0098D46704770B5C7
:100800000446051F00F0DEF90068002C14BF4468A0
:1008100070BD002C18BFAC423CBF20466468F8D3C2
:1008200001680A18AA4218BF456003D12A68054624
:100830001144016028684119A1421CBF6C6070BD61
:100840006168696021680844286070BD2DE9F0473F
:1008500005460C46C86820F4201040F48000C860AB
:10086000800602D5084600F0FAFAE06841F28201FB
:100870004FF0FF390140022903D0204600F098FADA
:10088000B5E000F42041B1F5004F0FD1C00306D50B
:100890006168E06A884200D80846606006E0206926
:1008A000E06260606069FFF77AFFA061A0680022E3
:1008B000EEB200280DDAE1688B050AD4C043A060CF
:1008C00041F490302260E0606068411C6160067015
:1008D000A5E0E0689046226040F40050E0602069A6
:1008E00068BB6069FFF74DFF012704F12405A0B143
:1008F000A08910F4407F08D0E06900F0AEF92061D3
:1009000018B1E06840F4006016E0E7612561E06836
:1009100020F4407040F480600EE0E06900F09DF942
:1009200000282061F1D0E06840F4006010F4407FBE
:10093000E06002D140F48070E06020696060E068AF
:1009400025696FF0010AC1051FD56168E06A884218
:1009500000D80846411B04D02246284600F032FA4F
:10096000F0BBE068010203D5E562C4E9015854E038
:10097000691CE1626160E16940F48030491EC4E9AC
:10098000021030462E70BDE8F087010202D500F457
:1009900080320AE06068411C61600670E0680A2EDF
:1009A00040F48030E06006D00022E16A6068814255
:1009B00003D90B4602E00122F7E70346A7895B1B38
:1009C0007F0503D4E7699F4200DDE2B1814200D890
:1009D0000146E5620F1AC4E90158002B09DD00E069
:1009E00005E022461946284600F0ECF908B14846D1
:1009F000C9E747B1A069E5626560C01BA061E06816
:100A000040F01000E060E068000208D56168A0696D
:100A1000E562491B08446560A0615046B3E7304673
:100A2000B1E770B5C468A50713D0650211D4B2F55B
:100A3000807F09D0B2F5007F06D0B2F5806F08D173
:100A4000012300F1240106E05D1E6FF07F46B542F0
:100A500001D3012070BD0161C361416024F4706164
:100A60001143C160002070BD2DE9F0410C460746DE
:100A70001646104600F06EF82078611C61280AD0F6
:100A8000722802D077283CD102E00125002405E03D
:100A90000225042402E0082448F2020511F8010BA3
:100AA0002B2806D0622809D011F8010C74280AD02E
:100AB0000BE045F0030544F00204EFE745F00405C0
:100AC00044F00104EAE744F0100438462146FFF7F9
:100AD00039FE411C15D00021316171604FF4007165
:100AE000F560F1617061200704D5304602220021D3
:100AF00000F0E2F8306D40F0010030653046BDE8AE
:100B0000F0810020FBE72DE9F0410D460646104C30
:100B1000206DC10704D0410804D020F00104F7E79C
:100B200022460EE0542000F098F807000ED0206D09
:100B300047F001010843542120653846FFF767FC60
:100B40003A4629463046BDE8F0418DE70020D6E719
:100B5000C81100202DE9F04704464FF000094FF07E
:100B6000FF37C568D4E90486A80707D0204600F0FF
:100B700053F93046FFF7F0FD002802DA3846BDE8A9
:100B8000F087280502D54046FFF739FE4C21204664
:100B9000FFF73DFC206D20F0010020654846EEE7A0
:100BA00010B50446AFF300802046BDE81040FFF7C3
:100BB0001ABB10B500F07AF9BDE8104000F070B92A
:100BC0007047000000487047CC1200207047704703
:100BD0007047704738B504460A4600206946AFF3AF
:100BE0000080002808BF38BD02460099204600F06A
:100BF00084F9012038BD012000F0D3B9F8B5AFF376
:100C00000080054600200C46102000BF0646A819AB
:100C1000A0420DD9324669460020AFF3008007009C
:100C200008BF00F0BEF90098A04218BF0546C419DD
:100C3000FFF7C8FF05600746F01D20F007004619C2
:100C4000284600F053F9B44208BFF8BDA21B314654
:100C50003868BDE8F84000F050B970B50646FFF7B7
:100C6000B1FF056806F10B0020F00704B4429CBFF9
:100C7000002070BD2B466A68BAB11068A04210D33C
:100C800004F1080188423CBF5068586007D351689E
:100C9000101941601168091B016058601460101D33
:100CA00070BD13465268002AE7D121462846FFF757
:100CB00091FF0028DED170BD2DE9F04104461646B3
:100CC0000D464769007B80072ED03846FFF759FD57
:100CD00050BB3EB3012E02D0022E25D104E02046A7
:100CE00000F025F905441DE03846FFF758FDE1689E
:100CF000002841F01001E16005DA204600F058F8C4
:100D00000120BDE8F081C9030BD56268E16A914218
:100D100000D81146A26911442269891A814200DD76
:100D200008460544002D01DA0220EAE7E16A60681E
:100D3000E268814206D29103E06203D522F40031D9
:100D400041F01002A6690027AE4213DCE16A81423D
:100D500001D90B4600E0034603EB060C2369ACEB1C
:100D6000030CAC4506DD814201D98C4600E0844687
:100D70009C4505D1A760276042F02000A5620DE0E8
:100D8000AD1BE669AE1B8142A66000D90846C01AB9
:100D9000281A20605819606022F02000034908409A
:100DA000E060002084F84870ABE70000BFCFD7FFB9
:100DB000C16821F4001141F08001C160002181600F
:100DC000016070472DE9F047814614460E464FF00A
:100DD000FF383248D5685769054209D03846A169BD
:100DE000FFF7D5FC002811DB2C48C0430540E56027
:100DF0002B46324649463846FFF7B4FCA16920F03D
:100E00000042B21A11440028A16103D02046FFF726
:100E1000CFFF4046BDE8F08770B504460569C06A5B
:100E20006168884200D80846E16821F42011E16039
:100E3000C90312D5A84208D02246411B2846FFF715
:100E4000C1FF10B14FF0FF3070BD0020E562C4E972
:100E50000150E06820F48030E060002070BD10B5E3
:100E60000446C06820F02000E060A16AA0698842C2
:100E70000DD02046FFF7D0FFE06820F4405040F04E
:100E80001000E060A06AA0612069E062606044F246
:100E90004001E0688843E06010BD000010000200DF
:100EA000002801D000F01CB87047000010B50146C2
:100EB00002A000F05DF8012010BD00005349475228
:100EC000545245443A2052656469726563743A200D
:100ED00063616E2774206F70656E3A200000000019
:100EE00001491820ABBEFEE7260002000021016088
:100EF000C0E90110704710207047034640688C46D7
:100F0000002818BF88423CBF03464068F8D31868E1
:100F10001844884207D00CF1030020F00700001DA0
:100F2000411A521A0146081D0A60FFF768BC10B545
:100F30000146C268900703D0900607D5886A0AE088
:100F400000F03EF801210160881E10BD8B694868E1
:100F500018440B69C01A91F848301BB191F8491038
:100F6000401A10BD1103FCD50028FADD401E10BD4B
:100F700070B505460C460A2000E06D1C00F018F81C
:100F800035B128780028F8D102E0641C00F010F890
:100F900014B120780028F8D1BDE870400A2000F094
:100FA00007B810B500F010F8BDE81040FFF778BFA3
:100FB00008B569468DF800000320ABBE08BD0000EF
:100FC00000487047C412002010B5012805D0002148
:100FD00003A0FFF7CDFF012010BD09A1F8E7000035
:100FE00053494752544D454D3A204F7574206F6612
:100FF0002068656170206D656D6F7279000000007A
:101000003A2048656170206D656D6F727920636F5D
:10101000727275707465640000B5ADB0502119A886
:10102000FFF7F5F955226946052000F041F8252221
:10103000694619A800F090F9002269461A48199BE0
:1010400002F08FF9DDE91923174869461430521C64
:1010500002F087F9DDE91A23134869462D30521C46
:1010600002F07FF9DDE91B230F4869463230521C3C
:1010700002F077F9DDE91C230B4869462838521C39
:1010800002F06FF9DDE91D23074869460A38521C52
:1010900002F067F9DDE91E23034869463B30521C24
:1010A00002F05FF92DB000BD7A0A002000F08CBE7E
:1010B0002DE9F04116460F46044625E02546641CFE
:1010C000A4B200F037FF280AA02101EB4000C0B213
:1010D00000F004FF00F06AFFE8B200F0FFFE00F04D
:1010E00065FF00F027FFA12000F0F8FE00F05EFF92
:1010F000002000F0A5FE054600F084FE00F038FF59
:10110000761E07F8015BB6B2002ED7D1BDE8F0819C
:1011100010B501F081FC02F07FF901F055FC01F0FF
:1011200004FA03F0A7F8FFF7C1FF002211464FF4BD
:10113000E13001F0F3F84FF41654204600F0D9FDE9
:1011400001220021204601F0EDFA0121002002F0E9
:1011500089FD01F0C5FA0221002000F0E1FD01F057
:10116000D3FA01F0B1FAFFF757FF01F0F9FA154988
:1011700010A2A1F11E0000F0ABFF12485F3001F099
:101180004FF9114908700F480A3000F0ABFB01F02D
:101190000DFB0023012241F61F4142F20F7002F0C5
:1011A000A5F90848453000F00BFD0849002008600B
:1011B00010BD0000CDF8C2E7C1ACBDD3D6D02E2EF5
:1011C0002E000000700A00202000002024000020D3
:1011D000FEE7C1B2000A40EA01207047012080F317
:1011E000138805480168054A01F4E0611143016074
:1011F000BFF34F8FFEE700000CED00E00400FA059E
:101200002DE9F84F0020ADF800004BF6BF7648F20C
:1012100080084A4D4A4C40F68F7ADFF8289148F60C
:101220000F7B494F2FE0088810F00F0089F800006D
:1012300032D007EB8001D1F8002CADF80020BDF8CA
:10124000002012040BD5D1F8002C02EA0A02C1F8E2
:10125000002C3E4901EB800050F8040C8047BDF89B
:10126000000000060FD599F8000007EB8001D1F8C7
:10127000002C02EA0B02C1F8002C354901EB80007A
:1012800050F8040C80472D484430006831490880EC
:101290000004C8D4BDE8F88F28682080208800F0BA
:1012A00030006080208800F4405020802868304062
:1012B00080F4005080F0200040EA08002860088890
:1012C000C00617D4296801EA0B01296000F098FED6
:1012D00028E02188890401D580F400506188C9067E
:1012E00028D46188890601D580F0200040EA0800F2
:1012F0002860CFE72868ADF80000BDF800000005C1
:1013000006D5296801EA0A01296001F027FE09E0F3
:10131000BDF800000004B6D5286800EA0A0028607D
:1013200001F0AEF9286821883040C904D1D580F495
:101330008050CEE780F01000D3E70000005C004052
:101340004600002034000020005000409C00002097
:1013500080000020760000202DE9F0410025904615
:101360000F4606462C4606E0395D414502D146F857
:1013700025406D1C641C3846FFF71EF8A042F3D8C8
:10138000002046F82500BDE8F081000081000848F3
:101390000844D0F8001C490409D5D0F8001C48F6D0
:1013A0008F7211404CF280021143C0F8001C70474C
:1013B00000500040810008480844D0F8001C49064D
:1013C00009D5D0F8001C48F68F72114048F2C002CF
:1013D0001143C0F8001C70470050004081000648CF
:1013E0000844D0F8001C48F68F62114048F2800291
:1013F0001143C0F8001C7047005000402DE9F04731
:10140000DFF89490254F4FF03008D9F8001001F123
:101410001005088A0E7A08B9042E04D0AC88A042C0
:1014200015D8042614E01E480178012903D00726A8
:10143000102038802BE01B4A002112681A4B12043E
:1014400003EBD2325160A7F8008001701FE0022642
:10145000844200D90446A968204688478246002075
:1014600000F042FB01462246504602F0C5FD2146EF
:10147000002001F0CFFC2888001B288068882044C9
:101480006880A7F8008009494FF440500880D9F8D7
:1014900000000672BDE8F0873800002048000020F8
:1014A00030000020505C00400060004046000020FA
:1014B0002DE9F047224EDFF88C803027346834F86D
:1014C000100FA168A9B100B3A588854200D90546CF
:1014D0002846884781462088401B20806088284411
:1014E0006080002000F0E0FA01462A46484601F0FC
:1014F000F1F9208848B114494FF440500880002188
:10150000084601F087FCA8F800702088A18888426E
:1015100001D3032001E020B1052031680872BDE845
:10152000F087316806200872084900200968084AD7
:10153000090402EBD1314860A8F80070EFE7000021
:10154000380000204800002046000020505C004089
:1015500000600040F8B55D4C5D4D0926206800270D
:1015600029684278062A05D0AAB1082A4DD00A2A4D
:1015700050D06BE00278520668D18078012804D000
:10158000022804D0032804D060E0C96956E0096A43
:1015900054E0496A52E04288B2BBC288022A55D15F
:1015A00002798ABB0278530601D1838833B102F0F5
:1015B0007F02012A04D0022A0CD047E045493DE0D1
:1015C0008A69407900219047F0B92068807A002824
:1015D000F4D13BE0417901F00F0001F070020B06FD
:1015E0003D4901EB8001D1F8001C03D5C1F3011185
:1015F000090102E0C1F301310903384B1B78834232
:1016000024D90AB90029D9D120E0007840061DD19B
:10161000334913E0027802F07F02012A16D1827A60
:10162000A2B1428892B9027982B9C288012A0DD149
:101630008A6940790021904740B92A4931B1206830
:101640004782816100208847002006E029682068E1
:10165000096940788847032813D021680A8AA2F5CF
:101660007F43FF3B0BD002280ED06AB108780006FA
:1016700026D5C888009082420AD9088218E00E72E6
:10168000F8BD20680672F8BD4FF008000872F8BD7A
:101690000ED22868144B90F82C00824201D21F70A1
:1016A00006E0B2FBF0F400FB142008B9012018702A
:1016B000286890F82C008882BDE8F840FFF79EBEAD
:1016C00003200872094900030880F8BD3800002093
:1016D0003C0000202D310008005000402401002073
:1016E000C13000080531000830000020460000200D
:1016F000704700001C4810B5B0F80214B0F8002480
:10170000914230D0B0F80214B0F80024914205D2D2
:10171000B0F80014B0F80224891A03E0B0F80214FB
:10172000C1F580618CB2402C00D94024B0F802147D
:10173000B0F802242244A0F80224B0F80224B2F542
:10174000806F02D30022A0F8022408442246C02160
:1017500002F052FC2146012001F05CFBBDE8104084
:10176000012001F07DBB10BD640B002010B50649BF
:10177000032002F0DFFBC1B2034802F0EDFBBDE83D
:101780001040032001F024BB6811002010B5022096
:1017900000F048F801281BD1642002F089FD0220E6
:1017A00000F040F8012813D1022000F035F80221A2
:1017B0000B4800F06DF900280AD10A48007801288A
:1017C00007D009480078012805D0084901200860A1
:1017D00010BD07A000E00BA0BDE8104000F0CEB99E
:1017E00000080140210000202200002024000020E9
:1017F000CDF8C2E7C1ACBDD3D6D0A3ACC7EBC9D43A
:10180000BAF30000B5E7C4D4C1ACBDD3D6D0A3AC05
:10181000C7EBC9D4BAF30000014908607047000063
:1018200014040140064A014600201268044B0A4095
:1018300014331B680B4202D0002A00D001207047ED
:101840000004014030B51A4A8379016853B3136824
:101850008B431360111D0B680468A3430B6001796F
:1018600011440B68046823430B60114B083319685B
:101870000468A14319601C1D21680568A943216003
:101880004179102905D011440A68006802430A60B2
:1018900030BD19680268114319602168006801436E
:1018A000216030BD0079104402688A43026030BD77
:1018B0000004014010B503A0FEF7CCFC084903204A
:1018C000086010BD75736220656E746572206C6F60
:1018D0007720706F776572206D6F64650D0A000068
:1018E0004C0100202DE9F047044632212B4801F03D
:1018F00030FD2A483221323801F02BFD28A127483B
:10190000FEF736FD29A12548FEF775FD214623483F
:10191000FEF771FD28A12148FEF76DFD1F49A1F1D9
:101920003200FEF725FD0025244E2F4640F25518C3
:101930004FF41679642002F0BBFC18483238FEF7E9
:101940003BFD01461548323800F050FD6D1CEDB2EC
:101950000024306868B1404602F0AAFC18A119487A
:10196000FEF7F4FC28B1642002F0A2FC142C0AD388
:1019700006E0484602F09CFC641CE4B2142CE8D358
:10198000032DD7D337B100F0D7F80F4900200870E6
:10199000BDE8F087BDE8F047FFF720BC140B00203E
:1019A0005453656E6468656172742500466972738C
:1019B000744865617274000025242400080000202A
:1019C0004B000000BF0500202100002010B58A0751
:1019D00021F003040649120F21440F238C68934021
:1019E0009C438C608B68904003438B6010BD00006B
:1019F00000000140F0B5CC78002204F00F03E406AB
:101A000001D58C7823430C784FF00F0C14F0FF0FA6
:101A10004FF0010E1BD005680E880EFA02F4264026
:101A2000A64210D196000CFA06F725EA070703FA3A
:101A300006F5CE783D43282E02D0482E02D002E093
:101A4000446100E00461521C082AE5D305600A885D
:101A5000FF2A1CD94468002202F108060EFA06F596
:101A60000E882E40AE420ED196000CFA06F7BC430B
:101A700003FA06F7CE783C43282E00D14561CE7894
:101A8000482E00D10561521C082AE5D34460F0BD00
:101A90000246002092680A4200D00120704741614E
:101AA00070470161704700000549096889B201EB80
:101AB000C000044901EB4000008980B2704700007B
:101AC000505C0040006000400549096889B201EBA4
:101AD000C000044901EB40008089C0F30900704751
:101AE000505C0040006000400449096889B201EB85
:101AF000C000034931F8100080B27047505C0040CC
:101B0000006000400A4810B50168001D0468001D0F
:101B1000006808180BD00822064900F09FFA054912
:101B200020460422BDE81040103100F097BA10BDE5
:101B3000E8F7FF1F5600002010B506A000F0D0F80F
:101B40000648007800F07AF8BDE8104004A000F0E4
:101B5000C7B80000706167652032000020000020D7
:101B600074302E7478743D22CDF8C2E7C1ACBDD379
:101B7000B3C9B9A6A3A1A3A12200000010B58EB0DD
:101B8000044634216846FEF742FC07A000F0A8F89E
:101B90000749087800F052F8224606A1684600F08E
:101BA000ABF80EB010BD0000706167652032000018
:101BB0002000002074302E7478743D220000000054
:101BC00010B59AB004466421684601F0C2FB09A032
:101BD00000F086F80949087800F030F808A20BA157
:101BE000684600F089F822460BA1684600F084F8A8
:101BF0001AB010BD70616765203100002000002020
:101C0000D6D0B9FAD2C6B6AF0000000074302E7438
:101C100078743D22000000007172302E7478743D9B
:101C200022687474703A2F2F77656978696E2E7107
:101C3000712E636F6D2F722F00000000411E04296A
:101C400001D80DA016E0811F052901D80DA011E0D3
:101C5000A0F10C01052901D80DA00BE0A0F11201A3
:101C6000052901D80DA005E01838072801D80EA0D5
:101C700000E010A000F034B870312E7069633D317F
:101C80003000000070312E7069633D31310000007A
:101C900070312E7069633D313200000070312E705A
:101CA00069633D313300000070312E7069633D314E
:101CB0003400000070312E7069633D39000000006F
:101CC00010B504A000F00CF804480078BDE81040FE
:101CD000FFF7B4BF7061676520330000200000206B
:101CE00010B501F0F7FD0321BDE81040FF2001F021
:101CF000D5BD01F091BD000070B515460446FEF754
:101D000037FB29462046FEF776FB04A12046FEF766
:101D100072FB2046BDE87040FFF7E2BF20220000C2
:101D20007FB50E4604460121042000F035FE022551
:101D3000ADF80C5048208DF80F0003208DF80E00F0
:101D400003A91048FFF756FE01210020FFF73EFED1
:101D500000208DF804000C2000958DF80500012569
:101D60008DF806506846FFF76DFD07208DF80800D6
:101D70008DF809408DF80A608DF80B5002A800F02C
:101D8000D9FB7FBD00080140FEE7000010B50D4CF7
:101D900004212046FFF783FE00F08EF80121204643
:101DA000FFF77DFE022002F09DFA04212046FFF796
:101DB00078FE052002F096FA2046BDE81040042186
:101DC000FFF76DBE000C014038B50121082000F07E
:101DD000E3FD0520ADF8000003208DF8020010207F
:101DE000074C8DF8030069462046FFF703FE0421E7
:101DF0002046FFF756FE01212046FFF752FE38BD70
:101E0000000C014010B50D4C04212046FFF747FEA1
:101E100000F052F801212046FFF743FE022002F0B5
:101E200061FA04212046FFF73CFE052002F05AFA31
:101E30002046BDE810400421FFF731BE000C0140F0
:101E40002DE9F041002507462C4600F027F8124EF8
:101E500004213046FFF723FE022002F043FA04215A
:101E60003046FFF71EFE6006040E01213046FFF7E4
:101E70000FFE08B1641CE4B2012002F033FA6D1CBD
:101E8000EDB2082DE4D327B1FFF780FF2046BDE86F
:101E9000F081FFF7B7FFF9E7000C014008B501201A
:101EA000ADF8000048208DF8030069460148FFF7AF
:101EB000A1FD08BD000C014008B50120ADF80000EF
:101EC00003208DF8020010208DF8030069460248B7
:101ED000FFF790FD08BD0000000C014070B50546FD
:101EE0000024FFF7E9FF124E04213046FFF7D7FD2B
:101EF00028064FF00101304602D5FFF7D2FD01E080
:101F0000FFF7CDFD6806050E04213046FFF7C9FD39
:101F1000022002F0E7F904213046FFF7C0FD02205D
:101F200002F0E0F9641CE4B2082CE1D370BD0000BB
:101F3000000C014010B5FFF7BFFF0C4C01212046FB
:101F4000FFF7AFFD04212046FFF7ABFD052002F0AF
:101F5000C9F901212046FFF7A2FD062002F0C2F9CF
:101F60002046BDE810400421FFF799BD000C014058
:101F700010B5FFF7A1FF0C4C04212046FFF78FFDA1
:101F800001212046FFF78BFD04212046FFF789FD44
:101F9000062002F0A7F901212046FFF782FDBDE8E7
:101FA0001040062002F09EB9000C014070B50024DC
:101FB000FFF774FF114D01212846FFF772FD012044
:101FC00002F090F904212846FFF76BFD012002F092
:101FD00089F907E0641CE4B2FA2C03D9FFF7C8FFC3
:101FE000012070BD01212846FFF752FD0028F1D1E4
:101FF00004212846FFF753FD002070BD000C01406E
:1020000010B5134C2068017A022904D0042902D0AB
:10201000062905D015E0FFF7F1F92068007A11E0F4
:102020004178052909D10178490606D1C07800F028
:1020300063FE08480068006A8047074800688068B7
:102040008047082021680872BDE8104000F054BCA9
:1020500038000020400000203C000020F0B50023A4
:102060000A24302537261F4610E0B4EB107F02D932
:1020700005EB107C01E006EB107C01F813C001EBCE
:10208000430C00015B1C8CF80170DBB29342ECD373
:10209000F0BD000010B5064C06A0FEF7DBF8A17AF3
:1020A0000A4809B1052100E00121016010BD0000CE
:1020B000480B00206C65617665206C6F7720706F2F
:1020C000776572206D6F64650D0A00004C01002079
:1020D0002DE9F04188465649064601240020087043
:1020E0001046FFF74BFD40F2AD3500F02FF90746E3
:1020F000284602F0DDF8002F7ED040F24A34224616
:102100004CA14DA001F0BAFC002876D0284602F080
:10211000CFF822464AA14CA001F0B0FC00286CD0B8
:10212000284602F0C5F822464AA14DA001F0A6FCBF
:1021300000287AD0284602F0BBF840F25E342246EE
:102140003CA14AA001F09AFC00286ED0284602F07B
:10215000AFF82A4637A14CA001F090FC002864D0CB
:10216000284602F0A5F8224632A14BA001F086FCD9
:1021700000285AD0284602F09BF822462DA14AA0FA
:1021800001F07CFC002850D0284602F091F822464D
:1021900028A149A001F072FC002846D0284602F090
:1021A00087F8224623A148A001F068FC00283CD013
:1021B000284602F07DF822461EA147A001F05EFCF1
:1021C000002832D0284602F073F8224619A146A012
:1021D00001F054FC002828D0284602F069F846A1F6
:1021E0004A48FEF7C5F831464848FEF704F948A1C9
:1021F0004648FEF700F901E014E016E04146434886
:10220000FEF7F9F812A14148FEF7F5F82A4641A178
:102210003E4801F033FC002807D02846BDE8F041D5
:1022200002F046B8002C7FF460AFBDE8F0810000FA
:10223000200000204F4B000041540D0A0000000018
:10224000524541445900000041542B4350494E3FF0
:102250000D0A00002B43475245473A20302C3100ED
:1022600041542B43475245473F0D0A0041542B43ED
:102270004744434F4E543D312C224950222C224397
:102280004D4E4554220D0A0041542B4347414354BF
:102290003D312C310D0A000041542B434D4D555812
:1022A0003D300D0A0000000041542B434D4845418C
:1022B000443D310D0A00000041542B434D53484F1B
:1022C0005752413D310D0A0041542B434D53484F65
:1022D000574C413D310D0A0041542B434D53484F5B
:1022E0005750543D310D0A0041542B434D4D4F443E
:1022F000453D310D0A00000041542B4950535441D3
:1023000052543D22544350222C220000020A002045
:10231000222C0000434F4E4E4543540008B501F0B7
:102320005BFB0121042000F037FB4FF40040ADF8C7
:10233000000010208DF8030003208DF8020069468C
:102340000148FFF757FB08BD000801402DE9F041A7
:10235000204901204870C5031F4E29463046FFF72B
:102360009EFB002440F25517384601F0A1FF641C83
:10237000E4B2052CF8D329463046FFF792FB00243F
:10238000384601F095FF641CE4B2052CF8D3002513
:10239000124EA84600243068002838460BD001F0C1
:1023A00087FF1E2C10D20EA10F48FDF7CFFF48B1BA
:1023B0000120BDE8F08101F07BFF641CE4B21E2C1B
:1023C000E9D301E0C6F800806D1CEDB2122DE1D317
:1023D0000020EEE720000020000801400800002057
:1023E00043545A5600000000BF05002070B5054652
:1023F0000C460948FDF7E0FF0146074800F0A9FF39
:102400000649002008602146284601F077FBBDE818
:102410007040142001F04CBFBF05002008000020D0
:10242000F0B58FB0044600254FF47A776D1CEDB2FD
:102430003A4626A126A001F021FB012803D0032D56
:10244000F4D3FEF7CBFE00263D46761CF6B22A46B4
:1024500020A121A001F012FB012803D0032EF4D308
:10246000FEF7BCFE3221684600F073FF1D4801688C
:10247000684600F03DF800236E4601E05B1CDBB2CD
:10248000F05C3A28FAD15B1CDBB2F05C2028FAD170
:1024900000215B1CD8B204E0401C6254491CC0B24D
:1024A000C9B2325C2C2AF7D1002121542A4607A157
:1024B0000DA001F0E3FA08B9FEF790FE21460DA841
:1024C00000F014FF9DF834000FB0F0BD4F4B00003A
:1024D0002B2B2B004353510041542B4353510D0AD6
:1024E000000000000800002041544F0D0A000000C9
:1024F00010B50B460021094A02E0545C4454491CC3
:102500009942FAD3002444540448FDF755FF01468C
:10251000024800F01EFF0248046010BDBF05002005
:1025200008000020FEE7704770474FF4A06000F0FD
:1025300033B8000030B50F23C27801780125F2B11D
:10254000144A126801F1E02102F4E062C2F5E0628F
:10255000120AC2F10404D3404278A24084781C409D
:102560001443220181F80024007800F01F018D40FF
:102570004009800000F1E020C0F8005130BD01F0BA
:102580001F0085404809800000F1E020C0F880511C
:1025900030BD00000CED00E002490843024908602C
:1025A000704700000000FA050CED00E070B52F4DFB
:1025B000296808784C78420606D000F07F00012890
:1025C00028D002282BD035E0092C06D0052C07D0C6
:1025D000032C0ED0012C14D02CE000F0F1FD28E0EB
:1025E000C8787F282ED8887860BB888850BB887AC6
:1025F00027E0C87801281DD18888D8B900F0FCFDF3
:1026000017E0C878012815D1888898B9487A8006DB
:102610000AD40FE00B2C0DD100F044FE09E0012C90
:1026200002D0032C03D005E000F0CCFC01E000F068
:10263000F5FD58B10E4920460968496988470328C5
:1026400002D018B108200DE009200BE0094A06204D
:1026500000211268084B120403EBD2325160074A82
:10266000302111802968087270BD000038000020F8
:102670003C000020505C004000600040480000200A
:1026800010B50F4C2068007A022811D004280FD012
:10269000032804D0052802D0072805D008E0FEF75B
:1026A00007FF2068007A04E006480068C068804799
:1026B000082021680872BDE8104000F01DB9000034
:1026C000380000203C00002010B510210348FFF71F
:1026D000E6F9BDE81040642001F0EABD000C0140BD
:1026E00008B50121082000F057F91020ADF80000CE
:1026F0008DF8030002208DF8020069460148FFF7BB
:1027000079F908BD000C014010B580210448FFF79D
:10271000C6F9BDE810404FF47A7001F0C9BD000061
:1027200000080140F8B50D46064614460121042074
:1027300000F032F98023ADF8003010208DF803004E
:1027400002208DF8020069460448FFF753F922463B
:1027500029463046BDE8F84001F0EEB900080140D6
:1027600010B580210448FFF79CF9BDE810404FF4F4
:102770007A7001F09DBD00000008014010B50446CC
:1027800001F08AFB2046FDF717FE01462046BDE812
:10279000104001F027BA000001A0FFF7EFBF0000D2
:1027A00053687574446F776E252424002DE9F05F1B
:1027B000DFF8C490012089F800000025AA462FA068
:1027C000FFF7DCF9002440F2AD36B046304601F0A8
:1027D0006FFD641CE4B21F2CF7D32E4E2E4F40F237
:1027E000551B032D28D2642001F062FD2BA0FFF7BA
:1027F000C5FF6D1CEDB20024306808B9388890B16F
:10280000584601F055FD28A12848FDF79FFD20B945
:1028100025A12748FDF79AFD28B1642001F048FD65
:10282000142CDED20BE04FF4167001F041FD641C55
:10283000E4B2142CE0D3D4E7BAF1000F07D00021A2
:1028400089F80010BDE8F05F1AA0FFF797B90120E2
:1028500089F800001BA0FFF791F9FFF79DFF002406
:102860004546284601F024FD641CE4B21F2CF8D331
:10287000BDE8F05FFEF7B2BC22000020CEA2B5E7B3
:10288000C4D4C1ACBDD3D6D0A3ACC7EBC9D4B5C8F2
:10289000A1AD0000040000204C00002048656C6CD5
:1028A0006F25242400000000546F6F007C0100207D
:1028B000680F0020C9E8B1B8C6F4B6AFB3C9B9A66D
:1028C00000000000CFB5CDB3D6D8C6F4D6D0A1ADA8
:1028D00000000000064B521C520803EB410105D0DA
:1028E00031F8043B20F8023B521EF9D1704700003A
:1028F00000600040704700000C4810B590F82C10A4
:10290000002000F02DFA0A480068007A082802D05A
:10291000092809D006E007494FF48050088006498D
:1029200010200880002010BD012010BDD400002020
:1029300038000020460000204800002010B501208B
:1029400001F0A8F90648012101600021054A016053
:10295000031D19604FF4E05111800160002010BD8B
:10296000405C004044000020044A0029D16901D0A5
:10297000014300E08143D161704700000010024034
:10298000044A0029116901D0014300E0814311612B
:102990007047000000100240044A0029916901D0EC
:1029A000014300E081439161704700000010024044
:1029B000044A0029D16801D0014300E08143D1607D
:1029C000704700000010024010B54FF480342046DC
:1029D00000F0B6F800F002F901281CD1002000F048
:1029E000A5F8A01100F0C6F8002000F0CDF84FF4D3
:1029F000E011204600F0D8F8012000F0CFF839208F
:102A000000F074F80028FAD0022000F0D7F800F0A7
:102A100085F80828FBD110BD0C48016841F0010180
:102A2000016041680A4A114041600168094A114049
:102A30000160016821F480210160416821F4FE01F8
:102A400041604FF41F018160704700000010024098
:102A50000000FFF8FFFFF6FE30B5204A5168204B1A
:102A600011F00C0103D0042901D0082901D0036022
:102A700012E05168536801F470114FF0020413F42E
:102A8000803F04EB914102D053689B0301D5154B65
:102A900000E0134B5943016051680F2303EA111101
:102AA000114B5C5C0168E14041605468072505EA10
:102AB00014241C5D21FA04F48460546805EAD424CB
:102AC0001B5DD940C1605268032303EA9232064B72
:102AD0001B1F9A5CB1FBF2F1016130BD0010024096
:102AE00000127A0000093D0060010020034600202A
:102AF0005909094A01290AD002290AD0516A03F06A
:102B00001F02012393400B4200D00120704711683F
:102B1000F5E7116AF3E70000001002400248406840
:102B200000F00C007047000000100240034A51689A
:102B300021F0F00101435160704700000010024095
:102B40000B490A6822F480320A600A6822F4802263
:102B50000A60B0F5803F07D0B0F5802F03D1086838
:102B600040F4A02008607047086840F48030F9E71E
:102B700000100240034A516821F4E06101435160B2
:102B80007047000000100240034A516821F4605170
:102B900041EAC000506070470010024001490866D9
:102BA0007047000000004242034B5A68084322F479
:102BB0007C1210435860704700100240034A51686D
:102BC00021F00301014351607047000000100240F2
:102BD0000149C1F8D80070470000424218B50020F2
:102BE0004FF4A06400903120FFF780FF0099491C4A
:102BF0000091A14201D00028F5D03120FFF776FFE7
:102C0000002800D0012018BD2DE9F041214C0728F3
:102C100000D0207020781F4D0626052204271E496B
:102C200006280BD2DFE800F0030C11161E27686897
:102C300010B12270BDE8F08100F030F82670F9E79D
:102C400000F02CF82770012022E0022060700320A1
:102C50002070EFE76078401E607060780028E9D14E
:102C60002770E7E7086880B240F010000860227023
:102C70000A206070DEE76078401E6070607800288F
:102C8000D8D1086880B220F01000086026700020BB
:102C90006860CFE754010020405C004010B5064C4E
:102CA000206880B220F004002060FFF7F3F94FF4B1
:102CB0003F40206010BD0000405C004007480068B5
:102CC000052809D106490868401C0860062803D178
:102CD00000200860FEF70EBD704700004C01002088
:102CE0007000002070470000024920F007000860D3
:102CF00070470000505C0040F0B50E490E4E48F69B
:102D00008F770D78002148F2800C0BE0CAB206EBF9
:102D10008203D3F8004C3C40144344EA0C04C3F84B
:102D2000004C491CA942F1D3044940F080000860DE
:102D3000F0BD000024010020005000404C5C004029
:102D4000054A21F00101126892B202EBC000034A69
:102D500002EB400081607047505C00400060004022
:102D60000D4A12683E2992B202EBC0000B4A02EBF8
:102D7000400209D94809C90601D1401E80B24FF46A
:102D8000004141EA802004E04808C90700D0401C07
:102D90008002106070470000505C00400C600040F2
:102DA00082000A480244D2F8000C4BF68F73184098
:102DB000CB0401D580F48050890401D580F4005003
:102DC00048F280010843C2F8000C704700500040F0
:102DD000810007480844D0F8001C4BF68F72114060
:102DE00081F4405148F280021143C0F8001C704742
:102DF00000500040054A21F00101126892B202EB36
:102E0000C000034A42F8101070470000505C0040B8
:102E100000600040044A126892B202EBC000034A0C
:102E200002EB400041607047505C00400060004091
:102E300082000A480244D2F8000C48F6BF731840DA
:102E4000CB0601D580F01000890601D580F0200066
:102E500048F280010843C2F8000C7047005000405F
:102E6000810007480844D0F8001C48F6BF721140A2
:102E700081F0300148F280021143C0F8001C704715
:102E800000500040820005481044D0F8002C48F65D
:102E90008F131A400A43C0F8002C704700500040BE
:102EA0000CB50022264800920192016841F480315D
:102EB00001604FF4A063016801F4003101910099B1
:102EC000491C0091019911B900999942F3D1016807
:102ED000890333D5012101911A490A6842F0100291
:102EE0000A600A6822F003020A600A6842F00202DD
:102EF0000A604168416041684160416841F4806115
:102F00004160416821F47C114160416841F4E8115D
:102F10004160016841F08071016001688901FCD560
:102F2000416821F003014160416841F002014160C4
:102F30004168C1F381010229FAD10CBD01920CBD97
:102F4000001002400020024010B50020FFF740FEB4
:102F50000121BDE81040C805FFF706BD70B5164851
:102F60000068174D0004C10B14480144098989B257
:102F700000EB41042868017A09290FD021780170FB
:102F800061784170A088FEF724F92968488020897B
:102F9000FEF71FF929688880A089C8802868012168
:102FA0000172C08828B1FEF7D5FABDE87040FFF77E
:102FB000A3BCFFF7FBFAF8E7505C0040006000405C
:102FC000380000202DE9F04138480068017811F000
:102FD0007F0102D0022905D066E0417A01F0DF01CD
:102FE00041724EE0418800295ED10179F1BB4179FF
:102FF000304D21F080040A0605EB84022C4BD2F8F8
:10300000002C03D5C2F30112120102E0C2F3013217
:1030100012031E782346A64246D93AB3807A28B3D3
:1030200008064FEA84000ED52844D0F8000CC0F3FF
:103030000110012821D11846FEF7BCF920463021A5
:10304000FFF7F6FE19E04619D6F8000CC0F3013080
:10305000012812D14BF68F7748F28008A4B11846A8
:10306000FEF794F9D6F8000C384000E01CE080F43C
:10307000405040EA0800C6F8000C0F48006840695C
:1030800080470020BDE8F0810C4890F82C1000200B
:10309000FFF766FED5F8000C384080F4405040EA57
:1030A0000800C5F8000CE8E70220EBE73800002034
:1030B000240100200050004040000020D4000020E7
:1030C00010B5074C30B10748006800688047206899
:1030D0000A3010BD216801200882002010BD0000C8
:1030E0003800002040000020054A13685A8A10B1B9
:1030F0000868104470478888801A1882002070473A
:103100003800002010B5074C30B1074800688068CF
:10311000804720680C3010BD216801200882002003
:1031200010BD00003800002040000020204910B5EC
:10313000096860B11F48002202800A7853060AD04D
:1031400002F07F02012A16D0022A16D001E00220E6
:103150000882002010BD497A8A06027802D542F022
:10316000020201E002F0FD0249060270D1B211D460
:1031700001F0FE0110E00F4810BD49790A070B0667
:103180000D4901EB9261D1F8001C07D5C1F3011183
:1031900006E0017841F00101017003E0C1F3013163
:1031A0000129F6D00548006800698047E3E7000080
:1031B0003800002032000020005000404000002075
:1031C0000A4810B500680A4AC1785278914203D87B
:1031D00082780AB982880AB1022010BD817205483E
:1031E000006840688047002010BD000038000020C3
:1031F0002401002040000020064810B50068417AF4
:1032000041F02001417204480068C06980470020F5
:1032100010BD0000380000204000002070B51D489F
:103220001D4D0268517921F0800005EB80000B06EE
:10323000D0F8003C21F0800403D5C3F301131B0137
:1032400002E0C3F301331B03144D2D78A54210D9BE
:10325000548874B96BB1927A5AB10906D0F8001C3F
:1032600048F2800207D548F6BF73194081F010017B
:1032700006E0022070BD4BF68F73194081F4805137
:103280001143C0F8001C0648006880698047002090
:1032900070BD0000380000200050004024010020D4
:1032A0004000002010B50E4C0E4A20681268C1780C
:1032B00092694079904721688A7A22B118B90879D1
:1032C00008B9887808B1022010BD07480068C068B6
:1032D000804720684179C172C1780173002010BD18
:1032E000380000203C0000204000002070B505465A
:1032F00008784E78202819D0202E20D0202827D0DA
:10330000FCF798FF3038C4B2092C01D9E41FE4B2AD
:103310003046FCF78FFF3038C0B2092801D9C01FF2
:10332000C0B204EB840100EB410010E0202E01D07C
:10333000304606E000200AE0C01FC0B207E02028A7
:1033400006D0FCF777FF3038C0B20928F4D82870CF
:1033500070BD0022134601E08354521C8A42FBD305
:10336000704730B59C1A002303E09D184D5DC5548D
:103370005B1CA342F9D30021C15430BD78B41C4B6F
:103380000020009019681B4A8CB21B4902EB800593
:10339000D5F8005CADB241F82050401C0828F5D3A8
:1033A00044F48060186040F00100186020F00104CF
:1033B0001C600F48001D05686D05FCD54FF6FF35F4
:1033C0000560002051F8205002EB8006ADB2C6F82F
:1033D000005C401C0828F5D344F008001860186809
:1033E00080B240F00400186078BCFEF763BA0000B9
:1033F000405C004000500040A81100204FF0E02148
:103400000428086903D020F004000861704740F0E8
:103410000400FAE7704700000F4810B5016841F05A
:103420000101016041680D4A1140416001680C4A88
:1034300011400160016821F480210160416821F49C
:10344000FE0141604FF41F018160FFF729FD05492E
:103450004FF00060086010BD001002400000FFF84F
:10346000FFFFF6FE08ED00E010B5104C00212046ED
:1034700000F025F80121204600F02BF818B10121B9
:10348000204600F019F80A490A68521C0A600868C8
:10349000B0F5167F04D300200860064901200860BB
:1034A0002046BDE81040012100F009B800040040AA
:1034B000280000202C000020C94301827047002909
:1034C000018802D041F0010101E021F001010180F9
:1034D000704702460020138A92890B4202EA0102D9
:1034E00002D0002A00D00120704700002DE9FF41E2
:1034F000884604461E46174601210220FFF734FA8B
:10350000144D01212846FFF7D7FF0020ADF80440F5
:10351000ADF80080ADF80600ADF802006946284617
:1035200000F022F801212846FFF7C9FF01221146C9
:10353000284600F011F81D208DF80C008DF80D7054
:103540008DF80E6001208DF80F0003A8FEF7F2FF42
:10355000BDE8FF8100040040002A828901D00A43AF
:1035600000E08A438281704730B502881B4C1C4DB5
:10357000A0420DD0A8420BD0B0F1804F08D0194B1B
:10358000984205D0184B984202D0184B984203D16C
:1035900022F070034A881A43154B984206D0154B07
:1035A000984203D022F44073CA881A4302808A8862
:1035B00082850A880285A0420AD0A84208D00E4A15
:1035C000904205D00D4A904202D00D4A904201D15E
:1035D000097A01860121818230BD0000002C014062
:1035E000003401400004004000080040000C00408E
:1035F0000010004000140040004001400044014021
:103600000048014070B5144C0821204600F0FCF839
:1036100018B10821204600F059F840F22555002243
:103620002946204600F06AF9208801070B4801D09E
:1036300000880AE02188890607D5038808480268BF
:1036400008491144521C02600B7029462046BDE80F
:103650007040012200F052B90038014004380140A6
:1036600008000020BF05002070B5144C082120463A
:1036700000F0CAF818B10821204600F027F840F2FF
:10368000255500222946204600F038F920880107F8
:103690000B4801D000880AE02188890607D50388F5
:1036A0000848026808491144521C02600B70294600
:1036B0002046BDE87040012200F020B900440040DF
:1036C00004440040040000207C010020C943018024
:1036D00070470029818902D041F4005101E021F4B2
:1036E000005181817047000010B50D490020A1F8FC
:1036F0000204A1F800040B490B4C088021790BA0AF
:10370000FCF7A8FD61790FA0FCF7A4FDA17914A036
:10371000FCF7A0FD19A02168FCF79CFD012010BD5D
:10372000640B00204C000020BC0000206C696E651A
:10373000636F64696E672E666F726D61743A25649B
:103740000D0A00006C696E65636F64696E672E70A8
:103750006172697479747970653A25640D0A0000A4
:103760006C696E65636F64696E672E646174617401
:103770007970653A25640D0A000000006C696E6579
:10378000636F64696E672E626974726174653A254D
:10379000640D0A00174910B588420AD101218C0333
:1037A0002046FFF705F92046BDE810400021FFF74D
:1037B000FFB81149884202D101214C0410E00F49A1
:1037C000884202D101218C040AE00D49884202D1CD
:1037D0000121CC0404E00B4988420AD101210C05E7
:1037E0002046FFF7CDF82046BDE810400021FFF746
:1037F000C7B810BD003801400044004000480040F8
:10380000004C0040005000400246002012880A424E
:1038100000D001207047000070B5044686B0012139
:103820000820FFF7B9F801218804FFF79DF8194D2A
:103830002846FFF7AFFF2815ADF8100003208DF8DC
:1038400012001820144E8DF8130004A93046FEF71C
:10385000D1F8E814ADF8100004208DF8130004A985
:103860003046FEF7C7F80020ADF80400ADF80600BA
:10387000ADF80800ADF80C000C20ADF80A0000947B
:103880006946284600F052F801212846FFF721FF3B
:1038900006B070BD00480040000C01402DE9F04129
:1038A0000E46054600240A4F0DE0002D0DD0294696
:1038B000384600F0CFF980213846FFF7A5FF0028F1
:1038C000F9D0641CE4B2B442EFD3BDE8F08100004B
:1038D0000048004070B50446074D09E0284600F056
:1038E000B9F980212846FFF78FFF0028F9D0641C22
:1038F00021780029F2D170BD0048004010B5C1F315
:10390000421301F01F040121A140012B07D0022B1B
:1039100007D01430002A026805D00A4304E00C30B6
:10392000F8E71030F6E78A43026010BD30B5044670
:10393000008A85B00D464CF6FF710840E9880143C6
:103940002182A0894EF6F3110840A9882A891143E3
:103950006A8902431143A181A08A4FF6FF410840C2
:10396000A9890143A1826846FFF776F81948844285
:1039700001D1039800E00298A189090400EBC0017D
:1039800001EB0010296801D5490000E08900B0FB77
:10399000F1F06422B0FBF2F109010B096FF0180598
:1039A0006B4300EB8300A3891D044FF0320306D55F
:1039B00003EBC000B0FBF2F000F0070005E003EB02
:1039C0000010B0FBF2F000F00F000843208105B0BA
:1039D00030BD000000380140F0B50C46064687B007
:1039E0001546012144F20500FEF7BEFF4FF40070BA
:1039F000ADF8100018208DF8130003201D4F8DF82E
:103A0000120004A93846FDF7F5FF3815ADF810008F
:103A100004208DF8130004A93846FDF7EBFF0020C1
:103A2000ADF804000096ADF80600ADF80800ADF85A
:103A30000C000C20104EADF80A0069463046FFF726
:103A400075FF01213046FFF744FE012240F2255167
:103A50003046FFF753FF25208DF814008DF81540F0
:103A60008DF8165001208DF8170005A8FEF762FDAD
:103A700007B0F0BD00080140003801402DE9F74FC4
:103A800000251C4E91464FF031082F461A48FCF78E
:103A900093FC01461848FFF75CFC37600098FCF780
:103AA0008BFC0146009800F029F81FFA89F000F01D
:103AB000FFFB002440F2AD3B40F2551A306870B174
:103AC000584600F0F5FB0C480199FCF73FFC28B183
:103AD000C82000F0EDFB0120BDE8FE8F37605046A6
:103AE00000F0E6FB641C142CE8DB6D1C4545CDDBC7
:103AF0000020F1E708000020BF0500202DE9F0417B
:103B00000C4F0E46054640213846FFF7DFFD0024E6
:103B10000BE015F8011B384600F09CF840213846B0
:103B2000FFF772FE0028F9D0641CB442F1D3BDE85F
:103B3000F0810000003801402DE9F0410E4680463A
:103B400086B0154601210420FEF726FF0121480416
:103B5000FEF70AFF0424ADF8104018208DF813007A
:103B600003201E4F8DF8120004A93846FDF742FFCE
:103B70000820ADF810008DF8134004A93846FDF771
:103B800039FF0020ADF80400ADF80600ADF80800DC
:103B9000ADF80C000C20124CADF80A00CDF80080F6
:103BA00069462046FFF7C2FE01212046FFF791FD3E
:103BB000012240F225512046FFF7A0FE26208DF875
:103BC00014008DF815608DF8165001208DF817003F
:103BD00005A8FEF7AFFC06B0BDE8F0810008014083
:103BE0000044004070B505460C460948FCF7E4FB6C
:103BF00001460748FFF7ADFB064900200860214653
:103C0000284600F009F8BDE87040142000F050BBD1
:103C10007C010020040000202DE9F0410C4F0E46ED
:103C2000054640213846FFF751FD00240BE015F80A
:103C3000011B384600F00EF840213846FFF7E4FD3E
:103C40000028F9D0641CB442F1D3BDE8F081000033
:103C500000440040C1F30801818070474FF4802088
:103C6000FDF7DABD70B505460C46002000F02CF9D2
:103C70004FF42F7000F01CFB012000F025F9FFF736
:103C800063F92146284600F037F8BDE8704000F09F
:103C90001FB8000008B102A000E007A0FCF7DABAE4
:103CA0007573622070756C6C20757020656E616232
:103CB0006C650D0A000000007573622070756C6CF5
:103CC0002075702064697361626C650D0A000000E4
:103CD00006490548022208600272064A0448C1E902
:103CE0000102006800470000480B00203800002057
:103CF000D400002028010020FEB504464FF48025A2
:103D00000E462846FDF788FD082001958DF809002C
:103D100001258DF80A5001A8FDF794FD14208DF8B7
:103D200000008DF801408DF802608DF80350684660
:103D3000FEF700FC2A208DF8000000208DF801001D
:103D40006846FEF7F7FBFEBD2DE9F0414B4D88B00C
:103D5000002428684A4E708070884A4F398808408D
:103D6000800507D54FF6FF5028603078401C307032
:103D7000FEF7A4FF708839880840000401D5FDF7DC
:103D80003FFA708839884FF6FF380840400504D55F
:103D9000C5F800803C4840688047718838880140F9
:103DA000890402D54DF6FF71296071880140C8046D
:103DB00005D54EF6FF7028600020FEF725FF7088BD
:103DC0003988084000050BD53048007810B1FFF75E
:103DD000D5FA02E00220FEF717FF4FF2FF702860CD
:103DE000708839880840C00545D54FF6FF602860C7
:103DF0002248001D00684FF00003000437D57068AA
:103E0000401C70607068032832D91C48001F01688C
:103E100009072DD4016889B2B1601D496A4601EBDA
:103E20008407D7F8007CBFB242F82470641C082CC9
:103E3000F5D3B46844F00104B460B468A4B204607B
:103E4000B46824F00104B460B468A4B204602868C3
:103E50004005FCD5C5F80080002052F8204001EB59
:103E60008005A4B2C5F8004C401C0828F5D3736047
:103E70000720FEF7C9FE08B0BDE8F081445C0040B1
:103E80007400002044000020D400002050010020D5
:103E900000500040FFF758BF10B504460848FCF733
:103EA0008BFA01460648FFF754FA064900200880BD
:103EB000204600F091F8BDE81040142000F0F8B959
:103EC000680F00204C00002010B50446012104209A
:103ED000FEF762FD0C49086824B14FF6FD721040F0
:103EE000086010BD80B240F0020008600748016819
:103EF00021F47F210160016841F44C3101600449E3
:103F00000020C1F8B00110BD405C00400408014031
:103F10000000214205490020086005494FF43F4058
:103F200008800249091F086000207047445C004077
:103F30004400002070B500F07F060D463046FDF7C6
:103F4000C3FD04463046FDF7AFFD01462246284634
:103F5000FEF7C0FC204670BDF0B500231E46124D92
:103F60001BE02A88C45C170415D4570404D50A2C16
:103F700010D142F4004215E00D2C11D0C2F30D0710
:103F8000DFF828C0521C92B20CF807402A80B2F524
:103F9000007F00D32E805B1CDBB28B42E1D3F0BDEF
:103FA00042F480422A80F6E74C000020680F00208F
:103FB0000849B1F800248854B1F80004401CA1F865
:103FC0000004B1F80004B0F5806F02D10020A1F820
:103FD00000047047640B002070B50446FCF7ECF950
:103FE00085B2002304E0E05CFFF7E2FF5B1C9BB2BC
:103FF000AB42F8D370BDFEE7084B10B5521C520817
:1040000003EB410109D010F8013B521E10F8014B9F
:1040100043EA042321F8043BF5D110BD00600040C1
:10402000104A10B500211268212802D0202807D09C
:1040300016E0107800F07F00212811D10A4908E02D
:10404000107800F07F00212800D10849084B20207B
:10405000187029B10020916150828847002010BD5E
:10406000022010BD380000208D40000801420008E9
:10407000B80000200149FFF737B80000CC0000204D
:104080000149FFF731B80000C400002008B104481E
:104090007047044908200968088200207047000022
:1040A000BC0000203800002005490968C9780429AF
:1040B00001D900207047034A02EBC101FFF714B891
:1040C000380000200401002009B9012801D902208C
:1040D000704700207047000007490968097801F01F
:1040E0007F01212903D1022803D0222801D00220F8
:1040F000704700207047000038000020334810B59A
:104100000068334A00218172D2794272C172084636
:10411000FEF7EAFD4FF400710020FEF7B3FE102118
:104120000020FEF785FE40210020FEF709FE8021D9
:104130000020FEF75FFE0020FDF750F9254890F8BB
:104140002C100020FEF70CFE0020FEF741FE00219F
:104150000120FEF797FEC0210120FEF74BFE202133
:104160000120FEF765FE00210120FEF719FE4FF445
:10417000C0610220FEF786FE4FF480710220FEF738
:1041800039FE00210220FEF70BFE20210220FEF75F
:104190004FFE00210320FEF775FE4FF488710320C7
:1041A000FEF7CEFD40210320FEF7DAFD4FF440512B
:1041B0000320FEF7F5FD00210320FEF739FE002065
:1041C000FEF79AFD04490120086010BD3800002068
:1041D000AE430008D40000204C0100200348807A40
:1041E000002802D00249052008607047480B0020D3
:1041F0004C01002001490420086070474C01002058
:1042000008B1044870470449082009680882002062
:1042100070470000BC0000203800002010B5044C9E
:104220002078202803D1FFF75FFA0020207010BD0E
:10423000B80000207047000010B5FDF763FC05488A
:10424000002400688472FEF779FBFFF763FE0248E2
:10425000046010BD380000204C01002004490868AB
:1042600010F00100086001D00020086070470000D5
:10427000082C004010B56FF00400FFF7BFF80948A4
:1042800009490068B0FBF1F00849C0B200EB4002F8
:104290000870C2EBC0104FF6FF7202EAC0004880FF
:1042A00010BD00000C00002000127A000000002069
:1042B0000B49498848434FF0E021486100238B6156
:1042C000086940F0010008610869C20701D0C00315
:1042D000FAD5086920F0010008618B617047000081
:1042E000000000200B49097848434FF0E021486165
:1042F00000238B61086940F0010008610869C2076A
:1043000001D0C003FAD5086920F0010008618B6173
:1043100070470000000000208A68002A01DCFCF7DA
:1043200095BA521E8A604A68C0B2531C4B60107026
:1043300070470000FCF7ECFE094CDFF828800A4EBD
:104340000A4F00252068012807D100214046FFF7C9
:10435000B6F835602560FDF7B3FC3868F2E7000079
:104360002400002000040040280000202C00002031
:1043700010B500290AD00878002807D005487844ED
:10438000FCF76CF8002801D0002010BD02487844EA
:1043900010BD0000FE000000F60000001201000247
:1043A0000200004083044057000201020301090299
:1043B0004300020100C032090400000102020100B2
:1043C0000524001001052401000104240202052433
:1043D000060001070582030800FF09040100020A24
:1043E00000000007050302400000070581024000AD
:1043F00000040309042603530054004D00690063C0
:104400000072006F0065006C00650063007400724C
:10441000006F006E006900630073003203530054A4
:10442000004D003300320020005600690072007415
:1044300000750061006C00200043004F004D00201B
:104440000050006F0072007400200020003A747465
:10445000003A7474003A7474000000008C4500083F
:10446000000000207C01000028010008244600080C
:104470007C010020AC17000084010008100100003E
:1044800043000000F8FFFFFF004040404040404034
:104490004040414141414140404040404040404017
:1044A00040404040404040404005020202020202BB
:1044B000020202020202020202202020202020200A
:1044C000202020020202020202029090909090901E
:1044D00010101010101010101010101010101010DC
:1044E0001010101002020202020288888888888850
:1044F000080808080808080808080808080808083C
:104500000808080802020202400000000000000043
:10451000000000000000000000000000000000009B
:10452000000000000000000000000000000000008B
:10453000000000000000000000000000000000007B
:10454000000000000000000000000000000000006B
:10455000000000000000000000000000000000005B
:10456000000000000000000000000000000000004B
:10457000000000000000000000000000000000003B
:10458000000000000000000000000000D184A24AEA
:1045900004000C3101020304060708090A01011492
:1045A0001A03531254124D123302213213F5160C12
:1045B0001C082925040B106D1714512AC29C1208DF
:1045C000139C433308121AAE0832431339421408BD
:1045D000FD401B081D081A35041A210C1AD9041AAB
:1045E000C9041A81041A75041AA9044132401AF147
:1045F0003829F91AF5083226131B442A08BA22541E
:1046000033201A1A046729740B18DD41A41AF51C0B
:10461000412992814C020406142C02030404C506AD
:04462000070809007E
:04000005080000ED02
:00000001FF
