:020000040800F2
:10000000701A002005010008731D0008ED13000898
:10001000711D0008D5040008D3420008000000004C
:100020000000000000000000000000008D3000080B
:10003000D109000800000000C1230008BD370008F6
:10004000394500081F0100081F0100081F010008B2
:100050001F0100081F0100081F0100086D0A0008A9
:100060001F0100081F0100081F0100081F010008F0
:100070001F0100081F0100081F0100081F010008E0
:100080001F0100081F0100081F0100081F010008D0
:10009000714100081F0100081F010008F90A00084B
:1000A0001F0100081F0100081F0100081F010008B0
:1000B0001F010008113800081F0100081F01000877
:1000C0001F0100081F0100081F0100081F01000890
:1000D0001F010008AD390008113A00081F0100088F
:1000E0001F0100081F010008753F0008DFF810D04D
:1000F00000F080F80048004715460008AFF3008084
:10010000701A00200648804706480047FEE7FEE7D1
:10011000FEE7FEE7FEE7FEE7FEE7FEE7FEE7FEE7B7
:10012000C1370008ED000008A0F16101192900D8CD
:100130002038704740EA01039B0703D009E008C953
:10014000121F08C0042AFAD203E011F8013B00F89C
:10015000013B521EF9D27047D2B201E000F8012BE8
:10016000491EFBD270470022F6E710B513460A4637
:1001700004461946FFF7F0FF204610BD421E12F854
:10018000013F002BFBD111F8013B02F8013B002B92
:10019000F9D1704730B505462A460B4612F8010BD7
:1001A00013F8014B08B1A042F8D01CB1002802D0CE
:1001B0006D1CF1E7284630BD421C10F8011B0029D8
:1001C000FBD1801A704710B5002200E0521C835CFE
:1001D0008C5CA34201D1002BF8D1D8B2E1B2401A15
:1001E00010BD034611F8012B00F8012B002AF9D1AC
:1001F00018467047064C074D06E0E06840F00103E2
:1002000094E8070098471034AC42F6D3FFF772FF2A
:1002100080470008A047000870B58C1810F8015BF3
:1002200015F0070301D110F8013B2A1106D110F88F
:10023000012B03E010F8016B01F8016B5B1EF9D193
:100240002B0705D40023521E0DD401F8013BFAE719
:1002500010F8013BCB1A921C03E013F8015B01F884
:10026000015B521EF9D5A142D8D3002070BD000019
:1002700000B5AFB050211AA8FFF775FF02222EA9D2
:10028000622000F065F82EA12EA8FFF783FFE8B3E7
:10029000632201A9052000F05BF8142000901AAB3E
:1002A000252201A9274800F007FEDDE91A23254889
:1002B00001A90F30521C03F028FADDE91B23214865
:1002C00001A92830521C03F020FADDE91C231D4847
:1002D00001A92D30521C03F018FADDE91D2319483D
:1002E00001A91838521C03F010FADDE91E23154845
:1002F00001A9801F521C03F008FADDE91F231148F1
:1003000001A93230521C03F000FA00E001E02FB0E6
:1003100000BD0D4901A8FFF764FF01A8FFF74CFFDE
:1003200082B201A9052000F043F805A12EA8FFF72D
:1003300058FF02222EA9622000F03AF8ADE7000033
:1003400048780000750A00202847000801F06EB8C0
:100350002DE9F04116460F46044625E02546641C6B
:10036000A4B201F019F9280AA02101EB4000C0B2A3
:1003700001F0E6F801F04CF9E8B201F0E1F801F023
:1003800047F901F009F9A12001F0DAF801F040F98C
:10039000002001F087F8054601F066F801F01AF92F
:1003A000761E07F8015BB6B2002ED7D1BDE8F0810A
:1003B0002DE9F04115460E46044624E00120BDE833
:1003C000F081377801F0E8F8200AA02101EB400025
:1003D000C0B201F0B5F801F01BF90028EED1E0B28F
:1003E00001F0AEF801F014F90028E7D1384601F029
:1003F000A7F801F00DF901F0EDF80A2004F0D6F8A5
:10040000641CA4B2761C28466D1EADB2D9D2D6E7C4
:1004100010B5B8B002F03EF801F0ADFC04F0A8F859
:10042000FFF794FF01F082FD4FF41654204600F0D0
:1004300061FF002211464FF4E13001F0A1FA0122E0
:100440000021204601F0A0FD0221002000F09AFFCB
:100450000221002002F0F6F901F05CFDFFF708FF31
:10046000194915A2A1F1120001F05CF91648801D8E
:1004700000F0DCFB01F032FE0023012241F61F41B7
:1004800042F20F7003F006FA0F49672211396846ED
:10049000FFF750FE0C49772221391AA8FFF74AFED0
:1004A0001AAC94E80F0000F07DFD084900200860B8
:1004B0000749086038B010BDCDF8C2E7C1ACBDD364
:1004C000D6D02E2E2E0000006F0A00203000002013
:1004D00034000020FEE7C1B2000A40EA0120704764
:1004E0002DE9F84F0020ADF800004BF6BF7648F23A
:1004F00080084A4D4A4C40F68F7ADFF8289148F63A
:100500000F7B494F2FE0088810F00F0089F800009A
:1005100032D007EB8001D1F8002CADF80020BDF8F7
:10052000002012040BD5D1F8002C02EA0A02C1F80F
:10053000002C3E4901EB800050F8040C8047BDF8C8
:10054000000000060FD599F8000007EB8001D1F8F4
:10055000002C02EA0B02C1F8002C354901EB8000A7
:1005600050F8040C80472D48443000683149088019
:100570000004C8D4BDE8F88F28682080208800F0E7
:1005800030006080208800F440502080286830408F
:1005900080F4005080F0200040EA080028600888BD
:1005A000C00617D4296801EA0B01296001F05AF846
:1005B00028E02188890401D580F400506188C906AB
:1005C00028D46188890601D580F0200040EA08001F
:1005D0002860CFE72868ADF80000BDF800000005EE
:1005E00006D5296801EA0A01296002F08BFE09E0BC
:1005F000BDF800000004B6D5286800EA0A002860AB
:1006000001F064FC286821883040C904D1D580F409
:100610008050CEE780F01000D3E70000005C00407F
:100620004E0000203C00002000500040A4000020AC
:10063000880000207E0000202DE9F0410025904632
:100640000F4606462C4606E0395D414502D146F884
:1006500025406D1C641C3846FFF7AEFDA042F3D860
:10066000002046F82500BDE8F08100008100084820
:100670000844D0F8001C490409D5D0F8001C48F6FD
:100680008F7211404CF280021143C0F8001C704779
:1006900000500040810008480844D0F8001C49067A
:1006A00009D5D0F8001C48F68F72114048F2C002FC
:1006B0001143C0F8001C70470050004081000648FC
:1006C0000844D0F8001C48F68F62114048F28002BE
:1006D0001143C0F8001C7047005000402DE9F0475E
:1006E000DFF89490254F4FF03008D9F8001001F151
:1006F0001005088A0E7A08B9042E04D0AC88A042EE
:1007000015D8042614E01E480178012903D00726D5
:10071000102038802BE01B4A002112681A4B12046B
:1007200003EBD2325160A7F8008001701FE002266F
:10073000844200D90446A9682046884782460020A2
:1007400000F0ACFB01462246504603F0C3FD2146B3
:10075000002002F033FD2888001B28806888204490
:100760006880A7F8008009494FF440500880D9F804
:1007700000000672BDE8F087400000205000002015
:1007800038000020505C0040006000404E00002017
:100790002DE9F047224EDFF88C803027346834F89A
:1007A000100FA168A9B100B3A588854200D90546FC
:1007B0002846884781462088401B2080608828443E
:1007C0006080002000F04AFB01462A46484601F0BE
:1007D000E7FD208848B114494FF4405008800021BB
:1007E000084602F0EBFCA8F800702088A188884237
:1007F00001D3032001E020B1052031680872BDE873
:10080000F087316806200872084900200968084A04
:10081000090402EBD1314860A8F80070EFE700004E
:1008200040000020500000204E000020505C00409E
:1008300000600040F8B55D4C5D4D0926206800273A
:1008400029684278062A05D0AAB1082A4DD00A2A7A
:1008500050D06BE00278520668D18078012804D02D
:10086000022804D0032804D060E0C96956E0096A70
:1008700054E0496A52E04288B2BBC288022A55D18C
:1008800002798ABB0278530601D1838833B102F022
:100890007F02012A04D0022A0CD047E045493DE0FE
:1008A0008A69407900219047F0B92068807A002851
:1008B000F4D13BE0417901F00F0001F070020B062A
:1008C0003D4901EB8001D1F8001C03D5C1F30111B2
:1008D000090102E0C1F301310903384B1B7883425F
:1008E00024D90AB90029D9D120E0007840061DD1C9
:1008F000334913E0027802F07F02012A16D1827A8E
:10090000A2B1428892B9027982B9C288012A0DD176
:100910008A6940790021904740B92A4931B120685D
:100920004782816100208847002006E0296820680E
:10093000096940788847032813D021680A8AA2F5FC
:100940007F43FF3B0BD002280ED06AB10878000627
:1009500026D5C888009082420AD9088218E00E7213
:10096000F8BD20680672F8BD4FF008000872F8BDA7
:100970000ED22868144B90F82C00824201D21F70CE
:1009800006E0B2FBF0F400FB142008B90120187057
:10099000286890F82C008882BDE8F840FFF79EBEDA
:1009A00003200872094900030880F8BD40000020B8
:1009B00044000020D5340008005000402C010020E5
:1009C00069340008AD340008380000204E000020D3
:1009D000704700001C4810B5B0F80214B0F80024AD
:1009E000914230D0B0F80214B0F80024914205D200
:1009F000B0F80014B0F80224891A03E0B0F8021429
:100A0000C1F580618CB2402C00D94024B0F80214AA
:100A1000B0F802242244A0F80224B0F80224B2F56F
:100A2000806F02D30022A0F8022408442246C0218D
:100A300003F050FC2146012002F0C0FBBDE810404D
:100A4000012002F0E1BB10BD0C10002010B50649DA
:100A5000032003F0DDFBC1B2034803F0EBFBBDE86C
:100A60001040032002F088BB1016002010B50220B1
:100A700000F08EF801281BD1642003F097FD0220BE
:100A800000F086F8012813D1022000F07BF8022143
:100A90000B4800F0D7F900280AD10A48007801284D
:100AA00007D009480078012805D0084901200860CE
:100AB00010BD07A000E00BA0BDE8104000F050BA48
:100AC0000008014022000020230000203000002008
:100AD000CDF8C2E7C1ACBDD3D6D0A3ACC7EBC9D467
:100AE000BAF30000B5E7C4D4C1ACBDD3D6D0A3AC33
:100AF000C7EBC9D4BAF3000010B5202000F048F8C5
:100B000001281BD1642003F051FD202000F040F8A3
:100B1000012813D1202000F035F820210B4800F0E7
:100B200091F900280AD10A480078012807D009481D
:100B30000078012805D008490120086010BD07A0F1
:100B400000E00BA0BDE8104000F00ABA000C014024
:100B5000220000202300002034000020CDF8C2E74E
:100B6000C1ACBDD3D6D0A3ACC7EBC9D4BAF3000097
:100B7000B5E7C4D4C1ACBDD3D6D0A3ACC7EBC9D400
:100B8000BAF30000014908607047000014040140F6
:100B9000064A014600201268044B0A4014331B68C1
:100BA0000B4202D0002A00D001207047000401400F
:100BB00030B51A4A8379016853B313688B431360C5
:100BC000111D0B680468A3430B60017911440B6885
:100BD000046823430B60114B083319680468A14370
:100BE00019601C1D21680568A943216041791029FD
:100BF00005D011440A68006802430A6030BD1968D4
:100C0000026811431960216800680143216030BD0A
:100C10000079104402688A43026030BD000401403C
:100C20000149032008607047540100202DE9F05F5E
:100C3000044632212F4802F060FD2E48322132381E
:100C400002F05BFD2CA12B48FFF7CBFA2DA1294820
:100C5000FFF794FA21462748FFF790FA2CA1254880
:100C6000FFF78CFA2349A1F13200FFF7BAFADFF857
:100C7000A4B04FF0010A8BF800A00025264E2F46A5
:100C800040F255184FF41679642003F08FFC194890
:100C90003238FFF791FA01461648323800F0E6FE86
:100CA0006D1CEDB20024306868B1404603F07EFC54
:100CB0001AA11B48FFF76EFA28B1642003F076FCF6
:100CC000142C0AD306E0484603F070FC641CE4B21E
:100CD000142CE8D3032DD7D347B100F01FF900211E
:100CE0008BF800100F480170BDE8F09F0D4981F8A6
:100CF00000A0F9E7D30B00205453656E646865616A
:100D000072742500466972737448656172740000DC
:100D10002524240022000020080000204B000000B1
:100D2000BB0500202100002010B58A0721F0030434
:100D30000649120F21440F238C6893409C438C601A
:100D40008B68904003438B6010BD000000000140A1
:100D5000F0B5CC78002204F00F03E40601D58C78BE
:100D600023430C784FF00F0C14F0FF0F4FF0010EDF
:100D70001BD005680E880EFA02F42640A64210D158
:100D800096000CFA06F725EA070703FA06F5CE786F
:100D90003D43282E02D0482E02D002E0446100E0FC
:100DA0000461521C082AE5D305600A88FF2A1CD971
:100DB0004468002202F108060EFA06F50E882E405D
:100DC000AE420ED196000CFA06F7BC4303FA06F7C2
:100DD000CE783C43282E00D14561CE78482E00D1F4
:100DE0000561521C082AE5D34460F0BDF0B5144CEF
:100DF000002801DAE36900E06368450D2E0185B241
:100E0000C0F30157B540C0F30342032F05D0C6021B
:100E10000AD503269640B34307E023F07062636867
:100E200023F07063636002E0AB4343F0706201B192
:100E30002A43002801DAE261F0BD6260F0BD0000E3
:100E4000000001400246002092680A4200D00120C2
:100E500070474161704701617047000005490968AA
:100E600089B201EBC000044901EB4000008980B267
:100E700070470000505C0040006000400549096870
:100E800089B201EBC000044901EB40008089C0F346
:100E900009007047505C0040006000400449096848
:100EA00089B201EBC000034931F8100080B27047ED
:100EB000505C0040006000402DE9F0410D460646C0
:100EC0001C4617461846069900F015FC3A46294676
:100ED0002046FFF7B1FB294630462368BDE8F041C4
:100EE000002202F012BC00000A4810B50168001D83
:100EF0000468001D006808180BD00822064900F09D
:100F0000DFFB054920460422BDE81040103100F007
:100F1000D7BB10BDE8F7FF1F5E00002010B506A08C
:100F200000F0DEF90648007800F0E8F8BDE810406F
:100F300004A000F0D5B900007061676520320000A0
:100F40002000002074302E7478743D22CDF8C2E762
:100F5000C1ACBDD3B3C9B9A6A3A1A3A1220000000F
:100F600010B58EB0044634216846FFF7FCF807A0A0
:100F700000F0B6F90749087800F0C0F801232246CE
:100F800005A1684600F0C2F90EB010BD706167653A
:100F9000203200002000002074302E7478743D222E
:100FA000000000000FB423A010B58EB000F098F937
:100FB0002248007800F0A2F8012321A223A168466C
:100FC00000F0A4F901230DF1990223A1684600F075
:100FD0009DF9002310AA29A1684600F097F910ACEA
:100FE000002328A16846E21C00F090F90023A21D0E
:100FF00026A1684600F08AF93221684602F07DFB9E
:1010000024A16846FFF7EDF80DF149016846FFF7A6
:10101000B5F822A16846FFF7B1F8684600F060F91C
:10102000002313AA1EA1684600F070F90EB010BC90
:101030005DF814FB7061676520310000200000201E
:10104000D6D0B9FAD2C6B6AF0000000074302E7404
:1010500078743D22000000007172302E7478743D67
:1010600022687474703A2F2F77656978696E2E71D3
:10107000712E636F6D2F722F000000006E342E767C
:10108000616C3D006E332E76616C3D006E322E76C3
:10109000616C3D006E312E76616C3D002B38000096
:1010A0006E302E76616C3D0070B58EB00D460646F2
:1010B0003221684602F021FB07A000F011F9084C2C
:1010C000207800F01BF82B46324606A1684600F057
:1010D0003BF90EB070BD0000706167652032000002
:1010E0002000002074302E7478743D22C4FAD2D1CE
:1010F000B3C9B9A6B3E4D6B520000000411E042947
:1011000001D80DA016E0811F052901D80DA011E01E
:10111000A0F10C01052901D80DA00BE0A0F11201EE
:10112000052901D80DA005E01838072801D80EA020
:1011300000E010A000F0D4B870312E7069633D312A
:101140003000000070312E7069633D3131000000C5
:1011500070312E7069633D313200000070312E70A5
:1011600069633D313300000070312E7069633D3199
:101170003400000070312E7069633D3900000000BA
:101180002DE9F0478EB0074616A80C4690E80007F8
:1011900016461D4634216846FEF7E5FF27A000F0FD
:1011A0009FF828480078FFF7A9FF3A46012326A1B7
:1011B000684600F0ABF8BAF1010F30D025A000F07E
:1011C0008FF827A000F08CF83221684602F095FADB
:1011D0002246012325A1684600F098F8322168468E
:1011E00002F08BFA3246012323A1684600F08EF804
:1011F0003221684602F081FA4B462A4621A1684610
:1012000000F0A2F83221684602F077FA4246012344
:101210001FA1684600F098F80EB0BDE8F0871FA047
:1012200000F05EF820A000F05BF83221684602F082
:1012300064FA224601231FA1CDE7000070616765B3
:10124000203500002000002074342E7478743D2274
:10125000000000007669732067312C300000000028
:101260007669732074352C310000000074352E74BB
:1012700078743D220000000074302E7478743D2292
:101280000000000074362E7478743D2200000000C7
:1012900074392E7478743D22000000007669732042
:1012A00067312C31000000007669732074352C30D2
:1012B0000000000067312E7478743D2200000000A9
:1012C00010B504A000F00CF804480078BDE8104008
:1012D000FFF714BF70616765203300002000002015
:1012E00010B502F083FC0321BDE81040FF2002F09E
:1012F00061BC000010B502F01BFCBDE8104001A06D
:10130000FFF7EEBF70616765203000002DE9F04106
:101310000D461C4617460646322102F0EEF92946D4
:101320003046FEF75EFF39463046FEF727FF012CB8
:1013300003D104A13046FEF721FF3046BDE8F0415D
:10134000FFF7CEBF2022000070B51C4616460546AA
:10135000FEF747FF31462846FEF710FF44B105A1CE
:101360002846FEF70BFF2846BDE87040FFF7B8BFE0
:1013700002A1F5E720B6D6220000000020D4AA2260
:10138000000000007FB50E4604460121042001F054
:1013900069F80225ADF80C5048208DF80F000320A5
:1013A0008DF80E0003A91048FFF7D2FC01210020A0
:1013B000FFF7BAFC00208DF804000C2000958DF892
:1013C000050001258DF806506846FFF7F1FB072060
:1013D0008DF808008DF809408DF80A608DF80B50E3
:1013E00002A800F0CDFC7FBD00080140FEE7000030
:1013F00010B50D4C04212046FFF72BFD00F08EF8B0
:1014000001212046FFF725FD022003F0E9F8042121
:101410002046FFF720FD052003F0E2F82046BDE856
:1014200010400421FFF715BD000C014038B5012123
:10143000082001F017F80520ADF8000003208DF812
:1014400002001020074C8DF8030069462046FFF784
:101450007FFC04212046FFF7FEFC01212046FFF718
:10146000FAFC38BD000C014010B50D4C042120469B
:10147000FFF7EFFC00F052F801212046FFF7EBFCEC
:10148000022003F0ADF804212046FFF7E4FC05201C
:1014900003F0A6F82046BDE810400421FFF7D9BCB0
:1014A000000C01402DE9F041002507462C4600F0D4
:1014B00027F8124E04213046FFF7CBFC022003F040
:1014C0008FF804213046FFF7C6FC6006040E0121A8
:1014D0003046FFF7B7FC08B1641CE4B2012003F00A
:1014E0007FF86D1CEDB2082DE4D327B1FFF780FF24
:1014F0002046BDE8F081FFF7B7FFF9E7000C014097
:1015000008B50120ADF8000048208DF803006946B9
:101510000148FFF71DFC08BD000C014008B5012083
:10152000ADF8000003208DF8020010208DF80300B4
:1015300069460248FFF70CFC08BD0000000C0140A2
:1015400070B505460024FFF7E9FF124E042130462E
:10155000FFF77FFC28064FF00101304602D5FFF768
:101560007AFC01E0FFF775FC6806050E04213046A1
:10157000FFF771FC022003F033F804213046FFF737
:1015800068FC022003F02CF8641CE4B2082CE1D3C0
:1015900070BD0000000C014010B5FFF7BFFF0C4C00
:1015A00001212046FFF757FC04212046FFF753FC9A
:1015B000052003F015F801212046FFF74AFC06201C
:1015C00003F00EF82046BDE810400421FFF741BCAF
:1015D000000C014010B5FFF7A1FF0C4C0421204680
:1015E000FFF737FC01212046FFF733FC042120469A
:1015F000FFF731FC062002F0F3FF01212046FFF740
:101600002AFCBDE81040062002F0EABF000C0140B1
:1016100070B50024FFF774FF114D01212846FFF734
:101620001AFC012002F0DCFF04212846FFF713FC1E
:10163000012002F0D5FF07E0641CE4B2FA2C03D9C4
:10164000FFF7C8FF012070BD01212846FFF7FAFB14
:101650000028F1D104212846FFF7FBFB002070BDD4
:10166000000C014010B5134C2068017A022904D007
:10167000042902D0062905D015E0FFF72FF82068CD
:10168000007A11E04178052909D10178490606D18F
:10169000C07801F005FD08480068006A80470748E7
:1016A000006880688047082021680872BDE8104003
:1016B00000F088BE400000204800002044000020C8
:1016C000F0B500230A24302537261F4610E0B4EB7E
:1016D000107F02D905EB107C01E006EB107C01F8CD
:1016E00013C001EB430C00015B1C8CF80170DBB2F2
:1016F0009342ECD3F0BD0022134602E040F82230C2
:10170000521C8A42FAD370470448817A044809B1CE
:10171000052100E00121016070470000F00F00206A
:10172000540100202DE9F05F594E8B460124002121
:10173000824631701046FFF713FC40F24A3940F2FE
:101740005E3840F2AD3500F041F90746284602F018
:101750002DFF002F7DD04F464A464EA14EA002F0ED
:1017600019FB0028F6D0284602F020FF3A464CA18B
:101770004DA002F00FFB0028ECD0284602F016FF27
:101780003A464CA14EA002F005FB00287AD028462C
:1017900002F00CFF474642463EA14CA002F0FAFA86
:1017A00000286FD0284602F001FF2A4639A14EA03A
:1017B00002F0F0FA002865D0284602F0F7FE3A461B
:1017C00034A14DA002F0E6FA00285BD0284602F0D2
:1017D000EDFE3A462FA14CA002F0DCFA002851D0D1
:1017E000284602F0E3FE3A462AA14BA002F0D2FAC4
:1017F000002847D0284602F0D9FE3A4625A14AA043
:1018000002F0C8FA00283DD0284602F0CFFE3A4642
:1018100020A149A002F0BEFA002833D0284602F0E9
:10182000C5FE3A461BA148A002F0B4FA88B128468A
:1018300002F0BCFE48A14D48FEF7D3FC51464B4890
:10184000FEF79CFC4AA14948FEF798FC59464748D8
:1018500000E017E0FEF792FC15A14448FEF78EFC6D
:101860002A4644A1414802F095FA58B1434800F095
:1018700017F930707078012804D02846BDE8F05F71
:1018800002F094BE002C7FF45EAFBDE8F09F000034
:10189000200000204F4B000041540D0A00000000C2
:1018A000524541445900000041542B4350494E3F9A
:1018B0000D0A00002B43475245473A20302C310097
:1018C00041542B43475245473F0D0A0041542B4397
:1018D0004744434F4E543D312C224950222C224341
:1018E0004D4E4554220D0A0041542B434741435469
:1018F0003D312C310D0A000041542B434D4D5558BC
:101900003D300D0A0000000041542B434D48454135
:10191000443D310D0A00000041542B434D53484FC4
:101920005752413D310D0A0041542B434D53484F0E
:10193000574C413D310D0A0041542B434D53484F04
:101940005750543D310D0A0041542B434D4D4F44E7
:10195000453D310D0A00000041542B49505354417C
:1019600052543D22544350222C220000FE090020F4
:10197000222C0000434F4E4E45435400C10A002024
:10198000F8B50D46064614460121052000F06AFD13
:1019900001210C48FFF72AFA4FF40043ADF800305C
:1019A00010208DF8030003208DF8020069460648D8
:1019B000FFF7CEF9224629463046BDE8F84002F04E
:1019C00097B9000000023000000801402DE9F04105
:1019D000204901208870C5031F4E29463046FFF775
:1019E00038FA002440F25517384602F0DFFD641C37
:1019F000E4B2052CF8D329463046FFF72CFA002430
:101A0000384602F0D3FD641CE4B2052CF8D300255F
:101A1000124EA84600243068002838460BD002F049
:101A2000C5FD1E2C10D20EA10F48FEF7B3FB48B126
:101A30000120BDE8F08102F0B9FD641CE4B21E2C67
:101A4000E9D301E0C6F800806D1CEDB2122DE1D3A0
:101A50000020EEE7200000200008014008000020E0
:101A600043545A5600000000BB05002070B50546DF
:101A70000C460948FEF7A0FB0146074801F03DFE71
:101A80000649002008602146284602F0C3F9BDE857
:101A90007040142002F08ABDBB0500200800002021
:101AA0002DE9F0472F4D00278EB004463E466F705B
:101AB0004FF0010840F2E7394FF47A7A7F1CFFB209
:101AC000032129A002F0A6F9484602F06FFD524614
:101AD00026A127A002F05EF9012804D0032FEDD340
:101AE00085F801803CE03221684601F006FE23487B
:101AF0000168684600F0EAF800226B4600E0D2B2C6
:101B0000985C02F101023A28F9D1D0B201E0401C00
:101B1000C0B2195C2029FAD10021401CC0B204E0F7
:101B2000401C6254491CC0B2C9B21A5C2C2AF7D1BD
:101B30002654134800F02CF86870687801280FD0FC
:101B4000524610A110A002F025F90028C8D0214665
:101B50000DA801F09FFD9DF834000EB0BDE8F087A0
:101B60000020FAE7200000202B2B2B0043535100CC
:101B700041542B4353510D0A00000000080000207F
:101B80004E0A00204F4B000041544F0D0A00000048
:101B90002DE9F043DFF81C8100258DB00446A946ED
:101BA00088F801504FF47A766D1CEDB2324642A1AE
:101BB00042A002F0EFF8012806D0032DF4D3012152
:101BC000404688F8011070E03221684601F095FD2A
:101BD0003D480168684600F079F800206F4601E052
:101BE000401CC0B2395C2229FAD10026401CC5B283
:101BF00007E0785D2F2809D0A055761C6D1CF6B241
:101C0000EDB26846FEF7D8FAA842F2D804F806907A
:101C1000002606E0785D2F280AD0A119761CC8702E
:101C2000F6B26D1CEDB26846FEF7C6FAA842F1D8CE
:101C3000A119002681F8039006E0785D2C280AD0CF
:101C4000A119761C8871F6B26D1CEDB26846FEF7DC
:101C5000B3FAA842F1D8A119002681F8069006E04F
:101C6000785D3A280AD0A119761C4872F6B26D1C2C
:101C7000EDB26846FEF7A0FAA842F1D8A1190026F5
:101C800081F8099006E0785D3A280AD0A119761CFF
:101C90000873F6B26D1CEDB26846FEF78DFAA842E5
:101CA000F1D8A119404681F80C9040780DB0BDE8FC
:101CB000F0830000200000204F4B000041542B43D4
:101CC000434C4B3F0D0A00000800002010B50B46A6
:101CD0000021094A02E0545C4454491C9942FAD359
:101CE000002444540448FEF767FA0146024801F014
:101CF00004FD0248046010BDBB0500200800002060
:101D00002DE9F0479046DDF820900C468246002BE6
:101D100028DD0846FEF750FA01462046FFF7A6FEEA
:101D2000114D002440F255164FF41677286890B1F3
:101D3000304602F03BFC41460C48FEF72BFA50B10E
:101D40004946504601F0D9FC29685046FFF7BEFFCE
:101D50000120BDE8F087384602F028FC641CE4B29C
:101D6000142CE3D30020F4E708000020BB0500207A
:101D7000FEE7704770474FF4A06000F033B80000F2
:101D800030B50F23C27801780125F2B1144A1268E8
:101D900001F1E02102F4E062C2F5E062120AC2F150
:101DA0000404D3404278A24084781C4014432201AA
:101DB00081F80024007800F01F018D404009800068
:101DC00000F1E020C0F8005130BD01F01F00854057
:101DD0004809800000F1E020C0F8805130BD0000CB
:101DE0000CED00E00249084302490860704700001A
:101DF0000000FA050CED00E070B52F4D2968087859
:101E00004C78420606D000F07F00012828D0022836
:101E10002BD035E0092C06D0052C07D0032C0ED092
:101E2000012C14D02CE001F09FFB28E0C8787F281B
:101E30002ED8887860BB888850BB887A27E0C8781D
:101E400001281DD18888D8B901F0AAFB17E0C8780D
:101E5000012815D1888898B9487A80060AD40FE0FD
:101E60000B2C0DD101F0F2FB09E0012C02D0032C68
:101E700003D005E001F07AFA01E001F0A3FB58B1CC
:101E80000E492046096849698847032802D018B1DD
:101E900008200DE009200BE0094A06200021126805
:101EA000084B120403EBD2325160074A30211180F3
:101EB0002968087270BD0000400000204400002026
:101EC000505C0040006000405000002010B50F4CF6
:101ED0002068007A022811D004280FD0032804D0EB
:101EE000052802D0072805D008E0FEF751FC20683D
:101EF000007A04E006480068C0688047082021682E
:101F00000872BDE8104000F05DBA000040000020FB
:101F10004400002010B510210348FEF79AFFBDE8E9
:101F20001040642002F042BB000C014008B50121C2
:101F3000082000F097FA1020ADF800008DF803009B
:101F400002208DF8020069460148FEF701FF08BD36
:101F5000000C014010B510210348FEF77CFFBDE8DE
:101F60001040642002F022BB000C014010B580211B
:101F70000448FEF76EFFBDE810404FF47A7002F09F
:101F800015BB000000080140F8B50E460446154692
:101F90000121042000F066FA8020ADF80000102036
:101FA0008DF8030002208DF8020069460648FEF70E
:101FB000CFFE2A463146204601F04AFF29463046E8
:101FC000BDE8F84001F0DABF0008014010B58021FB
:101FD0000448FEF740FFBDE810404FF47A7002F06D
:101FE000E5BA00000008014001A000F05FB8000061
:101FF00052656164436172642524240070B51546FE
:102000000446002907DDFFF7EFFF2946204600F0D0
:1020100005F8012800D0002070BD00002DE9F04730
:102020001D4D1E4E89468246002440F255174FF43E
:102030001678286880B1384602F0B8FA18A1194815
:10204000FEF7A8F8F8B14946504601F056FB29685A
:10205000504600F029F911E03088A0B1384602F06E
:10206000A5FA0FA11048FEF795F860B14946504611
:1020700001F043FB3188504600F0FCF8142C09D2E3
:102080000120BDE8F087404602F090FA641CE4B2FB
:10209000142CCED30020F4E70400002054000020CC
:1020A00025242400780100201014002010B50446D7
:1020B00002F060F82046FEF77FF801462046BDE8B2
:1020C000104001F01BBF000001A0FFF7EFBF0000B0
:1020D00053687574446F776E252424002DE9F05FF2
:1020E000DFF8D090012189F80010002189F8011053
:1020F0000D468A4630A0FEF733FF002440F2AD368D
:10210000B046304602F052FA641CE4B21F2CF7D3FA
:102110002F4E304F40F2551B032D28D2642002F081
:1021200045FA2DA0FFF7C2FF6D1CEDB20024306808
:1021300008B9388890B1584602F038FA29A12A48DF
:10214000FEF728F820B927A12848FEF723F828B180
:10215000642002F02BFA142CDED20BE04FF4167040
:1021600002F024FA641CE4B2142CE0D3D4E7BAF1F0
:10217000000F09D0002089F8000089F80100BDE8AF
:10218000F05F1BA0FEF7ECBE01254E4689F800501B
:102190001BA0FEF7E5FEFFF797FF002447463846F1
:1021A00002F004FA641CE4B21F2CF8D37570BDE889
:1021B000F09F000023000020CEA2B5E7C4D4C1AC3C
:1021C000BDD3D6D0A3ACC7EBC9D4B5C8A1AD000070
:1021D000040000205400002048656C6C6F25242406
:1021E00000000000546F6F007801002010140020E0
:1021F000C9E8B1B8C6F4B6AFB3C9B9A600000000CB
:10220000CFB5CDB3D6D8C6F4D6D0A1AD000000006E
:1022100070B504461248FDF7CFFF0146104801F0A3
:102220006CFAFFF797FE0FA10D48FDF7DAFF214684
:102230000B48FDF7A3FF0EA10948FDF79FFF0848D3
:10224000FFF734FF002440F29755284602F0AEF91C
:10225000641C072CF9DBBDE87040FFF75BBE000093
:10226000C50A0020537461727450616D250000002E
:102270002524240010B50B460021094A02E0545CD5
:102280004454491C9942FAD3002444540448FDF7AD
:1022900093FF0146024801F030FA0248048010BD65
:1022A000101400205400002010B50B460021094AEC
:1022B00002E0545C4454491C9942FAD3002444542B
:1022C0000448FDF779FF0146024801F016FA02487A
:1022D000046010BD780100200400002070B51D4688
:1022E0000B4604990446002A08DD184600F008F859
:1022F00029462046FFF792FE012800D0002070BD3D
:1023000070B505460C461348FDF756FF01461148C7
:1023100001F0F3F934B1012C06D0022C15D0032CB6
:1023200006D114E00CA100E00FA10A48FDF759FF07
:1023300029460848FDF722FF0FA10648FDF71EFFBA
:10234000BDE870400348FFF7B1BE0CA1EDE70FA157
:10235000EBE70000C50A0020577269746534343415
:1023600032436172642500005772697465343432F7
:102370003843617264250000252424005772697473
:1023800065653537436172642500000057726974D2
:1023900065534335353537436172642500000000CD
:1023A000064B521C520803EB410105D031F8043BA7
:1023B00020F8023B521EF9D1704700000060004037
:1023C000704700000C4810B590F82C10002000F069
:1023D0009BFE0A480068007A082802D0092809D024
:1023E00006E007494FF48050088006491020088015
:1023F000002010BD012010BDDC00002040000020A6
:102400004E0000205000002010B5012001F0CDFD4D
:102410000648012101600021054A0160031D196081
:102420004FF4E05111800160002010BD405C00407D
:102430004C000020044A0029D16901D0014300E08A
:102440008143D1617047000000100240044A002916
:10245000116901D0014300E0814311617047000020
:1024600000100240044A0029916901D0014300E0B4
:10247000814391617047000000100240044A002926
:10248000D16801D0014300E08143D1607047000072
:102490000010024010B500F029F801F091F94FF456
:1024A0008034204600F0B6F800F002F901281CD173
:1024B000002000F0A5F8A01100F0C6F8002000F000
:1024C000CDF84FF4E011204600F0D8F8012000F0DC
:1024D000CFF8392000F074F80028FAD0022000F07C
:1024E000D7F800F085F80828FBD110BD0C4801682A
:1024F00041F00101016041680A4A114041600168F0
:10250000094A11400160016821F48021016041689D
:1025100021F4FE0141604FF41F018160704700000B
:10252000001002400000FFF8FFFFF6FE30B5204A21
:102530005168204B11F00C0103D0042901D0082967
:1025400001D0036012E05168536801F470114FF03C
:10255000020413F4803F04EB914102D053689B03C3
:1025600001D5154B00E0134B5943016051680F230F
:1025700003EA1111114B5C5C0168E1404160546851
:10258000072505EA14241C5D21FA04F484605468CC
:1025900005EAD4241B5DD940C1605268032303EAD5
:1025A0009232064B1B1F9A5CB1FBF2F1016130BD08
:1025B0000010024000127A0000093D00680100206E
:1025C000034600205909094A01290AD002290AD0E4
:1025D000516A03F01F02012393400B4200D00120F7
:1025E00070471168F5E7116AF3E700000010024038
:1025F0000248406800F00C007047000000100240E4
:10260000034A516821F0F001014351607047000016
:10261000001002400B490A6822F480320A600A68FE
:1026200022F480220A60B0F5803F07D0B0F5802FF9
:1026300003D1086840F4A02008607047086840F49F
:102640008030F9E700100240034A516821F4E0614C
:10265000014351607047000000100240034A516876
:1026600021F4605141EAC000506070470010024000
:10267000014908667047000000004242034B5A6857
:10268000084322F47C121043586070470010024047
:10269000034A516821F00301014351607047000073
:1026A000001002400149C1F8D800704700004242C2
:1026B00018B500204FF4A06400903120FFF780FF90
:1026C0000099491C0091A14201D00028F5D0312089
:1026D000FFF776FF002800D0012018BD2DE9F0415A
:1026E000214C072800D0207020781F4D0626052297
:1026F00004271E4906280BD2DFE800F0030C111650
:102700001E27686810B12270BDE8F08100F030F833
:102710002670F9E700F02CF82770012022E0022053
:10272000607003202070EFE76078401E6070607872
:102730000028E9D12770E7E7086880B240F0100070
:10274000086022700A206070DEE76078401E6070CA
:1027500060780028D8D1086880B220F010000860A6
:10276000267000206860CFE75C010020405C0040DC
:1027700010B5064C206880B220F004002060FEF7FF
:10278000C3FF4FF43F40206010BD0000405C00409C
:1027900030B5ADF5557DFA2203212148FFF72EFC17
:1027A000012813D01FA0FEF7DBFBFFF7DFFB00249F
:1027B0004FF48065284601F0F9FE641CE4B2D22C87
:1027C000F8D3FFF703FC0DF5557D30BD144A47A83B
:1027D00002F5FA7100F06AF80128F4D1FA201849DC
:1027E0000090032315A201F1FA00FFF789FA0128EE
:1027F000E9D10B4B1248FA3343AC03F5FA7208499E
:1028000084E80F0040F20B124AA96846FDF792FCDB
:1028100047A890E80E008DA800F05CF9D3E700000F
:10282000050C0020C7EBC8A1BFA82C33B7D6D6D360
:10283000BAF3D4D9B2E5BFA80000000025242400D3
:10284000F90D00207FB50E46044601210820FFF750
:1028500009FE2025ADF80C5048208DF80F0003200C
:102860008DF80E0003A91048FEF772FA0521012029
:10287000FEF75AFA00208DF804000C2000958DF820
:10288000050001258DF806506846FEF791F91720DE
:102890008DF808008DF809408DF80A608DF80B500E
:1028A00002A8FFF76DFA7FBD000C01402DE9F0434F
:1028B00095B00D460446164614216846FEF71BFFE8
:1028C0000221204600F019FFC821A01C00F015FFCE
:1028D000002231462046009B00F017FFDDE900236F
:1028E0003146A01C521C00F010FF4CA12046FDF701
:1028F0006AFC00287ED114216846FEF7FCFE04F134
:10290000CA000022A11C8146009B00F0FEFEDDE90A
:10291000002304F1CE00A11C8046521C00F0F5FEFD
:10292000DDE90123A11C04F1D700521C00F0EDFEEB
:10293000DDE9022304F1E600A11C0746521C00F069
:10294000E4FEDDE90323A11C04F1EF00521C00F0BA
:10295000DCFEDDE90423A11C04F1F800521C00F0A8
:10296000D4FEDDE9052304F1FB00A11C0646521C40
:1029700000F0CBFEDDE90623A11C04F20310521C7B
:1029800000F0C3FEDDE90723A11C04F20710521C6E
:1029900000F0BBFEDDE90823A11C04F58770521C82
:1029A00000F0B3FE1EA14846FDF70DFC002832D012
:1029B0001CA14846FDF707FCE0B1FA21284600F0CB
:1029C0009CFE19A12846FDF70CFC1B492846FDF783
:1029D000D5FB18A12846FDF7D1FB39462846FDF75F
:1029E000CDFB14A12846FDF7C9FB41462846FDF75B
:1029F000C5FB00E00FE00FA12846FDF7BFFB314605
:102A00002846FDF7BBFB0DA12846FDF7B7FB0120CB
:102A100015B0BDE8F0830020FAE7000031000000A7
:102A2000323838003239380053414E433535353766
:102A30005043494425000000750A00202524240045
:102A40000FB4FA2170B50646DDE94C5400F055FE8E
:102A500015A13046FDF7C5FB0DF126013046FDF707
:102A60008DFB15A13046FDF789FB0DF13101304694
:102A7000FDF784FB10A13046FDF780FB0DF142010C
:102A80003046FDF77BFB012C01D014B105E00BA112
:102A900000E00DA13046FDF771FB29463046FDF7F9
:102AA0006DFB70BC5DF814FB53414E433535353733
:102AB000526573756C7425002500000025537563FD
:102AC0006365737325242400254661696C252424DD
:102AD000000000000FB4F7A12DE9F043ADF50F7D24
:102AE0000446032002902046FDF76DFB010004F12F
:102AF0001200019004F11D00009039D0F0A1204691
:102B0000FDF761FB00287DD0F2A12046FDF75BFBBD
:102B1000002878D0F3A12046FDF755FB002873D09C
:102B2000F4A12046FDF74FFB0028F8D0F5A1204680
:102B3000FDF749FB002868D0F6A12046FDF743FBCE
:102B400000287DD0F8A12046FDF73DFB002878D075
:102B5000F9A12046FDF737FB002873D0F9A12046E4
:102B6000FDF731FB0DF50F7DBDE8F0035DF814FBBB
:102B70002B46621CDF99019800F0C7FD33466A1CA2
:102B8000DF99009800F0C1FD3B46721C04F12E0055
:102B9000DF9900F0BAFD04F16A0043467A1CDF9920
:102BA000009000F0B2FD08F1010204F174004B4600
:102BB0008046DF9900F0A9FD04F17E00534609F13B
:102BC00001020746DF9900F0A0FD04F188005B4692
:102BD0000AF101020546DF9900F097FD04F18D002E
:102BE00023460BF101020646DF9900F08EFD04F149
:102BF00092002346621C8146DF9900F086FDFA218F
:102C0000E09803E0D2E034E13BE142E100F075FD01
:102C10000DF24B31E098FDF7E4FACEA1E098FDF714
:102C2000ADFA4946E098FDF7A9FACAA1E098FDF788
:102C3000A5FAD5A9E098FDF7A1FAC6A1E09802E0AF
:102C4000AAE02EE100E2FDF799FA0DF25F31E0987B
:102C5000FDF794FABFA1E098FDF790FA2946E098B5
:102C6000FDF78CFABBA1E098FDF788FA3146E098B1
:102C7000FDF784FAB7A1E098FDF780FA0099E09893
:102C8000FDF77CFAB3A1E098FDF778FA4146E098A9
:102C9000FDF774FAAFA1E098FDF770FA3946E098B5
:102CA000FDF76CFAABA1E098FDF768FA0298009086
:102CB000FA230322E099DE98FFF710FB012807D0E2
:102CC000A5A0FEF74DF90A2001F070FCA2A06AE071
:102CD00087A18DA8FDF777FA8DAE40F20F1704F1AA
:102CE0000C0540F21B1820B39BA0FEF739F90A200F
:102CF00001F05CFC98A0FFF78BFA0020CDE944605E
:102D00003A4629466846FDF715FA4246214646A846
:102D1000FDF710FA0DF58C79DD9899E80E00FFF7B4
:102D20008FFEDD98FDF748FA0146DD98FEF79EFE1E
:102D300018E70120CDE944603A4629466846FDF788
:102D4000F9F94246214646A8FDF7F4F90DF58C7CC9
:102D5000DD989CE80E00FFF773FEFA200090032335
:102D600083A2DD99DF98FEF7CBFF0128E0D181A196
:102D7000DF98FDF728FA20B183A1DF98FDF70AFA62
:102D800020B100214846FEF78FF9EBE683A1DF98DA
:102D9000FDF719FA0028CBD185A0FEF7E1F80A204B
:102DA00001F004FC82A0FFF733FADBE62B46621C3D
:102DB000DF99019800F0A9FC33466A1CDF9900985E
:102DC00000F0A3FC04F19C003B46721CDF990090CC
:102DD00000F09BFC04F1AD0043467A1C0546DF99E8
:102DE00000F093FC08F1010204F1E9004B46804633
:102DF000DF9900F08AFC04F20710534609F1010242
:102E00000646DF9900F081FC04F211105B460AF1DE
:102E100001020746DF9900F078FC01242846DDF81E
:102E20000090FDF7C9F9122801D9204600E00020E2
:102E30000097CDE901403346424629464846FEF711
:102E40009FF961A0FFF7E4F940F2FF34204601F05A
:102E5000ADFB204601F0AAFB204601F0A7FB20466F
:102E600001F0A4FB204601F0A1FB204601F09EFBEF
:102E700078E660A0FEF774F80A2001F097FB5DA0E9
:102E800091E762A0FEF76CF80A2001F08FFB5FA0CB
:102E900089E763A0FEF764F80A2001F087FB60A0D1
:102EA00081E765A0FEF75CF80A2001F07FFB62A0D5
:102EB00079E70000534335353537555345525000B7
:102EC0005343353535375553455250636865636B09
:102ED0000000000053433535353755534552506592
:102EE0007272300053414E4335353537506572723A
:102EF0003100000053433535353755534552506541
:102F00007272320053414E43353535376572723334
:102F10000000000053433535353755534552506551
:102F20007272313200000000576562736572766913
:102F300063654572726F00005765624E6F416E7334
:102F40007765720053414E43353535375043494418
:102F5000000000007C000000B3E4D6B5CAA7B0DCD6
:102F6000A3ACC7EBD6D8D0C2CBA2BFA8000000004C
:102F7000252424007570646174656F7264657273D2
:102F8000746174654F4B320070646174656F726474
:102F9000657273746174654F4B32000075706461C3
:102FA00074656F7264657273746174654F4B310040
:102FB000BDBBD2D7B9D8B1D5A3ACC7EBD3AAD2B5D4
:102FC000CCFCB0ECC0ED0000CEA2D0C5BDC9B7D1DD
:102FD000BAF3C7EBBDABBFA8C8A1B3F6A3ACD6D8B4
:102FE000D0C2B2E5C8EBCDEAB3C9D0B4BFA8B2D95C
:102FF000D7F70000CEB4D6AAD3C3BBA7A3ACC7EB08
:10300000D3AAD2B5CCFCB0ECC0ED0000C7EBCEA289
:10301000D0C5D6A7B8B6BAF3D4D9CBA2BFA8000002
:10302000CEDED0A7BFA8A3ACC7EBD3AAD2B5CCFC49
:10303000B0ECC0ED00000000CDF8C2E7B7FECEF165
:10304000CEB4BFAAC6F4000003A0FDF789FF0A2092
:1030500001F0ACFA00A0A6E6CDF8C2E7CEDECFECD8
:10306000D3A6000007480068052809D1064908686A
:10307000401C0860062803D100200860FDF7AABCA8
:1030800070470000540100207800002070470000C5
:10309000024920F00700086070470000505C0040C3
:1030A000F0B50E490E4E48F68F770D78002148F2A4
:1030B000800C0BE0CAB206EB8203D3F8004C3C4014
:1030C000144344EA0C04C3F8004C491CA942F1D350
:1030D000044940F080000860F0BD00002C01002091
:1030E000005000404C5C0040054A21F0010112688C
:1030F00092B202EBC000034A02EB400081607047CD
:10310000505C0040006000400D4A12683E2992B2B7
:1031100002EBC0000B4A02EB400209D94809C9067C
:1031200001D1401E80B24FF4004141EA802004E00A
:103130004808C90700D0401C80021060704700009A
:10314000505C00400C60004082000A480244D2F803
:10315000000C4BF68F731840CB0401D580F48050DF
:10316000890401D580F4005048F280010843C2F878
:10317000000C704700500040810007480844D0F818
:10318000001C4BF68F72114081F4405148F28002CE
:103190001143C0F8001C704700500040054A21F060
:1031A0000101126892B202EBC000034A42F810100B
:1031B00070470000505C004000600040044A126804
:1031C00092B202EBC000034A02EB4000416070473C
:1031D000505C00400060004082000A480244D2F87F
:1031E000000C48F6BF731840CB0601D580F01000E4
:1031F000890601D580F0200048F280010843C2F81A
:10320000000C704700500040810007480844D0F887
:10321000001C48F6BF72114081F0300148F2800274
:103220001143C0F8001C7047005000408200054860
:103230001044D0F8002C48F68F131A400A43C0F807
:10324000002C7047005000400CB500222648009228
:103250000192016841F4803101604FF4A06301687C
:1032600001F4003101910099491C0091019911B9B3
:1032700000999942F3D10168890333D50121019165
:103280001A490A6842F010020A600A6822F0030232
:103290000A600A6842F002020A60416841604168BF
:1032A0004160416841F480614160416821F47C11D2
:1032B0004160416841F4E8114160016841F080716A
:1032C000016001688901FCD5416821F0030141607A
:1032D000416841F0020141604168C1F38101022966
:1032E000FAD10CBD01920CBD00100240002002403A
:1032F00010B50020FFF7D6F90121BDE81040C80540
:10330000FFF798B870B516480068174D0004C10B58
:1033100014480144098989B200EB41042868017A04
:1033200009290FD02178017061784170A088FDF7DC
:10333000D2F8296848802089FDF7CDF8296888806F
:10334000A089C880286801210172C08828B1FDF7D2
:1033500071FABDE87040FFF735B8FEF74DFDF8E7AC
:10336000505C004000600040400000202DE9F0412A
:1033700038480068017811F07F0102D0022905D099
:1033800066E0417A01F0DF0141724EE04188002998
:103390005ED10179F1BB4179304D21F080040A06FC
:1033A00005EB84022C4BD2F8002C03D5C2F301129A
:1033B000120102E0C2F3013212031E782346A64234
:1033C00046D93AB3807A28B308064FEA84000ED56E
:1033D0002844D0F8000CC0F30110012821D1184670
:1033E000FDF758F920463021FFF7F6FE19E046199F
:1033F000D6F8000CC0F30130012812D14BF68F77BC
:1034000048F28008A4B11846FDF730F9D6F8000C50
:10341000384000E01CE080F4405040EA0800C6F864
:10342000000C0F480068406980470020BDE8F0812B
:103430000C4890F82C100020FFF766FED5F8000C21
:10344000384080F4405040EA0800C5F8000CE8E736
:103450000220EBE7400000202C010020005000403B
:1034600048000020DC00002010B5074C30B10748B0
:1034700000680068804720680A3010BD216801207C
:103480000882002010BD00004000002048000020FD
:10349000054A13685A8A10B1086810447047888832
:1034A000801A1882002070474000002010B5074C99
:1034B00030B1074800688068804720680C3010BD34
:1034C000216801200882002010BD0000400000207B
:1034D00048000020204910B5096860B11F4800224B
:1034E00002800A7853060AD002F07F02012A16D021
:1034F000022A16D001E002200882002010BD497A7D
:103500008A06027802D542F0020201E002F0FD02D2
:1035100049060270D1B211D401F0FE0110E00F484B
:1035200010BD49790A070B060D4901EB9261D1F8EC
:10353000001C07D5C1F3011106E0017841F001013B
:10354000017003E0C1F301310129F6D0054800689C
:1035500000698047E3E70000400000203A000020B7
:1035600000500040480000200A4810B500680A4A90
:10357000C1785278914203D882780AB982880AB118
:10358000022010BD81720548006840688047002015
:1035900010BD0000400000202C0100204800002049
:1035A000064810B50068417A41F020014172044894
:1035B0000068C0698047002010BD00004000002066
:1035C0004800002070B51D481D4D0268517921F05A
:1035D000800005EB80000B06D0F8003C21F0800451
:1035E00003D5C3F301131B0102E0C3F301331B0333
:1035F000144D2D78A54210D9548874B96BB1927AC4
:103600005AB10906D0F8001C48F2800207D548F6E6
:10361000BF73194081F0100106E0022070BD4BF627
:103620008F73194081F480511143C0F8001C064883
:10363000006880698047002070BD000040000020C5
:10364000005000402C0100204800002010B50E4C16
:103650000E4A20681268C1789269407990472168C3
:103660008A7A22B118B9087908B9887808B1022095
:1036700010BD07480068C068804720684179C17262
:10368000C1780173002010BD4000002044000020DC
:103690004800002070B5054608784E78202819D0DB
:1036A000202E20D0202827D0FCF73EFD3038C4B291
:1036B000092C01D9E41FE4B23046FCF735FD30385F
:1036C000C0B2092801D9C01FC0B204EB840100EBCD
:1036D000410010E0202E01D0304606E000200AE034
:1036E000C01FC0B207E0202806D0FCF71DFD30380F
:1036F000C0B20928F4D8287070BD0022134601E03A
:103700008354521C8A42FBD3704730B59C1A002365
:1037100003E09D184D5DC5545B1CA342F9D3002105
:10372000C15430BD78B41C4B0020009019681B4A6E
:103730008CB21B4902EB8005D5F8005CADB241F8B4
:103740002050401C0828F5D344F48060186040F0F5
:103750000100186020F001041C600F48001D05687E
:103760006D05FCD54FF6FF350560002051F820505F
:1037700002EB8006ADB2C6F8005C401C0828F5D309
:1037800044F008001860186880B240F00400186027
:1037900078BCFDF745BA0000405C00400050004096
:1037A000501600204FF0E0210428086903D020F0D3
:1037B00004000861704740F00400FAE77047000019
:1037C0000F4810B5016841F00101016041680D4AE0
:1037D0001140416001680C4A11400160016821F408
:1037E00080210160416821F4FE0141604FF41F0116
:1037F0008160FFF729FD05494FF00060086010BDAA
:10380000001002400000FFF8FFFFF6FE08ED00E0A8
:1038100010B5104C0021204600F025F8012120466B
:1038200000F02BF818B10121204600F019F80A49E0
:103830000A68521C0A600868B0F5167F04D300209D
:1038400008600649012008602046BDE810400121BB
:1038500000F009B800040040280000202C000020DF
:10386000C943018270470029018802D041F001015B
:1038700001E021F001010180704702460020138A17
:1038800092890B4202EA010202D0002A00D00120F4
:10389000704700002DE9FF41884604461E46174642
:1038A00001210220FEF7C6FD144D01212846FFF735
:1038B000D7FF0020ADF80440ADF80080ADF8060059
:1038C000ADF802006946284600F022F8012128469A
:1038D000FFF7C9FF01221146284600F011F81D200C
:1038E0008DF80C008DF80D708DF80E6001208DF8AC
:1038F0000F0003A8FEF744FABDE8FF810004004072
:10390000002A828901D00A4300E08A4382817047FD
:1039100030B502881B4C1C4DA0420DD0A8420BD0E4
:10392000B0F1804F08D0194B984205D0184B9842FF
:1039300002D0184B984203D122F070034A881A43F0
:10394000154B984206D0154B984203D022F4407391
:10395000CA881A4302808A8882850A880285A04222
:103960000AD0A84208D00E4A904205D00D4A904293
:1039700002D00D4A904201D1097A0186012181824B
:1039800030BD0000002C0140003401400004004024
:1039900000080040000C00400010004000140040EF
:1039A00000400140004401400048014070B5144C03
:1039B0000821204600F0B4F818B10821204600F094
:1039C00059F840F2255500222946204600F022F9F8
:1039D000208801070B4801D000880AE02188890669
:1039E00007D503880848026808491144521C026040
:1039F0000B7029462046BDE87040012200F00AB94C
:103A0000003801400438014008000020BB050020B8
:103A100070B5144C0821204600F082F818B1082136
:103A2000204600F027F840F225550022294620467E
:103A300000F0F0F8208801070B4801D000880AE068
:103A40002188890607D50388084802680849114477
:103A5000521C02600B7029462046BDE870400122CE
:103A600000F0D8B8004400400444004004000020A6
:103A700078010020C943018070470029818902D064
:103A800041F4005101E021F40051818170470000B0
:103A900004490020A1F80204A1F8000402490880AA
:103AA000012070470C10002054000020174910B569
:103AB00088420AD101218C032046FEF7DFFC204614
:103AC000BDE810400021FEF7D9BC1149884202D15F
:103AD00001214C0410E00F49884202D101218C04DD
:103AE0000AE00D49884202D10121CC0404E00B49CF
:103AF00088420AD101210C052046FEF7A7FC20468A
:103B0000BDE810400021FEF7A1BC10BD0038014007
:103B10000044004000480040004C0040005000407D
:103B20000246002012880A4200D00120704700009F
:103B300070B5044686B001210820FEF793FC0121F0
:103B40008804FEF777FC194D2846FFF7AFFF2815CC
:103B5000ADF8100003208DF812001820144E8DF8D7
:103B6000130004A93046FDF7F3F8E814ADF810008F
:103B700004208DF8130004A93046FDF7E9F8002071
:103B8000ADF80400ADF80600ADF80800ADF80C0083
:103B90000C20ADF80A0000946946284600F052F85F
:103BA00001212846FFF769FF06B070BD00480040BC
:103BB000000C01402DE9F0410E46054600240A4F55
:103BC0000DE0002D0DD02946384600F0CFF98021B8
:103BD0003846FFF7A5FF0028F9D0641CE4B2B442D0
:103BE000EFD3BDE8F08100000048004070B5044606
:103BF000074D09E0284600F0B9F980212846FFF773
:103C00008FFF0028F9D0641C21780029F2D170BD03
:103C10000048004010B5C1F3421301F01F04012118
:103C2000A140012B07D0022B07D01430002A0268D4
:103C300005D00A4304E00C30F8E71030F6E78A4379
:103C4000026010BD30B50446008A85B00D464CF6C2
:103C5000FF710840E98801432182A0894EF6F311E3
:103C60000840A9882A8911436A8902431143A18126
:103C7000A08A4FF6FF410840A9890143A182684606
:103C8000FEF754FC1948844201D1039800E00298E1
:103C9000A189090400EBC00101EB0010296801D5DE
:103CA000490000E08900B0FBF1F06422B0FBF2F1C2
:103CB00009010B096FF018056B4300EB8300A38922
:103CC0001D044FF0320306D503EBC000B0FBF2F049
:103CD00000F0070005E003EB0010B0FBF2F000F08D
:103CE0000F000843208105B030BD000000380140BE
:103CF000F0B50C46064687B01546012144F2050092
:103D0000FEF7B0FB4FF40070ADF8100018208DF8EE
:103D1000130003201D4F8DF8120004A93846FDF74B
:103D200017F83815ADF8100004208DF8130004A919
:103D30003846FDF70DF80020ADF80400ADF8060098
:103D4000ADF80800ADF80C000C20ADF80A000096A4
:103D500025208DF814008DF815408DF8165001209F
:103D60008DF8170005A8FEF70BF8094C69462046A8
:103D7000FFF768FF012240F225512046FFF74AFF76
:103D800001212046FFF779FE07B0F0BD0008014091
:103D9000003801402DE9F74F00251C4E91464FF0A9
:103DA00031082F461A48FCF707FA01461848FFF772
:103DB000A4FC37600098FCF7FFF90146009800F07A
:103DC00029F81FFA89F000F0F1FB002440F2AD3B26
:103DD00040F2551A306870B1584600F0E7FB0C48C5
:103DE0000199FCF7D7F928B1C82000F0DFFB0120CA
:103DF000BDE8FE8F3760504600F0D8FB641C142CE1
:103E0000E8DB6D1C4545CDDB0020F1E70800002014
:103E1000BB0500202DE9F0410C4F0E460546402120
:103E20003846FFF727FE00240BE015F8011B384643
:103E300000F09CF840213846FFF772FE0028F9D0C8
:103E4000641CB442F1D3BDE8F081000000380140A9
:103E50002DE9F0410E46804686B01546012104202A
:103E6000FEF700FB01214804FEF7E4FA0424ADF854
:103E7000104018208DF8130003201E4F8DF81200FB
:103E800004A93846FCF764FF0820ADF810008DF84F
:103E9000134004A93846FCF75BFF0020ADF804008E
:103EA000ADF80600ADF80800ADF80C000C20124C7F
:103EB000ADF80A00CDF8008069462046FFF7C2FE43
:103EC00001212046FFF7D9FD012240F2255120466D
:103ED000FFF7A0FE26208DF814008DF815608DF8F0
:103EE000165001208DF8170005A8FDF749FF06B010
:103EF000BDE8F081000801400044004070B505466F
:103F00000C460948FCF758F901460748FFF7F5FB4E
:103F10000649002008602146284600F009F8BDE85F
:103F20007040142000F042BB780100200400002003
:103F30002DE9F0410C4F0E46054640213846FFF76B
:103F400099FD00240BE015F8011B384600F00EF82F
:103F500040213846FFF7E4FD0028F9D0641CB44244
:103F6000F1D3BDE8F081000000440040C1F3080136
:103F7000818070474FF48020FCF704BE70B5054681
:103F80000C46002000F00EF94FF42F7000F00EFBED
:103F9000012000F007F9FFF7ABF92146284600F0B1
:103FA00019F8BDE8704000F001B8704706490548AF
:103FB000022208600272064A0448C1E90102006850
:103FC00000470000F00F002040000020DC0000202F
:103FD00030010020FEB504464FF480250E462846E9
:103FE000FCF7D0FD082001958DF8090001258DF81A
:103FF0000A5001A8FCF7DCFD14208DF800008DF8B4
:1040000001408DF802608DF803506846FDF7B8FE58
:104010002A208DF8000000208DF801006846FDF789
:10402000AFFEFEBD2DE9F0414B4D88B0002428685D
:104030004A4E708070884A4F39880840800507D5FD
:104040004FF6FF5028603078401C3070FFF70AF8B8
:10405000708839880840000401D5FCF741FA70885F
:1040600039884FF6FF380840400504D5C5F8008070
:104070003C4840688047718838880140890402D5EF
:104080004DF6FF71296071880140C80405D54EF6D0
:10409000FF7028600020FEF721FB708839880840F7
:1040A00000050BD53048007810B1FFF73BFB02E06C
:1040B0000220FEF713FB4FF2FF70286070883988EA
:1040C0000840C00545D54FF6FF6028602248001D16
:1040D00000684FF00003000437D57068401C706022
:1040E0007068032832D91C48001F016809072DD4C5
:1040F000016889B2B1601D496A4601EB8407D7F8AF
:10410000007CBFB242F82470641C082CF5D3B4685C
:1041100044F00104B460B468A4B20460B46824F04C
:104120000104B460B468A4B2046028684005FCD5FA
:10413000C5F80080002052F8204001EB8005A4B2B1
:10414000C5F8004C401C0828F5D373600720FEF723
:10415000C5FA08B0BDE8F081445C00407C00002056
:104160004C000020DC0000205801002000500040DE
:10417000FFF758BF10B504460848FCF71DF8014684
:104180000648FFF7BAFA064900200880204600F0EA
:1041900091F8BDE81040142000F008BA1014002077
:1041A0005400002010B5044601210420FEF75AF9FE
:1041B0000C49086824B14FF6FD721040086010BD2C
:1041C00080B240F0020008600748016821F47F21B6
:1041D0000160016841F44C31016004490020C1F8DC
:1041E000B00110BD405C00400408014000002142C5
:1041F00005490020086005494FF43F400880024906
:10420000091F086000207047445C00404C000020FB
:1042100070B500F07F060D463046FCF72FFE0446D1
:104220003046FCF71BFE014622462846FEF7B8F84A
:10423000204670BDF0B500231E46124D1BE02A88B3
:10424000C45C170415D4570404D50A2C10D142F4C9
:10425000004215E00D2C11D0C2F30D07DFF828C085
:10426000521C92B20CF807402A80B2F5007F00D3AE
:104270002E805B1CDBB28B42E1D3F0BD42F4804266
:104280002A80F6E754000020101400200849B1F8F5
:1042900000248854B1F80004401CA1F80004B1F8CF
:1042A0000004B0F5806F02D10020A1F8000470472F
:1042B0000C10002070B50446FBF77EFF85B200238A
:1042C00004E0E05CFFF7E2FF5B1C9BB2AB42F8D37B
:1042D00070BDFEE7084B10B5521C520803EB4101BC
:1042E00009D010F8013B521E10F8014B43EA042399
:1042F00021F8043BF5D110BD00600040104A10B514
:1043000000211268212802D0202807D016E010785A
:1043100000F07F00212811D10A4908E0107800F050
:104320007F00212800D10849084B2020187029B1AE
:104330000020916150828847002010BD022010BDEE
:104340004000002069430008DD440008C000002050
:104350000149FFF79DB80000D40000200149FFF794
:1043600097B80000CC00002008B104487047044909
:10437000082009680882002070470000C40000205F
:104380004000002005490968C978042901D90020A6
:104390007047034A02EBC101FFF77AB840000020E2
:1043A0000C01002009B9012801D902207047002022
:1043B0007047000007490968097801F07F01212949
:1043C00003D1022803D0222801D002207047002008
:1043D0007047000040000020334810B50068334AA1
:1043E00000218172D2794272C1720846FEF750FEF6
:1043F0004FF400710020FEF719FF10210020FEF796
:10440000EBFE40210020FEF76FFE80210020FEF72A
:10441000C5FE0020FCF752F9254890F82C1000202A
:10442000FEF772FE0020FEF7A7FE00210120FEF736
:10443000FDFEC0210120FEF7B1FE20210120FEF784
:10444000CBFE00210120FEF77FFE4FF4C061022069
:10445000FEF7ECFE4FF480710220FEF79FFE002174
:104460000220FEF771FE20210220FEF7B5FE00219A
:104470000320FEF7DBFE4FF488710320FEF734FEC5
:1044800040210320FEF740FE4FF440510320FEF789
:104490005BFE00210320FEF79FFE0020FEF700FEDA
:1044A00004490120086010BD400000208646000835
:1044B000DC000020540100200348807A002802D04C
:1044C0000249052008607047F00F002054010020C9
:1044D00001490420086070475401002008B10448D5
:1044E00070470449082009680882002070470000CE
:1044F000C40000204000002010B5044C2078202883
:1045000003D1FFF7C5FA0020207010BDC0000020C5
:104510007047000010B5FCF7E7FC05480024006870
:104520008472FDF771FFFFF763FE0248046010BD5F
:1045300040000020540100200449086810F00100E8
:10454000086001D00020086070470000082C00407F
:1045500002E008C8121F08C1002AFAD1704770474C
:10456000002001E001C1121F002AFBD170470000AA
:1045700010B56FF00400FFF715F909480949006804
:10458000B0FBF1F00849C0B200EB40020870C2EB8A
:10459000C0104FF6FF7202EAC000488010BD000054
:1045A0000C00002000127A00000000200B4949880E
:1045B00048434FF0E021486100238B61086940F0D7
:1045C000010008610869C20701D0C003FAD5086973
:1045D00020F0010008618B6170470000000000209E
:1045E0000B49097848434FF0E021486100238B6173
:1045F000086940F0010008610869C20701D0C003E2
:10460000FAD5086920F0010008618B61704700004D
:1046100000000020FBF7FCFE114CDFF84890124E22
:10462000124FDFF84C8000252068012807D10021B7
:104630004846FFF718F935602560FCF741FE3868F9
:10464000012809D100214846FFF70DF935603D608A
:10465000FCF736FEFEF79CF8D8F80000E4E700000F
:10466000300000200004004028000020340000201A
:104670002C00002012010002020000408304405779
:1046800000020102030109024300020100C03209D5
:1046900004000001020201000524001001052401AC
:1046A0000001042402020524060001070582030814
:1046B00000FF09040100020A000000070503024090
:1046C000000007058102400000040309042603538B
:1046D0000054004D006900630072006F0065006CBB
:1046E0000065006300740072006F006E0069006373
:1046F0000073003203530054004D00330032002099
:10470000005600690072007400750061006C0020A2
:104710000043004F004D00200050006F00720074F5
:104720000020002000000000313931325732303093
:1047300078782538393836303431313130313835C0
:10474000303037383634322556332E312556312E17
:1047500039253132312E3139362E3138312E313042
:1047600033253033333036257868327871576645D3
:10477000596A6F647253504B39306A5525000000F6
:10478000A04700080000002078010000180200087F
:104790003C48000878010020F81800006045000837
:1047A000D184A24A04100A01020304060708090A78
:1047B00003380101141A03531254124D123302210B
:1047C0003213D5090C1C08751D040B104D0A145129
:1047D0002AC2A312081374463308121A86083243F9
:1047E0001315451408D9431408F9441B08110C1378
:1047F000FD421B08B5101AA5041A5D041A51041ACB
:1048000085044132401AC93832041ACD0832261ABA
:10481000F30829BA225C33201A1A046729741AB9DA
:10482000500916A41AD11C412992814C0204061485
:0C4830002C020304040500060708090020
:04000005080000ED02
:00000001FF
