:020000040800F2
:10000000201D002005010008CD2200081518000859
:10001000C9220008310500089D50000800000000BA
:10002000000000000000000000000000AD390008E2
:10003000A50C000800000000012A000899430008F0
:10004000595300081F0100081F0100081F01000884
:100050001F0100081F0100081F010008590D0008BA
:100060001F0100081F0100081F0100081F010008F0
:100070001F0100081F0100081F0100081F010008E0
:100080001F0100081F0100081F0100081F010008D0
:10009000E94E00081F0100081F010008E50D0008D7
:1000A0001F0100081F0100081F0100081F010008B0
:1000B0001F010008FD4300081F0100081F01000880
:1000C0001F0100081F0100081F0100081F01000890
:1000D0001F010008DD4500084D4600081F0100080B
:1000E0001F0100081F010008494C0008DFF810D06C
:1000F00000F080F8004800476D540008AFF300801E
:10010000201D00200648804706480047FEE7FEE71E
:10011000FEE7FEE7FEE7FEE7FEE7FEE7FEE7FEE7B7
:100120009D430008ED000008A0F16101192900D8E5
:100130002038704740EA01039B0703D009E008C953
:10014000121F08C0042AFAD203E011F8013B00F89C
:10015000013B521EF9D27047D2B201E000F8012BE8
:10016000491EFBD270470022F6E710B513460A4637
:1001700004461946FFF7F0FF204610BD421E12F854
:10018000013F002BFBD111F8013B02F8013B002B92
:10019000F9D1704730B505462A460B4612F8010BD7
:1001A00013F8014B08B1A042F8D01CB1002802D0CE
:1001B0006D1CF1E7284630BD421C10F8011B0029D8
:1001C000FBD1801A704710B5002200E0521C835CFE
:1001D0008C5CA34201D1002BF8D1D8B2E1B2401A15
:1001E00010BD034611F8012B00F8012B002AF9D1AC
:1001F00018467047064C074D06E0E06840F00103E2
:1002000094E8070098471034AC42F6D3FFF772FF2A
:10021000BC560008DC56000870B58C1810F8015B5D
:1002200015F0070301D110F8013B2A1106D110F88F
:10023000012B03E010F8016B01F8016B5B1EF9D193
:100240002B0705D40023521E0DD401F8013BFAE719
:1002500010F8013BCB1A921C03E013F8015B01F884
:10026000015B521EF9D5A142D8D3002070BD000019
:1002700010B596B0502102A8FFF775FF3548006809
:1002800001906421344804F00EF8022201A9622092
:1002900000F06EF831A101A8FFF77CFFD0B930491A
:1002A0002D48FFF79EFF2C48FFF786FF84B22246B9
:1002B0002949052000F09BF828A101A8FFF791FF2C
:1002C000022201A9622000F092F80021254802F0E4
:1002D000A3FD04E063222049052000F049F8142022
:1002E00002AB25221C4900901E48523800F0DEFF68
:1002F000DDE90203421C18491A48433803F0DCFFC9
:10030000DDE90303421C144916482A3803F0D4FFE0
:10031000DDE90403421C10491248253803F0CCFFE4
:10032000DDE90503421C0C490E486A3803F0C4FF9E
:10033000DDE90603421C08490A48583803F0BCFFAF
:10034000DDE90703421C04490648203803F0B4FFE6
:1003500016B010BDB05500080E0B0020485100002B
:1003600064560008090B002010B501F071FA10BDA9
:1003700070B506460C46154608E03046721C96B22B
:1003800000F007F804F8010B681E85B2002DF4D1C7
:1003900070BD70B50446002601F012FB2546E1173A
:1003A00004EB11610912A02202EB4101C8B201F075
:1003B000D7FA01F03DFBE11704EB11610912A4EB40
:1003C0000121C8B201F0CCFA01F032FB01F0F8FAD9
:1003D000A12001F0C5FA01F02BFB002001F072FA18
:1003E000064601F053FA01F007FB304670BD70B5C8
:1003F00005460C4616460BE001E0012070BD217851
:10040000284600F00CF80028F7D1681C85B2641C5F
:10041000301EA6F101018EB2EED100BFEEE770B53D
:1004200004460E4601F0CCFA2546E11704EB1161B3
:100430000912A02202EB4101C8B201F091FA01E0D9
:10044000012070BD01F0F4FA0028F9D12546E1172A
:1004500004EB11610912A4EB0121C8B201F080FA8A
:1004600001E00120EDE701F0E3FA0028F9D1304680
:1004700001F076FA01F0DCFA01F0BEFA0A2004F08D
:10048000A9FF0020DDE7000010B502F03FFB01F0FE
:100490001FFF04F07DFFFFF767FF02F045F84FF400
:1004A000165001F02BF9002211464FF4E13001F013
:1004B000C3FC012200214FF4165002F067F802211C
:1004C000002001F06FF90221002002F003FE02F08B
:1004D00051F802F01DF802F069F8FFF7C9FE0DA10E
:1004E000104801F063FB0F48273000F02BFD02F0AD
:1004F000EBF80023012241F61F4142F20F7003F096
:10050000D9FF084800F048FF002007490860074964
:10051000086010BDCDF8C2E7C1ACBDD3D6D02E2E39
:100520002E000000900A0020440000204800002017
:1005300000BFFEE70146CAB20B1243EA0220704731
:1005400008B50020009022E19748008800F00F00D5
:10055000964908700846007800287CD194480068C5
:10056000944908800846008800F0300092490880CD
:100570009048008800F440508E4908808C490968F2
:100580004BF6BF7201EA020080F4005080F02000B8
:1005900040F4004141F08001854A116082480088A2
:1005A00000F0100090BB1046006848F60F7108403C
:1005B0001146086001F066FA7D4909684BF6BF7282
:1005C00001EA02007B49098801F4805109B180F4F5
:1005D00080507849098801F4005109B180F4005035
:1005E0007549098801F0100109B180F010007249C5
:1005F000098801F0200109B180F0200081B241F4A6
:10060000004141F080016A4A116008BDFFE7684877
:10061000006880B20090BDF8000000F40060B0B344
:1006200063480068C0F30E0048F68F7108406049C7
:10063000086003F047FB5E4909684BF6BF7201EAA8
:1006400002005C49098801F4805109B180F48050AE
:100650005849098800E056E001F4005109B180F4DE
:1006600000505549098801F0100109B180F01000CF
:100670005149098801F0200109B180F0200081B2C0
:1006800041F4004141F08001494A1160BDE7FFE7B4
:10069000BDF8000000F40040002878D0444800680D
:1006A000C0F30E0048F68F7108404149086001F020
:1006B000F3FE3F4909684BF6BF7201EA02003D496B
:1006C000098801F4805109B180F4805039490988C2
:1006D00001F4005109B180F400503749098801F054
:1006E000100109B180F010003349098801F02001A0
:1006F00009B180F0200081B241F4004141F0800155
:100700002B4A116081E7294800782C4901EB8000D1
:10071000D0F8000C80B20090BDF8000000F400405A
:10072000C0B12248007801EB8000D0F8000CC0F383
:100730000E0048F68F7108401C4909781F4A02EBE9
:100740008101C1F8000C19490978491E1C4A52F868
:1007500021008047BDF8000000F08000B8B11348C8
:100760000078164901EB8000D0F8000C48F60F71B4
:1007700008400E490978114A02EB8101C1F8000CCA
:100780000A490978491E0F4A52F821008047084853
:100790004430006880B20449088000F4004000281A
:1007A0007FF4D2AE00BF30E7900000205000002060
:1007B000005C004064000020660000200050004003
:1007C000B80000209C0000202DE9F04105460E46AF
:1007D00017464FF00008002408E0305DB84204D10D
:1007E000404608F1010845F82040641C3046FFF7F8
:1007F000E3FCA042F1D8002045F82800BDE8F081D4
:100800000B4A02EB8001D1F8001C01F4804171B168
:1008100002EB8001D1F8001C48F68F7211404CF2B7
:1008200080021143024B03EB8002C2F8001C7047A8
:10083000005000400B4A02EB8001D1F8001C01F08F
:10084000400171B102EB8001D1F8001C48F68F72B3
:10085000114048F2C0021143024B03EB8002C2F880
:10086000001C704700500040084A02EB8001D1F89C
:10087000001C48F68F62114048F280021143034B7E
:1008800003EB8002C2F8001C7047000000500040DB
:100890002DE9F0472848006800F110052E88264809
:1008A0000068077AD6B9042F18D1244800780128A7
:1008B0000FD100212248006880B2801C214A42F8F2
:1008C000101030202049088000BF00201B4908700C
:1008D00003E0072710201C49088027E0AC88A642C7
:1008E00001D8042000E002200746B44200D9344673
:1008F000A0B2A96888478046002000F0C7FC814666
:10090000A2B24946404604F0CBFBA1B2002003F05E
:1009100001F92888001B28806888204468803020DE
:100920000949088000020949088000BF0249096896
:100930000F72BDE8F0870000540000204E00002038
:10094000505C004000600040660000206400002011
:100950002DE9F0412848006800F110042688A068BD
:10096000C0B1BEB1A588B54200D93546A8B2A168CC
:10097000884707462088401B208060882844608084
:10098000002000F061FC8046AAB24146384602F0E1
:1009900023F800BF208850B14FF440501749088019
:1009A0000021084603F0B6F8302015490880208859
:1009B000A188884204DB03200F490968087218E007
:1009C0002088002804DD05200B490968087210E022
:1009D000208870B906200849096808720021094872
:1009E000006880B2801C084A42F810103020044988
:1009F0000880BDE8F0810000540000206400002061
:100A000066000020505C0040006000402DE9F84F77
:100A10009B48006845780027BA46062D1BD19848A8
:100A20000068007800F07F00002813D1944909681D
:100A30008878012803D193490968CF690AE0022820
:100A400003D1904909680F6A04E0032802D18D4957
:100A500009684F6A94E0002D64D189480068408895
:100A600000285FD186480068C08802285AD184488F
:100A700000680079002855D181480068007800F0AE
:100A80007F0028B97E480068808808B97E4F77E0EB
:100A90007B480068007800F07F00012810D1784979
:100AA00009684879774909688A69002190470028D0
:100AB00066D173480068807A002861D0724F5FE089
:100AC0006F480068007800F07F00022858D16C4819
:100AD0000068407900F00F0669480068407900F02E
:100AE000700967480068407900F0800038B16749B4
:100AF00001EB8600D0F8000C00F0300806E06349F6
:100B000001EB8600D0F8000C00F4405860480078F3
:100B1000B04235D9B9F1000F32D1B8F1000F2FD062
:100B2000594F2DE0082D07D155480068007800F096
:100B30007F0028BB574F23E00A2D21D15048006881
:100B4000007800F07F0001281AD14D480068807AB3
:100B5000B0B14B480068408890B9494800680079B6
:100B600070B947480068C088012809D1444909681C
:100B70004879444909688A690021904700B9464F7D
:100B800057B13F480068A0F812A03D48006887614F
:100B90000020B84700240FE0394A12685078394ADB
:100BA0001268116988470446032C05D1092034498D
:100BB00009680872BDE8F88F31480068008A4FF66E
:100BC000FF71884204D109202D4909680872F1E7B4
:100BD000022C03D02A480068008A20B9082028493E
:100BE00009680872E6E726480068007800F080008F
:100BF000E0B323480068C088009021480068008A5C
:100C00000099884204D91E4900980968088223E0A7
:100C10001B480068008A1A490968C98888421BDA9B
:100C200017480068008A1749096891F82C10884213
:100C300003DA0020194908700EE011480068008AA4
:100C40001049096891F82C1090FBF1F201FB120099
:100C500010B90120114908700A48006890F82C105A
:100C6000074800688182FFF713FE07E0FFE70320D3
:100C700003490968087200030949088000BF99E721
:100C80005400002058000020653F0008005000403C
:100C9000E0000020E93E0008393F00084E00002037
:100CA000640000207047000070B52248B0F80204CC
:100CB0002049B1F80014884200D170BD1D48B0F839
:100CC00002041C49B1F80014884208DA1948B0F847
:100CD00000041849B1F80214401A84B205E015481E
:100CE000B0F80204C0F5806084B2402C00DD4024DE
:100CF0001048B0F80254B0F8020420440D49A1F89D
:100D000002040846B0F80204B0F5806F02DB002050
:100D1000A1F80204074948192246C02104F0C0F98D
:100D20002146012002F0F6FE012002F021FF00BF63
:100D3000C3E70000B810002010B50649032004F0F6
:100D40002BF984B2E1B2034804F03EF9032002F02B
:100D5000B7FE10BDBC18002010B5022000F08EF8C0
:100D6000012822D1642004F035FB022000F086F82F
:100D700001281AD1022000F07BF802210B4800F074
:100D800055FA90B90A480078012803D109A000F06B
:100D9000E1FA0AE00C480078012803D10BA000F02A
:100DA000D9FA02E001200E49086010BD0008014098
:100DB00026000020CDF8C2E7C1ACBDD3D6D0A3AC8D
:100DC000C7EBC9D4BAF300002C000020B5E7C4D4A7
:100DD000C1ACBDD3D6D0A3ACC7EBC9D4BAF3000025
:100DE0004400002010B5202000F048F8012822D14E
:100DF000642004F0EFFA202000F040F801281AD116
:100E0000202000F035F820210B4800F00FFA90B9AF
:100E10000A480078012803D109A000F09BFA0AE0F3
:100E20000C480078012803D10BA000F093FA02E0EF
:100E300001200E49086010BD000C01402600002072
:100E4000CDF8C2E7C1ACBDD3D6D0A3ACC7EBC9D4F3
:100E5000BAF300002C000020B5E7C4D4C1ACBDD368
:100E6000D6D0A3ACC7EBC9D4BAF300004800002029
:100E70000149086070470000140401400146002049
:100E80000022074B1B6803EA0102054B14331B6861
:100E90000B4013B10AB1012000E0002070470000B0
:100EA00000040140002123498279002A3AD00A46F1
:100EB000126803689A430B461A600A1D1268036899
:100EC0009A430B1D1A60027911440A6803681A4399
:100ED0000A60184A0832126803689A43154B0833AF
:100EE0001A601A1D126803689A43124B0C331A6079
:100EF0004279102A0ED11A1F126803681A430D4B4B
:100F000008331A601A1D126803681A43094B0C3320
:100F10001A600DE00749427911440A6803681A43D0
:100F20000A6005E0027911440A6803689A430A607E
:100F30007047000000040140032001490860704729
:100F4000680100202DE9F041054632212F4803F0C9
:100F5000AAF932212E4803F0A6F92EA12B48FFF75B
:100F600040F92FA12948FFF709F929462748FFF73B
:100F700005F92EA12548FFF701F924492448FFF778
:100F800030F901202A49087000260027002029494D
:100F900008702BE0642004F01DFA1D48FFF70CF9DF
:100FA000804641461A4800F0A9FF701CC6B20024D2
:100FB00015E02148006860B140F2551004F00AFACB
:100FC0001EA11F48FFF7E6F818B1642004F002FAEA
:100FD00007E04FF4167004F0FDF9601CC4B2142C45
:100FE000E7DB00BF142C01DA012701E0032ED1DB7F
:100FF00000BF012F05D100F08DF900200C490870C9
:1010000002E063200B490870BDE8F081800C0020ED
:101010004E0C00205453656E64686561727425003F
:101020004669727374486561727400002524240057
:1010300026000020250000200C0000204B000000AE
:10104000CB05002030B500228B071C0F0F2303FABD
:1010500004F20B4B8C1053F824309343084C8D1042
:1010600044F8253023468C1053F824308C07240F85
:1010700000FA04F42343024C8D1044F8253030BDAF
:10108000080001402DE9F04102460025002600201D
:1010900000230024002791F803C00CF00F0591F8FD
:1010A00003C00CF0100CBCF1000F03D091F802C08B
:1010B0004CEA050591F800C0BCF1000F31D014686E
:1010C00000202BE04FF0010C0CFA00F3B1F800C047
:1010D0000CEA03069E4220D183004FF00F0C0CFA5D
:1010E00003F7BC4305FA03FC4CEA040491F803C07F
:1010F000BCF1280F06D14FF0010C0CFA00FCC2F82D
:1011000014C00AE091F803C0BCF1480F05D14FF0BC
:10111000010C0CFA00FCC2F810C0401C0828D1D306
:101120001460B1F800C0BCF1FF0F34DD546800203A
:101130002EE000F1080C4FF0010808FA0CF3B1F8AA
:1011400000C00CEA03069E4221D183004FF00F0C31
:101150000CFA03F7BC4305FA03FC4CEA040491F8CB
:1011600003C0BCF1280F05D100F1080C08FA0CF8F7
:10117000C2F8148091F803C0BCF1480F07D100F108
:10118000080C4FF0010808FA0CF8C2F81080401C57
:101190000828CED35460BDE8F0810000F0B50A46BF
:1011A000002300240021002500F00046B6F1004F86
:1011B00002D11D4EF16901E01B4E7168C0F3034579
:1011C00083B200F44016B6F5401F08D121F07061DB
:1011D000154E766826F07066134F7E6012E000F4BC
:1011E0008016B6F5801F06D1032606FA05F4A14342
:1011F00041F0706106E0460D360103FA06F6B14390
:1012000041F0706122B1460D360103FA06F6314312
:1012100000F00046B6F1004F02D1034EF16101E04B
:10122000014E7160F0BD0000000001400246002048
:1012300093680B400BB1012000E000207047416132
:10124000704701617047000001460548006880B2A0
:1012500000EBC100001D034A32F8100080B2704755
:10126000505C00400060004001460648006880B2C3
:1012700000EBC100801D044A32F81000C0F30900E1
:1012800070470000505C0040006000400146054887
:10129000006880B200EBC100034A32F8100080B24F
:1012A00070470000505C0040006000402DE9F041B4
:1012B00005460E4617461C46DDF818804146204676
:1012C00000F037FC3A4631462046FFF77DFA00220F
:1012D00031462846236802F0EFFFBDE8F0810000A8
:1012E00070B50A480468001D0568001D066834448E
:1012F00054B108220649204600F0FCFB04220449B0
:101300001031284600F0F6FB70BD0000E8F7FF1F23
:101310007200002010B505A000F0E6F9054800783D
:1013200000F0E4F804A000F0DFF910BD706167651B
:10133000203200002400002074302E7478743D2286
:10134000CDF8C2E7C1ACBDD3B3C9B9A6A3A1A3A1CF
:101350002200000010B58EB00446342101A8FEF72B
:1013600002FF07A000F0C0F90748007800F0BEF8BF
:101370000123224605A101A800F0CEF90EB010BD50
:1013800070616765203200002400002074302E74E4
:1013900078743D220000000010B58EB0044621A0F4
:1013A00000F0A2F92148007800F0A0F8012320A263
:1013B00022A101A800F0B0F9012304F1590222A1F1
:1013C00001A800F0A9F90023224628A101A800F0F5
:1013D000A3F90023E21C27A101A800F09DF9002336
:1013E000A21D26A101A800F097F9322101A802F060
:1013F0005AFF24A101A8FEF7F4FE04F1090101A897
:10140000FEF7BCFE21A101A8FEF7B8FE01A800F07E
:101410006BF9002304F10C021DA101A800F07CF976
:101420000EB010BD706167652031000024000020FF
:10143000D6D0B9FAD2C6B6AF0000000074302E7410
:1014400078743D22000000007172302E7478743D73
:1014500022687474703A2F2F77656978696E2E71DF
:10146000712E636F6D2F722F000000006E342E7688
:10147000616C3D006E332E76616C3D006E322E76CF
:10148000616C3D006E312E76616C3D002B380000A2
:101490006E302E76616C3D0030B58DB004460D4641
:1014A0003221684602F0FFFE07A000F01DF908484F
:1014B000007800F01BF82B46224606A1684600F093
:1014C0004BF90DB030BD000070616765203200003F
:1014D0002400002074302E7478743D22C4FAD2D1D6
:1014E000B3C9B9A6B3E4D6B52000000010B50446D0
:1014F000002C05DD052C03DC13A000F0F5F822E03C
:10150000052C05DD0B2C03DC12A000F0EDF81AE031
:101510000B2C05DD112C03DC11A000F0E5F812E026
:10152000112C05DD172C03DC10A000F0DDF80AE01B
:10153000172C05DD1F2C03DC0FA000F0D5F802E00E
:1015400010A000F0D1F810BD70312E7069633D31EC
:101550003000000070312E7069633D3131000000B1
:1015600070312E7069633D313200000070312E7091
:1015700069633D313300000070312E7069633D3185
:101580003400000070312E7069633D3900000000A6
:101590000FB400B58DB034216846FEF7E4FD29A0F4
:1015A00000F0A2F829480078FFF7A0FF012328A146
:1015B00068460E9A00F0B0F81498012810D127A0C0
:1015C00000F092F828A000F08FF83221684602F06F
:1015D0006AFE012327A168460F9A00F09DF80FE0EC
:1015E00027A000F081F829A000F07EF8322168469B
:1015F00002F059FE012328A168460F9A00F08CF8EA
:101600003221684602F04FFE012326A16846109A57
:1016100000F082F83221684602F045FE24A16846B7
:10162000139B119A00F098F83221684602F03BFEB5
:10163000012322A16846129A00F08EF80DB05DF8E1
:1016400014FB000070616765203500002400002055
:1016500074342E7478743D22000000007669732083
:1016600067312C31000000007669732074352C300E
:101670000000000067312E7478743D2200000000E5
:101680007669732067312C30000000007669732082
:1016900074352C310000000074352E7478743D22AE
:1016A0000000000074302E7478743D2200000000A9
:1016B00074362E7478743D220000000074392E7444
:1016C00078743D220000000010B504A000F00CF872
:1016D00004480078FFF70AFF10BD000070616765DD
:1016E000203300002400002010B50446204603F0FB
:1016F000C3F80321FF2003F0A3F810BD10B5044682
:10170000204603F05BF802A0FFF7EEFF10BD0000DB
:1017100070616765203000002DE9F04106460F46F4
:1017200014461D463221304602F0BDFD3946304692
:10173000FEF757FD21463046FEF720FD012D03D16F
:1017400004A13046FEF71AFD3046FFF7CDFFBDE895
:10175000F0810000202200002DE9F04106460F46EE
:1017600014461D4639463046FEF73BFD21463046BD
:10177000FEF704FD25B907A13046FEF7FFFC03E0A4
:1017800006A13046FEF7FAFC3046FFF7ADFFBDE894
:10179000F081000020D4AA220000000020B6D6224A
:1017A000000000007FB505460C460121042001F031
:1017B0008DF90220ADF8000048208DF803000320C9
:1017C0008DF8020069461248FFF75CFC01210020F9
:1017D000FFF738FC0220019000208DF808000C2053
:1017E0008DF8090001208DF80A0001A8FFF75AFBC7
:1017F00007208DF80C00E8B28DF80D00E0B28DF8EE
:101800000E0001208DF80F0003A800F067FD7FBDDA
:101810000008014000BFFEE710B504210B48FFF7A8
:101820000EFD00F08BF801210848FFF708FD0220AB
:1018300003F0F6FD04210548FFF703FD052003F042
:10184000EFFD04210148FFF7FAFC10BD000C014038
:1018500008B50121082001F039F90520ADF8000094
:1018600003208DF8020010208DF803006946064819
:10187000FFF708FC04210448FFF7E3FC01210248BC
:10188000FFF7DFFC08BD0000000C014010B504218B
:101890000B48FFF7D4FC00F051F801210848FFF78E
:1018A000D0FC022003F0BCFD04210548FFF7C9FC71
:1018B000052003F0B5FD04210148FFF7C0FC10BD71
:1018C000000C014070B505460026002400F028F801
:1018D00000BF18E004211148FFF7B1FC022003F01B
:1018E0009FFD04210D48FFF7ACFC6006040E0121AA
:1018F0000A48FFF79BFC08B1601CC4B2012003F04A
:101900008FFD701CC6B2082EE4DB15B9FFF7BEFFD1
:1019100001E0FFF781FF204670BD0000000C014090
:1019200008B50120ADF8000048208DF80300694695
:101930000148FFF7A7FB08BD000C014008B50120D6
:10194000ADF8000003208DF8020010208DF8030090
:1019500069460248FFF796FB08BD0000000C0140F5
:1019600070B504460025FFF7E9FF04211348FFF78F
:1019700066FC00BF1EE004F08000002804DD0121A9
:101980000E48FFF75EFC03E001210C48FFF757FC0F
:101990006006040E04210948FFF753FC022003F0FF
:1019A0003FFD04210548FFF74AFC022003F038FD03
:1019B000681CC5B2082DDEDB70BD0000000C0140C4
:1019C00010B5FFF7BBFF01210A48FFF73AFC0421DD
:1019D0000848FFF736FC052003F022FD01210548E9
:1019E000FFF72DFC062003F01BFD04210148FFF743
:1019F00026FC10BD000C014010B5FFF79FFF04212D
:101A00000A48FFF71CFC01210848FFF718FC0421D5
:101A10000648FFF716FC062003F002FD01210348EB
:101A2000FFF70FFC062003F0FBFC10BD000C01408B
:101A300010B50024FFF774FF01211148FFF701FCE6
:101A4000012003F0EDFC04210D48FFF7FAFB012013
:101A500003F0E6FC07E0601CC4B2FA2C03DDFFF7DC
:101A6000CBFF012010BD01210548FFF7DFFB002857
:101A7000F1D104210248FFF7E2FB0020F2E7000069
:101A8000000C014010B518480068047A022C01D0FF
:101A9000042C05D1FEF7FCFE13480068047A1CE014
:101AA000062C19D110480068407805280ED10E4840
:101AB0000068007800F07F0040B90B490968C878D9
:101AC00001F07EFF09490968086A804708490968EA
:101AD00088688047082400E00824034909680C72DC
:101AE00000F090FF10BD00005400002060000020B6
:101AF0005800002030B50B46002100BF16E00A2434
:101B0000B4EB107F05D9302404EB107403F81140B6
:101B100005E0412404EB10740A3C03F81140000175
:101B200000254C00641C1D554C1CE1B29142E6DBC3
:101B300030BD0246002003E0002342F82030401C64
:101B40008842F9D3704700000548817A19B1052110
:101B5000044A116002E00121024A1160704700004E
:101B60009C1000206801002008B50121052000F02C
:101B7000ADFF01210B48FFF711FB4FF40040ADF81A
:101B8000000010208DF8030003208DF80200694644
:101B90000548FFF777FA4FF400410348FFF74FFB82
:101BA00008BD000000023000000801402DE9F041AE
:101BB00004460D4601260027002063490870284688
:101BC000FFF7C8FBBAE000F043F9074640F2AD303A
:101BD00003F000FC002F73D040F24A325BA15CA0FE
:101BE00002F046FF00B9A9E040F2AD3003F0F2FB8D
:101BF00040F24A3258A15AA002F03AFF00B99DE0E3
:101C000040F2AD3003F0E6FB40F24A3257A15AA051
:101C100002F02EFF00B991E040F2AD3003F0DAFBA4
:101C200040F25E3249A157A002F022FF00B985E0E0
:101C300040F2AD3003F0CEFB40F2AD3243A158A0EC
:101C400002F016FF00B979E040F2AD3003F0C2FBBC
:101C500040F25E323DA156A002F00AFF00B96DE0ED
:101C600040F2AD3003F0B6FB40F25E3237A154A033
:101C700002F0FEFE00B961E040F2AD3003F0AAFBD5
:101C800040F25E3231A152A002F0F2FE00B955E0FE
:101C900040F2AD3003F09EFB40F25E322BA150A02B
:101CA00002F0E6FE00B949E040F2AD3003F092FBED
:101CB00040F25E3225A14EA002F0DAFE08B93DE006
:101CC0003BE040F2AD3003F085FB40F25E321FA1F5
:101CD0004BA002F0CDFE00B930E040F2AD3003F091
:101CE00079FB4BA14F48FEF77CFA04F10F014D48F8
:101CF000FEF744FA4CA14B48FEF740FA04F12101EB
:101D00004848FEF73BFA18A14648FEF737FA40F27A
:101D1000AD3246A1434802F0ABFE00B90EE004F13B
:101D2000730000F005F943480078632800D105E00E
:101D3000002640F2AD3003F04DFB00BF002E7FF4D3
:101D400042AFBDE8F0810000240000204F4B0000AE
:101D500041540D0A00000000524541445900000062
:101D600041542B4350494E3F0D0A00002B4347522C
:101D700045473A20302C310041542B4347524547C8
:101D80003F0D0A0041542B434744434F4E543D31CD
:101D90002C224950222C22434D4E4554220D0A003C
:101DA00041542B43474143543D312C310D0A00002F
:101DB00041542B434D4D55583D300D0A0000000055
:101DC00041542B434D484541443D310D0A0000002C
:101DD00041542B434D53484F5752413D310D0A005A
:101DE00041542B434D53484F574C413D310D0A0050
:101DF00041542B434D53484F5750543D310D0A0029
:101E000041542B434D4D4F44453D310D0A000000D8
:101E100041542B495053544152543D225443502273
:101E20002C2200000E0A0020222C0000434F4E4EB0
:101E3000454354002500002070B504460D46164663
:101E4000FFF792FE32462946204602F0BDFD70BDE6
:101E500070B50025012023490870C1032248FFF70F
:101E6000EEF9002405E040F2551003F0B3FA601CCF
:101E7000C4B2052CF7DB4FF400411B48FFF7E1F932
:101E8000002405E040F2551003F0A4FA601CC4B22F
:101E9000052CF7DB002420E000250DE01348006846
:101EA00020B140F2551003F095FA07E040F25510CA
:101EB00003F090FA681CC5B21E2DEFDB00BF1E2D8B
:101EC00009DA0BA10C48FEF765F908B1012070BDD5
:101ED000002006490860601CC4B2122CDCDB002024
:101EE000F5E7000026000020000801400C0000205B
:101EF00043545A5600000000CB05002070B504463C
:101F00000D460948FEF758F906463146064802F0E4
:101F1000CAF90020054908602946204602F0ECFD78
:101F2000142003F057FA70BDCB0500200C000020F0
:101F30002DE9F0410546002700203249087012E0E3
:101F4000781CC7B2032130A002F0D6FD40F2E73082
:101F500003F040FA4FF47A722CA12DA002F088FD14
:101F6000012800D101E0032FEADB00BF032F03DBD0
:101F700063202449087042E03221284802F093F996
:101F800027480168254800F017F9002401E0601C8B
:101F9000C4B22248005D3A28F9D1601CC4B201E005
:101FA000601CC4B21D48005D2028F9D10026601CC9
:101FB000C4B206E01948005DA855601CC4B2701C8C
:101FC000C6B21648005D2C28F4D1002028551548CB
:101FD00000F032F8012802D163200A4908704FF45A
:101FE0007A7211A111A002F043FD012804D1294603
:101FF000104802F00DF902E0632002490870BDE8C4
:10200000F0810000250000202B2B2B0043535100B2
:1020100041542B4353510D0A000000005E0A00207A
:102020000C000020900A00204F4B000041544F0D3F
:102030000A000000240000202DE9F0410646002798
:102040000020564908700AE0781CC7B24FF47A7233
:1020500053A154A002F00CFD012800D101E0032F90
:10206000F2DB00BF032F02DB0120BDE8F08132214B
:102070004F4802F018F94F4801684D4800F09CF8AD
:10208000002401E0601CC4B24948005D2228F9D157
:102090000025601CC4B20BE04548005D2F2800D12C
:1020A0000BE04348005D7055681CC5B2601CC4B2AB
:1020B0003F48FEF781F8A042EED800BF00207055DF
:1020C0000025601CC4B20CE03948005D2F2800D107
:1020D0000CE03748015DF01C4155681CC5B2601C1E
:1020E000C4B23348FEF768F8A042EDD800BF002123
:1020F000F01C41550025601CC4B20CE02C48005D6A
:102100002C2800D10CE02A48015DB01D4155681C07
:10211000C5B2601CC4B22648FEF74EF8A042EDD806
:1021200000BF0021B01D41550025601CC4B20DE068
:102130001F48005D3A2800D10DE01D48015D06F101
:1021400009004155681CC5B2601CC4B21848FEF7AE
:1021500033F8A042ECD800BF002106F10900415538
:102160000025601CC4B20DE01148005D3A2800D182
:102170000DE00F48015D06F10C004155681CC5B229
:10218000601CC4B20A48FEF717F8A042ECD800BFA2
:10219000002106F10C004155002066E725000020D3
:1021A0004F4B000041542B43434C4B3F0D0A000062
:1021B0005E0A00200C0000202DE9F04105460E4685
:1021C000002403E00A48005D2855641CB442F9D39A
:1021D000002028550648FDF7EFFF0746394604481A
:1021E00002F061F8002003490860BDE8F0810000BA
:1021F000CB0500200C0000202DE9F84F81460D464C
:1022000016461F46DDF828A04FF00008C34628E018
:102210002846FDF7D1FF014600902846FFF76EFEE5
:1022200008F1010000F0FF08002412E01E480068D9
:1022300048B140F2551003F0CDF831461B48FDF788
:10224000A9FF00B107E04FF4FA7003F0C3F8601C77
:10225000C4B20A2CEADB00BF0A2C02DA4FF0010BF1
:1022600001E0B845D4DB00BFBBF1010F0BD15146F3
:10227000484602F018F80C4801684846FFF79CFFF2
:102280000120BDE8F88F0AA000F010FA0BA0FFF7BC
:1022900061F80A2003F09EF808A000F09FFA64207D
:1022A00003F098F80020ECE70C000020CB0500209C
:1022B000436172644F66662524240000CDF8C2E7AE
:1022C000CEDECFECD3A6000000BFFEE7704770471C
:1022D00010B54FF4A06000F039F810BD70B50021C2
:1022E00000230F22C47804B3154C246804F4E0647E
:1022F000C4F5E064210AC1F10403CA40447804FA39
:1023000003F184781440214309010E4C0678A1554D
:10231000047804F01F050124AC4005786D11AD0070
:1023200005F1E025C5F8004109E0047804F01F0537
:102330000124AC40044D0678761145F8264070BD66
:102340000CED00E000E400E080E100E00249014320
:10235000024A1160704700000000FA050CED00E031
:1023600070B50226474800684478464800680078FF
:1023700000F07F00002844D1092C03D101F072FE47
:1023800006465FE0052C14D13E480068C0787F28DF
:102390000BDC3C480068807838B93A48006880888F
:1023A00018B938480068807A08B1082565E0002629
:1023B00048E0032C0ED133480068C078012807D1CB
:1023C00030480068808818B901F070FE064639E090
:1023D000022637E0012C35D12A480068C078012850
:1023E0000DD128480068808848B926480068407A9E
:1023F00000F0200018B101F0C1FC064622E00226E0
:1024000020E020480068007800F07F00012805D116
:102410000B2C17D101F0C6FE064613E019480068E0
:10242000007800F07F0002280BD1012C03D101F0CD
:10243000A5FC064606E0032C04D101F04BFE06463F
:1024400000E002264EB1E0B20F4A12685169884797
:102450000646032E01D109250FE00EB108250CE038
:10246000062500210948006880B2801C084A42F80D
:10247000101030200749088000BF024909680D721A
:1024800070BD00005400002058000020505C004047
:10249000006000406600002010B511480068047A12
:1024A000022C01D0042C01D1082412E0032C01D00D
:1024B000052C05D1FEF74CFA09480068047A08E0BB
:1024C000072C05D107490968C8688047082400E03F
:1024D0000824034909680C7200F094FA10BD00004A
:1024E000540000205800002008B50121082000F009
:1024F000EDFA1020ADF800008DF8030002208DF8F1
:10250000020069460148FEF7BDFD08BD000C014010
:1025100010B510210348FEF792FE642002F05AFF26
:1025200010BD0000000C014010B5FFF7DDFF10BD2D
:1025300010B510210348FEF784FE642002F04AFF24
:1025400010BD0000000C014008B50121042000F07E
:10255000BDFA8020ADF8000010208DF803000220A5
:102560008DF8020069460248FEF78CFD08BD0000A8
:102570000008014010B580210348FEF760FE4FF4CB
:102580007A7002F027FF10BD0008014070B50646C2
:102590000C461546FFF7D8FF2A462146304602F082
:1025A000C7FA2946204602F055FB70BD10B58021C0
:1025B0000348FEF746FE4FF47A7002F00BFF10BDA1
:1025C0000008014010B502A000F070F810BD000036
:1025D0005265616443617264252424002DE9F04151
:1025E00007460C4616460025A84614E0681CC5B2EE
:1025F000FFF7E8FF3146384600F018F88046B8F19A
:10260000010F00D109E04FF4617002F0E3FE4FF4D6
:10261000617002F0DFFEA542E8DB00BFA54202DAEE
:102620000120BDE8F0810020FBE7000070B5054601
:102630000E463146284601F036FE002422E04FF4D3
:10264000167002F0C7FE1448006818B913480088D5
:10265000002815DD12A11348FDF79CFD28B10E4896
:102660000168284600F012F90EE00DA10E48FDF7B2
:1026700091FD28B109480188284600F0E7F803E0F9
:10268000601CC4B20A2CDADB00BF0A2C01DA01207C
:1026900070BD0020FCE7000004000020680000205E
:1026A0002524240088010020BC16002070B50446B3
:1026B000204602F01DFC2046FDF77EFD054629461A
:1026C000204602F089FA70BD70B501202B490870D0
:1026D00000202B490870002500262AA0FEF73AFEAC
:1026E00040F2AD3002F076FE2FE0642002F072FE80
:1026F0002AA0FFF7DBFF681CC5B200241EE02A48B1
:10270000006818B929480088002811DD40F25510EA
:1027100002F060FE26A12748FDF73CFD20B924A168
:102720002548FDF737FD18B1642002F053FE07E09D
:102730004FF4167002F04EFE601CC4B2142CDEDBA7
:1027400000BF142C01DA012601E0032DCDDB00BF10
:10275000012E08D10020094908700949087017A006
:10276000FEF7F8FD08E001200449087017A0FEF705
:10277000F1FD01200249087070BD00002C0000200E
:102780002D000020CEA2B5E7C4D4C1ACBDD3D6D0B5
:10279000A3ACC7EBC9D4B5C8A1AD000048656C6C4B
:1027A0006F252424000000000400002068000020A1
:1027B000546F6F0088010020BC160020B5E7C4D418
:1027C000C1ACBDD3B3C9B9A600000000B5E7C4D4FD
:1027D000D6D8C6F4D6D0A1AD000000002DE9F04156
:1027E00004461548FDF7E8FC07463946124801F053
:1027F0005AFDFFF79DFE2046FDF7DEFC06460FA1C1
:102800000D48FDF7EEFC21460B48FDF7B7FC0EA185
:102810000948FDF7B3FC0848FFF748FF002504E02E
:102820004FF4967002F0D6FD6D1CB542F8DBFFF751
:102830006FFEBDE8F0810000720B002053746172DE
:102840007450616D25000000252424002DE9F0411D
:1028500005460E46002403E00A48005D2855641C26
:10286000B442F9D3002028550648FDF7A5FC0746D9
:102870003946044801F017FD002003490880BDE8EF
:10288000F0810000BC160020680000202DE9F04116
:1028900005460E46002403E00A48005D2855641CE6
:1028A000B442F9D3002028550648FDF785FC0746B9
:1028B0003946044801F0F7FC002003490860BDE8F0
:1028C000F081000088010020040000202DE9F0477D
:1028D00080460E4614461F46DDF820900025AA4685
:1028E00016E04946304600F01DF8681CC5B239466E
:1028F0004046FFF79BFE8246BAF1010F00D109E086
:102900004FF4617002F066FD4FF4617002F062FDF9
:10291000A542E6DB00BFA54202DA0120BDE8F08750
:102920000020FBE770B504460D461848FDF744FC4F
:1029300006463146154801F0B6FC35B1012D09D0E7
:10294000022D0CD0032D14D10EE011A10F48FDF77C
:1029500048FC0EE012A10D48FDF743FC09E014A16C
:102960000A48FDF73EFC04E015A10848FDF739FCD4
:1029700000BF00BF21460548FDF700FC15A1034834
:10298000FDF7FCFB0148FFF791FE70BD720B0020C4
:1029900057726974653434343243617264250000BF
:1029A00057726974653434323843617264250000AB
:1029B000577269746565353743617264250000009C
:1029C00057726974655343353535374361726425F1
:1029D0000000000025242400F0B5561C7510074E99
:1029E00006EB41042B4605E034F8047B20F8017B1C
:1029F000401C5B1E002BF7D1F0BD000000600040C2
:102A00007047000010B50D4890F82C10002001F020
:102A100011F80B480068007A082805D140020949DE
:102A2000088010200849088005480068007A0928B5
:102A300001D1012010BD0020FCE70000E4000020CF
:102A400054000020640000206600002010B5012022
:102A500002F016F901240B48046000200A4908809E
:102A600008460088074908600020091D08604FF4E7
:102A7000E0500549088008460088024908600020A7
:102A800010BD0000405C00405E00002029B1064AF5
:102A9000D2690243044BDA6104E0034AD2698243FB
:102AA000014BDA61704700000010024029B1064A6C
:102AB00012690243044B1A6104E0034A126982431B
:102AC000014B1A61704700000010024029B1064A0C
:102AD00092690243044B9A6104E0034A926982437B
:102AE000014B9A61704700000010024029B1064A6C
:102AF000D2680243044BDA6004E0034AD26882439E
:102B0000014BDA60704700000010024010B500F081
:102B10002BF801F043FC4FF4803000F0E7F800F0B0
:102B200049F90446012C1ED1002000F0D3F8A00280
:102B300000F002F9002000F00BF94FF4E01120043E
:102B400000F018F9012000F00FF900BF392000F063
:102B50009BF80028FAD0022000F01AF900BF00F01C
:102B6000B1F80828FBD110BD0F48006840F0010003
:102B70000D490860084640680C4908400A49486009
:102B8000084600680A490840074908600846006886
:102B900020F4802008600846406820F4FE00486069
:102BA0004FF41F0088607047001002400000FFF8DB
:102BB000FFFFF6FE30B500210022002400232D4D3A
:102BC0006D6805F00C0121B1042905D0082923D135
:102BD00005E0294D056022E0274D05601FE0254DE9
:102BE0006D6805F47012234D6D6805F4803402257C
:102BF00005EB92421CB9214D554305600BE01D4D7C
:102C00006D6805F400351DB11C4D5543056002E0AB
:102C1000194D5543056002E0174D056000BF00BF28
:102C2000144D6D6805F0F0010909154D6B5C0568E0
:102C3000DD4045600F4D6D6805F4E061090A104DF7
:102C40006B5C4568DD4085600A4D6D6805F4605138
:102C5000C90A0B4D6B5C4568DD40C560054D6D686C
:102C600005F44041890B074D6B5CC568B5FBF3F576
:102C7000056130BD0010024000127A0000093D00DD
:102C8000740100208401002010B5014600220023B9
:102C900000204A11012A02D1094C236806E0022AC9
:102CA00002D1074C236A01E0054C636A01F01F0260
:102CB000012494401C400CB1012000E0002010BD14
:102CC000001002400248406800F00C00704700000D
:102CD0000010024001460020034A506820F0F00036
:102CE0000843506070470000001002401149096815
:102CF00021F480310F4A11601146096821F48021C6
:102D00001160B0F5803F03D0B0F5802F0ED106E002
:102D10000849096841F48031064A116007E0054915
:102D2000096841F4A021034A116000E000BF00BF20
:102D3000704700000010024001460020034A50681E
:102D400020F4E0600843506070470000001002402B
:102D500001460020034A506820F4605040EAC10058
:102D6000506070470010024001490866704700003B
:102D70000000424202460020044B586820F47C10B8
:102D800042EA01031843014B5860704700100240AB
:102D900001460020034A506820F0030008435060B9
:102DA00070470000001002400149086070470000B1
:102DB000D800424238B5002000900024002500BF12
:102DC0003120FFF761FF05460098401C00900098F5
:102DD000B0F5A06F01D0002DF2D03120FFF754FFE5
:102DE00008B1012400E00024204638BD70B5044637
:102DF00000252646052221466420FDF7B9FA06E0A3
:102E000005EB85004500307830380544761C307875
:102E10000028F5D1284670BD70B504460D464FF424
:102E20007A7095FBF0F0303020704FF47A7095FB9B
:102E3000F0F100FB1150642190FBF1F03030607034
:102E4000642095FBF0F100FB11500A2190FBF1F09A
:102E50003030A0700A2095FBF0F100FB11503030AB
:102E6000E07000202071052221466420FDF7BFFAA2
:102E700070BD000030B58DB004460D463221684665
:102E800001F011FA0DA16846FDF7ABF9214668463D
:102E9000FDF774F925B90DA16846FDF76FF903E058
:102EA0000BA16846FDF76AF96846FFF797FC4FF4F7
:102EB0007A7002F08FFA0DB030BD0000C4FAD2D1A2
:102EC000B3C9B9A6B3E4D6B500000000D4AA000087
:102ED000B6D6000070B50546072D01D02E48057006
:102EE0002D48007808284ED2DFE800F004111A209F
:102EF0002B384E4F2948006828B900F053F80620B7
:102F00002549087002E005202349087041E000F0DF
:102F100049F804202049087001202049086038E061
:102F200002201D4948700320087032E01A4840789A
:102F3000401E194948700846407808B904200870B6
:102F400027E01748006884B244F010041448046075
:102F50000520114908700A2048701AE00E48407890
:102F6000401E0D4948700846407858B90C48006822
:102F700084B224F010040A4804600620087000207F
:102F80000649086005E000BF00BF0620024908703E
:102F900000BF00BF70BD00006D0100207001002067
:102FA000405C004010B50748006884B224F0040477
:102FB00004480460FEF7C8FD4FF43F400149086033
:102FC00010BD0000405C004070B5ADF5547D00259B
:102FD0000024002600202A4908702A490870FA2295
:102FE00003212948FFF7FAFA0546012D3BD1264A6D
:102FF00026498EA800F0A6F80446012C22D1FA201A
:10300000032323A2214900902248FFF7F5F8064642
:10301000012E13D120481F491B4A1C4B4393449255
:103020004591469040F20B1291A96846FDF782F84F
:1030300047A88EA90EC900F0A7F91DE06320114929
:10304000087019E034B915A0FEF784F913A0FFF752
:10305000C5FB11E0022C0FD115A0FEF77BF914A0DF
:10306000FFF7BCFB08E015A0FEF774F913A0FFF70B
:10307000B5FB8620024908700DF5547D70BD000037
:103080002D00002025000020B20C0020A60E0020FC
:1030900025242400A00F0020AC0D0020CEB4D6AA19
:1030A000BFA82CC7EBD5FDC8B7B2E5BFA8A3A10048
:1030B000C7EBCFC8CBA2B1ED00000000C7EBC8A1A1
:1030C000BFA82C33B7D6D6D3BAF3D4D9B2E5BFA8AC
:1030D000000000007FB505460C4601210820FFF7DF
:1030E000F5FC2020ADF8000048208DF803000320F7
:1030F0008DF8020069461248FDF7C4FF0521012042
:10310000FDF7A0FF2020019000208DF808000C2082
:103110008DF8090001208DF80A0001A8FDF7C2FE14
:1031200017208DF80C00E8B28DF80D00E0B28DF894
:103130000E0001208DF80F0003A8FFF7CFF87FBD28
:10314000000C014070B594B004460D46164614219B
:103150006846FEF7EEFC0221204601F0A4F8C821E3
:10316000A01C01F0A0F8252231466846FDF72CFB93
:10317000002231462046009B01F09EF852A12046D5
:10318000FDF721F800287CD1DDE90003421C31461F
:10319000A01C01F091F814216846FEF7CAFC7C22BD
:1031A000A11C6846FDF710FB0022A11C04F1CA0017
:1031B000009B01F081F8DDE90003421CA11C04F131
:1031C000CE0001F079F8DDE90103421CA11C04F1F5
:1031D000D70001F071F8DDE90203421CA11C04F1E3
:1031E000E60001F069F8DDE90303421CA11C04F1CB
:1031F000EF0001F061F8DDE90403421CA11C04F1B9
:10320000F80001F059F8DDE90503421CA11C04F1A6
:10321000FB0001F051F8DDE90603421CA11C04F299
:10322000031001F049F8DDE90703421CA11C04F278
:10323000071001F041F8DDE90803421CA11C04F568
:10324000877001F039F821A104F1CA00FCF7BBFF37
:1032500028B11FA104F1CA00FCF7B5FF10B9022084
:1032600014B070BDFA21284601F01DF819A12846B6
:10327000FCF7B7FF1B492846FCF780FF18A128463A
:1032800000E01EE0FCF77AFF04F1E6012846FCF7B7
:1032900075FF13A12846FCF771FF04F1CE01284603
:1032A000FCF76CFF0EA12846FCF768FF04F1FB0158
:1032B0002846FCF763FF0CA12846FCF75FFF0120BE
:1032C000CEE70020CCE700003100000032383800A3
:1032D0003239380053414E43353535375043494430
:1032E00025000000B70A0020252424000FB470B583
:1032F00005464C9E4D9CFA21284600F0D4FF17A1AC
:103300002846FCF76EFF0DF126012846FCF736FF34
:1033100016A12846FCF732FF0DF131012846FCF7D3
:103320002DFF12A12846FCF729FF0DF14201284686
:10333000FCF724FF012C04D10DA12846FCF71EFF49
:1033400004E01CB90DA12846FCF718FF31462846B9
:10335000FCF714FF70BC5DF814FB000053414E43B2
:1033600035353537526573756C74250025000000BE
:1033700025537563636573732524240025466169AD
:103380006C252424000000000FB42DE9F04FADF5AA
:10339000297D0446F9AD95E8E0014FF003094FF0AF
:1033A000000A4FF0000B142095AB252239460090FF
:1033B0002046FDF77BFFF9A12046FCF704FF00281B
:1033C0007ED19598421C394604F11200969B00F07C
:1033D00073FF9698421C394604F11D00979B00F03C
:1033E0006BFF9798421C394604F12E00989B00F021
:1033F00063FF9898421C394604F16A00999B00F0DB
:103400005BFF9998421C394604F174009A9B00F0C6
:1034100053FF9A98421C394604F17E009B9B00F0B2
:103420004BFF9B98421C394604F188009C9B00F09E
:1034300043FF9C98421C394604F18D009D9B00F08F
:103440003BFF9D98421C394604F192009E9B00F080
:1034500033FFFA21404600F026FF0DF2BB31404613
:10346000FCF7BFFED0A14046FCF788FE04F19201B4
:103470004046FCF783FECCA14046FCF77FFEF1A955
:103480004046FCF77BFEC8A14046FCF777FE0DF2F4
:10349000CF314046FCF772FEC3A14046FCF76EFEFA
:1034A00004F188014046FCF769FEBFA14046FCF7E5
:1034B00065FE04F18D014046FCF760FEBAA100E014
:1034C000ABE04046FCF75AFE04F16A014046FCF7C7
:1034D00055FEB5A14046FCF751FE04F1740140468B
:1034E000FCF74CFEB0A14046FCF748FE04F17E011B
:1034F0004046FCF743FEACA14046FCF73FFEFA23F2
:10350000032241463046CDF80090FFF7DFF98246AE
:10351000BAF1010F7AD1142095AB252231460090E3
:1035200094A8FDF7C3FEA1A194A8FCF74CFE0028C7
:1035300043D1012094A940F20F124491459004F127
:103540000C016846FCF7F6FD40F21B12214646A826
:10355000FCF7F0FD284646A90EC9FFF7C7FEFA2082
:10356000032393A2294600903846FEF745FE834682
:10357000BBF1010F13D18FA13846FCF724FE20B117
:1035800091A13846FCF706FE50B1002104F19200EB
:10359000FDF782FF002104F19200FFF76BFCCAE106
:1035A0008EA13846FCF70FFE0028F8D190A0FDF759
:1035B000D1FE8FA0FFF712F9BDE193A0FDF7CAFE7F
:1035C0000A2001F007FF90A0FFF708F9002094A956
:1035D00040F20F124491459004F10C016846FCF74B
:1035E000A9FD40F21B12214646A8FCF7A3FD284680
:1035F00046A90EC9FFF77AFE2846FCF7DDFD014615
:103600008C902846FEF77AFC95E1FFE77EA0FDF757
:10361000A1FE7DA0FFF7E2F88DE181A12046FCF735
:10362000D2FD002876D19598421C394604F112004B
:10363000969B00F041FE9698421C394604F11D000D
:10364000979B00F039FE9798421C394604F19C0084
:10365000989B00F031FE9898421C394604F1AD0069
:10366000999B00F029FE9998421C394604F1E90023
:103670009A9B00F021FE9A98421C394604F20710EA
:103680009B9B00F019FE9B98421C394604F21110D6
:103690009C9B00F011FE04F19C008D9011308E90E7
:1036A0003C308F901E308DA9C8600A30086101211E
:1036B0008DA8416104F1AD00FCF77EFD122802D90E
:1036C0000120939001E00020939091A807C88DE815
:1036D00007008DA80FC8FDF75BFF56A0FFF77EF827
:1036E00040F2FF3001F076FE40F2FF3001F072FE52
:1036F00040F2FF3001F06EFE40F2FF3001F06AFE52
:1037000040F2FF3001F066FE40F2FF3001F062FE51
:1037100011E1FFE752A12046FCF755FD30B954A056
:10372000FDF718FE52A0FFF759F804E156A1204614
:10373000FCF749FD30B958A0FDF70CFE56A0FFF785
:103740004DF8F8E059A12046FCF73DFD30B952A0F4
:10375000FDF700FE50A0FFF741F8ECE057A120462E
:10376000FCF731FD30B959A0FDF7F4FD57A0FFF784
:1037700035F8E0E05BA12046FCF725FD30B91CA040
:10378000FDF7E8FD1AA0FFF729F8D4E05AA120467A
:10379000FCF719FD00B9B7E0BDE000005343353533
:1037A00035375553455250007C0000003100000071
:1037B0004F4B00007570646174656F72646572735D
:1037C000746174654F4B320070646174656F72642C
:1037D000657273746174654F4B320000757064617B
:1037E00074656F7264657273746174654F4B3100F8
:1037F000BDBBD2D7B9D8B1D5A3ACC7EBD3AAD2B58C
:10380000CCFCB0ECC0ED0000B3E4D6B5CAA7B0DC88
:10381000A3ACC7EBD6D8D0C2CBA2BFA80000000093
:103820005343353535375553455250636865636B9F
:1038300000000000CEA2D0C5BDC9B7D1BAF3C7EB16
:10384000BDABBFA8C8A1B3F6A3ACD6D8D0C2B2E571
:10385000C8EBCDEAB3C9D0B4BFA8B2D9D7F700003E
:1038600053433535353755534552506572723000E4
:10387000CEB4D6AAD3C3BBA7A3ACC7EBD3AAD2B549
:10388000CCFCB0ECC0ED000053414E43353535372C
:103890005065727231000000C7EBCEA2D0C5D6A72A
:1038A000B8B6BAF3D4D9CBA2BFA80000534335357C
:1038B00035375553455250657272320053414E436D
:1038C000353535376572723300000000CEDED0A783
:1038D000BFA8A3ACC7EBD3AAD2B5CCFCB0ECC0ED6B
:1038E0000000000053433535353755534552506578
:1038F000727231320000000057656273657276693A
:1039000063654572726F00000EA0FDF723FD0DA0E8
:10391000FEF764FF0FE00FA12046FCF754FC30B91E
:103920000FA0FDF717FD0EA0FEF758FF03E00FA153
:103930002046FCF748FC0DF5297DBDE8F00F5DF849
:1039400014FB0000CDF8C2E7B7FECEF1CEB4BFAA9B
:10395000C6F400005765624E6F416E737765720062
:10396000CDF8C2E7CEDECFECD3A6000053414E43E4
:1039700035353537504349440000000010B509483B
:10398000006805280CD1084801680068401C064AF8
:103990001060052904D1002011460860FDF784F964
:1039A00010BD0000680100208C000020704700005E
:1039B0004FF6F8710140014A11607047505C0040B9
:1039C00030B501460F4B1A78002014E003060E4C68
:1039D00004EB9353D3F8003C48F68F74234048F22D
:1039E00080042343C4B223430406074D05EB9454DB
:1039F000C4F8003C401C9042E8D341F08003034CE3
:103A0000236030BDE0000020005000404C5C0040CE
:103A100010B54A105300054A126892B202EBC00278
:103A2000121D034C44F8123010BD0000505C0040E1
:103A30000060004010B502460F48006880B200EBFD
:103A4000C200801D0D4C04EB40033E290BDD4811E4
:103A500001F01F040CB9441EA0B24FF4004444EA24
:103A600080241C6007E0481001F001040CB1441CE4
:103A7000A0B284021C6010BD505C00400060004099
:103A800030B50E4C04EB8003D3F8003C4BF68F743A
:103A900003EA040201F480530BB182F4805201F472
:103AA00000530BB182F4005242F4004343F0800310
:103AB000024D05EB8004C4F8003C30BD00500040CE
:103AC00010B50B4B03EB8002D2F8002C4BF68F7332
:103AD00002EA030181F4805181F4005141F4004273
:103AE00042F08002024C04EB8003C3F8002C10BDAE
:103AF0000050004010B54A105200044B1B689BB2A6
:103B000003EBC003024C44F8132010BD505C00408E
:103B100000600040044A126892B202EBC002921C9C
:103B2000024B43F812107047505C004000600040A8
:103B300030B50E4C04EB8003D3F8003C48F6BF745C
:103B400003EA040201F010030BB182F0100201F04D
:103B500020030BB182F0200242F4004343F08003C3
:103B6000024D05EB8004C4F8003C30BD005000401D
:103B700010B50B4B03EB8002D2F8002C48F6BF7354
:103B800002EA030181F0100181F0200141F40042BA
:103B900042F08002024C04EB8003C3F8002C10BDFD
:103BA0000050004010B5074B03EB8002D2F8002C08
:103BB00048F68F131A400A43024C04EB8003C3F803
:103BC000002C10BD0050004010B500F001F810BDF1
:103BD0000CB50020019000903348006840F480301C
:103BE0003149086000BF3048006800F400300090A0
:103BF0000198401C0190009818B90198B0F5A06F89
:103C0000F1D12948006800F4003010B10120009083
:103C100001E0002000900098012843D1234800686B
:103C200040F01000214908600846006820F00300B9
:103C300008600846006840F0020008601A484068C2
:103C4000194948600846406848600846406840F4A2
:103C5000806048600846406820F47C104860084650
:103C6000406840F4E81048600846006840F0807002
:103C7000086000BF0C48006800F000700028F9D010
:103C80000948406820F0030007494860084640683A
:103C900040F00200486000BF0348406800F00C009C
:103CA0000828F9D10CBD000000100240002002409D
:103CB00010B50020FFF778F80121C805FEF7E6FEF1
:103CC00010BD000038B501242948006880B2001DED
:103CD000284931F8100080B201EB400000902648DE
:103CE0000068007A092832D00098007822490968D3
:103CF00008700098401C0090009800781E490968E0
:103D000048700098401C0090009800EB4400009020
:103D1000009931F8020B0091FCF70CFC1649096878
:103D20004880009800EB44000090009931F8020BA5
:103D30000091FCF7FFFB104909688880009800EBB0
:103D400044000090009800880B490968C880012051
:103D500009490968087208480068C08810B9FEF768
:103D6000FFFA01E0FCF752FEFEF74CFE38BD000002
:103D7000505C004000600040540000202DE9F047F6
:103D800054480068007800F07F08B8F1000F0AD1AD
:103D900050480068407A00F0DF004E4909684872D8
:103DA0000020BDE8F087B8F1020F7CD149480068D7
:103DB000408818B947480068007908B10220F0E748
:103DC000DFF8149143480068477927F080052C46B6
:103DD00040480068407900F0800038B13F4901EB6D
:103DE0008400D0F8000C00F0300606E03B4901EBFF
:103DF0008400D0F8000C00F4405699F80000A84266
:103E000004D91EB133480068807A08B90220C8E797
:103E100007F0800080B1314901EB8400D0F8000C3C
:103E200000F0300010284BD1E0B2FCF703FDE0B207
:103E30003021FFF77DFE43E0284901EB8400D0F8F4
:103E4000000C00F44050B0F5805F39D1E4B9244A49
:103E500092F82C10E0B2FFF7EDFD204A02EB84014E
:103E6000D1F8001C4BF68F7201EA020080F48050FA
:103E700080F4005040F4004141F08001174B03EB07
:103E80008402C2F8001C1BE0E0B2FCF7B9FC134A44
:103E900002EB8401D1F8001C4BF68F7201EA02009C
:103EA00080F4805000E011E080F4005040F40041C4
:103EB00041F08001094B03EB8402C2F8001C00BFF3
:103EC000084909684869804700206AE700BF022066
:103ED00067E7000054000020E00000200050004090
:103EE000E40000206000002010B504462CB9012039
:103EF000064909680882002010BD0549096808685C
:103F00008047024800680A30F6E7000054000020AD
:103F10006000002010B5024606480068438A32B9A6
:103F20008888C01A034C24682082002010BD0868CD
:103F30001844FBE75400002010B504462CB90120BA
:103F4000064909680882002010BD0549096888688B
:103F50008047024800680C30F6E70000540000205B
:103F60006000002010B504462CB9022039490968C8
:103F70000882002010BD00203749088035480068BD
:103F8000007800F07F0018BB32490968487A00F0D9
:103F9000200131B13049097841F002012E4A1170F7
:103FA00005E02D49097801F0FD012B4A117000F060
:103FB000400131B12849097841F00101264A1170C8
:103FC00005E02549097801F0FE01234A11703AE025
:103FD00020480068007800F07F00012801D11E48C9
:103FE000C8E71C480068007800F07F00022828D14C
:103FF000184A1268517901F00F0001F080027AB17D
:10400000164B03EB8002D2F8002C02F03002102A8B
:1040100016D1114A127842F001020F4B1A700FE0CC
:104020000E4B03EB8002D2F8002C02F44052B2F5A2
:10403000805F05D1084A127842F00102064B1A70DF
:1040400001E0002096E706490968086980470248B0
:1040500090E70000540000204C0000200050004079
:104060006000002010B50E480068C0780D494978FE
:10407000884213DC0A480068807878B908480068EC
:10408000808858B906480068C07805490968887270
:104090000549096848688047002010BD0220FCE7F8
:1040A00054000020E00000206000002010B5074808
:1040B0000068407A40F020000449096848720449C9
:1040C0000968C8698047002010BD00005400002026
:1040D000600000202DE9F0412E480068467926F066
:1040E00080073C462B480068407900F0800038B1DA
:1040F000294901EB8400D0F8000C00F0300506E0FF
:10410000254901EB8400D0F8000C00F44055234809
:104110000078A04208D91F480068408820B91DB126
:104120001C480068807A10B90220BDE8F08106F0D2
:104130008000A0B1184A02EB8401D1F8001C48F6B7
:10414000BF7201EA020080F0100040F4004141F02B
:104150008001114B03EB8402C2F8001C14E00E4AEC
:1041600002EB8401D1F8001C4BF68F7201EA0200C9
:1041700080F4805040F4004141F08001064B03EB95
:104180008402C2F8001C00BF05490968886980479D
:104190000020CAE75400002000500040E00000204A
:1041A0006000002010B5174B1B68D978154B1B68B1
:1041B0005879154B1B689A69904704461148006866
:1041C000807AE8B13CB90F480068007918B90D4809
:1041D0000068807808B1022010BD8CB90B490968CD
:1041E000C868804707480068407906490968C8726E
:1041F00004480068C0780349096808730020EBE7A9
:104200000220E9E754000020580000206000002050
:104210002DE9F0470646894699F8007099F8018023
:10422000202F04D1B8F1200F01D100203070202FB1
:104230000CD1B8F1200F09D04046FBF775FF30389C
:10424000C5B2092D01DDE81FC5B23570B8F1200FE8
:104250000BD1202F09D03846FBF766FF3038C4B2A7
:10426000092C01DDE01FC4B23470B8F1200F18D062
:10427000202F16D03846FBF757FF3038C4B2092C30
:1042800001DDE01FC4B24046FBF74EFF3038C5B237
:10429000092D01DDE81FC5B204EB840005EB4000E9
:1042A0003070BDE8F0870246002002E0002313547E
:1042B000401C8842FAD3704770B504469D1A00200E
:1042C00003E086188E5D2654401CA842F9D30026D0
:1042D000265470BD38B500250020009021480068A4
:1042E00084B200BF09E0204901EB8500D0F8000C42
:1042F00080B21E4941F825006D1C082DF3D344F40B
:1043000080641848046044F00104046024F001044F
:10431000046000BF1348001D006800F4806000289E
:10432000F8D04FF6FF300F49091D0860002509E05D
:104330000E4850F8250080B20B4A02EB8501C1F807
:10434000000C6D1C082DF3D344F0080405480460EC
:10435000006884B244F0040402480460FCF7ECFDF9
:1043600038BD0000405C004000500040FC180020B8
:10437000042808D14FF0E021096941F004014FF011
:10438000E022116107E04FF0E021096921F004010A
:104390004FF0E022116170477047000010B51348DC
:1043A000006840F001001149086008464068104963
:1043B00008400E494860084600680E4908400B490D
:1043C00008600846006820F48020086008464068BD
:1043D00020F4FE0048604FF41F008860FFF7F4FBF4
:1043E0004FF000600449086010BD0000001002405A
:1043F0000000FFF8FFFFF6FE08ED00E010B5002119
:10440000174800F03AF80121154800F042F818B1B9
:104410000121134800F02EF812480068401C114991
:10442000086011480068401C0F4908600D4800688A
:10443000B0F5167F05D300200A49086001200B491A
:10444000086009480068782805D3002006490860FC
:104450000120074908600121014800F00EF810BD55
:104460000004004030000020340000203C00002008
:1044700040000020CA430282704721B1028842F006
:104480000102028004E002884FF6FE731A400280A7
:10449000704730B50246002000230024158A05EA43
:1044A0000103958905EA010413B10CB1012000E074
:1044B000002030BD2DE9FF4104460D4616461F463B
:1044C00001210220FEF7E2FA01211548FFF7D2FF91
:1044D000ADF80840ADF804500020ADF80A00ADF882
:1044E000060001A90E4800F027F801210C48FFF74B
:1044F000C4FF012211460A4800F014F81D208DF86F
:104500000000F0B28DF80100F8B28DF80200012031
:104510008DF803006846FDF7E1FEBDE8FF8100006D
:10452000000400401AB183890B43838102E0838930
:104530008B43838170470000002202881D4B984204
:104540000ED01D4B98420BD0B0F1804F08D01B4BC2
:10455000984205D01A4B984202D01A4B984204D187
:104560004FF68F731A404B881A43174B984207D067
:10457000164B984204D04FF6FF431A40CB881A439B
:1045800002808B8883850B8803850A4B98420BD069
:10459000094B984208D00E4B984205D00D4B9842DB
:1045A00002D00D4B984201D10B7A038601238382FE
:1045B00070470000002C014000340140000400401E
:1045C00000080040000C00400010004000140040B3
:1045D00000400140004401400048014010B508215E
:1045E000174800F0DDF818B10821154800F066F80A
:1045F000002240F22551124800F054F9104800887A
:1046000000F00F0020B10E48001D0088C4B20FE07A
:104610000B48008800F0200050B10948001D0088B8
:10462000C4B208490868411C064A116006490C5486
:10463000012240F22551024800F034F910BD00007B
:10464000003801400C000020CB05002010B50821E7
:10465000174800F0A5F818B10821154800F02EF809
:10466000002240F22551124800F01CF91048008841
:1046700000F00F0020B10E48001D0088C4B20FE00A
:104680000B48008800F0200050B10948001D008848
:10469000C4B208490868411C064A116006490C5416
:1046A000012240F22551024800F0FCF810BD000044
:1046B00000440040040000208801002001F4007242
:1046C000B2F5007F00D100BFCA430280704721B11C
:1046D000828942F40052828104E082894DF6FF73A0
:1046E0001A4082817047000000200449A1F80204AA
:1046F000A1F800040249088001207047B81000208A
:104700006800002010B504462048844209D10121E8
:104710008803FEF7EBF900214FF48040FEF7E6F93D
:1047200032E01B48844209D101214804FEF7BEF95A
:1047300000214FF40030FEF7B9F925E01548844216
:1047400009D101218804FEF7B1F900214FF480203E
:10475000FEF7ACF918E01048844209D10121C804E1
:10476000FEF7A4F900214FF40020FEF79FF90BE0BB
:104770000A48844208D101210805FEF797F9002173
:104780004FF48010FEF792F910BD00000038014090
:104790000044004000480040004C004000500040F1
:1047A00002460020B1F5007F00D100BF13880B4006
:1047B0000BB1012000E000207047000010B586B06A
:1047C000044601210820FEF781F901218804FEF743
:1047D0005DF91948FFF796FF4FF48060ADF81400BB
:1047E00003208DF8160018208DF8170005A913482E
:1047F000FCF748FC4FF40060ADF8140004208DF87D
:10480000170005A90D48FCF73DFC01940020ADF808
:104810000800ADF80A00ADF80C00ADF810000C204F
:10482000ADF80E0001A9044800F062F80121024829
:10483000FFF74DFF06B010BD00480040000C0140DE
:1048400070B504460D4600260FE05CB121460948CC
:1048500000F0F6F900BF80210648FFF7A1FF00280D
:10486000F9D000E070BD701CC6B2AE42EDDB00BFF7
:10487000F8E700000048004010B504460BE021783E
:10488000074800F0DDF900BF80210548FFF788FFE9
:104890000028F9D0641C20780028F0D110BD000059
:1048A00000480040F0B50346002400260025002003
:1048B00040F66A17B94200D100BF1846C1F342144E
:1048C00001F01F06012707FA06F5012C01D10C3073
:1048D00004E0022C01D1103000E014301AB1076856
:1048E0002F43076002E00768AF430760F0BD000098
:1048F0002DE9F04786B005460E460024A24600BFCB
:10490000A1460027B08900B100BF2F462C8A4CF683
:10491000FF700440F08804432C82AC894EF6F310FB
:104920000440B08831890843718908430443AC814D
:10493000AC8A4FF6FF400440B0890443AC8201A822
:10494000FEF738F91F48874202D1DDF810A001E0D8
:10495000DDF80CA0A88900F4004040B10AEBCA00C1
:1049600000EB0A1031684900B0FBF1F807E00AEBF0
:10497000CA0000EB0A1031688900B0FBF1F864202E
:10498000B8FBF0F004012009642101FB1089A8891B
:1049900000F4004040B1322000EBC900B0FBF1F060
:1049A00000F00700044308E0322000EB0910642106
:1049B000B0FBF1F000F00F0004432C8106B0BDE81D
:1049C000F08700000038014070B586B006460C46FE
:1049D0001546012144F20500FEF778F84FF4007007
:1049E000ADF8140018208DF8170003208DF816007C
:1049F00005A91D48FCF746FB4FF48060ADF8140094
:104A000004208DF8170005A91748FCF73BFB019619
:104A10000020ADF80800ADF80A00ADF80C00ADF8C4
:104A200010000C20ADF80E0025208DF80000E0B23B
:104A30008DF80100E8B28DF8020001208DF8030026
:104A40006846FDF74BFC01A90848FFF751FF01221A
:104A500040F225510548FFF725FF01210348FFF7E4
:104A600036FE06B070BD000000080140003801406D
:104A70002DE9F0470746884614464FF031090025D6
:104A800031E01B48FBF798FB824651461848FFF778
:104A90000AFC0020174908603846FBF78DFB824668
:104AA0005146384600F028F8A0B200F093FC0026EA
:104AB00016E01048006870B140F2AD3000F08AFC9A
:104AC00041460B48FBF766FB10B10120BDE8F087BB
:104AD00000200849086040F2551000F07BFC761C6D
:104AE000142EE6DB6D1C4D45CBDB0020EEE700000D
:104AF000CB0500200C00002070B504460D46402177
:104B00000A48FFF7DBFD00260CE014F8011B0748FC
:104B100000F096F800BF40210448FFF741FE00284E
:104B2000F9D0761CAE42F0D370BD000000380140D1
:104B300070B586B006460C46154601210420FDF7E7
:104B4000C5FF01214804FDF7A1FF0420ADF81400C2
:104B500018208DF8170003208DF8160005A91C48B1
:104B6000FCF790FA0820ADF8140004208DF8170027
:104B700005A91748FCF786FA01960020ADF8080051
:104B8000ADF80A00ADF80C00ADF810000C20ADF83F
:104B90000E0001A90F48FFF7ABFE01210D48FFF7FA
:104BA00096FD012240F225510A48FFF77BFE2620A0
:104BB0008DF80000E0B28DF80100E8B28DF8020037
:104BC00001208DF803006846FDF788FB06B070BD34
:104BD000000801400044004070B504460D460848F6
:104BE000FBF7EAFA064631460548FFF75CFB002072
:104BF000044908602946204600F006F870BD000010
:104C0000880100200400002070B504460D464021B4
:104C10000A48FFF753FD00260CE014F8011B074873
:104C200000F00EF800BF40210448FFF7B9FD00284E
:104C3000F9D0761CAE42F0D370BD000000440040B5
:104C4000C1F308028280704710B54FF48020FCF752
:104C50000FF910BD70B504460D46002000F05EF956
:104C60004FF42F7000F0B6FB012000F057F9FFF76A
:104C70001FF82946204600F023F800F003F870BD25
:104C80007047000010B5084808490860022009680C
:104C9000087207480749086007480849086005493D
:104CA00009680868804710BD9C100020540000204F
:104CB000E4000020580000201401002060000020C3
:104CC0003EB505460C464FF48020FCF7D1F84FF472
:104CD0008020009008208DF8050001208DF8060046
:104CE0006846FCF7DFF814208DF80800E8B28DF86C
:104CF0000900E0B28DF80A0001208DF80B0002A82F
:104D0000FDF7ECFA2A208DF8080000208DF8090044
:104D100002A8FDF7E3FA3EBD10B588B0002469484B
:104D20000068694908800846008800F400706749F7
:104D30000988084050B14FF6FF5062490860644846
:104D40000078401C62490870FEF718FE5E48008833
:104D500000F400405D490988084008B1FBF7F0FB0A
:104D60005948008800F4806058490988084030B1EB
:104D70004FF6FF305349086056494868804752480B
:104D8000008800F4005051490988084018B14DF6D8
:104D9000FF704C4908604C48008800F480504B4933
:104DA0000988084030B14EF6FF704649086000207F
:104DB000FEF790F84448008800F4006043490988F1
:104DC000084060B14448007810B1FFF783FA02E070
:104DD0000220FEF77FF84FF2FF703A4908603A4828
:104DE000008800F48070394909880840002866D09E
:104DF0004FF6FF6033490860081D006800F400406A
:104E0000002856D035480068401C344908600846E0
:104E10000068032850D92B48001F006800F00800E4
:104E2000002849D12748001F006880B22C4908603B
:104E3000002408E02B4901EB8400D0F8000C80B27C
:104E40004DF82400641C082CF4D32548006840F079
:104E50000100234908600846006880B21949091F0B
:104E600008601F48006820F001001D4908600846DE
:104E7000006880B21349091F086000BF114800682C
:104E800000F480600028F9D04FF6FF300D4908602B
:104E9000002408E05DF8240080B2124A02EB84018D
:104EA000C1F8000C641C082CF4D300200B490860E6
:104EB00002E00020094908600720FEF70BF808B05F
:104EC00010BD0000445C0040900000205E00002007
:104ED00092000020E40000206C01002094000020DB
:104EE000980000200050004010B5FFF715FF10BDDE
:104EF00070B504460748FBF75FF9054629460548A3
:104F0000FFF7D1F9002004490880204600F0B6F8E8
:104F100070BD0000BC1600206800002010B50446DB
:104F200001210420FDF7D2FD3CB10F48006880B29A
:104F300020F002000C49086014E00B48006880B2C1
:104F400040F00200084908600848006820F47F200B
:104F5000064908600846006840F44C3008600020AC
:104F60000349086010BD0000405C00400408014097
:104F7000B00121420020064908604FF43F40054936
:104F80000880084600880249091F08600020704711
:104F9000445C00405E0000202DE9F04104460E46CE
:104FA000002504F07F00FCF75FF9054604F07F0060
:104FB000FCF74AF907462A4639463046FDF70CFD0C
:104FC0002846BDE8F081000030B503460A460021BE
:104FD00034E0585C1B4C248804F4004464BB194C36
:104FE000248804F4804464B10A2803D00024154DB9
:104FF0002C8021E0134C248844F40044114D2C8073
:105000001AE00D2806D10F4C248844F480440D4D3D
:105010002C8011E00B4C2488C4F30D040A4D285554
:10502000084C2488641C074D2C802C462488B4F539
:10503000007F01DB00242C804C1CE1B29142C8DBD4
:1050400030BD000068000020BC1600200A49B1F8FD
:105050000014094A50541146B1F80014491CA2F832
:1050600000141146B1F80014B1F5806F02D100218F
:10507000A2F8001470470000B810002070B5054673
:105080002846FBF799F886B2002404E0285DFFF774
:10509000DDFF601C84B2B442F8DB70BD00BFFEE7E8
:1050A000F0B5144604F1010C4FEA6C07DFF824C098
:1050B0000CEB41033D460AE00678401C90F800C026
:1050C00046EA0C2223F8022B9B1C401C6D1E002D6F
:1050D000F2D1F0BD0060004070B504460025212CDF
:1050E00008D112480068007800F07F0021280ED116
:1050F0000F4D0CE0202C0AD10C480068007800F01D
:105100007F00212800D10B4D20200B4908700DB9DC
:10511000022070BD054800688561002103480068D1
:1051200041820020A8470020F3E70000540000203F
:1051300065510008F5520008D400002010B504465F
:1051400002492046FEF7E6FE10BD000040010020A7
:1051500010B5044602492046FEF7DCFE10BD0000F3
:1051600038010020014629B90820034A126810823C
:10517000002070470148FCE754000020D8000020C0
:1051800070B5054606480068C478042C01DD00208F
:1051900070BD044800EBC4012846FEF7BBFEF7E7EC
:1051A00054000020480100200246002901DD0220B1
:1051B0007047012A01DD0220FAE70020F8E700002D
:1051C000014608480068007800F07F00212807D1D8
:1051D000022901D100207047222901D10020FAE7DD
:1051E0000220F8E75400002010B500203449096877
:1051F00088723448C07932490968487200203049C1
:105200000968C872FEF7D4FB4FF400710020FEF766
:10521000C9FC10210020FEF78BFC40210020FEF786
:10522000F7FB80210020FEF765FC0020FBF71CFB4C
:10523000254890F82C100020FEF7FCFB0020FEF71C
:105240003FFC00210120FEF7ADFCC0210120FEF74C
:1052500051FC20210120FEF76BFC00210120FEF70C
:105260000FFC4FF4C0610220FEF79CFC4FF48071EC
:105270000220FEF73FFC00210220FEF701FC202166
:105280000220FEF755FC00210320FEF78BFC4FF4B3
:1052900088710320FEF7BCFB40210320FEF7CAFB08
:1052A0004FF440510320FEF7EBFB00210320FEF7F3
:1052B0003FFC0020FEF784FB01200449086010BD7C
:1052C00054000020C5550008E400002068010020BB
:1052D0000348817A11B10521024A1160704700002C
:1052E0009C100020680100200420014908607047DC
:1052F00068010020014629B90820034A126810827B
:10530000002070470148FCE754000020D80000202E
:1053100010B505480078202804D1FFF7E5F90020F2
:105320000149087010BD0000D40000207047000043
:1053300010B5FBF7D5FF0020054909688872FDF715
:1053400085FBFFF717FE00200249086010BD000032
:1053500054000020680100200448006800F00100AB
:105360000249086008B1002008607047082C00401E
:1053700002E008C8121F08C1002AFAD1704770471E
:10538000002001E001C1121F002AFBD1704700007C
:1053900010B56FF00400FEF7EBFF0A4800680A49F9
:1053A000B0FBF1F0094908700846007800EB4001B5
:1053B000C1EBC0104FF6FF7101EAC000044908803C
:1053C00010BD00001000002000127A000000002034
:1053D000020000200146114A12884A434FF0E023A0
:1053E0005A6100229A611A46126942F001021A615A
:1053F00000BF4FF0E022106900F001021AB100F482
:105400008032002AF5D04FF0E022126922F001022A
:105410004FF0E0231A6100229A61704702000020D9
:105420000146114A12784A434FF0E0235A610022A4
:105430009A611A46126942F001021A6100BF4FF0E8
:10544000E022106900F001021AB100F48032002A53
:10545000F5D04FF0E022126922F001024FF0E02374
:105460001A6100229A61704700000020FBF70CF8D7
:1054700080E04148006801281AD100213F48FEF72A
:10548000FCFF00203E4908603B490860FCF71CF91E
:10549000FDF79AFD00BF20213A48FBF7C7FE002820
:1054A000F9D03948FBF778FF01213448FEF7E5FFD2
:1054B00036480068012802D1002034490860344889
:1054C0000068012802D10020314908603148007885
:1054D000012823D100212948FEF7CFFF00202849C9
:1054E00008602C490870FDF745F840F2AD30FFF731
:1054F00071FFFDF75BF8002405E040F2AD30FFF7E7
:1055000069FF601CC4B2B42CF7DBFDF7DDF81E4860
:10551000FBF742FF01211948FEF7AFFF1E48007854
:10552000632827D100211548FEF7A7FF0020144962
:1055300008601949087014487930FDF757FC17497D
:10554000086008460068401C0860084601680E486C
:105550007930FDF761FC12A10B48FCF727FB0A48E4
:105560002730FBF7EFFC0848FBF716FF0121034843
:10557000FEF783FF7DE700004800002000040040A4
:1055800030000020000C0140900A00203C00002068
:10559000400000202D0000202500002028000020D1
:1055A000CDF8C2E7D6D8C1ACD6D02E2E2E00000042
:1055B0003000001201000202000040830440570046
:1055C000020102030109024300020100C032090482
:1055D0000000010202010005240010010524010061
:1055E00001042402020524060001070582030800C5
:1055F000FF09040100020A00000007050302400041
:10560000000705810240000004030904260353003B
:1056100054004D006900630072006F0065006C006B
:1056200065006300740072006F006E006900630023
:1056300073003203530054004D0033003200200049
:105640005600690072007400750061006C00200053
:1056500043004F004D00200050006F0072007400A6
:1056600020002000313931325732303078782538F7
:1056700039383630343131313031383530303738EF
:105680003634322556332E312556312E39253132D6
:10569000312E3139362E3138312E313033253033F9
:1056A000333036257868327871576645596A6F64A9
:1056B0007253504B39306A5525000000DC56000803
:1056C0000000002088010000180200087857000838
:1056D00088010020981B000080530008011184A25B
:1056E0004A04100A01020304060708090A4A0110C5
:1056F0000143141A03531254124D12330221321370
:10570000A90C0C1C08CF22040B10390D14512AC20D
:10571000AE12081A04071331531408E9511B08117B
:10572000081A2D0413D9501B08C1101AA9041A51C4
:10573000041A3D041A810441324029440B18D15205
:10574000741AE91C13B3553308121AC5082A436AA0
:1057500012563308041A0C0832261A320829E2229B
:105760007073201A2992812D01020304040009009C
:085770000607080902040608FF
:04000005080000ED02
:00000001FF
