:020000040800F2
:10000000701D002005010008C9220008FD17000826
:10001000C522000819050008CD4F000800000000A7
:10002000000000000000000000000000013900088E
:100030008D0C000800000000F1290008ED420008C6
:10004000895200081F0100081F0100081F01000855
:100050001F0100081F0100081F010008410D0008D2
:100060001F0100081F0100081F0100081F010008F0
:100070001F0100081F0100081F0100081F010008E0
:100080001F0100081F0100081F0100081F010008D0
:10009000194E00081F0100081F010008CD0D0008BF
:1000A0001F0100081F0100081F0100081F010008B0
:1000B0001F010008514300081F0100081F0100082C
:1000C0001F0100081F0100081F0100081F01000890
:1000D0001F01000809450008794500081F010008B4
:1000E0001F0100081F010008794B0008DFF810D03D
:1000F00000F080F8004800479D530008AFF30080EF
:10010000701D00200648804706480047FEE7FEE7CE
:10011000FEE7FEE7FEE7FEE7FEE7FEE7FEE7FEE7B7
:10012000F1420008ED000008A0F16101192900D892
:100130002038704740EA01039B0703D009E008C953
:10014000121F08C0042AFAD203E011F8013B00F89C
:10015000013B521EF9D27047D2B201E000F8012BE8
:10016000491EFBD270470022F6E710B513460A4637
:1001700004461946FFF7F0FF204610BD421E12F854
:10018000013F002BFBD111F8013B02F8013B002B92
:10019000F9D1704730B505462A460B4612F8010BD7
:1001A00013F8014B08B1A042F8D01CB1002802D0CE
:1001B0006D1CF1E7284630BD421C10F8011B0029D8
:1001C000FBD1801A704710B5002200E0521C835CFE
:1001D0008C5CA34201D1002BF8D1D8B2E1B2401A15
:1001E00010BD034611F8012B00F8012B002AF9D1AC
:1001F00018467047064C074D06E0E06840F00103E2
:1002000094E8070098471034AC42F6D3FFF772FF2A
:1002100090550008B055000870B58C1810F8015BB7
:1002200015F0070301D110F8013B2A1106D110F88F
:10023000012B03E010F8016B01F8016B5B1EF9D193
:100240002B0705D40023521E0DD401F8013BFAE719
:1002500010F8013BCB1A921C03E013F8015B01F884
:10026000015B521EF9D5A142D8D3002070BD000019
:1002700010B5B0B050211CA8FFF775FF022202A9EB
:10028000622000F065F82DA102A8FFF783FFB0B946
:100290002B4903A8FFF7A5FF03A8FFF78DFF84B242
:1002A000224603A9052000F092F824A102A8FFF736
:1002B00098FF022202A9622000F089F804E063227C
:1002C00003A9052000F044F814201CAB252203A943
:1002D00000901C4800F0DEFFDDE91C03421C03A96E
:1002E00018480F3003F092FFDDE91D03421C03A9FB
:1002F0001448283003F08AFFDDE91E03421C03A9DD
:1003000010482D3003F082FFDDE91F03421C03A9D2
:100310000C48183803F07AFFDDE92003421C03A9DA
:100320000848801F03F072FFDDE92103421C03A986
:100330000448323003F06AFF30B010BD4878000046
:1003400038550008790A002010B501F075FA10BD83
:1003500070B506460C46154608E03046721C96B24B
:1003600000F007F804F8010B681E85B2002DF4D1E7
:1003700070BD70B50446002601F016FB2546E11756
:1003800004EB11610912A02202EB4101C8B201F095
:10039000DBFA01F041FBE11704EB11610912A4EB58
:1003A0000121C8B201F0D0FA01F036FB01F0FCFAED
:1003B000A12001F0C9FA01F02FFB002001F076FA2C
:1003C000064601F057FA01F00BFB304670BD70B5E0
:1003D00005460C4616460BE001E0012070BD217871
:1003E000284600F00CF80028F7D1681C85B2641C80
:1003F000301EA6F101018EB2EED100BFEEE770B55E
:1004000004460E4601F0D0FA2546E11704EB1161CF
:100410000912A02202EB4101C8B201F095FA01E0F5
:10042000012070BD01F0F8FA0028F9D12546E11746
:1004300004EB11610912A4EB0121C8B201F084FAA6
:1004400001E00120EDE701F0E7FA0028F9D130469C
:1004500001F07AFA01F0E0FA01F0C2FA0A2004F0A1
:1004600051FF0020DDE7000010B502F047FB01F06E
:100470002DFF04F025FFFFF767FF02F053F84FF45C
:10048000165001F02FF9002211464FF4E13001F02F
:10049000CBFC012200214FF4165002F075F8022126
:1004A000002001F073F90221002002F097FD02F014
:1004B0005FF802F02BF802F077F8FFF7D9FE0FA2F1
:1004C0001249A1F1120001F065FB1048801D00F0F7
:1004D0002DFD02F0F7F80023012241F61F4142F200
:1004E0000F7003F07DFF0948213800F049FF00201C
:1004F000074908600749086010BD0000CDF8C2E751
:10050000C1ACBDD3D6D02E2E2E000000730A002021
:10051000380000203C00002000BFFEE70146CAB2C0
:100520000B1243EA0220704708B50020009022E138
:100530009748008800F00F00964908700846007838
:1005400000287CD1944800689449088008460088B7
:1005500000F03000924908809048008800F4405034
:100560008E4908808C4909684BF6BF7201EA020087
:1005700080F4005080F0200040F4004141F0800100
:10058000854A11608248008800F0100090BB104638
:10059000006848F60F7108401146086001F066FADD
:1005A0007D4909684BF6BF7201EA02007B49098860
:1005B00001F4805109B180F480507849098801F430
:1005C000005109B180F400507549098801F010010B
:1005D00009B180F010007249098801F0200109B1C9
:1005E00080F0200081B241F4004141F080016A4A6C
:1005F000116008BDFFE76848006880B20090BDF850
:10060000000000F40060B0B363480068C0F30E005F
:1006100048F68F7108406049086003F0FDFA5E49B2
:1006200009684BF6BF7201EA02005C49098801F4CF
:10063000805109B180F480505849098800E056E0A3
:1006400001F4005109B180F400505549098801F0C6
:10065000100109B180F010005149098801F0200112
:1006600009B180F0200081B241F4004141F08001E5
:10067000494A1160BDE7FFE7BDF8000000F4004003
:10068000002878D044480068C0F30E0048F68F7107
:1006900008404149086001F0FDFE3F4909684BF6FA
:1006A000BF7201EA02003D49098801F4805109B195
:1006B00080F480503949098801F4005109B180F46F
:1006C00000503749098801F0100109B180F010008D
:1006D0003349098801F0200109B180F0200081B27E
:1006E00041F4004141F080012B4A116081E7294823
:1006F00000782C4901EB8000D0F8000C80B200900B
:10070000BDF8000000F40040C0B12248007801EBC1
:100710008000D0F8000CC0F30E0048F68F7108403E
:100720001C4909781F4A02EB8101C1F8000C1949E4
:100730000978491E1C4A52F821008047BDF8000084
:1007400000F08000B8B113480078164901EB800032
:10075000D0F8000C48F60F7108400E490978114A8C
:1007600002EB8101C1F8000C0A490978491E0F4AC1
:1007700052F82100804708484430006880B204499C
:10078000088000F4004000287FF4D2AE00BF30E7BC
:100790008400002044000020005C0040580000203D
:1007A0005A00002000500040AC00002090000020C3
:1007B0002DE9F04105460E4617464FF0000800248B
:1007C00008E0305DB84204D1404608F1010845F820
:1007D0002040641C3046FFF7EFFCA042F1D8002017
:1007E00045F82800BDE8F0810B4A02EB8001D1F802
:1007F000001C01F4804171B102EB8001D1F8001CB2
:1008000048F68F7211404CF280021143024B03EB09
:100810008002C2F8001C7047005000400B4A02EBF7
:100820008001D1F8001C01F0400171B102EB8001A0
:10083000D1F8001C48F68F72114048F2C0021143F3
:10084000024B03EB8002C2F8001C704700500040CE
:10085000084A02EB8001D1F8001C48F68F62114073
:1008600048F280021143034B03EB8002C2F8001CE4
:1008700070470000005000402DE9F047284800680C
:1008800000F110052E8826480068077AD6B9042F93
:1008900018D12448007801280FD10021224800688F
:1008A00080B2801C214A42F8101030202049088074
:1008B00000BF00201B49087003E0072710201C49D7
:1008C000088027E0AC88A64201D8042000E002207E
:1008D0000746B44200D93446A0B2A968884780468A
:1008E000002000F0C7FC8146A2B24946404604F011
:1008F0006FFBA1B2002003F0B7F82888001B288006
:10090000688820446880302009490880000209492D
:10091000088000BF024909680F72BDE8F087000037
:100920004800002042000020505C00400060004071
:100930005A000020580000202DE9F04128480068A6
:1009400000F110042688A068C0B1BEB1A588B542E8
:1009500000D93546A8B2A168884707462088401BC1
:100960002080608828446080002000F061FC804680
:10097000AAB24146384602F027F800BF208850B19D
:100980004FF44050174908800021084603F06CF8E6
:100990003020154908802088A188884204DB032084
:1009A0000F490968087218E02088002804DD052036
:1009B0000B490968087210E0208870B906200849C0
:1009C0000968087200210948006880B2801C084A42
:1009D00042F81010302004490880BDE8F081000082
:1009E00048000020580000205A000020505C0040C1
:1009F000006000402DE9F84F9B48006845780027CB
:100A0000BA46062D1BD198480068007800F07F0098
:100A1000002813D1944909688878012803D19349A3
:100A20000968CF690AE0022803D1904909680F6A72
:100A300004E0032802D18D4909684F6A94E0002D33
:100A400064D189480068408800285FD186480068E2
:100A5000C08802285AD1844800680079002855D1FE
:100A600081480068007800F07F0028B97E4800685F
:100A7000808808B97E4F77E07B480068007800F0F6
:100A80007F00012810D178490968487977490968B9
:100A90008A6900219047002866D173480068807AEF
:100AA000002861D0724F5FE06F480068007800F066
:100AB0007F00022858D16C480068407900F00F068A
:100AC00069480068407900F070096748006840791B
:100AD00000F0800038B1674901EB8600D0F8000CC7
:100AE00000F0300806E0634901EB8600D0F8000C06
:100AF00000F4405860480078B04235D9B9F1000F91
:100B000032D1B8F1000F2FD0594F2DE0082D07D169
:100B100055480068007800F07F0028BB574F23E05D
:100B20000A2D21D150480068007800F07F0001288C
:100B30001AD14D480068807AB0B14B4800684088AF
:100B400090B949480068007970B947480068C08882
:100B5000012809D1444909684879444909688A69E2
:100B60000021904700B9464F57B13F480068A0F8B0
:100B700012A03D48006887610020B84700240FE0BC
:100B8000394A12685078394A126811698847044610
:100B9000032C05D10920344909680872BDE8F88F93
:100BA00031480068008A4FF6FF71884204D109205D
:100BB0002D4909680872F1E7022C03D02A48006821
:100BC000008A20B90820284909680872E6E7264803
:100BD0000068007800F08000E0B323480068C08817
:100BE000009021480068008A0099884204D91E4973
:100BF00000980968088223E01B480068008A1A49A7
:100C00000968C98888421BDA17480068008A1749B2
:100C1000096891F82C10884203DA002019490870FD
:100C20000EE011480068008A1049096891F82C10FC
:100C300090FBF1F201FB120010B90120114908707C
:100C40000A48006890F82C10074800688182FFF776
:100C500013FE07E0FFE70320034909680872000359
:100C60000949088000BF99E7480000204C00002097
:100C7000B93E000800500040D40000203D3E00086E
:100C80008D3E000842000020580000207047000000
:100C900070B52248B0F802042049B1F80014884227
:100CA00000D170BD1D48B0F802041C49B1F8001411
:100CB000884208DA1948B0F800041849B1F802145B
:100CC000401A84B205E01548B0F80204C0F580600F
:100CD00084B2402C00DD40241048B0F80254B0F833
:100CE000020420440D49A1F802040846B0F80204A9
:100CF000B0F5806F02DB0020A1F802040749481913
:100D00002246C02104F064F92146012002F0ACFE25
:100D1000012002F0D7FE00BFC3E700000811002049
:100D200010B50649032004F0CFF884B2E1B20348BD
:100D300004F0E2F8032002F06DFE10BD0C19002053
:100D400010B5022000F08EF8012822D1642004F0B2
:100D5000D9FA022000F086F801281AD1022000F00A
:100D60007BF802210B4800F055FA90B90A48007848
:100D7000012803D109A000F0E1FA0AE00C4800784C
:100D8000012803D10BA000F0D9FA02E001200E499E
:100D9000086010BD0008014026000020CDF8C2E721
:100DA000C1ACBDD3D6D0A3ACC7EBC9D4BAF3000055
:100DB00027000020B5E7C4D4C1ACBDD3D6D0A3ACC6
:100DC000C7EBC9D4BAF300003800002010B52020CA
:100DD00000F048F8012822D1642004F093FA202082
:100DE00000F040F801281AD1202000F035F8202129
:100DF0000B4800F00FFA90B90A480078012803D197
:100E000009A000F09BFA0AE00C480078012803D101
:100E10000BA000F093FA02E001200E49086010BD1B
:100E2000000C014026000020CDF8C2E7C1ACBDD3C4
:100E3000D6D0A3ACC7EBC9D4BAF30000270000207A
:100E4000B5E7C4D4C1ACBDD3D6D0A3ACC7EBC9D42D
:100E5000BAF300003C000020014908607047000020
:100E600014040140014600200022074B1B6803EADE
:100E70000102054B14331B680B4013B10AB101206A
:100E800000E00020704700000004014000212349D9
:100E90008279002A3AD00A46126803689A430B46C0
:100EA0001A600A1D126803689A430B1D1A600279C2
:100EB00011440A6803681A430A60184A0832126823
:100EC00003689A43154B08331A601A1D12680368A9
:100ED0009A43124B0C331A604279102A0ED11A1F12
:100EE000126803681A430D4B08331A601A1D126802
:100EF00003681A43094B0C331A600DE00749427925
:100F000011440A6803681A430A6005E00279114433
:100F10000A6803689A430A607047000000040140B1
:100F200003200149086070475C0100202DE9F04171
:100F3000054632212F4803F060F932212E4803F094
:100F40005CF92EA12B48FFF74CF92FA12948FFF798
:100F500015F929462748FFF711F92EA12548FFF773
:100F60000DF924492448FFF73CF901202A4908706B
:100F7000002600272BE0642004F0C4F91E48FFF788
:100F80001BF9804641461C4800F0B0FF701CC6B2F9
:100F9000002415E02148006860B140F2551004F0CB
:100FA000B1F91FA11F48FFF7F5F818B1642004F04C
:100FB000A9F907E04FF4167004F0A4F9601CC4B25C
:100FC000142CE7DB00BF142C01DA012701E0032E0B
:100FD000D1DB00BF012F07D100F090F900200E49AE
:100FE00008701149087002E001200F490870BDE83F
:100FF000F0810000D70B0020A50B00205453656E34
:10100000646865617274250046697273744865612D
:101010007274000025242400260000200C0000200B
:101020004B000000BF0500202500002030B5002245
:101030008B071C0F0F2303FA04F20B4B8C1053F891
:1010400024309343084C8D1044F8253023468C10EF
:1010500053F824308C07240F00FA04F42343024C85
:101060008D1044F8253030BD080001402DE9F041D5
:10107000024600250026002000230024002791F8C6
:1010800003C00CF00F0591F803C00CF0100CBCF17C
:10109000000F03D091F802C04CEA050591F800C09A
:1010A000BCF1000F31D0146800202BE04FF0010C90
:1010B0000CFA00F3B1F800C00CEA03069E4220D1FE
:1010C00083004FF00F0C0CFA03F7BC4305FA03FC46
:1010D0004CEA040491F803C0BCF1280F06D14FF08C
:1010E000010C0CFA00FCC2F814C00AE091F803C02D
:1010F000BCF1480F05D14FF0010C0CFA00FCC2F80E
:1011000010C0401C0828D1D31460B1F800C0BCF155
:10111000FF0F34DD546800202EE000F1080C4FF082
:10112000010808FA0CF3B1F800C00CEA03069E426D
:1011300021D183004FF00F0C0CFA03F7BC4305FAE2
:1011400003FC4CEA040491F803C0BCF1280F05D15C
:1011500000F1080C08FA0CF8C2F8148091F803C0EA
:10116000BCF1480F07D100F1080C4FF0010808FA54
:101170000CF8C2F81080401C0828CED35460BDE89B
:10118000F0810000F0B50A4600230024002100256C
:1011900000F00046B6F1004F02D11D4EF16901E0AA
:1011A0001B4E7168C0F3034583B200F44016B6F5D8
:1011B000401F08D121F07061154E766826F07066E8
:1011C000134F7E6012E000F48016B6F5801F06D142
:1011D000032606FA05F4A14341F0706106E0460DCE
:1011E000360103FA06F6B14341F0706122B1460DB3
:1011F000360103FA06F6314300F00046B6F1004F1F
:1012000002D1034EF16101E0014E7160F0BD0000BA
:10121000000001400246002093680B400BB1012002
:1012200000E0002070474161704701617047000095
:1012300001460548006880B200EBC100001D034A6A
:1012400032F8100080B27047505C004000600040EF
:1012500001460648006880B200EBC100801D044AC8
:1012600032F81000C0F3090070470000505C0040E5
:101270000060004001460548006880B200EBC100F4
:10128000034A32F8100080B270470000505C004002
:10129000006000402DE9F04105460E4617461C4609
:1012A000DDF818804146204600F037FC3A463146CA
:1012B0002046FFF77DFA002231462846236802F0D7
:1012C000A5FFBDE8F081000070B50A480468001D64
:1012D0000568001D0668344454B1082206492046BA
:1012E00000F0FCFB042204491031284600F0F6FB14
:1012F00070BD0000E8F7FF1F6600002010B505A0D4
:1013000000F0E6F90548007800F0E4F804A000F0E9
:10131000DFF910BD706167652032000024000020F5
:1013200074302E7478743D22CDF8C2E7C1ACBDD3C1
:10133000B3C9B9A6A3A1A3A12200000010B58EB025
:101340000446342101A8FEF70EFF07A000F0C0F903
:101350000748007800F0BEF80123224605A101A845
:1013600000F0CEF90EB010BD70616765203200004C
:101370002400002074302E7478743D220000000098
:1013800010B58EB0044621A000F0A2F921480078E3
:1013900000F0A0F8012320A222A101A800F0B0F9DA
:1013A000012304F1590222A101A800F0A9F90023A8
:1013B000224628A101A800F0A3F90023E21C27A1DE
:1013C00001A800F09DF90023A21D26A101A800F0AC
:1013D00097F9322101A802F010FF24A101A8FEF71D
:1013E00000FF04F1090101A8FEF7C8FE21A101A830
:1013F000FEF7C4FE01A800F06BF9002304F10C0213
:101400001DA101A800F07CF90EB010BD70616765E8
:101410002031000024000020D6D0B9FAD2C6B6AFE1
:101420000000000074302E7478743D22000000002B
:101430007172302E7478743D22687474703A2F2F54
:1014400077656978696E2E71712E636F6D2F722FBB
:10145000000000006E342E76616C3D006E332E76F7
:10146000616C3D006E322E76616C3D006E312E76E1
:10147000616C3D002B3800006E302E76616C3D00B3
:1014800030B58DB004460D463221684602F0B5FEF7
:1014900007A000F01DF90848007800F01BF82B4663
:1014A000224606A1684600F04BF90DB030BD0000A1
:1014B00070616765203200002400002074302E74B3
:1014C00078743D22C4FAD2D1B3C9B9A6B3E4D6B573
:1014D0002000000010B50446002C05DD052C03DCBF
:1014E00013A000F0F5F822E0052C05DD0B2C03DC41
:1014F00012A000F0EDF81AE00B2C05DD112C03DC36
:1015000011A000F0E5F812E0112C05DD172C03DC2A
:1015100010A000F0DDF80AE0172C05DD1F2C03DC1D
:101520000FA000F0D5F802E010A000F0D1F810BD37
:1015300070312E7069633D313000000070312E70C3
:1015400069633D313100000070312E7069633D31B7
:101550003200000070312E7069633D3133000000AD
:1015600070312E7069633D313400000070312E708F
:1015700069633D39000000000FB400B58DB034211F
:101580006846FEF7F0FD29A000F0A2F8294800788F
:10159000FFF7A0FF012328A168460E9A00F0B0F8DB
:1015A0001498012810D127A000F092F828A000F08C
:1015B0008FF83221684602F020FE012327A16846F9
:1015C0000F9A00F09DF80FE027A000F081F829A005
:1015D00000F07EF83221684602F00FFE012328A1B8
:1015E00068460F9A00F08CF83221684602F005FE3A
:1015F000012326A16846109A00F082F8322168463D
:1016000002F0FBFD24A16846139B119A00F098F8A4
:101610003221684602F0F1FD012322A16846129AA8
:1016200000F08EF80DB05DF814FB00007061676586
:10163000203500002400002074342E7478743D227C
:10164000000000007669732067312C310000000033
:101650007669732074352C300000000067312E74D9
:1016600078743D22000000007669732067312C30C9
:10167000000000007669732074352C3100000000F2
:1016800074352E7478743D220000000074302E747E
:1016900078743D220000000074362E7478743D2268
:1016A0000000000074392E7478743D2200000000A0
:1016B00010B504A000F00CF804480078FFF70AFF0A
:1016C00010BD000070616765203300002400002019
:1016D00010B50446204603F065F80321FF2003F00F
:1016E00045F810BD10B50446204602F0FDFF02A0EB
:1016F000FFF7EEFF10BD000070616765203000004D
:101700002DE9F04106460F4614461D46322130466B
:1017100002F073FD39463046FEF763FD2146304640
:10172000FEF72CFD012D03D104A13046FEF726FD66
:101730003046FFF7CDFFBDE8F08100002022000019
:101740002DE9F04106460F4614461D4639463046FF
:10175000FEF747FD21463046FEF710FD25B907A1EB
:101760003046FEF70BFD03E006A13046FEF706FD0E
:101770003046FFF7ADFFBDE8F081000020D4AA227B
:101780000000000020B6D622000000007FB505460C
:101790000C460121042001F091F90220ADF800006F
:1017A00048208DF8030003208DF802006946124896
:1017B000FFF75CFC01210020FFF738FC02200190BC
:1017C00000208DF808000C208DF8090001208DF80C
:1017D0000A0001A8FFF75AFB07208DF80C00E8B2B9
:1017E0008DF80D00E0B28DF80E0001208DF80F008D
:1017F00003A800F071FD7FBD0008014000BFFEE7B7
:1018000010B504210B48FFF70EFD00F08BF8012105
:101810000848FFF708FD022003F09AFD042105485F
:10182000FFF703FD052003F093FD04210148FFF7B6
:10183000FAFC10BD000C014008B50121082001F0A0
:101840003DF90520ADF8000003208DF802001020BE
:101850008DF8030069460648FFF708FC0421044898
:10186000FFF7E3FC01210248FFF7DFFC08BD0000A1
:10187000000C014010B504210B48FFF7D4FC00F028
:1018800051F801210848FFF7D0FC022003F060FD69
:1018900004210548FFF7C9FC052003F059FD042188
:1018A0000148FFF7C0FC10BD000C014070B50546B3
:1018B0000026002400F028F800BF18E00421114899
:1018C000FFF7B1FC022003F043FD04210D48FFF7B0
:1018D000ACFC6006040E01210A48FFF79BFC08B12E
:1018E000601CC4B2012003F033FD701CC6B2082E88
:1018F000E4DB15B9FFF7BEFF01E0FFF781FF2046EB
:1019000070BD0000000C014008B50120ADF80000DA
:1019100048208DF8030069460148FFF7A7FB08BD82
:10192000000C014008B50120ADF8000003208DF83F
:10193000020010208DF8030069460248FFF796FB6D
:1019400008BD0000000C014070B504460025FFF7FB
:10195000E9FF04211348FFF766FC00BF1EE004F016
:101960008000002804DD01210E48FFF75EFC03E043
:1019700001210C48FFF757FC6006040E04210948BA
:10198000FFF753FC022003F0E3FC04210548FFF7B6
:101990004AFC022003F0DCFC681CC5B2082DDEDB2B
:1019A00070BD0000000C014010B5FFF7BBFF012126
:1019B0000A48FFF73AFC04210848FFF736FC0520E7
:1019C00003F0C6FC01210548FFF72DFC062003F0BB
:1019D000BFFC04210148FFF726FC10BD000C0140AC
:1019E00010B5FFF79FFF04210A48FFF71CFC0121F7
:1019F0000848FFF718FC04210648FFF716FC0620EC
:101A000003F0A6FC01210348FFF70FFC062003F0BA
:101A10009FFC10BD000C014010B50024FFF774FFBF
:101A200001211148FFF701FC012003F091FC042182
:101A30000D48FFF7FAFB012003F08AFC07E0601C69
:101A4000C4B2FA2C03DDFFF7CBFF012010BD01214A
:101A50000548FFF7DFFB0028F1D104210248FFF71A
:101A6000E2FB0020F2E70000000C014010B518482E
:101A70000068047A022C01D0042C05D1FEF7FCFE8C
:101A800013480068047A1CE0062C19D1104800683D
:101A9000407805280ED10E480068007800F07F00DD
:101AA00040B90B490968C87801F034FF0949096851
:101AB000086A80470849096888688047082400E068
:101AC0000824034909680C7200F094FF10BD00005F
:101AD00048000020540000204C00002030B50B4688
:101AE000002100BF16E00A24B4EB107F05D9302492
:101AF00004EB107403F8114005E0412404EB10746A
:101B00000A3C03F81140000100254C00641C1D55DF
:101B10004C1CE1B29142E6DB30BD0246002003E0FE
:101B2000002342F82030401C8842F9D3704700005F
:101B30000548817A19B10521044A116002E00121AA
:101B4000024A116070470000EC1000205C01002088
:101B500008B50121052000F0B1FF01210B48FFF776
:101B600011FB4FF40040ADF8000010208DF8030089
:101B700003208DF8020069460548FFF777FA4FF415
:101B800000410348FFF74FFB08BD00000002300092
:101B9000000801402DE9F04104460E461546012794
:101BA0004FF000080020634908702846FFF7C6FB85
:101BB000BAE000F045F9804640F2AD3003F0A2FBF8
:101BC000B8F1000F73D040F24A325BA15BA002F083
:101BD000E5FE00B9A8E040F2AD3003F093FB40F21F
:101BE0004A3258A159A002F0D9FE00B99CE040F257
:101BF000AD3003F087FB40F24A3257A159A002F002
:101C0000CDFE00B990E040F2AD3003F07BFB40F236
:101C10005E3249A156A002F0C1FE00B984E040F254
:101C2000AD3003F06FFB40F2AD3243A157A002F09C
:101C3000B5FE00B978E040F2AD3003F063FB40F24E
:101C40005E323DA155A002F0A9FE00B96CE040F261
:101C5000AD3003F057FB40F25E3237A153A002F0E3
:101C60009DFE00B960E040F2AD3003F04BFB40F266
:101C70005E3231A151A002F091FE00B954E040F271
:101C8000AD3003F03FFB40F25E322BA14FA002F0DB
:101C900085FE00B948E040F2AD3003F033FB40F27E
:101CA0005E3225A14DA002F079FE08B93CE03AE091
:101CB00040F2AD3003F026FB40F25E321EA14BA095
:101CC00002F06CFE00B92FE040F2AD3003F01AFBD9
:101CD0004AA14F48FEF785FA21464D48FEF74EFAD5
:101CE0004CA14B48FEF74AFA31464948FEF746FAFE
:101CF00018A14748FEF742FA40F2AD3246A14448E7
:101D000002F04CFE00B90FE0454800F009F909491E
:101D1000087044480078012800D105E0002740F20F
:101D2000AD3003F0EFFA00BF002F7FF442AFBDE803
:101D3000F0810000240000204F4B000041540D0AA8
:101D400000000000524541445900000041542B431B
:101D500050494E3F0D0A00002B43475245473A2059
:101D6000302C310041542B43475245473F0D0A0068
:101D700041542B434744434F4E543D312C2249504C
:101D8000222C22434D4E4554220D0A0041542B4330
:101D9000474143543D312C310D0A000041542B433F
:101DA0004D4D55583D300D0A0000000041542B4365
:101DB0004D484541443D310D0A00000041542B433C
:101DC0004D53484F5752413D310D0A0041542B436A
:101DD0004D53484F574C413D310D0A0041542B4360
:101DE0004D53484F5750543D310D0A0041542B4339
:101DF0004D4D4F44453D310D0A00000041542B49E3
:101E00005053544152543D22544350222C2200003E
:101E1000020A0020222C0000434F4E4E454354003E
:101E2000C50A00202500002070B504460D46164660
:101E3000FFF78EFE32462946204602F05BFD70BD5C
:101E400070B50025012023490870C1032248FFF71F
:101E5000EAF9002405E040F2551003F053FA601C43
:101E6000C4B2052CF7DB4FF400411B48FFF7DDF946
:101E7000002405E040F2551003F044FA601CC4B29F
:101E8000052CF7DB002420E000250DE01348006856
:101E900020B140F2551003F035FA07E040F255103A
:101EA00003F030FA681CC5B21E2DEFDB00BF1E2DFB
:101EB00009DA0BA10C48FEF76DF908B1012070BDDD
:101EC000002006490860601CC4B2122CDCDB002034
:101ED000F5E7000026000020000801400C0000206B
:101EE00043545A5600000000BF05002070B5044658
:101EF0000D460948FEF760F906463146064802F0ED
:101F00007CF90020054908602946204602F08CFD36
:101F1000142003F0F7F970BDBF0500200C0000206D
:101F2000F0B58FB0054600270020354908701AE04B
:101F3000781CC7B2032133A002F076FD40F2E730EF
:101F400003F0E0F94FF47A722FA130A002F026FDE1
:101F5000012800D109E0032F05DB01202849087082
:101F600000200FB0F0BD032FE2DB00BF322101A83B
:101F700002F043F92848016801A800F01BF9002489
:101F800001E0601CC4B201A8005D3A28F9D1601CD0
:101F9000C4B201E0601CC4B201A8005D2028F9D1E0
:101FA0000026601CC4B206E001A8005DA855601CB4
:101FB000C4B2701CC6B201A8005D2C28F4D1002068
:101FC0002855164800F032F80D4908700846007888
:101FD000012801D10020C4E74FF47A7210A111A0AA
:101FE00002F0DCFC20B90120054908700020B8E7A8
:101FF00029460EA802F0B6F89DF83800B1E70000B7
:10200000250000202B2B2B004353510041542B4320
:1020100053510D0A000000000C000020520A00205D
:102020004F4B000041544F0D0A000000F0B58DB039
:102030000646002700205949087013E0781CC7B2F3
:102040004FF47A7256A157A002F0A8FC012800D1E3
:102050000AE0032F06DB012050490870084600788B
:102060000DB0F0BD032FE9DB00BF3221684602F05E
:10207000C4F84F480168684600F09CF8002401E06D
:10208000601CC4B21DF804002228F9D10025601C90
:10209000C4B20BE01DF804002F2800D10BE01DF89E
:1020A00004007055681CC5B2601CC4B26846FEF7D7
:1020B00083F8A042EED800BF002070550025601CB8
:1020C000C4B20CE01DF804002F2800D10CE01DF86C
:1020D0000410F01C4155681CC5B2601CC4B26846AF
:1020E000FEF76AF8A042EDD800BF0021F01C415570
:1020F0000025601CC4B20CE01DF804002C2800D19F
:102100000CE01DF80410B01D4155681CC5B2601CE0
:10211000C4B26846FEF750F8A042EDD800BF0021D7
:10212000B01D41550025601CC4B20DE01DF804002F
:102130003A2800D10DE01DF8041006F109004155C0
:10214000681CC5B2601CC4B26846FEF735F8A042F0
:10215000ECD800BF002106F1090041550025601CA4
:10216000C4B20DE01DF804003A2800D10DE01DF8BE
:10217000041006F10C004155681CC5B2601CC4B2C5
:102180006846FEF719F8A042ECD800BF002106F11E
:102190000C0041550148007862E70000250000204E
:1021A0004F4B000041542B43434C4B3F0D0A000062
:1021B0000C0000202DE9F04105460E46002403E006
:1021C0000A48005D2855641CB442F9D30020285504
:1021D0000648FDF7F1FF07463946044802F00DF8BE
:1021E000002003490860BDE8F0810000BF05002021
:1021F0000C0000202DE9F84F81460D4616461F467B
:10220000DDF828A04FF00008C34628E02846FDF777
:10221000D3FF014600902846FFF768FE08F1010051
:1022200000F0FF08002412E01E48006848B140F2A8
:10223000551003F067F831461B48FDF7ABFF00B1BE
:1022400007E04FF4167003F05DF8601CC4B2142C64
:10225000EADB00BF142C02DA4FF0010B01E0B845B5
:10226000D4DB00BFBBF1010F0BD15146484601F052
:10227000C4FF0C4801684846FFF79CFF0120BDE8F9
:10228000F88F0AA000F010FA0BA0FFF757F80A2009
:1022900003F038F808A000F09FFA642003F032F849
:1022A0000020ECE70C000020BF05002043617264B1
:1022B0004F66662524240000CDF8C2E7CEDECFECC1
:1022C000D3A6000000BFFEE77047704710B54FF47B
:1022D000A06000F039F810BD70B5002100230F2276
:1022E000C47804B3154C246804F4E064C4F5E064D5
:1022F000210AC1F10403CA40447804FA03F1847846
:102300001440214309010E4C0678A155047804F0CD
:102310001F050124AC4005786D11AD0005F1E025E5
:10232000C5F8004109E0047804F01F050124AC4021
:10233000044D0678761145F8264070BD0CED00E09E
:1023400000E400E080E100E002490143024A11603C
:10235000704700000000FA050CED00E070B50226A1
:1023600047480068447846480068007800F07F00DD
:10237000002844D1092C03D101F01EFE06465FE07F
:10238000052C14D13E480068C0787F280BDC3C48FF
:102390000068807838B93A480068808818B93848A9
:1023A0000068807A08B1082565E0002648E0032C23
:1023B0000ED133480068C078012807D13048006842
:1023C000808818B901F01CFE064639E0022637E085
:1023D000012C35D12A480068C07801280DD1284841
:1023E0000068808848B926480068407A00F02000DC
:1023F00018B101F06DFC064622E0022620E02048DC
:102400000068007800F07F00012805D10B2C17D15F
:1024100001F072FE064613E019480068007800F0EB
:102420007F0002280BD1012C03D101F051FC06469C
:1024300006E0032C04D101F0F7FD064600E0022679
:102440004EB1E0B20F4A1268516988470646032E22
:1024500001D109250FE00EB108250CE00625002169
:102460000948006880B2801C084A42F810103020E9
:102470000749088000BF024909680D7270BD00005D
:10248000480000204C000020505C004000600040EC
:102490005A00002010B511480068047A022C01D0BF
:1024A000042C01D1082412E0032C01D0052C05D105
:1024B000FEF742FA09480068047A08E0072C05D1C3
:1024C00007490968C8688047082400E008240349D0
:1024D00009680C7200F08EFA10BD00004800002060
:1024E0004C00002008B50121082000F0E7FA102078
:1024F000ADF800008DF8030002208DF80200694657
:102500000148FEF7B3FD08BD000C014010B51021D5
:102510000348FEF788FE642002F0F4FE10BD0000C0
:10252000000C014010B5FFF7DDFF10BD10B5102104
:102530000348FEF77AFE642002F0E4FE10BD0000BE
:10254000000C014008B50121042000F0B7FA8020FA
:10255000ADF8000010208DF8030002208DF8020075
:1025600069460248FEF782FD08BD000000080140F0
:1025700010B580210348FEF756FE4FF47A7002F042
:10258000C1FE10BD0008014070B506460C46154658
:10259000FFF7D8FF2A462146304602F061FA294665
:1025A000204602F0EFFA70BD10B580210348FEF717
:1025B0003CFE4FF47A7002F0A5FE10BD0008014009
:1025C00010B502A000F070F810BD00005265616403
:1025D00043617264252424002DE9F04107460C462E
:1025E00016460025A84614E0681CC5B2FFF7E8FFB0
:1025F0003146384600F018F88046B8F1010F00D196
:1026000009E04FF4617002F07DFE4FF4617002F05A
:1026100079FEA542E8DB00BFA54202DA0120BDE851
:10262000F0810020FBE7000070B505460E463146FC
:10263000284601F0E2FD002422E04FF4167002F07B
:1026400061FE1448006818B913480088002815DD99
:1026500012A11348FDF79EFD28B10E4801682846D7
:1026600000F00CF90EE00DA10E48FDF793FD28B126
:1026700009480188284600F0E1F803E0601CC4B274
:102680000A2CDADB00BF0A2C01DA012070BD002021
:10269000FCE70000040000205C000020252424004A
:1026A0007C0100200C17002070B50446204602F083
:1026B000B7FB2046FDF780FD05462946204602F07F
:1026C00023FA70BD70B501202B49087000202B49FA
:1026D0000870002500262AA0FEF730FE40F2AD303B
:1026E00002F010FE2FE0642002F00CFE2AA0FFF79B
:1026F000DBFF681CC5B200241EE02A48006818B938
:1027000029480088002811DD40F2551002F0FAFD3A
:1027100026A12748FDF73EFD20B924A12548FDF755
:1027200039FD18B1642002F0EDFD07E04FF416709A
:1027300002F0E8FD601CC4B2142CDEDB00BF142CD8
:1027400001DA012601E0032DCDDB00BF012E08D107
:102750000020094908700949087017A0FEF7EEFD2E
:1027600008E001200449087017A0FEF7E7FD0120EA
:102770000249087070BD00002700002028000020DA
:10278000CEA2B5E7C4D4C1ACBDD3D6D0A3ACC7EB01
:10279000C9D4B5C8A1AD000048656C6C6F25242470
:1027A00000000000040000205C000020546F6F0057
:1027B0007C0100200C170020B5E7C4D4C1ACBDD308
:1027C000B3C9B9A600000000B5E7C4D4D6D8C6F492
:1027D000D6D0A1AD0000000070B504461248FDF748
:1027E000EBFC06463146104801F007FDFFF79EFE60
:1027F0000EA10D48FDF7F5FC21460B48FDF7BEFC88
:102800000DA10948FDF7BAFC0748FFF74DFF002569
:1028100004E040F2975002F075FD6D1C072DF8DBC7
:10282000FFF774FE70BD0000C90A00205374617286
:102830007450616D25000000252424002DE9F0412D
:1028400005460E46002403E00A48005D2855641C36
:10285000B442F9D3002028550648FDF7ADFC0746E1
:102860003946044801F0C9FC002003490880BDE84E
:10287000F08100000C1700205C0000202DE9F041E1
:1028800005460E46002403E00A48005D2855641CF6
:10289000B442F9D3002028550648FDF78DFC0746C1
:1028A0003946044801F0A9FC002003490860BDE84E
:1028B000F08100007C010020040000202DE9F04799
:1028C00080460E4614461F46DDF820900025AA4695
:1028D00016E04946304600F01DF8681CC5B239467E
:1028E0004046FFF7A1FE8246BAF1010F00D109E090
:1028F0004FF4617002F006FD4FF4617002F002FDCA
:10290000A542E6DB00BFA54202DA0120BDE8F08760
:102910000020FBE770B504460D461848FDF74CFC57
:1029200006463146154801F068FC35B1012D09D045
:10293000022D0CD0032D14D10EE011A10F48FDF78C
:1029400050FC0EE012A10D48FDF74BFC09E014A16C
:102950000A48FDF746FC04E015A10848FDF741FCD4
:1029600000BF00BF21460548FDF708FC15A103483C
:10297000FDF704FC0148FFF797FE70BDC90A00206F
:1029800057726974653434343243617264250000CF
:1029900057726974653434323843617264250000BB
:1029A00057726974656535374361726425000000AC
:1029B0005772697465534335353537436172642501
:1029C0000000000025242400F0B5561C7510074EA9
:1029D00006EB41042B4605E034F8047B20F8017B2C
:1029E000401C5B1E002BF7D1F0BD000000600040D2
:1029F0007047000010B50D4890F82C10002000F032
:102A0000C3FF0B480068007A082805D14002094935
:102A1000088010200849088005480068007A0928C5
:102A200001D1012010BD0020FCE70000D8000020EB
:102A300048000020580000205A00002010B5012056
:102A400002F0B6F801240B48046000200A4908800F
:102A500008460088074908600020091D08604FF4F7
:102A6000E0500549088008460088024908600020B7
:102A700010BD0000405C00405200002029B1064A11
:102A8000D2690243044BDA6104E0034AD26982430B
:102A9000014BDA61704700000010024029B1064A7C
:102AA00012690243044B1A6104E0034A126982432B
:102AB000014B1A61704700000010024029B1064A1C
:102AC00092690243044B9A6104E0034A926982438B
:102AD000014B9A61704700000010024029B1064A7C
:102AE000D2680243044BDA6004E0034AD2688243AE
:102AF000014BDA60704700000010024010B500F092
:102B00002BF801F0F5FB4FF4803000F0E7F800F00F
:102B100049F90446012C1ED1002000F0D3F8A00290
:102B200000F002F9002000F00BF94FF4E01120044E
:102B300000F018F9012000F00FF900BF392000F073
:102B40009BF80028FAD0022000F01AF900BF00F02C
:102B5000B1F80828FBD110BD0F48006840F0010013
:102B60000D490860084640680C4908400A49486019
:102B7000084600680A490840074908600846006896
:102B800020F4802008600846406820F4FE00486079
:102B90004FF41F0088607047001002400000FFF8EB
:102BA000FFFFF6FE30B500210022002400232D4D4A
:102BB0006D6805F00C0121B1042905D0082923D145
:102BC00005E0294D056022E0274D05601FE0254DF9
:102BD0006D6805F47012234D6D6805F4803402258C
:102BE00005EB92421CB9214D554305600BE01D4D8C
:102BF0006D6805F400351DB11C4D5543056002E0BC
:102C0000194D5543056002E0174D056000BF00BF38
:102C1000144D6D6805F0F0010909154D6B5C0568F0
:102C2000DD4045600F4D6D6805F4E061090A104D07
:102C30006B5C4568DD4085600A4D6D6805F4605148
:102C4000C90A0B4D6B5C4568DD40C560054D6D687C
:102C500005F44041890B074D6B5CC568B5FBF3F586
:102C6000056130BD0010024000127A0000093D00ED
:102C7000680100207801002010B5014600220023E1
:102C800000204A11012A02D1094C236806E0022AD9
:102C900002D1074C236A01E0054C636A01F01F0270
:102CA000012494401C400CB1012000E0002010BD24
:102CB000001002400248406800F00C00704700001D
:102CC0000010024001460020034A506820F0F00046
:102CD0000843506070470000001002401149096825
:102CE00021F480310F4A11601146096821F48021D6
:102CF0001160B0F5803F03D0B0F5802F0ED106E013
:102D00000849096841F48031064A116007E0054925
:102D1000096841F4A021034A116000E000BF00BF30
:102D2000704700000010024001460020034A50682E
:102D300020F4E0600843506070470000001002403B
:102D400001460020034A506820F4605040EAC10068
:102D5000506070470010024001490866704700004B
:102D60000000424202460020044B586820F47C10C8
:102D700042EA01031843014B5860704700100240BB
:102D800001460020034A506820F0030008435060C9
:102D900070470000001002400149086070470000C1
:102DA000D800424238B5002000900024002500BF22
:102DB0003120FFF761FF05460098401C0090009805
:102DC000B0F5A06F01D0002DF2D03120FFF754FFF5
:102DD00008B1012400E00024204638BD70B5054646
:102DE000072D01D02E4805702D48007808284ED2B6
:102DF000DFE800F004111A202B384E4F29480068F4
:102E000028B900F053F806202549087002E0052093
:102E10002349087041E000F049F804202049087077
:102E200001202049086038E002201D494870032035
:102E3000087032E01A484078401E19494870084628
:102E4000407808B90420087027E01748006884B269
:102E500044F01004144804600520114908700A2049
:102E600048701AE00E484078401E0D4948700846E8
:102E7000407858B90C48006884B224F010040A481D
:102E800004600620087000200649086005E000BFC5
:102E900000BF06200249087000BF00BF70BD0000DF
:102EA0006101002064010020405C004010B507482B
:102EB000006884B224F0040404480460FEF738FE7D
:102EC0004FF43F400149086010BD0000405C0040E5
:102ED00070B5ADF5547D00250024002600202C4956
:102EE00008702C490870FA2203212B48FFF774FB65
:102EF0000546012D3DD1284A28498EA800F0A6F8A4
:102F00000446012C22D1FA20032325A22349009054
:102F10002448FFF76FF90646012E13D122482149B4
:102F20001D4A1E4B439344924591469040F20B122A
:102F300091A96846FDF7FEF847A88EA90EC900F0D2
:102F4000B7F923E00120134908701FE04CB917A01E
:102F5000FEF7F4F90A2002F0D5F914A0FFF73CFCC3
:102F600014E0022C12D11648FEF70AFA0DF5547D32
:102F700070BD14A0FFF730FC4FF4967002F0C2F958
:102F800010A0FEF7DBF901200149087000BFEDE752
:102F90002800002025000020090C0020FD0D002045
:102FA00025242400F70E0020030D0020CEB4D6AA5D
:102FB000BFA82CC7EBD5FDC8B7B2E5BFA8A3A10039
:102FC000520A0020C7EBC8A1BFA82C33B7D6D6D36E
:102FD000BAF3D4D9B2E5BFA8000000007FB505461A
:102FE0000C4601210820FFF769FD2020ADF8000004
:102FF00048208DF8030003208DF80200694612482E
:10300000FEF734F805210120FEF710F8202001908A
:1030100000208DF808000C208DF8090001208DF8A3
:103020000A0001A8FDF732FF17208DF80C00E8B266
:103030008DF80D00E0B28DF80E0001208DF80F0024
:1030400003A8FFF749F97FBD000C014070B594B0AB
:1030500004460D46164614216846FEF75EFD022121
:10306000204601F0CAF8C821A01C01F0C6F82522AC
:1030700031466846FDF79CFB002231462046009B06
:1030800001F0C4F857A12046FDF79DF8002879D13A
:10309000DDE90003421C3146A01C01F0B7F8142101
:1030A0006846FEF73AFD7C22A11C6846FDF780FBCE
:1030B0000022A11C04F1CA00009B01F0A7F8DDE981
:1030C0000003421CA11C04F1CE0001F09FF8DDE9D1
:1030D0000103421CA11C04F1D70001F097F8DDE9BF
:1030E0000203421CA11C04F1E60001F08FF8DDE9A7
:1030F0000303421CA11C04F1EF0001F087F8DDE995
:103100000403421CA11C04F1F80001F07FF8DDE982
:103110000503421CA11C04F1FB0001F077F8DDE976
:103120000603421CA11C04F2031001F06FF8DDE954
:103130000703421CA11C04F2071001F067F8DDE947
:103140000803421CA11C04F5877001F05FF826A15A
:1031500004F1CA00FDF737F828B124A104F1CA0030
:10316000FDF731F878B922A0FEF7E8F80A2002F05E
:10317000C9F81FA0FFF730FB642002F0C3F802205B
:1031800014B070BD2CE0FA21284601F036F81BA1DE
:103190002846FDF726F81D492846FCF7EFFF1AA13F
:1031A0002846FCF7EBFF04F1E6012846FCF7E6FFB2
:1031B00015A12846FCF7E2FF04F1CE012846FCF7F2
:1031C000DDFF11A12846FCF7D9FF04F1FB012846D9
:1031D000FCF7D4FF0EA12846FCF7D0FF0120CFE773
:1031E0000020CDE731000000323838003239380095
:1031F000C7EBCFC8CBA2B1ED0000000053414E4356
:10320000353535375043494425000000790A002000
:10321000252424000FB470B505464C9E4D9CFA2120
:10322000284600F0EAFF17A12846FCF7DAFF0DF167
:1032300026012846FCF7A2FF16A12846FCF79EFFB0
:103240000DF131012846FCF799FF12A12846FCF741
:1032500095FF0DF142012846FCF790FF012C04D1A7
:103260000DA12846FCF78AFF04E01CB90DA12846F1
:10327000FCF784FF31462846FCF780FF70BC5DF800
:1032800014FB000053414E43353535375265737595
:103290006C74250025000000255375636365737306
:1032A00025242400254661696C25242400000000A3
:1032B0000FB42DE9F04FADF5297D0446F9AD95E841
:1032C000E0014FF003094FF0000A4FF0000B14200B
:1032D00095AB2522394600902046FDF7DBFFF6A18D
:1032E0002046FCF770FF00287ED19598421C394695
:1032F00004F11200969B00F089FF9698421C394613
:1033000004F11D00979B00F081FF9798421C3946FD
:1033100004F12E00989B00F079FF9898421C3946E2
:1033200004F16A00999B00F071FF9998421C39469C
:1033300004F174009A9B00F069FF9A98421C394688
:1033400004F17E009B9B00F061FF9B98421C394674
:1033500004F188009C9B00F059FF9C98421C394660
:1033600004F18D009D9B00F051FF9D98421C394651
:1033700004F192009E9B00F049FFFA21404600F0C4
:103380003CFF0DF2BB314046FCF72BFFCDA1404680
:10339000FCF7F4FE04F192014046FCF7EFFEC9A1F0
:1033A0004046FCF7EBFEF1A94046FCF7E7FEC5A15D
:1033B0004046FCF7E3FE0DF2CF314046FCF7DEFE5F
:1033C000C0A14046FCF7DAFE04F188014046FCF754
:1033D000D5FEBCA14046FCF7D1FE04F18D0140466C
:1033E000FCF7CCFEB7A100E0ACE04046FCF7C6FE1F
:1033F00004F16A014046FCF7C1FEB2A14046FCF769
:10340000BDFE04F174014046FCF7B8FEADA1404694
:10341000FCF7B4FE04F17E014046FCF7AFFEA9A123
:103420004046FCF7ABFEFA23032241463046CDF876
:103430000090FFF743FA8246BAF1010F78D11420C9
:1034400095AB25223146009094A8FDF723FF9EA15D
:1034500094A8FCF7B8FE002841D1012094A940F2BD
:103460000F124491459004F10C016846FCF762FE8E
:1034700040F21B12214646A8FCF75CFE284646A9EE
:103480000EC9FFF7C7FEFA20032390A22946009039
:103490003846FEF7AFFE8346BBF1010F0ED18CA17B
:1034A0003846FCF790FE20B18EA13846FCF772FE3C
:1034B00028B1002104F19200FDF7E2FFD3E18EA1D3
:1034C0003846FCF780FE0028F8D190A0FDF736FFC3
:1034D0000A2001F017FF8DA0FFF77EF9C3E191A04C
:1034E000FDF72CFF0A2001F00DFF8EA0FFF774F905
:1034F000002094A940F20F124491459004F10C0170
:103500006846FCF717FE40F21B12214646A8FCF75E
:1035100011FE284646A90EC9FFF77CFE2846FCF797
:103520004BFE01468C902846FEF7E0FC9BE1FFE74E
:103530007CA0FDF703FF0A2001F0E4FE79A0FFF76D
:103540004BF990E17DA12046FCF73DFE002876D1A5
:103550009598421C394604F11200969B00F056FEE5
:103560009698421C394604F11D00979B00F04EFED0
:103570009798421C394604F19C00989B00F046FE47
:103580009898421C394604F1AD00999B00F03EFE2C
:103590009998421C394604F1E9009A9B00F036FEE6
:1035A0009A98421C394604F207109B9B00F02EFEAD
:1035B0009B98421C394604F211109C9B00F026FE99
:1035C00004F19C008D9011308E903C308F901E3015
:1035D0008DA9C8600A30086101218DA8416104F1FC
:1035E000AD00FCF7E9FD122802D90120939001E01B
:1035F0000020939091A807C88DE807008DA80FC8F8
:10360000FDF7BAFF52A0FFF7E7F840F2FF3001F0F4
:1036100079FE40F2FF3001F075FE40F2FF3001F01C
:1036200071FE40F2FF3001F06DFE40F2FF3001F01C
:1036300069FE40F2FF3001F065FE14E1FFE74FA1A3
:103640002046FCF7C0FD48B950A0FDF777FE0A20E0
:1036500001F058FE4DA0FFF7BFF804E151A120464C
:10366000FCF7B1FD48B953A0FDF768FE0A2001F050
:1036700049FE50A0FFF7B0F8F5E053A12046FCF753
:10368000A2FD48B94BA0FDF759FE0A2001F03AFE11
:1036900048A0FFF7A1F8E6E04FA12046FCF793FD14
:1036A00048B951A0FDF74AFE0A2001F02BFE4EA0BA
:1036B000FFF792F8D7E0A3E053433535353755533C
:1036C000455250007C000000310000004F4B0000CC
:1036D0007570646174656F7264657273746174652A
:1036E0004F4B320070646174656F726465727374FD
:1036F0006174654F4B3200007570646174656F7260
:1037000064657273746174654F4B3100BDBBD2D771
:10371000B9D8B1D5A3ACC7EBD3AAD2B5CCFCB0EC29
:10372000C0ED0000B3E4D6B5CAA7B0DCA3ACC7EBCC
:10373000D6D8D0C2CBA2BFA8000000005343353575
:1037400035375553455250636865636B0000000080
:10375000CEA2D0C5BDC9B7D1BAF3C7EBBDABBFA828
:10376000C8A1B3F6A3ACD6D8D0C2B2E5C8EBCDEAB7
:10377000B3C9D0B4BFA8B2D9D7F700005343353589
:10378000353755534552506572723000CEB4D6AAC3
:10379000D3C3BBA7A3ACC7EBD3AAD2B5CCFCB0ECC8
:1037A000C0ED000053414E433535353750657272D8
:1037B00031000000C7EBCEA2D0C5D6A7B8B6BAF389
:1037C000D4D9CBA2BFA80000534335353537555364
:1037D000455250657272320053414E43353535378C
:1037E0006572723300000000CEDED0A7BFA8A3AC84
:1037F000C7EBD3AAD2B5CCFCB0ECC0ED0000000002
:103800001CA12046FCF7DFFC58B9AFF20010FDF711
:1038100095FD0A2001F076FDAFF21010FEF7DCFFF7
:1038200021E019A12046FCF7CEFC48B91AA0FDF70B
:1038300085FD0A2001F066FD17A0FEF7CDFF12E01E
:1038400019A12046FCF7BFFC48B91AA0FDF776FD88
:103850000A2001F057FD17A0FEF7BEFF03E018A1F4
:103860002046FCF7B0FC0DF5297DBDE8F00F5DF8B2
:1038700014FB0000534335353537555345525065D9
:1038800072723132000000005765627365727669AA
:1038900063654572726F0000CDF8C2E7B7FECEF1E6
:1038A000CEB4BFAAC6F400005765624E6F416E7376
:1038B00077657200CDF8C2E7CEDECFECD3A600006C
:1038C00053414E43353535375043494400000000DD
:1038D00010B50948006805280CD10848016800683F
:1038E000401C064A1060052904D1002011460860DA
:1038F000FDF7CEF910BD00005C0100208000002023
:10390000704700004FF6F8710140014A116070479E
:10391000505C004030B501460F4B1A78002014E08F
:1039200003060E4C04EB9353D3F8003C48F68F7417
:10393000234048F280042343C4B223430406074DC6
:1039400005EB9454C4F8003C401C9042E8D341F08D
:103950008003034C236030BDD400002000500040A1
:103960004C5C004010B54A105300054A126892B2F0
:1039700002EBC002121D034C44F8123010BD0000CF
:10398000505C00400060004010B502460F480068DF
:1039900080B200EBC200801D0D4C04EB40033E29B9
:1039A0000BDD481101F01F040CB9441EA0B24FF406
:1039B000004444EA80241C6007E0481001F0010440
:1039C0000CB1441CA0B284021C6010BD505C0040CD
:1039D0000060004030B50E4C04EB8003D3F8003C8F
:1039E0004BF68F7403EA040201F480530BB182F4A6
:1039F000805201F400530BB182F4005242F40043B0
:103A000043F08003024D05EB8004C4F8003C30BD58
:103A10000050004010B50B4B03EB8002D2F8002C95
:103A20004BF68F7302EA030181F4805181F4005157
:103A300041F4004242F08002024C04EB8003C3F8E0
:103A4000002C10BD0050004010B54A105200044B2D
:103A50001B689BB203EBC003024C44F8132010BD5B
:103A6000505C004000600040044A126892B202EBD1
:103A7000C002921C024B43F812107047505C004089
:103A80000060004030B50E4C04EB8003D3F8003CDE
:103A900048F6BF7403EA040201F010030BB182F090
:103AA000100201F020030BB182F0200242F4004327
:103AB00043F08003024D05EB8004C4F8003C30BDA8
:103AC0000050004010B50B4B03EB8002D2F8002CE5
:103AD00048F6BF7302EA030181F0100181F0200172
:103AE00041F4004242F08002024C04EB8003C3F830
:103AF000002C10BD0050004010B5074B03EB8002B6
:103B0000D2F8002C48F68F131A400A43024C04EBFB
:103B10008003C3F8002C10BD0050004010B500F029
:103B200001F810BD0CB500200190009033480068EA
:103B300040F480303149086000BF3048006800F42C
:103B4000003000900198401C0190009818B901982D
:103B5000B0F5A06FF1D12948006800F4003010B131
:103B60000120009001E0002000900098012843D13E
:103B70002348006840F010002149086008460068AA
:103B800020F0030008600846006840F0020008606A
:103B90001A48406819494860084640684860084625
:103BA000406840F4806048600846406820F47C101B
:103BB00048600846406840F4E810486008460068DD
:103BC00040F08070086000BF0C48006800F0007092
:103BD0000028F9D00948406820F0030007494860F0
:103BE0000846406840F00200486000BF0348406853
:103BF00000F00C000828F9D10CBD000000100240B4
:103C00000020024010B50020FFF7C6F80121C805CA
:103C1000FEF734FF10BD000038B5012429480068C4
:103C200080B2001D284931F8100080B201EB40003D
:103C3000009026480068007A092832D00098007861
:103C40002249096808700098401C0090009800788C
:103C50001E49096848700098401C0090009800EBCD
:103C600044000090009931F8020B0091FCF756FCDB
:103C7000164909684880009800EB440000900099BC
:103C800031F8020B0091FCF749FC10490968888063
:103C9000009800EB44000090009800880B490968E8
:103CA000C880012009490968087208480068C0886E
:103CB00010B9FEF753FB01E0FCF79CFEFEF79AFEFD
:103CC00038BD0000505C004000600040480000200B
:103CD0002DE9F04754480068007800F07F08B8F1FB
:103CE000000F0AD150480068407A00F0DF004E49CA
:103CF000096848720020BDE8F087B8F1020F7CD156
:103D000049480068408818B947480068007908B1F8
:103D10000220F0E7DFF8149143480068477927F064
:103D200080052C4640480068407900F0800038B19A
:103D30003F4901EB8400D0F8000C00F0300606E0AB
:103D40003B4901EB8400D0F8000C00F4405699F890
:103D50000000A84204D91EB133480068807A08B92F
:103D60000220C8E707F0800080B1314901EB8400F0
:103D7000D0F8000C00F0300010284BD1E0B2FCF776
:103D80004DFDE0B23021FFF77DFE43E0284901EB15
:103D90008400D0F8000C00F44050B0F5805F39D1B9
:103DA000E4B9244A92F82C10E0B2FFF7EDFD204A66
:103DB00002EB8401D1F8001C4BF68F7201EA02007D
:103DC00080F4805080F4005040F4004141F08001C4
:103DD000174B03EB8402C2F8001C1BE0E0B2FCF7B7
:103DE00003FD134A02EB8401D1F8001C4BF68F72DD
:103DF00001EA020080F4805000E011E080F40050FD
:103E000040F4004141F08001094B03EB8402C2F809
:103E1000001C00BF084909684869804700206AE71C
:103E200000BF022067E7000048000020D400002007
:103E300000500040D80000205400002010B5044677
:103E40002CB90120064909680882002010BD0549E7
:103E5000096808688047024800680A30F6E70000F1
:103E6000480000205400002010B5024606480068B3
:103E7000438A32B98888C01A034C24682082002003
:103E800010BD08681844FBE74800002010B5044640
:103E90002CB90120064909680882002010BD054997
:103EA000096888688047024800680C30F6E700001F
:103EB000480000205400002010B504462CB9022010
:103EC000394909680882002010BD00203749088060
:103ED00035480068007800F07F0018BB3249096857
:103EE000487A00F0200131B13049097841F00201EF
:103EF0002E4A117005E02D49097801F0FD012B4A89
:103F0000117000F0400131B12849097841F00101F8
:103F1000264A117005E02549097801F0FE01234A7F
:103F200011703AE020480068007800F07F00012816
:103F300001D11E48C8E71C480068007800F07F00E7
:103F4000022828D1184A1268517901F00F0001F0B7
:103F500080027AB1164B03EB8002D2F8002C02F0FB
:103F60003002102A16D1114A127842F001020F4B8A
:103F70001A700FE00E4B03EB8002D2F8002C02F413
:103F80004052B2F5805F05D1084A127842F0010232
:103F9000064B1A7001E0002096E706490968086997
:103FA0008047024890E700004800002040000020C1
:103FB000005000405400002010B50E480068C07842
:103FC0000D494978884213DC0A480068807878B93E
:103FD00008480068808858B906480068C0780549D4
:103FE000096888720549096848688047002010BD43
:103FF0000220FCE748000020D400002054000020EC
:1040000010B507480068407A40F02000044909686C
:10401000487204490968C8698047002010BD000043
:1040200048000020540000202DE9F0412E4800688F
:10403000467926F080073C462B480068407900F01E
:10404000800038B1294901EB8400D0F8000C00F061
:10405000300506E0254901EB8400D0F8000C00F49F
:10406000405523480078A04208D91F48006840887E
:1040700020B91DB11C480068807A10B90220BDE843
:10408000F08106F08000A0B1184A02EB8401D1F85B
:10409000001C48F6BF7201EA020080F0100040F4F4
:1040A000004141F08001114B03EB8402C2F8001C77
:1040B00014E00E4A02EB8401D1F8001C4BF68F721B
:1040C00001EA020080F4805040F4004141F0800198
:1040D000064B03EB8402C2F8001C00BF05490968C7
:1040E000886980470020CAE748000020005000404F
:1040F000D40000205400002010B5174B1B68D9785D
:10410000154B1B685879154B1B689A6990470446F4
:1041100011480068807AE8B13CB90F48006800791E
:1041200018B90D480068807808B1022010BD8CB91C
:104130000B490968C8688047074800684079064904
:104140000968C87204480068C078034909680873A0
:104150000020EBE70220E9E7480000204C000020A7
:10416000540000202DE9F0470646894699F8007072
:1041700099F80180202F04D1B8F1200F01D100203F
:104180003070202F0CD1B8F1200F09D04046FBF73A
:10419000CBFF3038C5B2092D01DDE81FC5B235703F
:1041A000B8F1200F0BD1202F09D03846FBF7BCFF08
:1041B0003038C4B2092C01DDE01FC4B23470B8F14C
:1041C000200F18D0202F16D03846FBF7ADFF30381F
:1041D000C4B2092C01DDE01FC4B24046FBF7A4FFC6
:1041E0003038C5B2092D01DDE81FC5B204EB8400EB
:1041F00005EB40003070BDE8F0870246002002E089
:1042000000231354401C8842FAD3704770B504460B
:104210009D1A002003E086188E5D2654401CA8429B
:10422000F9D30026265470BD38B500250020009033
:104230002148006884B200BF09E0204901EB8500F5
:10424000D0F8000C80B21E4941F825006D1C082DE5
:10425000F3D344F480641848046044F0010404601B
:1042600024F00104046000BF1348001D006800F43E
:1042700080600028F8D04FF6FF300F49091D086014
:10428000002509E00E4850F8250080B20B4A02EBE9
:104290008501C1F8000C6D1C082DF3D344F008040F
:1042A00005480460006884B244F0040402480460D5
:1042B000FCF736FE38BD0000405C00400050004076
:1042C0004C190020042808D14FF0E021096941F081
:1042D00004014FF0E022116107E04FF0E02109698D
:1042E00021F004014FF0E022116170477047000097
:1042F00010B51348006840F00100114908600846F5
:104300004068104908400E494860084600680E4958
:1043100008400B4908600846006820F480200860C7
:104320000846406820F4FE0048604FF41F00886093
:10433000FFF7F4FB4FF000600449086010BD000077
:10434000001002400000FFF8FFFFF6FE08ED00E05D
:1043500010B500210F4800F026F801210D4800F0AB
:104360002EF818B101210B4800F01AF80A4800682D
:10437000401C0949086008460068B0F5167F04D360
:10438000002008600120054908600121014800F073
:104390000AF810BD000400402C000020340000206A
:1043A000CA430282704721B1028842F001020280B2
:1043B00004E002884FF6FE731A400280704730B561
:1043C0000246002000230024158A05EA010395898E
:1043D00005EA010413B10CB1012000E0002030BD5A
:1043E0002DE9FF4104460D4616461F4601210220D5
:1043F000FEF744FB01211548FFF7D2FFADF8084056
:10440000ADF804500020ADF80A00ADF8060001A98F
:104410000E4800F027F801210C48FFF7C4FF0122E5
:1044200011460A4800F014F81D208DF80000F0B283
:104430008DF80100F8B28DF8020001208DF803001C
:104440006846FDF749FFBDE8FF8100000004004019
:104450001AB183890B43838102E083898B43838173
:1044600070470000002202881D4B98420ED01D4B61
:1044700098420BD0B0F1804F08D01B4B984205D02A
:104480001A4B984202D01A4B984204D14FF68F73C0
:104490001A404B881A43174B984207D0164B984244
:1044A00004D04FF6FF431A40CB881A4302808B8812
:1044B00083850B8803850A4B98420BD0094B9842A1
:1044C00008D00E4B984205D00D4B984202D00D4BB0
:1044D000984201D10B7A0386012383827047000042
:1044E000002C01400034014000040040000800405E
:1044F000000C00400010004000140040004001404B
:10450000004401400048014010B50821174800F060
:10451000DDF818B10821154800F066F8002240F2D5
:104520002551124800F054F91048008800F00F009F
:1045300020B10E48001D0088C4B20FE00B4800886F
:1045400000F0200050B10948001D0088C4B208499D
:104550000868411C064A116006490C54012240F2C9
:104560002551024800F034F910BD00000038014028
:104570000C000020BF05002010B50821174800F0EE
:10458000A5F818B10821154800F02EF8002240F2D5
:104590002551124800F01CF91048008800F00F0067
:1045A00020B10E48001D0088C4B20FE00B480088FF
:1045B00000F0200050B10948001D0088C4B208492D
:1045C0000868411C064A116006490C54012240F259
:1045D0002551024800F0FCF810BD000000440040E6
:1045E000040000207C01002001F40072B2F5007F7D
:1045F00000D100BFCA430280704721B1828942F4D2
:104600000052828104E082894DF6FF731A40828154
:104610007047000000200449A1F80204A1F800043A
:104620000249088001207047081100205C0000202A
:1046300010B504462048844209D101218803FEF7C1
:104640004DFA00214FF48040FEF748FA32E01B4853
:10465000844209D101214804FEF720FA00214FF4D9
:104660000030FEF71BFA25E01548844209D10121EC
:104670008804FEF713FA00214FF48020FEF70EFAAB
:1046800018E01048844209D10121C804FEF706FA57
:1046900000214FF40020FEF701FA0BE00A488442A3
:1046A00008D101210805FEF7F9F900214FF4801027
:1046B000FEF7F4F910BD000000380140004400404E
:1046C00000480040004C00400050004002460020DE
:1046D000B1F5007F00D100BF13880B400BB1012062
:1046E00000E000207047000010B586B004460121AC
:1046F0000820FEF7E3F901218804FEF7BFF9194805
:10470000FFF796FF4FF48060ADF8140003208DF89A
:10471000160018208DF8170005A91348FCF7A6FC11
:104720004FF40060ADF8140004208DF8170005A9BF
:104730000D48FCF79BFC01940020ADF80800ADF893
:104740000A00ADF80C00ADF810000C20ADF80E001A
:1047500001A9044800F062F801210248FFF74DFF6B
:1047600006B010BD00480040000C014070B5044682
:104770000D4600260FE05CB12146094800F0F8F92B
:1047800000BF80210648FFF7A1FF0028F9D000E014
:1047900070BD701CC6B2AE42EDDB00BFF8E7000092
:1047A0000048004010B504460BE02178074800F0AF
:1047B000DFF900BF80210548FFF788FF0028F9D006
:1047C000641C20780028F0D110BD00000048004093
:1047D000F0B50346002400260025002040F66A17A5
:1047E000B94200D100BF1846C1F3421401F01F06C0
:1047F000012707FA06F5012C01D10C3004E0022C48
:1048000001D1103000E014301AB107682F4307605F
:1048100002E00768AF430760F0BD00002DE9F047F4
:1048200086B005460E460024A24600BFA1460027DA
:10483000B08900B100BF2F462C8A4CF6FF700440AF
:10484000F08804432C82AC894EF6F3100440B08803
:1048500031890843718908430443AC81AC8A4FF61F
:10486000FF400440B0890443AC8201A8FEF79AF9E6
:104870001F48874202D1DDF810A001E0DDF80CA04E
:10488000A88900F4004040B10AEBCA0000EB0A100E
:1048900031684900B0FBF1F807E00AEBCA0000EB11
:1048A0000A1031688900B0FBF1F86420B8FBF0F021
:1048B00004012009642101FB1089A88900F400404B
:1048C00040B1322000EBC900B0FBF1F000F007006E
:1048D000044308E0322000EB09106421B0FBF1F042
:1048E00000F00F0004432C8106B0BDE8F087000003
:1048F0000038014070B586B006460C4615460121C9
:1049000044F20500FEF7DAF84FF40070ADF8140039
:1049100018208DF8170003208DF8160005A91D48F2
:10492000FCF7A4FB4FF48060ADF8140004208DF870
:10493000170005A91748FCF799FB01960020ADF870
:104940000800ADF80A00ADF80C00ADF810000C201E
:10495000ADF80E0025208DF80000E0B28DF80100C2
:10496000E8B28DF8020001208DF803006846FDF7DB
:10497000B3FC01A90848FFF751FF012240F225517D
:104980000548FFF725FF01210348FFF736FE06B073
:1049900070BD000000080140003801402DE9F047DB
:1049A0000746884614464FF03109002534E01C487C
:1049B000FBF702FC824651461948FFF71EFC002017
:1049C000184908603846FBF7F7FB824651463846DF
:1049D00000F02AF8A0B200F095FC002619E011487A
:1049E000006888B140F2AD3000F08CFC41460C48C4
:1049F000FBF7D0FB28B1C82000F084FC0120BDE803
:104A0000F08700200749086040F2551000F07AFC5A
:104A1000761C142EE3DB6D1C4D45C8DB0020EEE751
:104A2000BF0500200C00002070B504460D46402153
:104A30000A48FFF7D9FD00260CE014F8011B0748CF
:104A400000F096F800BF40210448FFF73FFE002821
:104A5000F9D0761CAE42F0D370BD000000380140A2
:104A600070B586B006460C46154601210420FEF7B7
:104A700025F801214804FEF701F80420ADF81400E0
:104A800018208DF8170003208DF8160005A91C4882
:104A9000FCF7ECFA0820ADF8140004208DF817009C
:104AA00005A91748FCF7E2FA01960020ADF80800C6
:104AB000ADF80A00ADF80C00ADF810000C20ADF810
:104AC0000E0001A90F48FFF7A9FE01210D48FFF7CD
:104AD00094FD012240F225510A48FFF779FE262075
:104AE0008DF80000E0B28DF80100E8B28DF8020008
:104AF00001208DF803006846FDF7EEFB06B070BD9F
:104B0000000801400044004070B504460D460848C6
:104B1000FBF752FB064631460548FFF76EFB0020C7
:104B2000044908602946204600F006F870BD0000E0
:104B30007C0100200400002070B504460D46402191
:104B40000A48FFF751FD00260CE014F8011B074846
:104B500000F00EF800BF40210448FFF7B7FD002821
:104B6000F9D0761CAE42F0D370BD00000044004086
:104B7000C1F308028280704710B54FF48020FCF723
:104B80006BF910BD70B504460D46002000F05EF9CB
:104B90004FF42F7000F0B6FB012000F057F9FFF73B
:104BA00031F82946204600F023F800F003F870BDE4
:104BB0007047000010B508480849086002200968DD
:104BC000087207480749086007480849086005490E
:104BD00009680868804710BDEC10002048000020DC
:104BE000D80000204C0000200801002054000020C4
:104BF0003EB505460C464FF48020FCF72DF94FF4E6
:104C00008020009008208DF8050001208DF8060016
:104C10006846FCF73BF914208DF80800E8B28DF8DF
:104C20000900E0B28DF80A0001208DF80B0002A8FF
:104C3000FDF752FB2A208DF8080000208DF80900AE
:104C400002A8FDF749FB3EBD10B588B000246948B5
:104C50000068694908800846008800F400706749C8
:104C60000988084050B14FF6FF5062490860644817
:104C70000078401C62490870FEF72AFE5E480088F2
:104C800000F400405D490988084008B1FBF74CFC7E
:104C90005948008800F4806058490988084030B1BC
:104CA0004FF6FF30534908605649486880475248DC
:104CB000008800F4005051490988084018B14DF6A9
:104CC000FF704C4908604C48008800F480504B4904
:104CD0000988084030B14EF6FF7046490860002050
:104CE000FEF77CF84448008800F4006043490988D6
:104CF000084060B14448007810B1FFF795FA02E02F
:104D00000220FEF76BF84FF2FF703A4908603A480C
:104D1000008800F48070394909880840002866D06E
:104D20004FF6FF6033490860081D006800F400403A
:104D3000002856D035480068401C344908600846B1
:104D40000068032850D92B48001F006800F00800B5
:104D5000002849D12748001F006880B22C4908600C
:104D6000002408E02B4901EB8400D0F8000C80B24D
:104D70004DF82400641C082CF4D32548006840F04A
:104D80000100234908600846006880B21949091FDC
:104D900008601F48006820F001001D4908600846AF
:104DA000006880B21349091F086000BF11480068FD
:104DB00000F480600028F9D04FF6FF300D490860FC
:104DC000002408E05DF8240080B2124A02EB84015E
:104DD000C1F8000C641C082CF4D300200B490860B7
:104DE00002E00020094908600720FDF7F7FF08B03E
:104DF00010BD0000445C00408400002052000020F0
:104E000086000020D80000206001002088000020DB
:104E10008C0000200050004010B5FFF715FF10BDBA
:104E200070B504460748FBF7C7F90546294605480B
:104E3000FFF7E3F9002004490880204600F0B6F8A7
:104E400070BD00000C1700205C00002010B5044667
:104E500001210420FDF732FE3CB10F48006880B20A
:104E600020F002000C49086014E00B48006880B292
:104E700040F00200084908600848006820F47F20DC
:104E8000064908600846006840F44C30086000207D
:104E90000349086010BD0000405C00400408014068
:104EA000B00121420020064908604FF43F40054907
:104EB0000880084600880249091F086000207047E2
:104EC000445C0040520000202DE9F04104460E46AB
:104ED000002504F07F00FCF7BBF9054604F07F00D5
:104EE000FCF7A6F907462A4639463046FDF76CFD21
:104EF0002846BDE8F081000030B503460A4600218F
:104F000034E0585C1B4C248804F4004464BB194C06
:104F1000248804F4804464B10A2803D00024154D89
:104F20002C8021E0134C248844F40044114D2C8043
:104F30001AE00D2806D10F4C248844F480440D4D0E
:104F40002C8011E00B4C2488C4F30D040A4D285525
:104F5000084C2488641C074D2C802C462488B4F50A
:104F6000007F01DB00242C804C1CE1B29142C8DBA5
:104F700030BD00005C0000200C1700200A49B1F889
:104F80000014094A50541146B1F80014491CA2F803
:104F900000141146B1F80014B1F5806F02D1002160
:104FA000A2F80014704700000811002070B50546F3
:104FB0002846FBF701F986B2002404E0285DFFF7DC
:104FC000DDFF601C84B2B442F8DB70BD00BFFEE7B9
:104FD000F0B5144604F1010C4FEA6C07DFF824C069
:104FE0000CEB41033D460AE00678401C90F800C0F7
:104FF00046EA0C2223F8022B9B1C401C6D1E002D40
:10500000F2D1F0BD0060004070B504460025212CAF
:1050100008D112480068007800F07F0021280ED1E6
:105020000F4D0CE0202C0AD10C480068007800F0ED
:105030007F00212800D10B4D20200B4908700DB9AD
:10504000022070BD054800688561002103480068A2
:1050500041820020A8470020F3E70000480000201C
:105060009550000825520008C800002010B50446DD
:1050700002492046FEF7F8FE10BD00003401002072
:1050800010B5044602492046FEF7EEFE10BD0000B2
:105090002C010020014629B90820034A1268108219
:1050A000002070470148FCE748000020CC000020A9
:1050B00070B5054606480068C478042C01DD002060
:1050C00070BD044800EBC4012846FEF7CDFEF7E7AB
:1050D000480000203C0100200246002901DD02209A
:1050E0007047012A01DD0220FAE70020F8E70000FE
:1050F000014608480068007800F07F00212807D1A9
:10510000022901D100207047222901D10020FAE7AD
:105110000220F8E74800002010B500203449096853
:1051200088723448C0793249096848720020304991
:105130000968C872FEF7E6FB4FF400710020FEF725
:10514000DBFC10210020FEF79DFC40210020FEF733
:1051500009FC80210020FEF777FC0020FBF778FB9C
:10516000254890F82C100020FEF70EFC0020FEF7DA
:1051700051FC00210120FEF7BFFCC0210120FEF7F9
:1051800063FC20210120FEF77DFC00210120FEF7B9
:1051900021FC4FF4C0610220FEF7AEFC4FF4807199
:1051A0000220FEF751FC00210220FEF713FC202113
:1051B0000220FEF767FC00210320FEF79DFC4FF460
:1051C00088710320FEF7CEFB40210320FEF7DCFBB5
:1051D0004FF440510320FEF7FDFB00210320FEF7B2
:1051E00051FC0020FEF796FB01200449086010BD29
:1051F0004800002096540008D80000205C010020E0
:105200000348817A11B10521024A116070470000FC
:10521000EC1000205C010020042001490860704768
:105220005C010020014629B90820034A1268108257
:10523000002070470148FCE748000020CC00002017
:1052400010B505480078202804D1FFF7E3F90020C5
:105250000149087010BD0000C80000207047000020
:1052600010B5FCF731F80020054909688872FDF790
:10527000E5FBFFF717FE00200249086010BD0000A3
:10528000480000205C0100200448006800F0010094
:105290000249086008B1002008607047082C0040EF
:1052A00002E008C8121F08C1002AFAD170477047EF
:1052B000002001E001C1121F002AFBD1704700004D
:1052C00010B56FF00400FEF7FDFF0A4800680A49B8
:1052D000B0FBF1F0094908700846007800EB400186
:1052E000C1EBC0104FF6FF7101EAC000044908800D
:1052F00010BD00001000002000127A000000002005
:10530000020000200146114A12884A434FF0E02370
:105310005A6100229A611A46126942F001021A612A
:1053200000BF4FF0E022106900F001021AB100F452
:105330008032002AF5D04FF0E022126922F00102FB
:105340004FF0E0231A6100229A61704702000020AA
:105350000146114A12784A434FF0E0235A61002275
:105360009A611A46126942F001021A6100BF4FF0B9
:10537000E022106900F001021AB100F48032002A24
:10538000F5D04FF0E022126922F001024FF0E02345
:105390001A6100229A61704700000020FBF764F850
:1053A00059E02D480068012810D100212B48FEF754
:1053B000FAFF00202A49086027490860FCF778F9BD
:1053C000FDF786FD01212548FEF7EDFF2548006821
:1053D00025480078012823D100212048FEF7E3FF6B
:1053E00000201F49086020490870FDF7C1F840F20D
:1053F000AD30FFF787FFFDF7D7F8002405E040F256
:10540000AD30FFF77FFF601CC4B2B42CF7DBFDF7B3
:1054100059F91648FBF7B4FF01211048FEF7C3FF06
:1054200013480078012816D100210C48FEF7BBFF75
:1054300000200B4908600E4908700EA20B4921316B
:10544000A1F11200FCF7A6FB0848FBF799FF012128
:105450000248FEF7A8FFA4E73C000020000400403B
:105460002C0000203400002028000020520A0020D8
:1054700025000020CDF8C2E7C1ACBDD3D6D02E2E7A
:105480002E00000012010002020000408304405779
:1054900000020102030109024300020100C03209B7
:1054A000040000010202010005240010010524018E
:1054B00000010424020205240600010705820308F6
:1054C00000FF09040100020A000000070503024072
:1054D000000007058102400000040309042603536D
:1054E0000054004D006900630072006F0065006C9D
:1054F0000065006300740072006F006E0069006355
:105500000073003203530054004D0033003200207A
:10551000005600690072007400750061006C002084
:105520000043004F004D00200050006F00720074D7
:105530000020002000000000313931325732303075
:1055400078782538393836303431313130313835A2
:10555000303037383634322556332E312556312EF9
:1055600039253132312E3139362E3138312E313024
:1055700033253033333036257868327871576645B5
:10558000596A6F647253504B39306A5525000000D8
:10559000B0550008000000207C010000180200083F
:1055A0004C5600087C010020F41B0000B05200089B
:1055B000011184A24A04100A010203040607080923
:1055C0000A033C0101141A03531254124D12330200
:1055D000213213910C0C1C08CB22040B10210D144A
:1055E000512AC2A712081A0407136152140819514C
:1055F0001B0841081A5D041309501B08F1041AD94D
:10560000041A81041A6D041AB10441324029441A63
:1056100001280916741A191C1384543308121A9697
:105620000832431AD90832041ADD0832261303550A
:105630002A08E2226473201A2992812D01020304B0
:0C5640000400090006070809020406081F
:04000005080000ED02
:00000001FF
